:100000000C94CD000C94EE000C94EE000C94EE00D9
:100010000C94EE000C94EE000C94EE000C94EE00A8
:100020000C94EE000C94EE000C9496140C94EE00DC
:100030000C94EE000C94CA140C94EE000C94FF1C6B
:100040000C94EE000C94EE000C94EE000C94EE0078
:100050000C94EE000C94EE000C94EE000C94EE0068
:100060000C94EE000C94371C0C94EE000C94EE00F3
:100070000C94EE000C943E1E0C94EE000C94EE00DA
:100080000C9484300C949A300C94EE000C94ED2F68
:100090000C94EE000C94EE000C94EE000C94EE0028
:1000A0000C94EE000C94EE000C94C12F0C94D72FFE
:1000B0000C94EE000C94202F0C94EE000C94EE00A7
:1000C0000C94EE000C94EE000C94EE000C94EE00F8
:1000D0000C94EE000C94EE000C94EE000C94EE00E8
:1000E0000C94EE00BC17A7177E1763173E1708176E
:1000F000DA161E17A7168B162B162B162B162B1679
:100100002B162B167F1674162B162B162B162B164A
:100110002B162B162B162B162B162B162B162B16D7
:10012000A7167E1768165B162B162B162B162B168A
:100130002B162B162B162B162B162B162B162B16B7
:100140003E17DA162B162B16BC1708174B16084A43
:10015000D73B3BCE016E84BCBFFDC12F3D6C7431DB
:100160009ABD56833DDA3D00C77F11BED9E4BB4C32
:100170003E916BAAAABE000000803F05A84CCDB2FC
:10018000D44EB93836A9020C50B9918688083CA6DD
:10019000AAAA2ABE000000803F0011241FBECFEF94
:1001A000D1E2DEBFCDBF00E00CBF12E0A0E0B2E0C4
:1001B000E2EFF8EB00E00BBF02C007900D92AA310E
:1001C000B107D9F71BE0AAE1B2E001C01D92AD373B
:1001D000B107E1F70E94F0000C94775C0C940000EA
:1001E0002F923F924F925F926F927F928F929F9247
:1001F000AF92BF92CF92DF92EF92FF920F931F9335
:10020000DF93CF9300D000D0CDB7DEB70E94531D4F
:100210000E94DF420E94091D9B01AC0160936404AF
:100220003093650440936604509367041092680409
:100230001092690410926A0410926B040E94091DC6
:100240007B018C010E94091D6E197F09800B910BA7
:1002500065547B4080409040A8F30E9406470E946E
:10026000091D7B018C01442455243201CC248824AF
:1002700099241E821D8280E090E0A0E0B0E0898396
:100280009A83AB83BC83DD24DA94BEEF2B2E332418
:1002900033940E94D91C809350040E94C7450E9449
:1002A000344480915004873009F45BC10E94091DD9
:1002B0006E197F09800B910B6E517B4480409040FA
:1002C00008F0F7C00E94FA150E9445109091500462
:1002D000973009F40AC1983008F061C0933009F4EE
:1002E00098C1943008F069C1913009F4C8C19230C6
:1002F00008F091C10E94F03B90915004992309F0BD
:10030000D3C0C91609F449C00E94D0400E94D7400A
:1003100080910B01816080930B0180910B018260C1
:1003200080930B0180910B01846080930B01A39A51
:1003300080910B01806180930B0180910B018062A1
:1003400080930B0180910B01806480930B0180915D
:100350000B01806880930B01D0920802D0920902B1
:10036000D0920A028FEF0E942343809109020E94DB
:10037000394380910A020E944F4380E00E94182571
:1003800080E00E94E5241092180310926D041092F0
:1003900054041092D50490915004C92E7ACF9B300A
:1003A00009F48BC19C3008F0EFC0993009F4B7C153
:1003B0009A3008F4A8C180915404813009F462C4D1
:1003C000813008F05FC30E94091D60935804709348
:1003D000590480935A0490935B040E94091D609312
:1003E00060047093610480936204909363040E949C
:1003F000091D60935C0470935D0480935E04909388
:100400005F040E94CC4084E10E94E52484E10E94C4
:1004100018253092540480916F04813009F460C330
:10042000813008F0F9C2D0920802D0920902D0922D
:100430000A020E94091D20916004309161044091DC
:10044000620450916304621B730B840B950B615C17
:1004500073408040904010F00C944D0B0E94091D99
:1004600020915C0430915D0440915E0450915F04E2
:10047000621B730B840B950B6E517B448040904044
:1004800010F00C943F0B809108020E94234380914E
:1004900009020E94394380910A020E944F439091C1
:1004A0005004992309F42DCF0E94363790915004BF
:1004B00028CF0E94121D90915004892F84508230C1
:1004C00008F480C1973009F4ACC1963009F4A8C093
:1004D0000E94091D7B018C010E94FA150E944510A3
:1004E00090915004973009F0F6CE809154048230F8
:1004F00011F40C94A10A833008F038C3882309F062
:100500001FC70E94024480910B018E7F80930B01D4
:10051000109255040E94CC4084E10E94182584E189
:100520000E94E5240E94091D609360047093610499
:10053000809362049093630420915804309159048D
:1005400040915A0450915B04621B730B840B950B12
:1005500063537F4E8240904008F495CF309254040C
:1005600092CF0E94091D6419750986099709685C74
:1005700072418040904008F499CED0920802D09207
:100580000902D0920A0292CE9D3009F47DC09D30BE
:1005900008F45FC09E3009F0B1CE809154048823E6
:1005A00009F096C10E94E357309254043092170527
:1005B0001092EC0490915004A1CE953009F4EBC058
:1005C000963008F4C3C080911F04813009F49CC3A5
:1005D000813008F0C4C180E00E94182580E00E94AC
:1005E000E5240E940244D0920802D0920902D092DF
:1005F0000A028FEF0E942343809109020E9439432F
:1006000080910A020E944F43449A459A9091500467
:1006100075CE0E94CC400E94D340909150046ECE83
:1006200090911F04913009F053CF809113038230D1
:1006300008F04ECF80911803882311F00C94FC0B26
:1006400020920802D0920902D0920A0290931803D5
:100650003FCF80915404813009F40CC6813008F0FA
:10066000C3C20E94E357F4E0F093EA0423E020932E
:10067000E90432E030935404909150043FCE0E943C
:10068000CC40909150043ACE80915404813009F4CA
:10069000D6C5813008F03FC10E94E3570E94CC408C
:1006A0008AE00E94E5248AE00E94182530925404D2
:1006B000882499249091500421CE80915404823052
:1006C00009F47CC6833008F078C1882309F4B3C6E6
:1006D000813009F0E9CE0E94CC408AE00E94E524F6
:1006E0008AE00E941825B2E0B09354040E94091DCC
:1006F000609358047093590480935A0490935B0458
:1007000090915004FBCD30920E0280916E058130A5
:1007100009F0F4CD0E941A3490915004EFCD8091ED
:100720005404813009F4D6C2813008F037C10E94E8
:10073000091D609358047093590480935A04909350
:100740005B043092540490915004D8CD80910B01F9
:100750008E7F80930B0180910B018D7F80930B0125
:1007600080910B018B7F80930B01A39880910B01EB
:100770008F7E80930B0180910B018F7D80930B0105
:1007800080910B018F7B80930B0180910B018F7700
:1007900080930B0178CE809108020E9423438091C0
:1007A00009020E94394380910A020E944F430E942D
:1007B000CC4089E10E94E52489E10E9418259091AE
:1007C00050049CCD0E94075C6EE170E00E945C5B6F
:1007D000ED81FE81E80FF91FEF77F070FE83ED8366
:1007E00080911803813009F47BC5813008F040C244
:1007F0008D81809580930802309218032D813E816F
:100800002032310508F076C0809109028F3F09F44B
:100810005FCE80910A028F3F09F45ACED09208022F
:1008200057CE80919400909195000E940C5C0E949C
:10083000075C6EE170E00E945C5B0D811E81080F19
:10084000191F0F771070802F809580930802809178
:100850009400909195000E940C5C0E94075C6EE1F0
:1008600070E00E945C5B080F191F0F771070802FDB
:1008700080958093090280919400909195000E9448
:100880000C5C0E94075C6EE170E00E945C5B800F74
:10089000911F8F7790709E838D838D81809580933B
:1008A0000A0280919400909195000E940C5C0E9435
:1008B000075C60E870E00E945C5B8032910508F0A4
:1008C000D0C1D09208020E94091D2B013C0100CE2C
:1008D000813009F0E9CD0E942B4D0E943B4C8130C4
:1008E00009F485C70E94434C813009F451C79091A7
:1008F000500404CD2034310508F0ABC480910802C7
:100900008F3F09F4E5CD80910A028F3F09F4E0CDD5
:10091000D0920902DDCD823009F0C6CD0E942B4D68
:100920000E943B4C813009F4D7C60E94434C813071
:10093000F1F60E94464CB7E08B16910410F40C942B
:10094000E20C8FEF0E9423438FEF0E9439438FEF19
:100950000E944F438824992490915004CFCC823038
:1009600009F0CCCC80912004882309F4C7CC0E94E4
:100970001B4460911103709112038EEF9FE00E945F
:10098000725C0E9402448AEA61E00E94011C10929B
:10099000200410921F0490915004B0CC823009F0D2
:1009A00083CD80916D04882309F07ECD30926D0453
:1009B0000E946C3290915004A1CC833009F424C57C
:1009C000843009F071CD0E942B4D69817A818B8131
:1009D0009C81209177043091780440917904509162
:1009E0007A040E94E35818160CF481CF80E00E942C
:1009F000E52480E00E941825E2E0E09354040E9480
:100A0000091D609358047093590480935A0490937D
:100A10005B049091500472CC823009F068CF0E9440
:100A2000091D20915C0430915D0440915E04509159
:100A30005F04621B730B840B950B675C72418040F3
:100A4000904008F454CF10926F040E94091D6093E7
:100A50005C0470935D0480935E0490935F040E9435
:100A6000091D609360047093610480936204909305
:100A7000630410926E0480E061E00E9465439091EF
:100A800050043CCC823009F0C6CC0E94091D209154
:100A900058043091590440915A0450915B04621BF0
:100AA000730B840B950B6A5977478140904008F48B
:100AB000B2CC84E10E94182584E10E94E5240E94C2
:100AC000091D609358047093590480935A049093BD
:100AD0005B043092540480916F04813009F0A0CC03
:100AE0000E9402440E94075C60E870E00E945C5B28
:100AF0008036910508F4C0C5D09208020E94075CB8
:100B000060E870E00E945C5B8036910508F4B1C536
:100B1000D09209020E94075C60E870E00E945C5B72
:100B20008036910508F4A2C5D0920A020E94075CA3
:100B300068EC70E00E945C5B9E838D83823391053C
:100B400008F08DC5D0920802809108020E942343CC
:100B5000809109020E94394380910A020E944F430A
:100B600092E090936F0490915004C8CB843009F4C4
:100B7000AAC4843008F467C4853009F084CC0E948C
:100B8000024480910B018F7B80930B0180910B01BC
:100B90008F7780930B010E94091D6093600470930E
:100BA000610480936204909363042091580430910F
:100BB000590440915A0450915B04621B730B840BDF
:100BC000950B6B527C418040904008F45CCC0E94B5
:100BD000091D609358047093590480935A049093AC
:100BE0005B04109254044FCC823009F481C38330EB
:100BF00009F084CB0E942B4D0E943B4C813009F0C0
:100C000076CE0E94434C982F813009F070CE8091AF
:100C1000EB04882309F0D3C79093EB048FEF0E9475
:100C20004F438FEF0E94234380E80E9439430E9484
:100C3000464CA82EBB248091E904882311F48091AE
:100C4000EA04882E99240894810891088A149B0448
:100C500009F4D4C38FEF0E94324C450190915004A7
:100C60004DCB8034910508F0A2C3D09209022BCE5F
:100C7000823009F0C3CD8D81809580930A02109255
:100C80001803BCCD0E94091D2091580430915904CD
:100C900040915A0450915B04621B730B840B950BBB
:100CA0006E5376498040904008F4B5CB80E00E94B6
:100CB000182580E00E94E5240E94091D60935804D5
:100CC0007093590480935A0490935B0462E060939C
:100CD0005404A1CB0E94091D20915804309159045D
:100CE00040915A0450915B04621B730B840B950B6B
:100CF0006E517B448040904008F4F9CD22E020936F
:100D0000540490915004FACA0E941B448091080236
:100D10000E942343809109020E94394380910A0274
:100D20000E944F434498459880912204882309F4F7
:100D3000DECD109222048091550261E00E94011CD8
:100D40008091560261E00E94011C809125029091E1
:100D5000260261E00E94011C8091250290912602EA
:100D6000892F61E00E94011C8091570261E00E947E
:100D7000011C8091580261E00E94011C80912902AF
:100D800090912A0261E00E94011C809129029091B9
:100D90002A02892F61E00E94011C8091590261E0C2
:100DA0000E94011C80915A0261E00E94011C809106
:100DB0002D0290912E0261E00E94011C80912D0273
:100DC00090912E02892F61E00E94011C80915B02AC
:100DD00061E00E94011C80915C0261E00E94011CA4
:100DE000809131029091320261E00E94011C809159
:100DF000310290913202892F61E00E94011C8091A2
:100E00005D0261E00E94011C80915E0261E00E942F
:100E1000011C809135029091360261E00E94011C14
:100E20008091350290913602892F61E00E94011C69
:100E300080915F0261E00E94011C8091600261E08C
:100E40000E94011C8091390290913A0261E00E9457
:100E5000011C8091390290913A02892F61E00E9431
:100E6000011C8091610261E00E94011C809162027C
:100E700061E00E94011C80913D0290913E0261E080
:100E80000E94011C80913D0290913E02892F61E0F9
:100E90000E94011C8091630261E00E94011C80910C
:100EA000640261E00E94011C809141029091420223
:100EB00061E00E94011C8091410290914202892FC1
:100EC00061E00E94011C8091650261E00E94011CAA
:100ED0008091660261E00E94011C80914502909120
:100EE000460261E00E94011C8091450290914602F9
:100EF000892F61E00E94011C8091670261E00E94DD
:100F0000011C8091680261E00E94011C80914902ED
:100F100090914A0261E00E94011C809149029091E7
:100F20004A02892F61E00E94011C8091690261E000
:100F30000E94011C80916A0261E00E94011C809164
:100F40004D0290914E0261E00E94011C80914D0281
:100F500090914E02892F61E00E94011C80916B02EA
:100F600061E00E94011C80916C0261E00E94011C02
:100F7000809151029091520261E00E94011C809187
:100F8000510290915202892F61E00E94011C8091D0
:100F90002C0461E00E94011C80912D0461E00E94FC
:100FA000011C80912E0461E00E94011C80912F049D
:100FB00061E00E94011C8091300461E00E94011CEC
:100FC0008091310461E00E94011C8091230461E062
:100FD0000E94011C8091500461E00E94011C8091DC
:100FE000030190E08072907095958795959587950F
:100FF00095958795959587959595879561E00E943C
:10100000011C8091130361E00E94011C6091770430
:10101000709178048091790490917A0420E030E412
:101020004FE054E40E949E5A0E945759DC01CB01C4
:1010300061E00E94011C60917704709178048091B6
:10104000790490917A0420E030E44FE054E40E9467
:101050009E5A0E945759872F61E00E94011C60919F
:101060007F047091800480918104909182040E9499
:101070005759DC01CB0161E00E94011C60917F04A3
:101080007091800480918104909182040E9457594C
:10109000872F61E00E94011C609183047091840499
:1010A00080918504909186040E945759DC01CB0100
:1010B00061E00E94011C609183047091840480911E
:1010C0008504909186040E945759872F61E00E9401
:1010D000011C6091D1027091D2028091D302909153
:1010E000D4020E945259DC01CB0161E00E94011C34
:1010F0006091D1027091D2028091D3029091D4027A
:101100000E945259DC01CB01892F9A2FAB2FBB27AC
:10111000A7FDBA9561E00E94011C6091D102709117
:10112000D2028091D3029091D4020E945259DC01E4
:10113000CB01CD01BB2797FDB095AB2F61E00E949D
:10114000011C6091D1027091D2028091D3029091E2
:10115000D4020E945259DC01CB018B2FBB2787FDA3
:10116000B0959B2FAB2F61E00E94011C6091CD02D6
:101170007091CE028091CF029091D0020E9452597C
:10118000DC01CB0161E00E94011C6091CD027091F5
:10119000CE028091CF029091D0020E945259DC0180
:1011A000CB01892F9A2FAB2FBB27A7FDBA9561E002
:1011B0000E94011C6091CD027091CE028091CF02FD
:1011C0009091D0020E945259DC01CB01CD01BB2786
:1011D00097FDB095AB2F61E00E94011C6091CD029C
:1011E0007091CE028091CF029091D0020E9452590C
:1011F000DC01CB018B2FBB2787FDB0959B2FAB2F3D
:1012000061E00E94011C8091F7029091F80295958F
:1012100087959595879561E00E94011C8091F50264
:101220009091F602959587959595879561E00E9436
:10123000011C8CE0882E912C909150045FC8809105
:1012400017050E94324CA2E0A093540490915004E0
:1012500055C82036310508F03BC9809108028F3F00
:1012600009F436C9809109028F3F09F431C9D0923F
:101270000A022EC90E942B4D0E943B4C813009F47A
:101280006FC20E94434C982F813009F030CB80917F
:10129000EB04882309F0F8C29093EB048FEF0E94CF
:1012A0004F438FEF0E94234380E80E9439430E94FE
:1012B000464C882E99246FEF8616910409F017CBBF
:1012C00082E0809354048FEF0E944F438FEF0E947F
:1012D00023438FEF0E943943909150040C947E0178
:1012E0008D81809580930902F2E0F093180386CAFD
:1012F0000E942B4D0E943B4C813009F4C0C20E94D9
:10130000434C982F813009F0F2CA8091EB04882376
:1013100009F0CAC29093EB048FEF0E9423430E940E
:10132000464C282F30E08091E904882E99248216BB
:10133000930609F4E2C34901909150040C947E0194
:10134000813009F0A0C80E94024480910B018B7F7C
:1013500080930B01109256040E94CC408FE00E94B3
:1013600018258FE00E94E524809167029091680221
:10137000805991400CF457C18091690290916A02A2
:10138000805991400CF44FC18091650290916602A2
:10139000805991400CF447C180916B0290916C028E
:1013A000805991400CF43FC1109255046CC88036AE
:1013B000910508F088CAD0920A0285CA0E942B4D76
:1013C0000E943B4C813009F4D8C20E94434C8130CA
:1013D00009F470C20E94091D2091580430915904EB
:1013E00040915A0450915B04621B730B840B950B64
:1013F0006D5C7B4B8040904008F479CA3092540475
:10140000909150040C947E010E942B4D69817A8149
:101410008B819C81209177043091780440917904EC
:1014200050917A040E94935A87FD61CA80E00E941D
:10143000E52480E056C90E94E3573092540490910D
:1014400050040C947E010E94024480910B018F7B1A
:1014500080930B010E94091D6093600470936104E6
:10146000809362049093630420915804309159044E
:1014700040915A0450915B04621B730B840B950BD3
:101480006D5C76468440904008F431C18091B90289
:101490009091BA028A57934008F436C183EF0E94B4
:1014A000182583EF0E94E5240E94091D60935804CB
:1014B0007093590480935A0490935B0434E0309302
:1014C00054040C9443020E94024480910B018F7BD0
:1014D00080930B0180910B018F7780930B010E9409
:1014E000091D60936004709361048093620490937B
:1014F0006304209158043091590440915A0450914A
:101500005B04621B730B840B950B6F587542804014
:10151000904010F40C94430284E10E9418258CEE54
:101520000E94E5240E94091D609358047093590499
:1015300080935A0490935B04B5E0B09354040C94E8
:1015400043020E94024480910B018F7E80930B0125
:101550000E94D0400E94091D609360047093610452
:10156000809362049093630420915804309159044D
:1015700040915A0450915B04621B730B840B950BD2
:1015800063537F4E8240904008F061C18091030117
:1015900084FF43C110925604809157048F5F80935B
:1015A0005704853108F055C240916502509166029A
:1015B00031E0423C53070CF0B3C0209167023091F8
:1015C000680261E0233C36070CF4AEC080916902EA
:1015D00090916A02835C91400CF4A6C080916B02EA
:1015E00090916C02B1E0833C9B070CF023C3825CBA
:1015F00091400CF0A1C0435C51400CF49DC0235CB1
:1016000031400CF49DC08091690290916A02835C24
:1016100091400CF007C38FE00E94E5248BEF0E94FD
:1016200018250C944302809155048F5F80935504D4
:101630008B3010F40C94430210925604109257040D
:101640000E94091D609358047093590480935A04B2
:1016500090935B0482E0809354040C94430284369C
:10166000910508F08EC0D09209026ECA80930A02DA
:101670005DCA809309024ECA809308023FCA309225
:101680006F040E94091D60935C0470935D04809355
:101690005E0490935F040C94430280916E0460E0BA
:1016A0000E94654380916E048F5F80936E04883042
:1016B00020F010926E0480916E0461E00E946543F8
:1016C0000E94091D6093600470936104809362041A
:1016D000909363040C942E02809354048091170518
:1016E0008F3F09F463C18F5F809317051EC98091F6
:1016F000030184FF02C00C9443021092570410921D
:10170000560462E0609354040E94091D60935804DB
:101710007093590480935A0490935B040C94430291
:10172000209167023091680280916B0290916C0267
:10173000825C91400CF45FCF235C31400CF06BCFA6
:101740008091690290916A02835C91400CF432C1ED
:101750008BEF0E94E5248FE00E9418250C94430231
:101760004091E904242F30E08091EA0490E0019751
:10177000281739070CF094C0842F8F5F0E94324CD9
:1017800080CD8639910508F0DFC9D0920A02DCC904
:101790000E94464C582F882E992440911705242FDB
:1017A00030E02815390509F432C1473009F4B8C1D1
:1017B000C40101972817390709F4F0C1433009F42F
:1017C0003BC1443008F05AC1413009F4EDC1423008
:1017D00008F4AEC18FEF0E9423438BEE0E94394381
:1017E0008FEF0E944F43909150040C947E018091A2
:1017F00017050E94324C76C8813009F457C18230F7
:1018000011F00C946802D0920802D0920902209242
:101810000A02109218030C946802109257048091E7
:10182000670290916802835C914034F18091690273
:1018300090916A02835C9140FCF0809156048F5F26
:10184000809356048B3F08F4AFCE0C94AE028CEE1E
:101850000E9418258CEE0E94E5240E94091D6093C9
:1018600058047093590480935A0490935B04B4E035
:10187000B09354040C9443021092560495CE809178
:10188000E9040E94324C3BCD1092EB048FEF0E9492
:101890004F438FEF0E9423438BEE0E94394307CDC5
:1018A00080E00E94324CEDCC1092EB048BEE0E9453
:1018B000234335CD0E94091D609358047093590449
:1018C00080935A0490935B040E94464C90E0AA27B0
:1018D00097FDA095BA2FBC01CD010E94855926EA3B
:1018E0003BE944EB5FE30E949E5A0E945259709379
:1018F000E3046093E2040E944B4C809314020E9424
:10190000D040809114020E944E4C9093E504809345
:10191000E40497FD1AC12091E4043091E5042C54AD
:101920003F4F8091E2049091E304281B390B3093E0
:10193000E7042093E604253B310534F02856314076
:101940003093E7042093E6048091E6049091E70445
:10195000EFEF8C349E0734F488599E4F9093E70440
:101960008093E6040996439708F0ABC080E00E949C
:10197000E52480E00E9418252DCD6091E40470914B
:10198000E504882777FD8095982F0E94855924EBE0
:1019900039E545E35FE30E949E5A0E945759DC01F6
:1019A000CB018093E8040E94324C0FCD10921705B2
:1019B0000C9495048FE00E9418258FE00E94E52486
:1019C0000C9443020894811C911CE3E08E16910450
:1019D00009F415C1F4E08F16910408F0BDC021E0B0
:1019E0008216910409F4F7C032E08316910410F4D2
:1019F0000C94A1048FEF0E94234380E00E9439439E
:101A00008FEF0E944F43909150040C947E0180917F
:101A1000EC048F5F8093EC04843008F4CFCE1092F6
:101A2000EC04473008F0C8C0842F8F5F80931705FF
:101A3000482F433009F0C5CE8FEF0E9423438FEF2C
:101A40000E9439438BEE0E944F43909150040C94B6
:101A50007E0180E00E94E52480E00E9418250E941B
:101A6000091D609358047093590480935A0490930D
:101A70005B04E3E0E09354040C944302453009F422
:101A800097C0453008F492C0463009F493C04730FF
:101A900011F00C9477048BEE0E9423438BEE0E948E
:101AA00039438BEE0E944F430C947704D092080286
:101AB00020920902D0920A02B2E0B09318030C946B
:101AC00068020E94161D8091E6049091E7041816A2
:101AD00019060CF082C089EF0E94E52487E00E947D
:101AE0001825F4E0F09354048CEE91E5A8EBBDE3E7
:101AF00089839A83AB83BC836DCC8FEF0E944F4365
:101B00008FEF0E94234380E80E9439438FEF0E94A9
:101B1000324C93E090935404909150040C947E01C5
:101B20008114910409F0B7CF109217051092EC04BC
:101B30008FEF0E9423438FEF0E9439438FEF0E9463
:101B40004F43909150040C947E0188599E4F90937E
:101B5000E5048093E404DFCE65E08616910409F481
:101B60005FC085E08816910408F458C096E0891695
:101B7000910409F451C0A7E08A16910411F00C9465
:101B8000770480E00E94234380E00E94394380E094
:101B90000E944F43909150040C947E01509317057E
:101BA0001092EC04452F0ACE8BEEC3CF8BEE13CEF2
:101BB0008BEE43CF8FEF70CF10921705B9CF1092F5
:101BC000EB048FEF0E944F438FEF0E9423438BEE75
:101BD0000E9439432CC880E0ACCF87E00E94E52406
:101BE00089EF0E94182593E0909354048CEE91E5C0
:101BF000A8EBBDEB89839A83AB83BC83EBCB8FEFE0
:101C00000E9423438FEF0E94394380E00E944F439C
:101C1000909150040C947E018FEFB4CF80E0EBCE16
:101C200080E0EECF8FE00E94E52486EF0E94182529
:101C30000C94430286EF0E94E5248FE00E94182551
:101C40000C9443022091140381E090E00DB407FC52
:101C500009C0019637E280319307C0F321E00DB44B
:101C600007FEF7CF20931403089584B1807F84B9D1
:101C700084B1876084B980E58CBD8DB581608DBDF0
:101C800008951CBC1DBC0895482F6623E9F09C01F3
:101C9000F90180818EBD2091140381E090E00DB4A4
:101CA00007FC09C0019637E280319307C0F321E0B9
:101CB0000DB407FEF7CF20931403222329F43196A5
:101CC0008E2F841B861728F30895CF93DF93EC01A2
:101CD000442321F1A0E0B0E0FE01EA0FFB1F808168
:101CE0008EBD8091140321E030E00DB407FC0AC0E2
:101CF0002F5F3F4F97E220313907B8F381E00DB4F1
:101D000007FEF6CF80931403882341F48EB5FB01C0
:101D1000EA0FFB1F80831196A417F0F2DF91CF9199
:101D200008958EBD2091140381E090E00DB407FC6E
:101D300009C0019637E280319307C0F321E00DB46A
:101D400007FEF7CF209314038EB5089581E08093AA
:101D5000150383E0809316030895109215030895E8
:101D600083E0809316030895289881EE0E94910ED7
:101D7000289A0895289880E60E94910E8FEF0E947D
:101D8000910E289A08951F93162F28988F718062BC
:101D90000E94910E812F0E94910E289A1F91089502
:101DA000289882EE0E94910E289A08958091350518
:101DB000882311F080E0089528988FEF0E94910EFB
:101DC000289A80740895FF920F931F938B01F42E2D
:101DD00028988F7180620E94910EC8016F2D0E9419
:101DE000440E289A1F910F91FF900895FF920F9330
:101DF0001F938B01F42E28988F710E94910EC801B9
:101E0000B8014F2D0E94650E289A1F910F91FF90E7
:101E10000895FF920F931F93CF93DF93082FF92E0E
:101E2000162F289881EE0E94910E289A289888EA09
:101E30000E94910E112359F0802F9F2D9C01E901E2
:101E400089910E94910E9E01201B2117C8F3289AA8
:101E5000DF91CF911F910F91FF900895DF93CF9362
:101E60000F92CDB7DEB71982289881E10E94910EBA
:101E7000BE016F5F7F4FCB0141E00E94650E289A43
:101E800089810F90CF91DF910895DF93CF930F92C7
:101E9000CDB7DEB71982289887E10E94910EBE0166
:101EA0006F5F7F4FCB0141E00E94650E289A8981C8
:101EB00081700F90CF91DF9108950F931F938C0144
:101EC000289880E30E94910EC80165E00E94440EAC
:101ED000289A1F910F9108950F931F938C012C98AE
:101EE00028988AE20E94910EC80165E00E94440E83
:101EF000289A2C9A1F910F9108951F93CF93DF93E7
:101F0000EC01162F809135058823E1F72C9881E0AC
:101F100080933505289880E20E94910E8AE40E9401
:101F2000910E289A289881EE0E94910E289A28985E
:101F300080EA0E94910ECE01612F0E94440E289AE1
:101F40002C9ADF91CF911F9108950F931F93DF93E8
:101F5000CF9300D0CDB7DEB7289880E20E94910ED3
:101F60008DE00E94910E289A289883E20E94910E9B
:101F700081E00E94910E289A8091110390911203A2
:101F800099838A831B82289880E30E94910E8E0198
:101F90000F5F1F4FC80163E00E94440E289A2898E3
:101FA0008AE20E94910EC80163E00E94440E289AC2
:101FB000289881E20E94910E81E00E94910E289A59
:101FC000289882E20E94910E81E00E94910E289A48
:101FD000289884E20E94910E82E10E94910E289A34
:101FE000289885E20E94910E88E20E94910E289A1C
:101FF000289881E30E94910E8DE00E94910E289A0C
:10200000289880E50E94910E83E70E94910E289AFD
:1020100028988CE30E94910E81E00E94910E289AEC
:1020200028988DE30E94910E86E00E94910E289AD6
:10203000289880E20E94910E8FE00E94910E289ACB
:102040000F900F900F90CF91DF911F910F910895F6
:102050002C9A289A0E94A50F08950F931F938C0124
:10206000289881E60E94910EC801B8014DE00E94B7
:10207000650E289A289887E20E94910E80E40E94BB
:10208000910E289A1F910F9108950F931F93DF933C
:10209000CF930F92CDB7DEB780913505882331F00D
:1020A0000F90CF91DF911F910F91089528988FEF96
:1020B0000E94910E289A86FFF3CF809113038260CD
:1020C00080931303289887E20E94910E80E70E9474
:1020D000910E289A1982289887E10E94910EBE01DC
:1020E0006F5F7F4FCB0141E00E94650E289A898186
:1020F00080FDD6CF289881E60E94910E8AE899E06B
:10210000BC014DE00E94650E289A289887E20E9443
:10211000910E80E40E94910E289A289882EE0E94E7
:10212000910E289A80911503813009F491C2809113
:102130008A098823B9F480918B09882399F48091C6
:102140008C09882379F480918D09883059F4809125
:102150008E09882339F480918F09882319F48CE340
:102160000E94B11D80916E05882341F580918E09F2
:10217000282F30E02F7730703093100320930F0317
:1021800060918F09462F50E04F77507050930E03A7
:1021900040930D0387FD27C288279927821B930B45
:1021A0009093F6028093F50267FD83C388279927F1
:1021B000841B950B9093F8028093F70220918A0973
:1021C00030E03093730920937209E0918B09F0E0BD
:1021D000F0937509E093740900918C0910E0109355
:1021E000770900937609922F8827821B930B64E668
:1021F00070E00E94485B262F2095209308029E2FB6
:1022000088278E1B9F0B64E670E00E94485B6095F8
:1022100060930A02902F8827801B910B64E670E080
:102220000E94485B609560930902822F0E942343BD
:10223000809109020E94394380910A020E944F4313
:1022400020918D09922F20FF11C1449891FF3CC12C
:10225000459892FF36C181E080930E0294FDE6C15D
:1022600096FF2CC181E08093740427FDE7C1109292
:1022700075048091900980FF1BC180910B018E7FB6
:1022800080930B018091900981FF0CC180910B011B
:102290008D7F80930B018091900982FFFDC080911A
:1022A0000B018B7F80930B018091900983FFF2C01B
:1022B000A3988091900984FFE7C080910B018F7EE5
:1022C00080930B018091900985FFD8C080910B010C
:1022D0008F7D80930B018091900986FFC9C080910A
:1022E0000B018F7B80930B018091900987FDAAC120
:1022F00080910B01806880930B018091500488309D
:1023000009F476C1809107028093C208853009F4F0
:1023100074C2863008F0DAC0833009F4F4C1843026
:1023200009F054C080915D0290915E028093C308D1
:10233000892F990F990B8093C40880916502909121
:1023400066028093C508892F990F990B8093C60860
:1023500080916702909168028093C708892F990F36
:10236000990B8093C8088091690290916A028093CA
:10237000C908892F990F990B8093CA0880916B0225
:1023800090916C028093CB08892F990F990B8093C1
:10239000CC0880912C0490912D048093CD08892F36
:1023A000990F990B8093CE0880912E0490912F0461
:1023B0008093CF08892F990F990B8093D008809133
:1023C00023048093D10885E080930702289881EE4A
:1023D0000E94910E289A289888EA0E94910E809176
:1023E000C2080E94910E8091C3080E94910E8091B4
:1023F000C4080E94910E8091C5080E94910E8091A0
:10240000C6080E94910E8091C7080E94910E80918B
:10241000C8080E94910E8091C9080E94910E809177
:10242000CA080E94910E8091CB080E94910E809163
:10243000CC080E94910E8091CD080E94910E80914F
:10244000CE080E94910E8091CF080E94910E80913B
:10245000D0080E94910E8091D1080E94910E289A76
:102460000F90CF91DF911F910F910895449AEECE76
:1024700080910B01806480930B0136CF80910B011A
:10248000806280930B0127CF80910B018061809344
:102490000B0118CFA39A0DCF80910B01846080931C
:1024A0000B0102CF80910B01826080930B01F3CE70
:1024B00080910B01816080930B01E4CE1092740433
:1024C000D4CE10920E02CACE459AC3CE863009F4FD
:1024D000C5C0873009F07ACF6091D1027091D202E5
:1024E0008091D3029091D4020E9452596093C30804
:1024F000272F382F492F552747FD5A952093C40879
:102500009C01552737FD5095452F2093C508692F0D
:10251000992767FD9095792F892F6093C608609160
:10252000CD027091CE028091CF029091D0020E9494
:1025300052596093C708272F382F492F552747FD39
:102540005A952093C8089C01552737FD5095452F73
:102550002093C908692F992767FD9095792F892FB6
:102560006093CA086091770470917804809179042F
:1025700090917A0460937B0470937C0480937D0433
:1025800090937E0420E030E44FE054E40E949E5A91
:102590000E9452596093CB08672F770F770B609397
:1025A000CC0860917F0470918004809181049091A7
:1025B00082040E9457596093CD087093CE086091B1
:1025C00083047091840480918504909186040E9414
:1025D00057596093CF087093D0081092D10883E0C8
:1025E00080930702F3CE3093F6022093F502DCCD00
:1025F00080916E05882309F085CE8091910980FF36
:1026000081CE0E9406478FEF93E0909366028093FD
:10261000650290936C0280936B0286E08093610B5D
:1026200081E08093BB0880936E056CCE0E940647C4
:102630000E94161D20918D09922F12CE81E0809369
:10264000750417CE80910B018F7780930B0155CEC7
:1026500082EC98E060E10E94090F22CD8091350262
:10266000909136028093C308809135029091360292
:102670009093C40880914502909146028093C508CA
:1026800080914502909146029093C608809149023C
:1026900090914A028093C7088091490290914A0222
:1026A0009093C80880914D0290914E028093C90882
:1026B00080914D0290914E029093CA0880915102F0
:1026C000909152028093CB088091510290915202D6
:1026D0009093CC0880913004909131048093CD0880
:1026E000892F990F990B8093CE088091B902909110
:1026F000BA028093CF089093D0081092D10887E057
:102700008093070263CE8091550290915602809388
:10271000C308892F990F990B8093C40880915702A1
:10272000909158028093C508892F990F990B809337
:10273000C6088091590290915A028093C708892F48
:10274000990F990B8093C80880915B0290915C026D
:102750008093C908892F990F990B8093CA0880919B
:102760005F02909160028093CB08892F990F990B9B
:102770008093CC0880916102909162028093CD0891
:10278000892F990F990B8093CE08809163029091C5
:1027900064028093CF08892F990F990B8093D008FA
:1027A00020910301809103014091030190E0807228
:1027B000907095958795959587959595879595951D
:1027C000879595958795880F991F441F4427441F27
:1027D000440F440F482B30E0207130703595279519
:1027E000359527953595279535952795422B409317
:1027F000D10884E080930702E9CD80912502909171
:1028000026028093C308809125029091260290931E
:10281000C4088091290290912A028093C508809172
:10282000290290912A029093C60880912D029091DE
:102830002E028093C70880912D0290912E029093D2
:10284000C80880913102909132028093C90880912A
:102850003102909132029093CA088091390290918E
:102860003A028093CB088091390290913A0290937A
:10287000CC0880913D0290913E028093CD088091DA
:102880003D0290913E029093CE088091410290913A
:1028900042028093CF08809141029091420290932E
:1028A000D008809150048093D10886E0809307027D
:1028B0008DCD5093F8024093F70280CC909116038F
:1028C0009093C20880918A09981741F00E944510A0
:1028D00090918A09809116039817C1F71092C20847
:1028E0009F3F21F09F5F90931603089583E08093AC
:1028F00016030895CF93DF93E8E6F0E01082ACE68C
:10290000B0E01C9220EB30E0E90118821092B10097
:10291000109270008081826080838C9180688C939B
:10292000888182608883DF91CF9108951F920F92F2
:102930000FB60F9211248F9380910E02882321F1FC
:102940008091030186FD20C0809168008D7F809377
:10295000680080916C008F7780936C0081E0809399
:102960000F028DE08093B3008091B1008660809368
:10297000B1008091700082608093700010921C0200
:1029800010921D0210921E028F910F900FBE0F9099
:102990001F9018951F920F920FB60F9211242F932C
:1029A0003F934F935F938F939F938091B100887F64
:1029B0008093B10080910F02882359F18091030127
:1029C00086FD69C010920F0283E38093B30080916B
:1029D000B10086608093B100809170008260809326
:1029E000700080910102909102022FEF8F3F9207B9
:1029F00029F0019690930202809301029F918F919A
:102A00005F914F913F912F910F900FBE0F901F90AC
:102A1000189540910102509102028FEF4F3F5807E5
:102A200009F44AC04130510509F480C0CA01029737
:102A3000059708F450C0CA010797069708F0ABC085
:102A400086E38093B3008091B10086608093B100EB
:102A5000809170008260809370002091030130E0CB
:102A6000207430700024220F331F001C220F331FEC
:102A7000001C232F302D8CE090E0841B950B02C0AE
:102A8000220F331F8A95E2F780911C02820F8093F8
:102A90001C02CA01AECF80916800826080936800FA
:102AA00080916C00806880936C008FEF9FEF909313
:102AB000020280930102A2CF8091030186FF54C0DD
:102AC0008091680082608093680080916C008068CB
:102AD00080936C0093CF86E38093B3008091B10024
:102AE00086608093B1008091700082608093700056
:102AF0002091030130E0207430700024220F331F36
:102B0000001C220F331F001C232F302D86E090E085
:102B1000841B950B02C0220F331F8A95E2F7809128
:102B20001D02820F80931D02CA0163CF80910301B1
:102B300090E080749070082E892F000C881F990BEC
:102B4000000C881F991F80931E0286E38093B300B8
:102B50008091B10086608093B100809170008260A6
:102B600080937000CA0145CF8CE18093B3008091BF
:102B7000B10086608093B100809170008260809384
:102B8000700010921C0210921D0210921E0240E072
:102B900050E0CA012ECF4D30510509F07ACF109286
:102BA00070008091680082608093680080916C0062
:102BB000806880936C008FEF9FEF90930202809368
:102BC000010280911E028093000280911D02809379
:102BD0001A0280911C0280931B0281E080932404DE
:102BE0000DCF80910002089580911A02089580917E
:102BF0001B02089580910E02882321F08091240405
:102C0000882309F40895109224040E94091D20913C
:102C10002704309128044091290450912A04621B12
:102C2000730B840B950B635877408040904050F3B2
:102C30000E94091D6093270470932804809329043F
:102C400090932A0480911B0280932304E82FF0E0E4
:102C5000E533F105C0F04091F5025091F602209164
:102C6000F7023091F802CA01642F892F57FDB7C1CE
:102C700060930F038093100337FDA8C130930E03B8
:102C800020930D030895EE58FF4FEE0FFF1F0590A0
:102C9000F491E02D19948091260490E001968370C0
:102CA000907080932604813009F4CAC1813008F005
:102CB000BBC110927404109275044091F5025091BA
:102CC000F6022091F7023091F802CDCF10927404F1
:102CD00081E0809375044091F5025091F6022091B5
:102CE000F7023091F802BFCF109274044091F502C0
:102CF0005091F6022091F7023091F802B4CF81E0B2
:102D0000809374044091F5025091F6022091F702ED
:102D10003091F802A8CF2091F7023091F8022250AA
:102D200030403093F8022093F7028FEF21383807B4
:102D30000CF05AC181E89FEF9093F8028093F7025C
:102D40004091F5025091F60221E83FEF8CCF40917F
:102D5000F5025091F6028091F3029091F402481727
:102D600059070CF05BC19A01425050405093F60253
:102D70004093F502225030403093F8022093F7023E
:102D80008FEF4138580744F481E89FEF9093F602A3
:102D90008093F50241E85FEF8FEF213838070CF0A0
:102DA00062CF81E89FEF9093F8028093F70221E8C9
:102DB0003FEF59CF4091F5025091F60242505040FA
:102DC0005093F6024093F5026091F7027091F80279
:102DD0006E5F7F4F9B017093F8026093F7028FEF55
:102DE0004138580744F481E89FEF9093F6028093AE
:102DF000F50241E85FEF603871050CF434CF8FE7DE
:102E000090E09093F8028093F7022FE730E02BCF09
:102E10001092F6021092F5021092F8021092F70248
:102E200080915004883009F418C16091F5028091B6
:102E3000F6022091F7023091F8021ACF4091F50284
:102E40005091F602425050405093F6024093F502E2
:102E50002FEF413852070CF002CF81E89FEF90939B
:102E6000F6028093F5028FE790E02091F70230910F
:102E7000F8029093100380930F03FECE4091F50269
:102E80005091F6024E5F5F4F5093F6024093F50269
:102E90006091F7027091F802625070409B0170934C
:102EA000F8026093F7024038510544F08FE790E054
:102EB0009093F6028093F5024FE750E061587F4F00
:102EC0000CF0D1CE6ECF2091F7023091F8022E5F38
:102ED0003F4F3093F8022093F702203831050CF46D
:102EE00083C08FE790E09093F8028093F7024091BF
:102EF000F5025091F6022FE730E0B5CE4091F50291
:102F00005091F6022091F7023091F802241735070C
:102F10000CF082C09A014E5F5F4F5093F6024093CF
:102F2000F5022E5F3F4F3093F8022093F7024038AE
:102F3000510544F08FE790E09093F6028093F502FC
:102F40004FE750E0203831050CF48DCE58CF40913A
:102F5000F5025091F6024E5F5F4F5093F602409398
:102F6000F502403851050CF47ACE8FE790E090934B
:102F7000F6028093F50259CF8091250490E00196E6
:102F800065E070E00E945C5B80932504882389F5EE
:102F9000449A459A10920A028FEF80930902809317
:102FA0000802809108020E942343809109020E9436
:102FB000394380910A020E944F434091F50250919B
:102FC000F6022091F7023091F8024DCE882799271A
:102FD000821B930B90930E0380930D030895882713
:102FE0009927841B950B45CF4091F5025091F6022D
:102FF0003ACE813009F44EC0823009F453C0833098
:1030000009F45AC0843069F68FEF80930A028093E6
:10301000090280930802C5CFA9017DCF2091F70254
:103020003091F802A901A0CE823009F44FCE83304E
:1030300009F051CE81E080937404809375040BCE27
:1030400080937404109275044091F5025091F60239
:103050002091F7023091F80206CE0E9406478FEFCA
:1030600093E0909366028093650290936C02809344
:103070006B0286E08093610B81E08093BB088093B4
:103080006E054091F5025091F6022091F7023091C1
:10309000F802E9CD8FEF80930A0210920902809323
:1030A00008027FCF449845988FEF80930A0280935F
:1030B00009021092080275CF10920A0210920902BA
:1030C000109208026ECF0895EF92FF920F931F9314
:1030D000CF93DF93EC0188819981892B09F4B2C0E9
:1030E000E090270BF090280BF092C108E092C00806
:1030F0002881398137FDE4C08091EF029091F00280
:10310000281B390B3093280B2093270BF9012091B2
:103110000703309108032E0F3F1F309308032093BD
:10312000070386E0213438070CF4ADC080E496E054
:10313000909308038093070320E436E00881198107
:10314000C901880F991F820F931FAC01662757FD95
:103150006095762FCF01880F991F9F01220F331F93
:10316000220F331F220F331F820F931FAA2797FDB1
:10317000A095BA2F480F591F6A1F7B1FEE19FF0930
:10318000EE0FFF1FCF01AA2797FDA095BA2F480F7A
:10319000591F6A1F7B1FC801880F991F880F991F2D
:1031A000880F991FAA2797FDA095BA2F480F591F7E
:1031B0006A1F7B1F4093FD025093FE026093FF0243
:1031C0007093000377FD6DC01416150616061706DA
:1031D00014F417FD68C0415C5D45604070400CF41C
:1031E00080C080EC9DE5A0E0B0E08093FD0290936C
:1031F000FE02A093FF02B093000324E0B595A795CB
:10320000979587952A95D1F79C019983888380911A
:10321000E5029091E602181619060CF05DC0C9018E
:1032200001969983888322E080309207F4F08FEF33
:1032300091E099838883DF91CF911F910F91FF9047
:10324000EF90089510920803109207031092280B34
:103250001092270B1092C1081092C008DF91CF91F5
:103260001F910F91FF90EF90089581509E4F1CF792
:1032700081E09EEF99838883DF91CF911F910F9119
:10328000FF90EF90089589EF203C38070CF056CF5F
:1032900080EC99EF909308038093070320EC39EFBB
:1032A0004DCF17FD98CF1092FD021092FE021092A2
:1032B000FF021092000380E090E0A0E0B0E09DCF1C
:1032C0008091EF029091F002280F391F3093280B64
:1032D0002093270BF9011BCFC9010197998388839C
:1032E000A2CF8091FD029091FE02A091FF02B091C9
:1032F0000003803422EA92072FEFA2072FEFB207D4
:103300000CF07BCF80E492EAAFEFBFEF8093FD0239
:103310009093FE02A093FF02B09300036ECFEF9252
:10332000FF920F931F93CF93DF93EC0188819981D4
:10333000892B09F4B2C0E0907305F0907405F09207
:103340008909E09288092881398137FDE4C080919C
:10335000ED029091EE02281B390B309374052093F7
:103360007305F90120910503309106032E0F3F1FCD
:10337000309306032093050386E0213438070CF4CC
:10338000ADC080E496E0909306038093050320E4AB
:1033900036E008811981C901880F991F820F931F98
:1033A000AC01662757FD6095762FCF01880F991FD6
:1033B0009F01220F331F220F331F220F331F820F53
:1033C000931FAA2797FDA095BA2F480F591F6A1F70
:1033D0007B1FEE19FF09EE0FFF1FCF01AA2797FDF4
:1033E000A095BA2F480F591F6A1F7B1FC801880F6D
:1033F000991F880F991F880F991FAA2797FDA095DD
:10340000BA2F480F591F6A1F7B1F40930103509327
:103410000203609303037093040377FD6DC01416D9
:1034200015061606170614F417FD68C0415C5D45C5
:10343000604070400CF480C080EC9DE5A0E0B0E0FE
:103440008093010390930203A0930303B0930403BA
:1034500054E0B595A795979587955A95D1F79C0116
:10346000998388838091E7029091E80218161906E3
:103470000CF05DC0C90101969983888322E08030F9
:103480009207F4F08FEF91E099838883DF91CF91D9
:103490001F910F91FF90EF900895109206031092E4
:1034A0000503109274051092730510928909109209
:1034B0008809DF91CF911F910F91FF90EF900895B0
:1034C00081509E4F1CF781E09EEF99838883DF91A6
:1034D000CF911F910F91FF90EF90089589EF203CBD
:1034E00038070CF056CF80EC99EF90930603809349
:1034F000050320EC39EF4DCF17FD98CF1092010353
:1035000010920203109203031092040380E090E0F3
:10351000A0E0B0E09DCF8091ED029091EE02280FE7
:10352000391F3093740520937305F9011BCFC9012E
:10353000019799838883A2CF809101039091020320
:10354000A0910303B0910403803422EA92072FEF85
:10355000A2072FEFB2070CF07BCF80E492EAAFEF27
:10356000BFEF8093010390930203A0930303B093F2
:1035700004036ECF85B7806185BF2FEF21B912B8E4
:1035800087EF84B980EE85B980EF87B980EB88B981
:103590008CEF8AB983E08BB92DB91EB810BA23BB62
:1035A00090915304992399F414BA20930101109235
:1035B00002018FE0809304018091050110920501C2
:1035C0001092070120930A0110920B010895913087
:1035D00089F414BA20930101109202018FE08093C4
:1035E0000401809305011092070120930A011092B3
:1035F0000B010895923099F488E084BB2093010177
:10360000109202018FE080930401809305011092D3
:10361000070120930A0187EF80930B0108952093FF
:103620000101109202018FE08093040110920701C2
:1036300020930A01992341F2913031F2923059F3EB
:1036400008951092B8001092BC000895589A599AA3
:103650001092B90081E08093B8000895982F84EA11
:103660008093BC008091BC0087FFFCCF8091B900A3
:10367000887F883021F0803111F081E008959093A7
:10368000BB0084E88093BC008091BC0087FFFCCF26
:103690009091B900987F983129F080E0903409F03A
:1036A00081E0089580E00895982F24EA34E844E901
:1036B0002093BC008091BC0087FFFCCF8091B900B3
:1036C000887F883011F0803199F79093BB00309358
:1036D000BC008091BC0087FFFCCF8091B900887F3F
:1036E000803211F0883539F44093BC008091BC00E1
:1036F00084FDFCCFDDCF089584E98093BC008091E8
:10370000BC0084FDFCCF08958093BB0084E88093C7
:10371000BC008091BC0087FFFCCF8091B90090E095
:10372000887F883209F091E0892F089584EC809396
:10373000BC008091BC0087FFFCCF8091BB00089546
:1037400084E88093BC008091BC0087FFFCCF80910F
:10375000BB000895982F84EA8093BC008091BC0040
:1037600087FFFCCF8091B900887F883021F08031BD
:1037700011F081E008959093BB0084E88093BC0031
:103780008091BC0087FFFCCF9091B900987F983161
:1037900029F080E0903409F081E0089580E00895F8
:1037A0001092C50080E18093C400E0ECF0E08081DD
:1037B00082608083E1ECF0E0808188698083E2ECC4
:1037C000F0E080818660808308951092CD0080E1D2
:1037D0008093CC00E8ECF0E0808182608083E9ECAB
:1037E000F0E0808188618083EAECF0E0808186608F
:1037F000808308951092C0001092C1001092C20000
:103800000895982F8091C00085FFFCCF9093C6004B
:10381000662321F08091C00086FFFCCF0895982F89
:103820008091C80085FFFCCF9093CE00662321F0E5
:103830008091C80086FFFCCF08958091C0008095DC
:10384000881F8827881F089520E030E08091C000FD
:1038500087FD0AC02F5F3F4F27393105B9F781E057
:1038600080931A0380E008958091C60008951F9206
:103870000F920FB60F920BB60F9211242F933F9316
:103880004F935F936F937F938F939F93AF93BF9368
:10389000EF93FF939091C600809150048E30C1F158
:1038A0008F3031F180910D02882309F046C080915C
:1038B0001F04813009F446C0823061F54091210433
:1038C000442309F45EC0413029F5392F20E080916E
:1038D000110390911203822B932B909312038093E8
:1038E0001103409320041092210440930D0212C052
:1038F0009B3289F19D32E9F1973609F44AC093373A
:1039000049F48DEF9FE0609150050E94645C02C015
:103910009A3A59F1FF91EF91BF91AF919F918F9199
:103920007F916F915F914F913F912F910F900BBEBF
:103930000F900FBE0F901F90189510920D0290934C
:103940001F04E8CF9A3A91F1953521F780930D0243
:1039500010921F04DFCF809150058F3F19F08F5FC9
:103960008093500580936600D5CF81E08093D80482
:10397000D1CF809150058823A9F3815080935005C1
:10398000F1CF909311031092120381E080932104F0
:10399000C1CF8091230461E00E94011C80916600E8
:1039A0008093500561E00E94011CB4CF80932204F3
:1039B000B1CF86B146B126B166B130E02870307023
:1039C000359527953595279535952795220F331FE2
:1039D00050E0447050705595479555954795240F84
:1039E000351F220F331F70E06270707075956795F8
:1039F000260F371F220F331F8170820F08951F92E9
:103A00000F920FB60F9211240F900FBE0F901F90C0
:103A1000189560914C0470914D0480914E049091E2
:103A20004F04089581E08093BB02089580E090E008
:103A3000A0E0B0E08093D1029093D202A093D30291
:103A4000B093D4028093CD029093CE02A093CF0284
:103A5000B093D0028093770490937804A093790474
:103A6000B0937A0480937F0490938004A0938104A0
:103A7000B09382048093830490938404A09385047C
:103A8000B093860480939F049093A004A093A10414
:103A9000B093A20480939B0490939C04A0939D04F4
:103AA000B0939E040895F89414BC15BC10926E0057
:103AB00010922001109221018EEF9FE00E94365C4F
:103AC00090931203809311038DEF9FE00E942E5C70
:103AD000982F8093500581508E3FB0F590936600EB
:103AE0002091110330911203C90181589C40039722
:103AF00010F4109253048CE02038380771F12458E8
:103B00003C4018F082E0809353040E94F33E0E94F0
:103B1000BA1A0E941D1E0E9478240E94E6420E944A
:103B2000350E0E94281080911403882329F4809177
:103B300013038160809313030E94D01B0E94BA4B31
:103B40000E947A14789408956091660060935005FD
:103B50008DEF9FE00E94645CC3CF81E080935304AB
:103B6000D4CFCF93DF939EE1899FE0011124809110
:103B700068008D7F8093680080916C008F778093C0
:103B80006C00D99A10927A0080917A0080618093BB
:103B90007A0010929000109291001092710088B3F8
:103BA000876088BB1092A0001092A1001092720052
:103BB00089B3876089BB10928000109281000E94B7
:103BC000FA1B0E94410E0E94211B0E94BA1A83B761
:103BD0008F6083BF81E0809370008091B0008D7F03
:103BE0008093B0008091B10087608093B1002097EE
:103BF00019F088952197E9F713BE8091B100887F6D
:103C00008093B100109270008091B0008260809328
:103C1000B0008FEF809308028093090280930A021C
:103C20001092F2021092F1021092F4021092F3023A
:103C30000E94531DDF91CF910895EAE7F0E01082D2
:103C40002BE730E0D9011C92ACE7B0E01C928081F8
:103C5000866080838C9180648C9380818062808375
:103C6000D9018C91887F8C9380818860808380814A
:103C70008068808380818064808308951F920F9282
:103C80000FB60F920BB60F9211241F932F933F93F1
:103C90004F935F936F937F938F939F93AF93BF9354
:103CA000EF93FF9380914C0490914D04A0914E04AA
:103CB000B0914F048F3F2FEF92072FEFA2072FEF06
:103CC000B20709F4B9C00196A11DB11D80934C043F
:103CD00090934D04A0934E04B0934F0480917800CC
:103CE000482F50E020917900922F80E0482B592BEB
:103CF0008091B502823009F4BDC1833008F44CC014
:103D0000843009F4E0C1843008F02FC18091DD02D5
:103D10009091DE02480F591F569547955093DE0249
:103D20004093DD029091D404923009F04BC0809111
:103D30002405813009F47BC2813008F0F1C1809103
:103D40002605813009F407C39091B60280911F02C5
:103D5000883008F050C180917B00877F80937B0082
:103D600080911F02805C80937C00923009F450C1E6
:103D7000FF91EF91BF91AF919F918F917F916F9143
:103D80005F914F913F912F911F910F900BBE0F901C
:103D90000FBE0F901F901895882309F456C08130EC
:103DA00061F48091DF029091E002480F591F56950F
:103DB00047955093E0024093DF029091D4049230F3
:103DC00009F4B5CF913009F434C1992309F0BCCF7F
:103DD0009091B602923009F432C3933008F0D5C105
:103DE000992309F471C2913009F0B0CF809121027A
:103DF00080931F02809124028093B8021092B50232
:103E000082E08093B6021091D204113009F410C4FC
:103E1000123009F099CF80912002873109F094CFB8
:103E20001093D40480912605813009F494C2109235
:103E3000D4049091B6028ACF10924C0410924D0493
:103E400010924E0410924F0449CF609120026E30C0
:103E500009F4D1C2E62FF0E0DF01AA0FBB1FAB5D72
:103E6000BD4F11965C934E9360FF72C0EE0FFF1F23
:103E7000ED5DFD4F408151812D913C91862F8695BE
:103E8000A82FB0E0421B530BAA0FBB1FFD01E35943
:103E9000FD4F80819181481B590BFD01EB5AFD4F6D
:103EA0005183408357FDE8C24150544024F080E0E4
:103EB00094E091838083603170F4FD01EB5AFD4FF3
:103EC0000190F081E02DEC33F1050CF0F4C2A35425
:103ED000BD4FED93FC9380917504882309F406C2CD
:103EE0008091650290916602845A9140B4F080916D
:103EF000670290916802845A91407CF08091690237
:103F000090916A02845A914044F080916B029091A2
:103F10006C02845A91400CF0E9C181E080937604F0
:103F20001092F4021092F3021092A9001092A800CD
:103F30001092AB001092AA001092F2021092F102BD
:103F4000109299001092980010929B0010929A0083
:103F5000862F8F5F80932002883108F42ECF109235
:103F6000200281E08093BC0228CF863009F025CF63
:103F70008091020590E020912002880F991F880F00
:103F8000991F880F991F820F911D880F991FE0912B
:103F90006908F0916A08E80FF91F51834083209166
:103FA0002002822F90E0880F991FE091370BF0914B
:103FB000380BE80FF91F808191818417950720F451
:103FC0005183408320912002822F90E0880F991F17
:103FD000E091C705F091C805E80FF91F8081918134
:103FE0004817590720F451834083209120022F5F06
:103FF00020932002E2CE80917B00886080937B003A
:1040000080911F02885C80937C00923009F0B0CED2
:104010008091D404882309F0ABCE80915304882387
:1040200009F0ABC080910501807F8093050112B833
:104030009FCE20910105263009F44EC2273008F0AA
:10404000D4C0223009F455C2233008F470C12430A2
:1040500009F4D5C2253008F4C4C2809120028F5FD4
:1040600080931F0286E08093B502809301059091B2
:10407000B6026CCE80910502882309F49ECE639926
:104080009CCE64999ACE282F2F5F2093050225306D
:1040900008F493CE8091F1029091F202892B51F0B5
:1040A0008091EB029091EC02840F951F9093EC02AB
:1040B0008093EB02283009F080CE1092050281E057
:1040C000809304027ACE90910602992309F475CE6A
:1040D0008091000183FD71CE8091000184FD6DCE41
:1040E000292F2F5F20930602253008F466CE809199
:1040F000F3029091F402892B51F08091E9029091A2
:10410000EA02840F951F9093EA028093E902283017
:1041100009F053CE1092060281E0809303024DCE47
:10412000833009F4ABC0843009F00ECE80913205A3
:104130008F5F8093320590E020912E0530912F05FE
:104140008217930709F40CC18091210280931F020A
:10415000809124028093B8028091B702882309F4E9
:10416000D3C0813009F4C2C285E08093B50283E0F8
:10417000809324059091B602E9CD813009F073C196
:104180008FEF8093050112B8F3CD933009F443C14A
:10419000943009F0DBCD8091220280931F02809140
:1041A00023028093B7028091B802882309F075C179
:1041B00083E08093B5021092B602209120022E3047
:1041C00009F42BC2422F50E020FFBECD203108F071
:1041D00058C2269581E090E002C0880F991F2A9569
:1041E000E2F782B99091B602B1CD293009F48FC1BE
:1041F0002A3008F08DC0273009F4E2C1283009F0D8
:10420000A3CD8091220280931F028091230280938C
:10421000B7028091B802882309F07EC283E08093C0
:10422000B50289E0809301059091B6028FCD80910F
:104230005304882309F45DC0813009F01EC28FEF5A
:104240008093050112B88091210280931F02809112
:1042500024028093B80285E08093B5028093D50450
:1042600082E08093240580913405882309F0FFC003
:1042700081E0809334059091B60268CD809132053B
:104280008F5F8093320590E020912E0530912F05AD
:104290008217930709F493C08091220280931F0232
:1042A000809123028093B7028091B802882341F164
:1042B000813009F41FC285E08093B50284E08093C9
:1042C00024059091B60242CD80912002869580937C
:1042D0001F028091B702882309F0E6C081E0809335
:1042E000B50281E08093B60291E030CD1092760461
:1042F0002FCE80910501807F8093050112B8A3CF56
:1043000083E08093B502DACF81E08093B5022FCFAE
:104310002B3009F447C12B3008F41AC12C3009F0B6
:1043200013CD85E08093B5029091B6020FCD222384
:1043300009F402C1213009F007CD809120028F5F7E
:1043400080931F0286E08093B50282E0809301058E
:104350009091B602FBCC809324059091B602F6CCE6
:104360001092320580912D05882309F09FC181E0CC
:1043700080932D0580913405882309F001C28AEAD3
:1043800082B9809131058F5F80933105909130051E
:10439000891709F0D9CE80912C058F5F80932C0569
:1043A0008C3009F473C282E08093D50482E080935C
:1043B000240585E08093B5029091B602C7CC109297
:1043C000320580912D05882309F074C181E0809326
:1043D0002D0580913405882309F0D5C18AEA82B978
:1043E000809131058F5F8093310590913005891759
:1043F00009F052CFD0CF8091BB02823009F02ACD94
:104400005093BA024093B9021092BB0246988FE0D3
:1044100080932002D2CC8091210280931F02809150
:1044200024028093B8028091B702882341F581E08D
:104430008093B50284E08093B60294E087CC8091AB
:10444000220280931F02809123028093B702809101
:10445000B8028823D9F483E08093B50283E0809387
:10446000B60293E073CC823009F48ACE81CC1092EC
:1044700034059091B6026ACC118210821CCD813035
:1044800009F460C185E08093B502D4CF813009F48E
:1044900051C185E08093B502E1CF813009F456C166
:1044A00085E08093B50287CE813009F447C185E06D
:1044B0008093B50216CFCF01CC9695958795883716
:1044C00091050CF0FBC0A354BD4FFC97F595E79503
:1044D000FC96ED93FC93FFCC809120028F5F80933C
:1044E0001F022093B50287E0809301059091B602E8
:1044F0002DCC809120028F5F80931F0286E08093F5
:10450000B50283E0809301059091B6021FCC8091A3
:10451000210280931F02809124028093B80280912F
:10452000B702882309F0F1C09093B5028AE0809326
:1045300001059091B6020ACC1092200290931F02BE
:1045400086E08093B502909301059091B602FECB70
:104550008091220280931F02809123028093B702F0
:104560008091B802882309F0C9C083E08093B50226
:1045700080911B058E3F18F48F5F80931B059091EF
:1045800002059F5F909302058091D504843009F461
:10459000FDC0943109F416C18BE080930105909120
:1045A000B602D4CB10921F028091B702882309F083
:1045B000BAC09093B502109201059091B602C6CB95
:1045C0008091210280931F02809124028093B8027F
:1045D00086E08093B50288E0809301059091B60251
:1045E000B5CB809120028F5F80931F0286E080937D
:1045F000B50284E0809301059091B602A7CB80912B
:1046000020028F5F80931F0286E08093B50285E0D1
:10461000809301059091B60299CB8091BB028130C5
:1046200009F0D0CD82E08093BB02469A90E08ECB19
:1046300080912002873109F0EBCB10921F0210927B
:10464000BB021092010510920205E091370BF09128
:10465000380B80E1DF011D928A95E9F78091C7054B
:104660009091C8056FEF70E040E150E00E94175C48
:104670001093D4041091D204CBCB823009F4DFCD57
:10468000E2CD80915304882309F063C0405150402B
:104690005595479581E090E002C0880F991F4A9593
:1046A000E2F7809305019091B60250CB10922D0550
:1046B00012B867CE10922D0512B892CECF01845D4C
:1046C0009E4F9595879595958795843B91050CF020
:1046D0006AC0A354BD4FE45BF040F595E795F595AE
:1046E000E795E858FF4FED93FC93F5CB82E080937C
:1046F000B5023DCD84E08093B502E0CD813009F470
:10470000C1C085E08093B50233CF813009F4AEC0DB
:1047100085E08093B5020ACF813009F4ABC085E013
:104720008093B5027ECD813009F4A8C085E08093E6
:10473000B50241CF84E08093B50290CE82E08093B1
:10474000B502CFCD82E08093B50274CE9093B502CE
:1047500032CD813009F0B1C0209105014051504067
:104760005595479581E090E002C0880F991F4A95C2
:10477000E2F780958223809305019091B602E6CA04
:1047800085E582B9FECD85E582B92ACE1092020573
:1047900090911B0580910C05981708F4FDCE85E0DB
:1047A0008093D504F9CEA354BD4FE45AF140F5955A
:1047B000E795F595E795F595E795EC54FF4FED9363
:1047C000FC9389CB1092020520914D0830914E0840
:1047D0008091690890916A0890934E0880934D08E3
:1047E00030936A082093690840914A0550914B051F
:1047F0008091370B9091380B90934B0580934A052D
:104800004093370B5093380B209136053091370584
:104810003093790B2093780B8091C7059091C80550
:1048200090933705809336053093C8052093C705CC
:10483000FA0180E1DF011D928A95E9F78091C705B1
:104840009091C8056FEF70E040E150E00E94175C66
:104850008091D504813009F445C08091D50485301C
:1048600009F09ACE86E08093D50496CE82E08093BC
:10487000B5025CCE84E08093B502D3CC82E0809315
:10488000B50299CE84E08093B50272CE81E0809328
:10489000D504109226051092B6021092D4040E94FC
:1048A000254C12B80E94091D6093270570932805B6
:1048B0008093290590932A0579CD823009F044CA66
:1048C00020910501405150405595479581E090E079
:1048D00002C0880F991F4A95E2F780958223809342
:1048E000050132CA82E08093D50410921B05B5CF32
:1048F0000F931F93CF93DF93E0E9F0E01082A1E9DB
:10490000B0E01C9221E730E0E901188240EA50E073
:10491000EA01188261EA70E0EB01188202E710E018
:10492000E80118828081836880838081836080832E
:104930008C918B608C938091F1029091F202909314
:1049400099008093980010929B0010929A00D901D0
:104950008C9181608C9380818F7580838EB1877EEE
:104960008EB9EA01888183688883FB0180818B602E
:1049700080838091F3029091F4029093A900809338
:10498000A8001092AB001092AA00D8018C9181600F
:104990008C9388818F758883E2E0F1E08081877E47
:1049A0008083DF91CF911F910F9108952EEF813079
:1049B000920714F481E09EEF9C0182E020303807DA
:1049C00014F02FEF31E0C9010895282F332727FD78
:1049D000309537FD29C030930E0320930D0387FDDA
:1049E0001AC03093F8022093F702C90122E0803008
:1049F00092073CF08FEF91E09093F8028093F702DA
:104A0000089581509E4F34F481E09EEF9093F80218
:104A10008093F702089588279927821B930B909320
:104A2000F8028093F702E2CF309521953F4FD3CF24
:104A3000282F332727FD309537FD29C030931003E9
:104A400020930F0387FD1AC03093F6022093F502DE
:104A5000C90122E0803092073CF08FEF91E0909303
:104A6000F6028093F502089581509E4F34F481E060
:104A70009EEF9093F6028093F50208958827992778
:104A8000821B930B9093F6028093F502E2CF309550
:104A900021953F4FD3CF80915305882309F03FC024
:104AA000E091BB08E23008F477C04E2F50E0FA01E5
:104AB000EE0FFF1FEE0FFF1FEE0FFF1FEE0FFF1F8A
:104AC000EC53F74F808191812091760B3091770BD9
:104AD0008217930734F001969093770B8093760BAF
:104AE0009C01FA013197DF01A295B295B07FBA27F8
:104AF000A07FBA27AE51B74F8091BC049091BD04FE
:104B00008D939C93EE0FFF1FEE0FFF1FEE0FFF1F05
:104B1000EE0FFF1FEC51F74F318320830895813052
:104B200031F0823009F470C08330E9F10895E091EA
:104B3000BB08E23008F49EC04E2F50E0FA01E29527
:104B4000F295F07FFE27E07FFE27EE53F74F868138
:104B500097812091760B3091770B8217930734F071
:104B600001969093770B8093760B9C01FA01319715
:104B7000E295F295F07FFE27E07FFE27DF01AA5144
:104B8000B74F8091BE049091BF048D939C93EE51DA
:104B9000F74F3783268308954E2F50E02091760BF0
:104BA0003091770B9ECFE091BB08E23008F470C0E3
:104BB0004E2F50E0FA01E295F295F07FFE27E07F5C
:104BC000FE27EE53F74F868597852091760B30911F
:104BD000770B8217930734F001969093770B8093AD
:104BE000760B9C01FA01E295F295F07FFE27E07FBB
:104BF000FE27EE52F74F8091BE049091BF04958737
:104C00008487378726870895E091BB08E230C8F192
:104C10004E2F50E0FA01E295F295F07FFE27E07FFB
:104C2000FE27EE53F74F828593852091760B3091C6
:104C3000770B8217930734F001969093770B80934C
:104C4000760B9C01FA013197EE0FFF1FEE0FFF1F4D
:104C5000EE0FFF1FEE0FFF1FDF01A651B74F809130
:104C6000BC049091BD048D939C93EE51F74F338714
:104C7000228708954E2F50E02091760B3091770BCC
:104C800075CF4E2F50E02091760B3091770BDACF15
:104C90004E2F50E02091760B3091770BA3CF8F925F
:104CA0009F92AF92BF92CF92DF92EF92FF920F93BB
:104CB0001F93CF93DF93462F9C01220F331F220FA8
:104CC000331F280F391F2115310509F492C0862F93
:104CD0008250823008F49DC0442309F077C060916F
:104CE000E4087091E508621773070CF099C0809191
:104CF000F4089091F508821793070CF01EC280917A
:104D0000040990910509821793070CF066C38091FE
:104D1000140990911509821793070CF05BC38091D9
:104D2000240990912509821793070CF059C38091AB
:104D3000340990913509821793070CF054C3809180
:104D4000440990914509821793070CF052C3809152
:104D5000540990915509821793070CF047C380912D
:104D6000640990916509821793070CF045C3B90156
:104D7000882777FD8095982F0E9485597B018C01AB
:104D80006091620970916309882777FD8095982F5B
:104D90000E9485599B01AC01C801B7010E949E5A2F
:104DA0007B018C016091640970916509882777FD0A
:104DB0008095982F0E9485599B01AC01C801B701CD
:104DC0000E94EA580E9452599B0115C04330C1F11C
:104DD000423009F424C1413009F4ACC0442339F213
:104DE000413009F4EFC0423009F461C1433009F4A5
:104DF0006FC020E030E0C901DF91CF911F910F918A
:104E0000FF90EF90DF90CF90BF90AF909F908F90EA
:104E10000895309521953F4F442309F460CFD6CFB4
:104E20008091E2089091E308AC01249FC001259F86
:104E3000900D349F900D11240E945C5B9B01DBCF91
:104E40006091F0087091F108621773070CF062C16D
:104E50008091000990910109821793070CF06DC1B0
:104E60008091100990911109821793070CF0B5C237
:104E70008091200990912109821793070CF0AAC212
:104E80008091300990913109821793070CF0A8C2E4
:104E90008091400990914109821793070CF0A3C2B9
:104EA0008091500990915109821793070CF0A1C28B
:104EB0008091600990916109821793070CF096C266
:104EC0008091700990917109821793070CF094C238
:104ED000B901882777FD8095982F0E9485597B011D
:104EE0008C0160916E0970916F09882777FD80951C
:104EF000982F0E9485599B01AC01C801B7010E94FF
:104F00009E5A7B018C01609170097091710988270C
:104F100077FD8095982F0E9485599B01AC01C801AF
:104F2000B7010E94EA580E94525922273327261BB4
:104F3000370B61CF6091E8087091E9086217730739
:104F40000CF060C08091F8089091F90882179307DF
:104F50000CF0F3C08091080990910909821793071A
:104F60000CF03BC2809118099091190982179307A0
:104F70000CF030C28091280990912909821793077B
:104F80000CF02EC28091380990913909821793074D
:104F90000CF029C280914809909149098217930722
:104FA0000CF027C2809158099091590982179307F4
:104FB0000CF01CC2809168099091690982179307CF
:104FC0000CF01AC2B901882777FD8095982F0E94AE
:104FD00085597B018C01609166097091670988276A
:104FE00077FD8095982F0E9485599B01AC01C801DF
:104FF000B7010E949E5A7B018C01609168097091F3
:105000006909D4CE8091E6089091E708FC012E9FB3
:10501000C0012F9F900D3E9F900D11240DCF6091E8
:10502000EC087091ED08621773070CF060C0809176
:10503000FC089091FD08821793070CF07EC08091C8
:105040000C0990910D09821793070CF0C6C180914D
:105050001C0990911D09821793070CF0BBC1809128
:105060002C0990912D09821793070CF0B9C18091FA
:105070003C0990913D09821793070CF0B4C18091CF
:105080004C0990914D09821793070CF0B2C18091A1
:105090005C0990915D09821793070CF0A7C180917C
:1050A0006C0990916D09821793070CF0A5C1B901A5
:1050B000882777FD8095982F0E9485597B018C0168
:1050C00060916A0970916B09882777FD8095982F08
:1050D0000E9485599B01AC01C801B7010E949E5AEC
:1050E0007B018C0160916C0970916D0910CF8091EA
:1050F000EA089091EB08AC01249FC001259F900D18
:10510000349F900D11240E945C5B22273327261BBD
:10511000370B71CE8091EE089091EF08FC012E9F25
:10512000C0012F9F900D3E9F900D11240E945C5B4B
:1051300022273327261B370B5ECEC1E0D0E0C930D3
:10514000D10509F44BCE442309F059C0FE01319733
:10515000EE0FFF1FEE0FFF1FEE0FFF1FEE0FFF1FE3
:10516000DF01AC51B74FCD90DC90EE51F74FA080EE
:10517000B1802C193D09B901882777FD8095982FBA
:105180000E9485597B018C01FE01E295F295F07F2A
:10519000FE27E07FFE27EE51F74F608171816A198B
:1051A0007B09882777FD8095982F0E9485599B0160
:1051B000AC01C801B7010E949E5A7B018C01CC0F43
:1051C000DD1FCC0FDD1FCC0FDD1FCC0FDD1FCC5141
:1051D000D74F688179816C197D09882777FD809583
:1051E000982F0E9485599B01AC01C801B7010E940C
:1051F000EA580E9452599B012A0D3B1DFCCD4130BB
:1052000009F44EC0423009F489C0433009F0F1CDB1
:10521000C295D295D07FDC27C07FDC27FE01EE52FD
:10522000F74FA684B784848495842A193B09B90171
:10523000882777FD8095982F0E9485596B017C0106
:105240008E010E51174FF80164857585681979092B
:10525000882777FD8095982F0E9485599B01AC0186
:10526000C701B6010E949E5A6B017C01F801668558
:1052700077856A197B09882777FD8095982F0E948A
:1052800085599B01AC01C701B6010E94EA580E94F2
:105290005259680D791D22273327261B370BABCDBA
:1052A000FE013197E295F295F07FFE27E07FFE2721
:1052B000DF01AE51B74F1696CD90DC901797EA51AB
:1052C000F74FA080B1802C193D09B901882777FDDF
:1052D0008095982F0E9485597B018C01C295D295AB
:1052E000D07FDC27C07FDC27FE01EA51F74F6081C9
:1052F00071816A197B09882777FD8095982F0E9414
:1053000085599B01AC01C801B7010E949E5A7B01DF
:105310008C01CE51D74F6E817F815DCFDE01119719
:10532000FD01E295F295F07FFE27E07FFE27EE512A
:10533000F74FC284D384AA0FBB1FAA0FBB1FAA0FAB
:10534000BB1FAA0FBB1FA651B74FAD90BC902C1925
:105350003D09B901882777FD8095982F0E948559CE
:105360007B018C01CC0FDD1FCC0FDD1FCC0FDD1FAF
:10537000CC0FDD1FFE01E651F74F608171816A1984
:105380007B09882777FD8095982F0E9485599B017E
:10539000AC01C801B7010E949E5A7B018C01CE511D
:1053A000D74F6A857B856C197D09882777FD8095A5
:1053B000982F0E9485599B01AC01C801B7010E943A
:1053C000EA580E9452596A0D7B1D22273327261B5B
:1053D000370B11CDC3E0D0E0B2CEC2E0D0E0AFCE0B
:1053E000C4E0D0E0ACCEC5E0D0E0A9CEC7E0D0E0CC
:1053F000A6CEC6E0D0E0A3CEC8E0D0E0A0CE8F928B
:105400009F92AF92BF92CF92DF92EF92FF920F9353
:105410001F93CF93DF93C091EF02D091F002809160
:10542000F1029091F20297FDEAC06091E608709156
:10543000E7086C177D070CF067C188248A94982CC4
:105440008091F6089091F7088C179D074CF080E04A
:105450009FEF89169FEF990609F475C1882E99244C
:1054600080910609909107098C179D0734F0EFEFA2
:105470008E16EFEF9E0609F462C180911609909195
:1054800017098C179D0734F0FFEF8F16FFEF9F066B
:1054900009F451C180912609909127098C179D0725
:1054A00034F02FEF82162FEF920609F440C180915D
:1054B0003609909137098C179D0734F03FEF83161A
:1054C0003FEF930609F42FC1809146099091470957
:1054D0008C179D0734F08FEF88168FEF980609F42C
:1054E0001EC180915609909157098C179D0734F081
:1054F0009FEF89169FEF990609F40DC1C0906609C8
:10550000D0906709CC16DD0634F0EFEF8E16EFEF82
:105510009E0609F4FCC0209709F460C08114910430
:1055200009F442C13FEF83163FEF930609F40DC122
:10553000F4013197E295F295F07FFE27E07FFE2798
:10554000DF01AA51B74FCD90DC90EE51F74FA68006
:10555000B780CC19DD09BE01882777FD8095982F8B
:105560000E9485597B018C0182949294B0EF9B221A
:1055700098248B229824F401EE51F74F66817781AD
:105580006A197B09882777FD8095982F0E94855995
:105590009B01AC01C801B7010E949E5A7B018C019E
:1055A00086EE98E0880E991EF401608171816C1975
:1055B0007D09882777FD8095982F0E9485599B014A
:1055C000AC01C801B7010E94EA580E9452596A0D05
:1055D0007B1D7093C3046093C20404C01092C30483
:1055E0001092C204DF91CF911F910F91FF90EF9025
:1055F000DF90CF90BF90AF909F908F900895609173
:10560000EE087091EF086C177D070CF02BC10FEFBF
:105610001FEF8091FE089091FF088C179D072CF0DA
:105620002FEF0F3F120709F420C180910E099091CE
:105630000F098C179D072CF03FEF0F3F130709F45C
:1056400026C180911E0990911F098C179D072CF08F
:105650008FEF0F3F180709F417C180912E09909121
:105660002F098C179D072CF09FEF0F3F190709F4A6
:1056700008C180913E0990913F098C179D072CF03D
:10568000EFEF0F3F1E0709F4F9C080914E0990918A
:105690004F098C179D072CF0FFEF0F3F1F0709F4F0
:1056A000EAC080915E0990915F098C179D072CF0EC
:1056B0002FEF0F3F120709F4DBC0C0906E09D090A6
:1056C0006F09CC16DD062CF03FEF0F3F130709F4EE
:1056D0007EC00115110509F07CC08091F008909101
:1056E000F1089C01C29FC001C39F900DD29F900DF5
:1056F00011240E945C5BCB01909581959F4F909304
:10570000C3048093C2046ECF8824992499CE88E084
:10571000882E912C00CF97E0892E912CEFCE26E099
:10572000822E912CDECE35E0832E912CCDCE44E01E
:10573000842E912CBCCE53E0852E912CABCEE2E092
:105740008E2E912C9ACE81E089CE6091680970915D
:105750006909882777FD8095982F0E9485597B01DC
:105760008C01BE01882777FD8095982F0E9485596E
:105770009B01AC01C801B7010E949E5A7B018C01BC
:10578000B601882777FD8095982F0E9485599B0147
:10579000AC01C801B7010E94EA580E9452597093A7
:1057A000C3046093C2041ECF8091E8089091E90879
:1057B0009C01C29FC001C39F900DD29F900D1124E8
:1057C0000E945C5B7093C3046093C2040BCF08E03B
:1057D00010E03FEF0F3F130709F45CC002951295EC
:1057E000107F1027007F1027F801EE52F74FA48496
:1057F000B58486849784CA19DB09BE01882777FDA2
:105800008095982F0E9485596B017C010E51174F8E
:10581000F8016685778568197909882777FD80956D
:10582000982F0E9485599B01AC01C701B6010E94C7
:105830009E5A6B017C01F801648575856A197B09A4
:10584000882777FD8095982F0E9485599B01AC0190
:10585000C701B6010E94EA580E945259680D791D8D
:10586000CB014ACF00E010E0D4CE01E010E0DDCE65
:1058700007E010E022CF06E010E013CF05E010E0D3
:1058800004CF04E010E0F5CE03E010E0E6CE02E045
:1058900010E0D7CE6091700970917109882777FD6B
:1058A0008095982F0E9485597B018C01BE01882725
:1058B00077FD8095982F0E9485599B01AC01C80106
:1058C000B7010E949E5A7B018C01B601882777FDA3
:1058D0008095982F0E9485599B01AC01C801B701A2
:1058E0000E94EA580E945259CB0106CF8F929F9294
:1058F000AF92BF92CF92DF92EF92FF920F931F93DE
:10590000CF93DF93C091ED02D091EE028091F3022C
:105910009091F40297FDF3C06091E2087091E30862
:105920006C177D070CF079C188248A94982C80919B
:10593000F2089091F3088C179D074CF080E09FEFE0
:1059400089169FEF990609F487C1882E99248091C2
:105950000209909103098C179D0734F0EFEF8E1622
:10596000EFEF9E0609F474C180911209909113091A
:105970008C179D0734F0FFEF8F16FFEF9F0609F499
:1059800063C180912209909123098C179D0734F0FF
:105990002FEF82162FEF920609F452C1809132093F
:1059A000909133098C179D0734F03FEF83163FEF3A
:1059B000930609F441C180914209909143098C17E3
:1059C0009D0734F08FEF88168FEF980609F430C1E9
:1059D00080915209909153098C179D0734F09FEFE5
:1059E00089169FEF990609F41FC1C0906209D090F3
:1059F0006309CC16DD0634F0EFEF8E16EFEF9E064E
:105A000009F40EC1209709F469C08114910409F4C6
:105A100054C13FEF83163FEF930609F41FC1D40131
:105A20001197FD01E295F295F07FFE27E07FFE27BA
:105A3000EE51F74FC080D180AA0FBB1FAA0FBB1F2A
:105A4000AA0FBB1FAA0FBB1FAC51B74FAD90BC90A4
:105A5000CC19DD09BE01882777FD8095982F0E941B
:105A600085597B018C01880C991C880C991C880C29
:105A7000991C880C991CF401EC51F74F60817181DD
:105A80006A197B09882777FD8095982F0E94855990
:105A90009B01AC01C801B7010E949E5A7B018C0199
:105AA00082EE98E0880E991EF401608171816C1974
:105AB0007D09882777FD8095982F0E9485599B0145
:105AC000AC01C801B7010E94EA580E9452596A0D00
:105AD0007B1D7093C1046093C00404C01092C10484
