:100000000C94CD000C94EE000C94EE000C94EE00D9
:100010000C94EE000C94EE000C94EE000C94EE00A8
:100020000C94EE000C94EE000C9464070C94EE001B
:100030000C94EE000C9498070C94EE000C94CD0FE9
:100040000C94EE000C94EE000C94EE000C94EE0078
:100050000C94EE000C94EE000C94EE000C94EE0068
:100060000C94EE000C94050F0C94EE000C94EE0032
:100070000C94EE000C940C110C94EE000C94EE0019
:100080000C9452230C9468230C94EE000C94BB2225
:100090000C94EE000C94EE000C94EE000C94EE0028
:1000A0000C94EE000C94EE000C948F220C94A5227C
:1000B0000C94EE000C94EE210C94EE000C94EE00E7
:1000C0000C94EE000C94EE000C94EE000C94EE00F8
:1000D0000C94EE000C94EE000C94EE000C94EE00E8
:1000E0000C94EE008A0A750A4C0A310A0C0AD609E9
:1000F000A809EC0975095909F908F908F908F90876
:10010000F908F9084D094209F908F908F908F90848
:10011000F908F908F908F908F908F908F908F908D7
:1001200075094C0A36092909F908F908F908F90886
:10013000F908F908F908F908F908F908F908F908B7
:100140000C0AA809F908F9088A0AD6091909084AFF
:10015000D73B3BCE016E84BCBFFDC12F3D6C7431DB
:100160009ABD56833DDA3D00C77F11BED9E4BB4C32
:100170003E916BAAAABE000000803F05A84CCDB2FC
:10018000D44EB93836A9020C50B9918688083CA6DD
:10019000AAAA2ABE000000803F0011241FBECFEF94
:1001A000D1E2DEBFCDBF00E00CBF12E0A0E0B2E0C4
:1001B000E4E7FFE900E00BBF02C007900D92AA310F
:1001C000B107D9F71BE0AAE1B2E001C01D92AF3739
:1001D000B107E1F70E94814B0C94B84F0C940000DA
:1001E0002091140381E090E00DB407FC09C0019652
:1001F00037E280319307C0F321E00DB407FEF7CF5B
:1002000020931403089584B1807F84B984B18760FA
:1002100084B980E58CBD8DB581608DBD08951CBC11
:100220001DBC0895482F6623E9F09C01F9018081E7
:100230008EBD2091140381E090E00DB407FC09C04D
:10024000019637E280319307C0F321E00DB407FE39
:10025000F7CF20931403222329F431968E2F841B89
:10026000861728F30895CF93DF93EC01442321F1FF
:10027000A0E0B0E0FE01EA0FFB1F80818EBD8091FF
:10028000140321E030E00DB407FC0AC02F5F3F4F9C
:1002900097E220313907B8F381E00DB407FEF6CFBD
:1002A00080931403882341F48EB5FB01EA0FFB1FF2
:1002B00080831196A417F0F2DF91CF9108958EBD3F
:1002C0002091140381E090E00DB407FC09C0019671
:1002D00037E280319307C0F321E00DB407FEF7CF7A
:1002E000209314038EB5089581E08093150383E075
:1002F00080931603089510921503089583E0809368
:1003000016030895289881EE0E945F01289A0895A7
:10031000289880E60E945F018FEF0E945F01289A73
:1003200008951F93162F28988F7180620E945F0195
:10033000812F0E945F01289A1F910895289882EECC
:100340000E945F01289A089580913705882311F053
:1003500080E0089528988FEF0E945F01289A8074AA
:100360000895FF920F931F938B01F42E28988F719D
:1003700080620E945F01C8016F2D0E941201289ABD
:100380001F910F91FF900895FF920F931F938B0180
:10039000F42E28988F710E945F01C801B8014F2D7B
:1003A0000E943301289A1F910F91FF900895FF92A8
:1003B0000F931F93CF93DF93082FF92E162F2898B2
:1003C00081EE0E945F01289A289888EA0E945F01C6
:1003D000112359F0802F9F2D9C01E90189910E94E2
:1003E0005F019E01201B2117C8F3289ADF91CF914E
:1003F0001F910F91FF900895DF93CF930F92CDB788
:10040000DEB71982289881E10E945F01BE016F5F0B
:100410007F4FCB0141E00E943301289A89810F90E0
:10042000CF91DF910895DF93CF930F92CDB7DEB7D1
:100430001982289887E10E945F01BE016F5F7F4F9C
:10044000CB0141E00E943301289A898181700F908D
:10045000CF91DF9108950F931F938C01289880E32B
:100460000E945F01C80165E00E941201289A1F9155
:100470000F9108950F931F938C012C9828988AE26E
:100480000E945F01C80165E00E941201289A2C9A1F
:100490001F910F9108951F93CF93DF93EC01162FB7
:1004A000809137058823E1F72C9881E08093370508
:1004B000289880E20E945F018AE40E945F01289AE6
:1004C000289881EE0E945F01289A289880EA0E946D
:1004D0005F01CE01612F0E941201289A2C9ADF91B0
:1004E000CF911F9108950F931F93DF93CF9300D067
:1004F000CDB7DEB7289880E20E945F018DE00E94B0
:100500005F01289A289883E20E945F0181E00E949F
:100510005F01289A809111039091120399838A8335
:100520001B82289880E30E945F018E010F5F1F4F9E
:10053000C80163E00E941201289A28988AE20E946A
:100540005F01C80163E00E941201289A289881E2A5
:100550000E945F0181E00E945F01289A289882E250
:100560000E945F0181E00E945F01289A289884E23E
:100570000E945F0182E10E945F01289A289885E22B
:100580000E945F0188E20E945F01289A289881E317
:100590000E945F018DE00E945F01289A289880E503
:1005A0000E945F0183E70E945F01289A28988CE3EC
:1005B0000E945F0181E00E945F01289A28988DE3E4
:1005C0000E945F0186E00E945F01289A289880E2DD
:1005D0000E945F018FE00E945F01289A0F900F90A8
:1005E0000F90CF91DF911F910F9108952C9A289A27
:1005F0000E94730208950F931F938C01289881E63F
:100600000E945F01C801B8014DE00E943301289AA1
:10061000289887E20E945F0180E40E945F01289A87
:100620001F910F9108950F931F93DF93CF930F9214
:10063000CDB7DEB780913705882331F00F90CF9189
:10064000DF911F910F91089528988FEF0E945F010D
:10065000289A86FFF3CF809113038260809313035F
:10066000289887E20E945F0180E70E945F01289A34
:100670001982289887E10E945F01BE016F5F7F4F5A
:10068000CB0141E00E943301289A898180FDD6CFB9
:10069000289881E60E945F018CE899E0BC014DE05A
:1006A0000E943301289A289887E20E945F0180E423
:1006B0000E945F01289A289882EE0E945F01289A82
:1006C00080911503813009F491C280918C098823AF
:1006D000B9F480918D09882399F480918E0988233B
:1006E00079F480918F09883059F48091900988239A
:1006F00039F480919109882319F48CE30E947F10CA
:1007000080917005882341F580919009282F30E071
:100710002F7730703093100320930F03609191096D
:10072000462F50E04F77507050930E0340930D03C7
:1007300087FD27C288279927821B930B9093F60287
:100740008093F50267FD83C388279927841B950B47
:100750009093F8028093F70220918C0930E0309357
:10076000750920937409E0918D09F0E0F093770901
:10077000E093760900918E0910E0109379090093B7
:100780007809922F8827821B930B64E670E00E9401
:100790008E4E262F2095209308029E2F88278E1B91
:1007A0009F0B64E670E00E948E4E609560930A0293
:1007B000902F8827801B910B64E670E00E948E4E7C
:1007C000609560930902822F0E94F13580910902A1
:1007D0000E94073680910A020E941D3620918F09DF
:1007E000922F20FF11C1449891FF3CC1459892FF80
:1007F00036C181E080930E0294FDE6C196FF2CC1C4
:1008000081E08093740427FDE7C110927504809104
:10081000920980FF1BC180910B018E7F80930B0199
:100820008091920981FF0CC180910B018D7F809393
:100830000B018091920982FFFDC080910B018B7F9B
:1008400080930B018091920983FFF2C0A39880915D
:10085000920984FFE7C080910B018F7E80930B018A
:100860008091920985FFD8C080910B018F7D809384
:100870000B018091920986FFC9C080910B018F7B8B
:1008800080930B018091920987FDAAC180910B0191
:10089000806880930B0180915004883009F476C100
:1008A000809107028093C408853009F474C28630B1
:1008B00008F0DAC0833009F4F4C1843009F054C080
:1008C00080915D0290915E028093C508892F990FF7
:1008D000990B8093C608809165029091660280937F
:1008E000C708892F990F990B8093C80880916702D8
:1008F000909168028093C908892F990F990B809372
:10090000CA088091690290916A028093CB08892F6E
:10091000990F990B8093CC0880916B0290916C0297
:100920008093CD08892F990F990B8093CE088091E1
:100930002C0490912D048093CF08892F990F990B47
:100940008093D00880912E0490912F048093D10839
:10095000892F990F990B8093D2088091230480935B
:10096000D30885E080930702289881EE0E945F01FA
:10097000289A289888EA0E945F018091C4080E9402
:100980005F018091C5080E945F018091C6080E94A6
:100990005F018091C7080E945F018091C8080E9492
:1009A0005F018091C9080E945F018091CA080E947E
:1009B0005F018091CB080E945F018091CC080E946A
:1009C0005F018091CD080E945F018091CE080E9456
:1009D0005F018091CF080E945F018091D0080E9442
:1009E0005F018091D1080E945F018091D2080E942E
:1009F0005F018091D3080E945F01289A0F90CF91E8
:100A0000DF911F910F910895449AEECE80910B01D2
:100A1000806480930B0136CF80910B0180628093BC
:100A20000B0127CF80910B01806180930B0118CFC0
:100A3000A39A0DCF80910B01846080930B0102CFAC
:100A400080910B01826080930B01F3CE80910B01AA
:100A5000816080930B01E4CE10927404D4CE109286
:100A60000E02CACE459AC3CE863009F4C5C087307F
:100A700009F07ACF6091D1027091D2028091D302B5
:100A80009091D4020E94C04C6093C508272F382F44
:100A9000492F552747FD5A952093C6089C01552795
:100AA00037FD5095452F2093C708692F992767FD7B
:100AB0009095792F892F6093C8086091CD0270912D
:100AC000CE028091CF029091D0020E94C04C6093E0
:100AD000C908272F382F492F552747FD5A952093AE
:100AE000CA089C01552737FD5095452F2093CB0808
:100AF000692F992767FD9095792F892F6093CC08EE
:100B000060917704709178048091790490917A04CF
:100B100060937B0470937C0480937D0490937E04A7
:100B200020E030E44FE054E40E94E44D0E94C04CC9
:100B30006093CD08672F770F770B6093CE08609195
:100B40007F047091800480918104909182040E94BE
:100B5000C54C6093CF087093D00860918304709166
:100B6000840480918504909186040E94C54C609312
:100B7000D1087093D2081092D30883E080930702C3
:100B8000F3CE3093F6022093F502DCCD8091700510
:100B9000882309F085CE8091930980FF81CE0E9441
:100BA000D4398FEF93E0909366028093650290931F
:100BB0006C0280936B0286E08093630B81E08093EC
:100BC000BD08809370056CCE0E94D4390E94E40F5A
:100BD00020918F09922F12CE81E08093750417CE59
:100BE00080910B018F7780930B0155CE84EC98E0B8
:100BF00060E10E94D70122CD8091350290913602AA
:100C00008093C50880913502909136029093C60872
:100C100080914502909146028093C70880914502D9
:100C2000909146029093C8088091490290914A029F
:100C30008093C9088091490290914A029093CA0812
:100C400080914D0290914E028093CB0880914D028D
:100C500090914E029093CC08809151029091520253
:100C60008093CD0880915102909152029093CE08CA
:100C700080913004909131048093CF08892F990F8F
:100C8000990B8093D0088091B9029091BA02809319
:100C9000D1089093D2081092D30887E0809307027E
:100CA00063CE80915502909156028093C508892F9A
:100CB000990F990B8093C608809157029091580222
:100CC0008093C708892F990F990B8093C80880914A
:100CD000590290915A028093C908892F990F990B54
:100CE0008093CA0880915B0290915C028093CB084C
:100CF000892F990F990B8093CC0880915F02909176
:100D000060028093CD08892F990F990B8093CE08AC
:100D100080916102909162028093CF08892F990F90
:100D2000990B8093D0088091630290916402809324
:100D3000D108892F990F990B8093D2082091030134
:100D4000809103014091030190E08072907095952D
:100D5000879595958795959587959595879595957B
:100D60008795880F991F441F4427441F440F440F41
:100D7000482B30E0207130703595279535952795B3
:100D80003595279535952795422B4093D30884E0D8
:100D900080930702E9CD80912502909126028093ED
:100DA000C50880912502909126029093C6088091F3
:100DB000290290912A028093C7088091290290917C
:100DC0002A029093C80880912D0290912E02809360
:100DD000C90880912D0290912E029093CA088091AB
:100DE0003102909132028093CB0880913102909130
:100DF00032029093CC088091390290913A0280930C
:100E0000CD088091390290913A029093CE0880915A
:100E10003D0290913E028093CF0880913D029091D7
:100E20003E029093D00880914102909142028093BB
:100E3000D10880914102909142029093D208809112
:100E400050048093D30886E0809307028DCD5093A1
:100E5000F8024093F70280CC909116039093C40857
:100E600080918C09981741F00E94130390918C098E
:100E7000809116039817C1F71092C4089F3F21F084
:100E80009F5F90931603089583E08093160308955F
:100E9000CF93DF93E8E6F0E01082ACE6B0E01C927E
:100EA00020EB30E0E90118821092B100109270003E
:100EB0008081826080838C9180688C93888182603D
:100EC0008883DF91CF9108951F920F920FB60F92F2
:100ED00011248F9380910E02882321F180910301C8
:100EE00086FD20C0809168008D7F8093680080918E
:100EF0006C008F7780936C0081E080930F028DE00F
:100F00008093B3008091B10086608093B10080919E
:100F1000700082608093700010921C0210921D027B
:100F200010921E028F910F900FBE0F901F90189578
:100F30001F920F920FB60F9211242F933F934F934E
:100F40005F938F939F938091B100887F8093B100CE
:100F500080910F02882359F18091030186FD69C0B9
:100F600010920F0283E38093B3008091B1008660FA
:100F70008093B100809170008260809370008091B6
:100F80000102909102022FEF8F3F920729F0019604
:100F900090930202809301029F918F915F914F91F4
:100FA0003F912F910F900FBE0F901F901895409179
:100FB0000102509102028FEF4F3F580709F44AC0D7
:100FC0004130510509F480C0CA010297059708F421
:100FD00050C0CA010797069708F0ABC086E380931C
:100FE000B3008091B10086608093B1008091700061
:100FF0008260809370002091030130E02074307093
:101000000024220F331F001C220F331F001C232F2C
:10101000302D8CE090E0841B950B02C0220F331F13
:101020008A95E2F780911C02820F80931C02CA010C
:10103000AECF8091680082608093680080916C00E0
:10104000806880936C008FEF9FEF909302028093F3
:101050000102A2CF8091030186FF54C080916800F5
:1010600082608093680080916C00806880936C003F
:1010700093CF86E38093B3008091B1008660809324
:10108000B100809170008260809370002091030114
:1010900030E0207430700024220F331F001C220F18
:1010A000331F001C232F302D86E090E0841B950B0E
:1010B00002C0220F331F8A95E2F780911D02820F32
:1010C00080931D02CA0163CF8091030190E0807478
:1010D0009070082E892F000C881F990B000C881F18
:1010E000991F80931E0286E38093B3008091B10024
:1010F00086608093B1008091700082608093700060
:10110000CA0145CF8CE18093B3008091B100866025
:101110008093B10080917000826080937000109283
:101120001C0210921D0210921E0240E050E0CA0103
:101130002ECF4D30510509F07ACF1092700080917A
:10114000680082608093680080916C008068809362
:101150006C008FEF9FEF90930202809301028091C9
:101160001E028093000280911D0280931A028091DA
:101170001C0280931B0281E0809324040DCF809198
:101180000002089580911A02089580911B0208952B
:1011900080910E02882321F080912404882309F491
:1011A0000895109224040E94D70F209127043091B3
:1011B00028044091290450912A04621B730B840B6C
:1011C000950B635877408040904050F30E94D70FB2
:1011D00060932704709328048093290490932A0431
:1011E00080911B0280932304E82FF0E0E533F105A2
:1011F000C0F04091F5025091F6022091F702309133
:10120000F802CA01642F892F57FDB7C160930F03FD
:101210008093100337FDA8C130930E0320930D0374
:101220000895EE58FF4FEE0FFF1F0590F491E02D4B
:1012300019948091260490E00196837090708093B9
:101240002604813009F4CAC1813008F0BBC1109274
:101250007404109275044091F5025091F6022091A9
:10126000F7023091F802CDCF1092740481E08093A0
:1012700075044091F5025091F6022091F7023091E9
:10128000F802BFCF109274044091F5025091F6021B
:101290002091F7023091F802B4CF81E0809374047A
:1012A0004091F5025091F6022091F7023091F80238
:1012B000A8CF2091F7023091F802225030403093AD
:1012C000F8022093F7028FEF213838070CF05AC14B
:1012D00081E89FEF9093F8028093F7024091F50226
:1012E0005091F60221E83FEF8CCF4091F5025091EA
:1012F000F6028091F3029091F402481759070CF01E
:101300005BC19A01425050405093F6024093F5025F
:10131000225030403093F8022093F7028FEF41388B
:10132000580744F481E89FEF9093F6028093F5020A
:1013300041E85FEF8FEF213838070CF062CF81E88A
:101340009FEF9093F8028093F70221E83FEF59CF87
:101350004091F5025091F602425050405093F602EF
:101360004093F5026091F7027091F8026E5F7F4F33
:101370009B017093F8026093F7028FEF4138580792
:1013800044F481E89FEF9093F6028093F50241E8E0
:101390005FEF603871050CF434CF8FE790E09093E5
:1013A000F8028093F7022FE730E02BCF1092F6027D
:1013B0001092F5021092F8021092F70280915004F8
:1013C000883009F418C16091F5028091F6022091ED
:1013D000F7023091F8021ACF4091F5025091F602CF
:1013E000425050405093F6024093F5022FEF41389F
:1013F00052070CF002CF81E89FEF9093F6028093A2
:10140000F5028FE790E02091F7023091F802909377
:10141000100380930F03FECE4091F5025091F60227
:101420004E5F5F4F5093F6024093F5026091F702D2
:101430007091F802625070409B017093F8026093C3
:10144000F7024038510544F08FE790E09093F602A0
:101450008093F5024FE750E061587F4F0CF0D1CEFA
:101460006ECF2091F7023091F8022E5F3F4F3093FC
:10147000F8022093F702203831050CF483C08FE77F
:1014800090E09093F8028093F7024091F50250911A
:10149000F6022FE730E0B5CE4091F5025091F6020A
:1014A0002091F7023091F802241735070CF082C022
:1014B0009A014E5F5F4F5093F6024093F5022E5F04
:1014C0003F4F3093F8022093F7024038510544F023
:1014D0008FE790E09093F6028093F5024FE750E09B
:1014E000203831050CF48DCE58CF4091F502509143
:1014F000F6024E5F5F4F5093F6024093F50240387C
:1015000051050CF47ACE8FE790E09093F602809329
:10151000F50259CF8091250490E0019665E070E0D6
:101520000E94A24E80932504882389F5449A459A07
:1015300010920A028FEF8093090280930802809133
:1015400008020E94F135809109020E9407368091BD
:101550000A020E941D364091F5025091F602209138
:10156000F7023091F8024DCE88279927821B930B02
:1015700090930E0380930D03089588279927841B69
:10158000950B45CF4091F5025091F6023ACE81304D
:1015900009F44EC0823009F453C0833009F45AC0B4
:1015A000843069F68FEF80930A028093090280935A
:1015B0000802C5CFA9017DCF2091F7023091F80232
:1015C000A901A0CE823009F44FCE833009F051CE6C
:1015D00081E080937404809375040BCE809374042F
:1015E000109275044091F5025091F6022091F70295
:1015F0003091F80206CE0E94D4398FEF93E0909399
:1016000066028093650290936C0280936B0286E081
:101610008093630B81E08093BD08809370054091B7
:10162000F5025091F6022091F7023091F802E9CDCF
:101630008FEF80930A0210920902809308027FCFF5
:10164000449845988FEF80930A0280930902109284
:10165000080275CF10920A02109209021092080235
:101660006ECF0895EF92FF920F931F93CF93DF9366
:10167000EC0188819981892B09F4B2C0E090290B93
:10168000F0902A0BF092C308E092C20828813981B9
:1016900037FDE4C08091EF029091F002281B390BD6
:1016A00030932A0B2093290BF901209107033091E5
:1016B00008032E0F3F1F309308032093070386E093
:1016C000213438070CF4ADC080E496E09093080311
:1016D0008093070320E436E008811981C901880F4F
:1016E000991F820F931FAC01662757FD6095762FD7
:1016F000CF01880F991F9F01220F331F220F331F25
:10170000220F331F820F931FAA2797FDA095BA2F90
:10171000480F591F6A1F7B1FEE19FF09EE0FFF1FAD
:10172000CF01AA2797FDA095BA2F480F591F6A1F0E
:101730007B1FC801880F991F880F991F880F991F59
:10174000AA2797FDA095BA2F480F591F6A1F7B1F24
:101750004093FD025093FE026093FF0270930003DA
:1017600077FD6DC0141615061606170614F417FD3E
:1017700068C0415C5D45604070400CF480C080EC06
:101780009DE5A0E0B0E08093FD029093FE02A0935F
:10179000FF02B093000324E0B595A7959795879530
:1017A0002A95D1F79C01998388838091E5029091D5
:1017B000E602181619060CF05DC0C901019699835E
:1017C000888322E080309207F4F08FEF91E09983D4
:1017D0008883DF91CF911F910F91FF90EF90089533
:1017E000109208031092070310922A0B1092290BF3
:1017F0001092C3081092C208DF91CF911F910F91F0
:10180000FF90EF90089581509E4F1CF781E09EEF6E
:1018100099838883DF91CF911F910F91FF90EF9073
:10182000089589EF203C38070CF056CF80EC99EFF3
:10183000909308038093070320EC39EF4DCF17FDF9
:1018400098CF1092FD021092FE021092FF021092A9
:10185000000380E090E0A0E0B0E09DCF8091EF0237
:101860009091F002280F391F30932A0B2093290BF7
:10187000F9011BCFC901019799838883A2CF809179
:10188000FD029091FE02A091FF02B091000380340E
:1018900022EA92072FEFA2072FEFB2070CF07BCFBF
:1018A00080E492EAAFEFBFEF8093FD029093FE02D7
:1018B000A093FF02B09300036ECFEF92FF920F93BD
:1018C0001F93CF93DF93EC0188819981892B09F4D1
:1018D000B2C0E0907505F0907605F0928B09E09229
:1018E0008A092881398137FDE4C08091ED02909109
:1018F000EE02281B390B3093760520937505F9010C
:1019000020910503309106032E0F3F1F30930603ED
:101910002093050386E0213438070CF4ADC080E441
:1019200096E0909306038093050320E436E0088157
:101930001981C901880F991F820F931FAC01662777
:1019400057FD6095762FCF01880F991F9F01220FB9
:10195000331F220F331F220F331F820F931FAA271B
:1019600097FDA095BA2F480F591F6A1F7B1FEE19CC
:10197000FF09EE0FFF1FCF01AA2797FDA095BA2FF1
:10198000480F591F6A1F7B1FC801880F991F880FB6
:10199000991F880F991FAA2797FDA095BA2F480F66
:1019A000591F6A1F7B1F40930103509302036093EA
:1019B00003037093040377FD6DC014161506160615
:1019C000170614F417FD68C0415C5D456040704027
:1019D0000CF480C080EC9DE5A0E0B0E080930103B2
:1019E00090930203A0930303B093040354E0B595CE
:1019F000A795979587955A95D1F79C0199838883E8
:101A00008091E7029091E802181619060CF05DC06B
:101A1000C90101969983888322E080309207F4F00F
:101A20008FEF91E099838883DF91CF911F910F9180
:101A3000FF90EF9008951092060310920503109204
:101A400076051092750510928B0910928A09DF9124
:101A5000CF911F910F91FF90EF90089581509E4F6D
:101A60001CF781E09EEF99838883DF91CF911F91CE
:101A70000F91FF90EF90089589EF203C38070CF00C
:101A800056CF80EC99EF909306038093050320ECEA
:101A900039EF4DCF17FD98CF10920103109202033A
:101AA000109203031092040380E090E0A0E0B0E005
:101AB0009DCF8091ED029091EE02280F391F309357
:101AC000760520937505F9011BCFC901019799830C
:101AD0008883A2CF8091010390910203A091030318
:101AE000B0910403803422EA92072FEFA2072FEF70
:101AF000B2070CF07BCF80E492EAAFEFBFEF8093A8
:101B0000010390930203A0930303B09304036ECFE9
:101B100085B7806185BF2FEF21B912B887EF84B9EF
:101B200080EE85B980EF87B980EB88B98CEF8AB9F0
:101B300083E08BB92DB91EB810BA23BB9091530422
:101B4000992399F414BA20930101109202018FE0B5
:101B50008093040180910501109205011092070104
:101B600020930A0110920B010895913089F414BA60
:101B700020930101109202018FE080930401809371
:101B800005011092070120930A0110920B0108959C
:101B9000923099F488E084BB2093010110920201F5
:101BA0008FE0809304018093050110920701209338
:101BB0000A0187EF80930B01089520930101109291
:101BC00002018FE0809304011092070120930A0123
:101BD000992341F2913031F2923059F308951092E5
:101BE000B8001092BC000895589A599A1092B90002
:101BF00081E08093B8000895982F84EA8093BC0018
:101C00008091BC0087FFFCCF8091B900887F88302D
:101C100021F0803111F081E008959093BB0084E8B9
:101C20008093BC008091BC0087FFFCCF9091B900ED
:101C3000987F983129F080E0903409F081E0089590
:101C400080E00895982F24EA34E844E92093BC000A
:101C50008091BC0087FFFCCF8091B900887F8830DD
:101C600011F0803199F79093BB003093BC008091C4
:101C7000BC0087FFFCCF8091B900887F803211F0D3
:101C8000883539F44093BC008091BC0084FDFCCFC2
:101C9000DDCF089584E98093BC008091BC0084FD71
:101CA000FCCF08958093BB0084E88093BC008091B2
:101CB000BC0087FFFCCF8091B90090E0887F88321C
:101CC00009F091E0892F089584EC8093BC00809105
:101CD000BC0087FFFCCF8091BB00089584E880930F
:101CE000BC008091BC0087FFFCCF8091BB000895B1
:101CF000982F84EA8093BC008091BC0087FFFCCFC2
:101D00008091B900887F883021F0803111F081E026
:101D100008959093BB0084E88093BC008091BC0040
:101D200087FFFCCF9091B900987F983129F080E02F
:101D3000903409F081E0089580E008951092C50084
:101D400080E18093C400E0ECF0E0808182608083D9
:101D5000E1ECF0E0808188698083E2ECF0E0808152
:101D60008660808308951092CD0080E18093CC003E
:101D7000E8ECF0E0808182608083E9ECF0E0808133
:101D800088618083EAECF0E080818660808308953A
:101D90001092C0001092C1001092C2000895982FB6
:101DA0008091C00085FFFCCF9093C600662321F090
:101DB0008091C00086FFFCCF0895982F8091C800C5
:101DC00085FFFCCF9093CE00662321F08091C80060
:101DD00086FFFCCF08958091C0008095881F8827DA
:101DE000881F089520E030E08091C00087FD0AC080
:101DF0002F5F3F4F27393105B9F781E080931A03F0
:101E000080E008958091C60008951F920F920FB64A
:101E10000F920BB60F9211242F933F934F935F9322
:101E20006F937F938F939F93AF93BF93EF93FF93A2
:101E30009091C600809150048E30C1F18F3031F105
:101E400080910D02882309F046C080911F048130E3
:101E500009F446C0823061F540912104442309F41D
:101E60005EC0413029F5392F20E080911103909117
:101E70001203822B932B90931203809311034093B0
:101E800020041092210440930D0212C09B3289F16C
:101E90009D32E9F1973609F44AC0933749F48DEF42
:101EA0009FE0609152050E94AA4F02C09A3A59F1F0
:101EB000FF91EF91BF91AF919F918F917F916F9122
:101EC0005F914F913F912F910F900BBE0F900FBEDE
:101ED0000F901F90189510920D0290931F04E8CF59
:101EE0009A3A91F1953521F780930D0210921F04D3
:101EF000DFCF809152058F3F19F08F5F809352059D
:101F000080936600D5CF81E08093D804D1CF8091B3
:101F100052058823A9F3815080935205F1CF909305
:101F200011031092120381E080932104C1CF8091AC
:101F3000230461E00E94CF0E8091660080935205D9
:101F400061E00E94CF0EB4CF80932204B1CF86B15E
:101F500046B126B166B130E02870307035952795CE
:101F60003595279535952795220F331F50E04470FE
:101F700050705595479555954795240F351F220F5D
:101F8000331F70E06270707075956795260F371F6C
:101F9000220F331F8170820F08951F920F920FB688
:101FA0000F9211240F900FBE0F901F901895609103
:101FB0004C0470914D0480914E0490914F0408950B
:101FC00081E08093BB02089580E090E0A0E0B0E063
:101FD0008093D1029093D202A093D302B093D40203
:101FE0008093CD029093CE02A093CF02B093D00203
:101FF0008093770490937804A0937904B0937A0443
:1020000080937F0490938004A0938104B093820412
:102010008093830490938404A0938504B0938604F2
:1020200080939F049093A004A093A104B093A20472
:1020300080939B0490939C04A0939D04B0939E0472
:102040000895F89414BC15BC10926E0010922001F3
:10205000109221018EEF9FE00E947C4F909312031B
:10206000809311038DEF9FE00E94744F982F80930F
:10207000520581508E3FB0F5909366002091110378
:1020800030911203C90181589C40039710F41092BB
:1020900053048CE02038380771F124583C4018F084
:1020A00082E0809353040E94C1310E94880D0E94F7
:1020B000EB100E9446170E94B4350E9403010E9453
:1020C000F60280911403882329F480911303816020
:1020D000809313030E949E0E0E94883E0E94480730
:1020E0007894089560916600609352058DEF9FE0AB
:1020F0000E94AA4FC3CF81E080935304D4CFCF93E3
:10210000DF939EE1899FE0011124809168008D7F1B
:102110008093680080916C008F7780936C00D99ACF
:1021200010927A0080917A00806180937A001092F8
:102130009000109291001092710088B3876088BB64
:102140001092A0001092A1001092720089B38760D3
:1021500089BB10928000109281000E94C80E0E94DC
:102160000F010E94EF0D0E94880D83B78F6083BF1F
:1021700081E0809370008091B0008D7F8093B000EB
:102180008091B10087608093B100209719F0889505
:102190002197E9F713BE8091B100887F8093B10049
:1021A000109270008091B00082608093B0008FEF39
:1021B000809308028093090280930A021092F2022F
:1021C0001092F1021092F4021092F3020E94211078
:1021D000DF91CF910895EAE7F0E010822BE730E03D
:1021E000D9011C92ACE7B0E01C92808186608083AC
:1021F0008C9180648C93808180628083D9018C91E2
:10220000887F8C93808188608083808180688083D0
:1022100080818064808308951F920F920FB60F9281
:102220000BB60F9211241F932F933F934F935F93FD
:102230006F937F938F939F93AF93BF93EF93FF938E
:1022400080914C0490914D04A0914E04B0914F04A4
:102250008F3F2FEF92072FEFA2072FEFB20709F45E
:10226000B9C00196A11DB11D80934C0490934D04FB
:10227000A0934E04B0934F0480917800482F50E013
:1022800020917900922F80E0482B592B8091B50244
:10229000823009F4BDC1833008F44CC0843009F4A5
:1022A000E0C1843008F02FC18091DD029091DE0200
:1022B000480F591F569547955093DE024093DD0213
:1022C0009091D404923009F04BC080912405813064
:1022D00009F47BC2813008F0F1C18091260581307C
:1022E00009F407C39091B60280911F02883008F06C
:1022F00050C180917B00877F80937B0080911F027B
:10230000805C80937C00923009F450C1FF91EF9182
:10231000BF91AF919F918F917F916F915F914F91FD
:102320003F912F911F910F900BBE0F900FBE0F90FA
:102330001F901895882309F456C0813061F480916C
:10234000DF029091E002480F591F56954795509330
:10235000E0024093DF029091D404923009F4B5CFAB
:10236000913009F434C1992309F0BCCF9091B602A1
:10237000923009F432C3933008F0D5C1992309F49F
:1023800071C2913009F0B0CF8091210280931F0279
:10239000809124028093B8021092B50282E080936B
:1023A000B6021091D204113009F410C4123009F0B1
:1023B00099CF80912002873109F094CF1093D404F3
:1023C00080912605813009F494C21092D404909132
:1023D000B6028ACF10924C0410924D0410924E0413
:1023E00010924F0449CF609120026E3009F4D1C29F
:1023F000E62FF0E0DF01AA0FBB1FAB5DBD4F1196CA
:102400005C934E9360FF72C0EE0FFF1FED5DFD4FBA
:10241000408151812D913C91862F8695A82FB0E067
:10242000421B530BAA0FBB1FFD01E359FD4F8081D7
:102430009181481B590BFD01EB5AFD4F518340839D
:1024400057FDE8C24150544024F080E094E091836D
:102450008083603170F4FD01EB5AFD4F0190F081F3
:10246000E02DEC33F1050CF0F4C2A354BD4FED9315
:10247000FC9380917504882309F406C2809165025B
:1024800090916602845A9140B4F0809167029091D5
:102490006802845A91407CF08091690290916A02AE
:1024A000845A914044F080916B0290916C02845A5E
:1024B00091400CF0E9C181E0809376041092F4021F
:1024C0001092F3021092A9001092A8001092AB0093
:1024D0001092AA001092F2021092F102109299004A
:1024E0001092980010929B0010929A00862F8F5F96
:1024F00080932002883108F42ECF1092200281E0D0
:102500008093BC0228CF863009F025CF8091020548
:1025100090E020912002880F991F880F991F880F43
:10252000991F820F911D880F991FE0916B08F09100
:102530006C08E80FF91F5183408320912002822FFD
:1025400090E0880F991FE091390BF0913A0BE80F5A
:10255000F91F808191818417950720F4518340836E
:1025600020912002822F90E0880F991FE091C905E9
:10257000F091CA05E80FF91F80819181481759072A
:1025800020F451834083209120022F5F209320026A
:10259000E2CE80917B00886080937B0080911F0257
:1025A000885C80937C00923009F0B0CE8091D40496
:1025B000882309F0ABCE80915304882309F0ABC087
:1025C00080910501807F8093050112B89FCE2091F4
:1025D0000105263009F44EC2273008F0D4C022305D
:1025E00009F455C2233008F470C1243009F4D5C26F
:1025F000253008F4C4C2809120028F5F80931F02AF
:1026000086E08093B502809301059091B6026CCE6E
:1026100080910502882309F49ECE63999CCE64992B
:102620009ACE282F2F5F20930502253008F493CEF1
:102630008091F1029091F202892B51F08091EB028E
:102640009091EC02840F951F9093EC028093EB0223
:10265000283009F080CE1092050281E080930402B8
:102660007ACE90910602992309F475CE80910001EB
:1026700083FD71CE8091000184FD6DCE292F2F5FE7
:1026800020930602253008F466CE8091F3029091E3
:10269000F402892B51F08091E9029091EA02840FB3
:1026A000951F9093EA028093E902283009F053CEF7
:1026B0001092060281E0809303024DCE833009F42C
:1026C000ABC0843009F00ECE809132058F5F8093CD
:1026D000320590E020912E0530912F058217930747
:1026E00009F40CC18091210280931F028091240281
:1026F0008093B8028091B702882309F4D3C0813057
:1027000009F4C2C285E08093B50283E0809324057A
:102710009091B602E9CD813009F073C18FEF8093BB
:10272000050112B8F3CD933009F443C1943009F098
:10273000DBCD8091220280931F028091230280933F
:10274000B7028091B802882309F075C183E08093B5
:10275000B5021092B602209120022E3009F42BC24D
:10276000422F50E020FFBECD203108F058C2269500
:1027700081E090E002C0880F991F2A95E2F782B9A4
:102780009091B602B1CD293009F48FC12A3008F0FA
:102790008DC0273009F4E2C1283009F0A3CD809123
:1027A000220280931F02809123028093B7028091BE
:1027B000B802882309F07EC283E08093B50289E0E5
:1027C000809301059091B6028FCD809153048823A8
:1027D00009F45DC0813009F01EC28FEF80930501BE
:1027E00012B88091210280931F028091240280936D
:1027F000B80285E08093B5028093D50482E080938F
:10280000240580913405882309F0FFC081E080937E
:1028100034059091B60268CD809132058F5F809328
:10282000320590E020912E0530912F0582179307F5
:1028300009F493C08091220280931F0280912302A9
:102840008093B7028091B802882341F1813009F466
:102850001FC285E08093B50284E0809324059091A7
:10286000B60242CD80912002869580931F0280910E
:10287000B702882309F0E6C081E08093B50281E0C9
:102880008093B60291E030CD109276042FCE8091E5
:102890000501807F8093050112B8A3CF83E0809368
:1028A000B502DACF81E08093B5022FCF2B3009F447
:1028B00047C12B3008F41AC12C3009F013CD85E044
:1028C0008093B5029091B6020FCD222309F402C184
:1028D000213009F007CD809120028F5F80931F0285
:1028E00086E08093B50282E0809301059091B60264
:1028F000FBCC809324059091B602F6CC1092320561
:1029000080912D05882309F09FC181E080932D05DA
:1029100080913405882309F001C28AEA82B9809146
:1029200031058F5F8093310590913005891709F04B
:10293000D9CE80912C058F5F80932C058C3009F4C3
:1029400073C282E08093D50482E08093240585E001
:102950008093B5029091B602C7CC10923205809157
:102960002D05882309F074C181E080932D058091A5
:102970003405882309F0D5C18AEA82B980913105EE
:102980008F5F8093310590913005891709F052CF00
:10299000D0CF8091BB02823009F02ACD5093BA0289
:1029A0004093B9021092BB0246988FE080932002B8
:1029B000D2CC8091210280931F02809124028093C7
:1029C000B8028091B702882341F581E08093B50277
:1029D00084E08093B60294E087CC809122028093B9
:1029E0001F02809123028093B7028091B80288234E
:1029F000D9F483E08093B50283E08093B60293E03C
:102A000073CC823009F48ACE81CC10923405909137
:102A1000B6026ACC118210821CCD813009F460C1EB
:102A200085E08093B502D4CF813009F451C185E0AF
:102A30008093B502E1CF813009F456C185E08093DF
:102A4000B50287CE813009F447C185E08093B50295
:102A500016CFCF01CC9695958795883791050CF0C8
:102A6000FBC0A354BD4FFC97F595E795FC96ED93FD
:102A7000FC93FFCC809120028F5F80931F022093F4
:102A8000B50287E0809301059091B6022DCC80912C
:102A900020028F5F80931F0286E08093B50283E05F
:102AA000809301059091B6021FCC80912102809302
:102AB0001F02809124028093B8028091B70288237C
:102AC00009F0F1C09093B5028AE0809301059091DE
:102AD000B6020ACC1092200290931F0286E08093E7
:102AE000B502909301059091B602FECB809122022F
:102AF00080931F02809123028093B7028091B802D5
:102B0000882309F0C9C083E08093B50280911B053A
:102B10008E3F18F48F5F80931B05909102059F5F95
:102B2000909302058091D504843009F4FDC094315E
:102B300009F416C18BE0809301059091B602D4CBC5
:102B400010921F028091B702882309F0BAC09093B7
:102B5000B502109201059091B602C6CB8091210278
:102B600080931F02809124028093B80286E08093B4
:102B7000B50288E0809301059091B602B5CB8091B3
:102B800020028F5F80931F0286E08093B50284E06D
:102B9000809301059091B602A7CB809120028F5FB0
:102BA00080931F0286E08093B50285E08093010543
:102BB0009091B60299CB8091BB02813009F0D0CDC3
:102BC00082E08093BB02469A90E08ECB80912002F7
:102BD000873109F0EBCB10921F021092BB021092CA
:102BE000010510920205E091390BF0913A0B80E15A
:102BF000DF011D928A95E9F78091C9059091CA0578
:102C00006FEF70E040E150E00E945D4F1093D404FC
:102C10001091D204CBCB823009F4DFCDE2CD80918C
:102C20005304882309F063C040515040559547959F
:102C300081E090E002C0880F991F4A95E2F78093E7
:102C400005019091B60250CB10922D0512B867CEB7
:102C500010922D0512B892CECF01845D9E4F9595AE
:102C6000879595958795843B91050CF06AC0A35490
:102C7000BD4FE45BF040F595E795F595E795E8588D
:102C8000FF4FED93FC93F5CB82E08093B5023DCDF1
:102C900084E08093B502E0CD813009F4C1C085E0C5
:102CA0008093B50233CF813009F4AEC085E08093C4
:102CB000B5020ACF813009F4ABC085E08093B5023C
:102CC0007ECD813009F4A8C085E08093B50241CF64
:102CD00084E08093B50290CE82E08093B502CFCDA0
:102CE00082E08093B50274CE9093B50232CD8130EC
:102CF00009F0B1C0209105014051504055954795CC
:102D000081E090E002C0880F991F4A95E2F7809514
:102D10008223809305019091B602E6CA85E582B9C7
:102D2000FECD85E582B92ACE1092020590911B0551
:102D300080910C05981708F4FDCE85E08093D504AA
:102D4000F9CEA354BD4FE45AF140F595E795F595BA
:102D5000E795F595E795EC54FF4FED93FC9389CB00
:102D60001092020520914F083091500880916B0815
:102D700090916C089093500880934F0830936C08A2
:102D800020936B0840914C0550914D058091390B73
:102D900090913A0B90934D0580934C054093390BDD
:102DA00050933A0B209138053091390530937B0BC5
:102DB00020937A0B8091C9059091CA0590933905AB
:102DC000809338053093CA052093C905FA0180E144
:102DD000DF011D928A95E9F78091C9059091CA0596
:102DE0006FEF70E040E150E00E945D4F8091D504AC
:102DF000813009F445C08091D504853009F09ACE20
:102E000086E08093D50496CE82E08093B5025CCEB6
:102E100084E08093B502D3CC82E08093B50299CE52
:102E200084E08093B50272CE81E08093D504109245
:102E300026051092B6021092D4040E94F33E12B8F6
:102E40000E94D70F6093270570932805809329056A
:102E500090932A0579CD823009F044CA209105016A
:102E6000405150405595479581E090E002C0880F51
:102E7000991F4A95E2F7809582238093050132CA13
:102E800082E08093D50410921B05B5CF0F931F935A
:102E9000CF93DF93E0E9F0E01082A1E9B0E01C926B
:102EA00021E730E0E901188240EA50E0EA011882A7
:102EB00061EA70E0EB01188202E710E0E801188295
:102EC0008081836880838081836080838C918B6024
:102ED0008C938091F1029091F202909399008093EB
:102EE000980010929B0010929A00D9018C918160F9
:102EF0008C9380818F7580838EB1877E8EB9EA0135
:102F0000888183688883FB0180818B6080838091C6
:102F1000F3029091F4029093A9008093A80010927C
:102F2000AB001092AA00D8018C9181608C938881AB
:102F30008F758883E2E0F1E08081877E8083DF9176
:102F4000CF911F910F9108952EEF8130920714F4C5
:102F500081E09EEF9C0182E02030380714F02FEFD3
:102F600031E0C9010895282F332727FD309537FD1B
:102F700029C030930E0320930D0387FD1AC03093B0
:102F8000F8022093F702C90122E0803092073CF05A
:102F90008FEF91E09093F8028093F70208958150AB
:102FA0009E4F34F481E09EEF9093F8028093F702F5
:102FB000089588279927821B930B9093F80280939A
:102FC000F702E2CF309521953F4FD3CF282F3327FB
:102FD00027FD309537FD29C03093100320930F0350
:102FE00087FD1AC03093F6022093F502C90122E052
:102FF000803092073CF08FEF91E09093F60280933F
:10300000F502089581509E4F34F481E09EEF909335
:10301000F6028093F502089588279927821B930B67
:103020009093F6028093F502E2CF309521953F4FC1
:10303000D3CF80915505882309F03FC0E091BD08AA
:10304000E23008F477C04E2F50E0FA01EE0FFF1F78
:10305000EE0FFF1FEE0FFF1FEE0FFF1FEA53F74F9C
:10306000808191812091780B3091790B82179307A1
:1030700034F001969093790B8093780B9C01FA01C0
:103080003197DF01A295B295B07FBA27A07FBA270A
:10309000AC51B74F8091BC049091BD048D939C932B
:1030A000EE0FFF1FEE0FFF1FEE0FFF1FEE0FFF1FB4
:1030B000EA51F74F318320830895813031F0823017
:1030C00009F470C08330E9F10895E091BD08E23061
:1030D00008F49EC04E2F50E0FA01E295F295F07F81
:1030E000FE27E07FFE27EC53F74F868197812091E2
:1030F000780B3091790B8217930734F001969093F7
:10310000790B8093780B9C01FA013197E295F29547
:10311000F07FFE27E07FFE27DF01A851B74F8091A7
:10312000BE049091BF048D939C93EC51F74F37836D
:10313000268308954E2F50E02091780B3091790B23
:103140009ECFE091BD08E23008F470C04E2F50E0F1
:10315000FA01E295F295F07FFE27E07FFE27EC531F
:10316000F74F868597852091780B3091790B8217E0
:10317000930734F001969093790B8093780B9C0120
:10318000FA01E295F295F07FFE27E07FFE27EC52F0
:10319000F74F8091BE049091BF049587848737874D
:1031A00026870895E091BD08E230C8F14E2F50E027
:1031B000FA01E295F295F07FFE27E07FFE27EC53BF
:1031C000F74F828593852091780B3091790B821788
:1031D000930734F001969093790B8093780B9C01C0
:1031E000FA013197EE0FFF1FEE0FFF1FEE0FFF1FCB
:1031F000EE0FFF1FDF01A451B74F8091BC049091E7
:10320000BD048D939C93EC51F74F3387228708952B
:103210004E2F50E02091780B3091790B75CF4E2FC7
:1032200050E02091780B3091790BDACF4E2F50E09F
:103230002091780B3091790BA3CF8F929F92AF9210
:10324000BF92CF92DF92EF92FF920F931F93CF9393
:10325000DF93462F9C01220F331F220F331F280FAD
:10326000391F2115310509F492C0862F8250823012
:1032700008F49DC0442309F077C06091E60870917E
:10328000E708621773070CF099C08091F6089091D7
:10329000F708821793070CF01EC2809106099091DF
:1032A0000709821793070CF066C380911609909165
:1032B0001709821793070CF05BC380912609909140
:1032C0002709821793070CF059C380913609909112
:1032D0003709821793070CF054C3809146099091E7
:1032E0004709821793070CF052C3809156099091B9
:1032F0005709821793070CF047C380916609909194
:103300006709821793070CF045C3B901882777FD39
:103310008095982F0E94F34C7B018C016091640989
:1033200070916509882777FD8095982F0E94F34C4E
:103330009B01AC01C801B7010E94E44D7B018C01E7
:103340006091660970916709882777FD8095982FAD
:103350000E94F34C9B01AC01C801B7010E94584C7C
:103360000E94C04C9B0115C04330C1F1423009F4AA
:1033700024C1413009F4ACC0442339F2413009F48E
:10338000EFC0423009F461C1433009F46FC020E05E
:1033900030E0C901DF91CF911F910F91FF90EF9025
:1033A000DF90CF90BF90AF909F908F900895309511
:1033B00021953F4F442309F460CFD6CF8091E40894
:1033C0009091E508AC01249FC001259F900D349F8A
:1033D000900D11240E94A24E9B01DBCF6091F20858
:1033E0007091F308621773070CF062C180910209B3
:1033F00090910309821793070CF06DC18091120917
:1034000090911309821793070CF0B5C2809122099D
:1034100090912309821793070CF0AAC28091320978
:1034200090913309821793070CF0A8C2809142094A
:1034300090914309821793070CF0A3C2809152091F
:1034400090915309821793070CF0A1C280916209F1
:1034500090916309821793070CF096C280917209CC
:1034600090917309821793070CF094C2B9018827D1
:1034700077FD8095982F0E94F34C7B018C01609121
:10348000700970917109882777FD8095982F0E94A7
:10349000F34C9B01AC01C801B7010E94E44D7B01D4
:1034A0008C016091720970917309882777FD80956E
:1034B000982F0E94F34C9B01AC01C801B7010E94F8
:1034C000584C0E94C04C22273327261B370B61CF54
:1034D0006091EA087091EB08621773070CF060C006
:1034E0008091FA089091FB08821793070CF0F3C0C3
:1034F00080910A0990910B09821793070CF03BC247
:1035000080911A0990911B09821793070CF030C221
:1035100080912A0990912B09821793070CF02EC2F3
:1035200080913A0990913B09821793070CF029C2C8
:1035300080914A0990914B09821793070CF027C29A
:1035400080915A0990915B09821793070CF01CC275
:1035500080916A0990916B09821793070CF01AC247
:10356000B901882777FD8095982F0E94F34C7B0145
:103570008C016091680970916909882777FD8095B1
:10358000982F0E94F34C9B01AC01C801B7010E9427
:10359000E44D7B018C0160916A0970916B09D4CE76
:1035A0008091E8089091E908FC012E9FC0012F9FAF
:1035B000900D3E9F900D11240DCF6091EE087091FB
:1035C000EF08621773070CF060C08091FE089091BD
:1035D000FF08821793070CF07EC080910E0990912E
:1035E0000F09821793070CF0C6C180911E099091B4
:1035F0001F09821793070CF0BBC180912E0990918F
:103600002F09821793070CF0B9C180913E09909160
:103610003F09821793070CF0B4C180914E09909135
:103620004F09821793070CF0B2C180915E09909107
:103630005F09821793070CF0A7C180916E099091E2
:103640006F09821793070CF0A5C1B901882777FD90
:103650008095982F0E94F34C7B018C0160916C093E
:1036600070916D09882777FD8095982F0E94F34C03
:103670009B01AC01C801B7010E94E44D7B018C01A4
:1036800060916E0970916F0910CF8091EC08909154
:10369000ED08AC01249FC001259F900D349F900D33
:1036A00011240E94A24E22273327261B370B71CEEE
:1036B0008091F0089091F108FC012E9FC0012F9F8E
:1036C000900D3E9F900D11240E94A24E2227332779
:1036D000261B370B5ECEC1E0D0E0C930D10509F41E
:1036E0004BCE442309F059C0FE013197EE0FFF1F66
:1036F000EE0FFF1FEE0FFF1FEE0FFF1FDF01AA519E
:10370000B74FCD90DC90EC51F74FA080B1802C19D1
:103710003D09B901882777FD8095982F0E94F34CC9
:103720007B018C01FE01E295F295F07FFE27E07FA0
:10373000FE27EC51F74F608171816A197B09882758
:1037400077FD8095982F0E94F34C9B01AC01C80136
:10375000B7010E94E44D7B018C01CC0FDD1FCC0F23
:10376000DD1FCC0FDD1FCC0FDD1FCA51D74F688185
:1037700079816C197D09882777FD8095982F0E94A3
:10378000F34C9B01AC01C801B7010E94584C0E9448
:10379000C04C9B012A0D3B1DFCCD413009F44EC0AD
:1037A000423009F489C0433009F0F1CDC295D29579
:1037B000D07FDC27C07FDC27FE01EC52F74FA684C8
:1037C000B784848495842A193B09B901882777FD39
:1037D0008095982F0E94F34C6B017C018E010C5157
:1037E000174FF8016485758568197909882777FD71
:1037F0008095982F0E94F34C9B01AC01C701B60144
:103800000E94E44D6B017C01F801668577856A1999
:103810007B09882777FD8095982F0E94F34C9B01A8
:10382000AC01C701B6010E94584C0E94C04C680D03
:10383000791D22273327261B370BABCDFE0131978D
:10384000E295F295F07FFE27E07FFE27DF01AC5185
:10385000B74F1696CD90DC901797E851F74FA080A0
:10386000B1802C193D09B901882777FD8095982FE3
:103870000E94F34C7B018C01C295D295D07FDC274E
:10388000C07FDC27FE01E851F74F608171816A1922
:103890007B09882777FD8095982F0E94F34C9B0128
:1038A000AC01C801B7010E94E44D7B018C01CC51F1
:1038B000D74F6E817F815DCFDE011197FD01E295CB
:1038C000F295F07FFE27E07FFE27EC51F74FC28490
:1038D000D384AA0FBB1FAA0FBB1FAA0FBB1FAA0F1F
:1038E000BB1FA451B74FAD90BC902C193D09B90135
:1038F000882777FD8095982F0E94F34C7B018C01DF
:10390000CC0FDD1FCC0FDD1FCC0FDD1FCC0FDD1F5B
:10391000FE01E451F74F608171816A197B098827A4
:1039200077FD8095982F0E94F34C9B01AC01C80154
:10393000B7010E94E44D7B018C01CC51D74F6A85C1
:103940007B856C197D09882777FD8095982F0E94CB
:10395000F34C9B01AC01C801B7010E94584C0E9476
:10396000C04C6A0D7B1D22273327261B370B11CD38
:10397000C3E0D0E0B2CEC2E0D0E0AFCEC4E0D0E051
:10398000ACCEC5E0D0E0A9CEC7E0D0E0A6CEC6E080
:10399000D0E0A3CEC8E0D0E0A0CE8F929F92AF92AD
:1039A000BF92CF92DF92EF92FF920F931F93CF932C
:1039B000DF93C091EF02D091F0028091F1029091DB
:1039C000F20297FDEAC06091E8087091E9086C176F
:1039D0007D070CF067C188248A94982C8091F808A0
:1039E0009091F9088C179D074CF080E09FEF8916A5
:1039F0009FEF990609F475C1882E992480910809D2
:103A0000909109098C179D0734F0EFEF8E16EFEFB8
:103A10009E0609F462C180911809909119098C17CA
:103A20009D0734F0FFEF8F16FFEF9F0609F451C199
:103A300080912809909129098C179D0734F02FEF68
:103A400082162FEF920609F440C1809138099091B7
:103A500039098C179D0734F03FEF83163FEF93062B
:103A600009F42FC180914809909149098C179D074D
:103A700034F08FEF88168FEF980609F41EC18091FD
:103A80005809909159098C179D0734F09FEF8916BA
:103A90009FEF990609F40DC1C0906809D09069099B
:103AA000CC16DD0634F0EFEF8E16EFEF9E0609F42C
:103AB000FCC0209709F460C08114910409F442C14C
:103AC0003FEF83163FEF930609F40DC1F4013197E0
:103AD000E295F295F07FFE27E07FFE27DF01A851F7
:103AE000B74FCD90DC90EC51F74FA680B780CC1942
:103AF000DD09BE01882777FD8095982F0E94F34C41
:103B00007B018C0182949294B0EF9B2298248B22AB
:103B10009824F401EC51F74F668177816A197B098B
:103B2000882777FD8095982F0E94F34C9B01AC016C
:103B3000C801B7010E94E44D7B018C0188EE98E03A
:103B4000880E991EF401608171816C197D098827A6
:103B500077FD8095982F0E94F34C9B01AC01C80122
:103B6000B7010E94584C0E94C04C6A0D7B1D709397
:103B7000C3046093C20404C01092C3041092C20430
:103B8000DF91CF911F910F91FF90EF90DF90CF9039
:103B9000BF90AF909F908F9008956091F0087091C2
:103BA000F1086C177D070CF02BC10FEF1FEF809110
:103BB0000009909101098C179D072CF02FEF0F3F02
:103BC000120709F420C180911009909111098C17F6
:103BD0009D072CF03FEF0F3F130709F426C180919A
:103BE0002009909121098C179D072CF08FEF0F3F32
:103BF000180709F417C180913009909131098C1789
:103C00009D072CF09FEF0F3F190709F408C1809121
:103C10004009909141098C179D072CF0EFEF0F3F61
:103C20001E0709F4F9C080915009909151098C1731
:103C30009D072CF0FFEF0F3F1F0709F4EAC08091AA
:103C40006009909161098C179D072CF02FEF0F3FB1
:103C5000120709F4DBC0C0907009D0907109CC162E
:103C6000DD062CF03FEF0F3F130709F47EC001156E
:103C7000110509F07CC08091F2089091F3089C0135
:103C8000C29FC001C39F900DD29F900D11240E942E
:103C9000A24ECB01909581959F4F9093C304809342
:103CA000C2046ECF8824992499CE88E0882E912C66
:103CB00000CF97E0892E912CEFCE26E0822E912C1A
:103CC000DECE35E0832E912CCDCE44E0842E912C97
:103CD000BCCE53E0852E912CABCEE2E08E2E912C03
:103CE0009ACE81E089CE60916A0970916B0988272C
:103CF00077FD8095982F0E94F34C7B018C01BE01CB
:103D0000882777FD8095982F0E94F34C9B01AC018A
:103D1000C801B7010E94E44D7B018C01B6018827E0
:103D200077FD8095982F0E94F34C9B01AC01C80150
:103D3000B7010E94584C0E94C04C7093C30460931A
:103D4000C2041ECF8091EA089091EB089C01C29FAB
:103D5000C001C39F900DD29F900D11240E94A24ECE
:103D60007093C3046093C2040BCF08E010E03FEFF0
:103D70000F3F130709F45CC002951295107F1027BE
:103D8000007F1027F801EC52F74FA484B584868495
:103D90009784CA19DB09BE01882777FD8095982F83
:103DA0000E94F34C6B017C010C51174FF8016685A2
:103DB000778568197909882777FD8095982F0E9463
:103DC000F34C9B01AC01C701B6010E94E44D6B01AD
:103DD0007C01F801648575856A197B09882777FD60
:103DE0008095982F0E94F34C9B01AC01C701B6014E
:103DF0000E94584C0E94C04C680D791DCB014ACFDF
:103E000000E010E0D4CE01E010E0DDCE07E010E0ED
:103E100022CF06E010E013CF05E010E004CF04E06D
:103E200010E0F5CE03E010E0E6CE02E010E0D7CEE1
:103E30006091720970917309882777FD8095982F9A
:103E40000E94F34C7B018C01BE01882777FD809591
:103E5000982F0E94F34C9B01AC01C801B7010E944E
:103E6000E44D7B018C01B601882777FD8095982F62
:103E70000E94F34C9B01AC01C801B7010E94584C51
:103E80000E94C04CCB0106CF8F929F92AF92BF92FF
:103E9000CF92DF92EF92FF920F931F93CF93DF9316
:103EA000C091ED02D091EE028091F3029091F40264
:103EB00097FDF3C06091E4087091E5086C177D07E9
:103EC0000CF079C188248A94982C8091F408909100
:103ED000F5088C179D074CF080E09FEF89169FEF47
:103EE000990609F487C1882E99248091040990913C
:103EF00005098C179D0734F0EFEF8E16EFEF9E0645
:103F000009F474C180911409909115098C179D07CB
:103F100034F0FFEF8F16FFEF9F0609F463C1809125
:103F20002409909125098C179D0734F02FEF8216F4
:103F30002FEF920609F452C180913409909135090E
:103F40008C179D0734F03FEF83163FEF930609F47B
:103F500041C180914409909145098C179D0734F027
:103F60008FEF88168FEF980609F430C180915409BD
:103F7000909155098C179D0734F09FEF89169FEF9C
:103F8000990609F41FC1C0906409D0906509CC1648
:103F9000DD0634F0EFEF8E16EFEF9E0609F40EC14A
:103FA000209709F469C08114910409F454C13FEFCA
:103FB00083163FEF930609F41FC1D4011197FD0149
:103FC000E295F295F07FFE27E07FFE27EC51F74F58
:103FD000C080D180AA0FBB1FAA0FBB1FAA0FBB1F97
:103FE000AA0FBB1FAA51B74FAD90BC90CC19DD09E9
:103FF000BE01882777FD8095982F0E94F34C7B01A6
:104000008C01880C991C880C991C880C991C880CB4
:10401000991CF401EA51F74F608171816A197B099B
:10402000882777FD8095982F0E94F34C9B01AC0167
:10403000C801B7010E94E44D7B018C0184EE98E039
:10404000880E991EF401608171816C197D098827A1
:1040500077FD8095982F0E94F34C9B01AC01C8011D
:10406000B7010E94584C0E94C04C6A0D7B1D709392
:10407000C1046093C00404C01092C1041092C00433
:10408000DF91CF911F910F91FF90EF90DF90CF9034
:10409000BF90AF909F908F9008956091EC087091C1
:1040A000ED086C177D070CF04EC188248A94982C7B
:1040B0008091FC089091FD088C179D0734F02FEF3C
:1040C00082162FEF920609F441C180910C0990915C
:1040D0000D098C179D0734F03FEF83163FEF9306D1
:1040E00009F44CC180911C0990911D098C179D0702
:1040F00034F08FEF88168FEF980609F43BC180915A
:104100002C0990912D098C179D0734F09FEF89168B
:104110009FEF990609F42AC180913C0990913D09CD
:104120008C179D0734F0EFEF8E16EFEF9E0609F423
:1041300019C180914C0990914D098C179D0734F05D
:10414000FFEF8F16FFEF9F0609F408C180915C090D
:1041500090915D098C179D0734F02FEF82162FEF99
:10416000920609F4F7C0C0906C09D0906D09CC1686
:10417000DD0634F03FEF83163FEF930609F47EC06F
:104180008114910409F07DC08091EE089091EF08B0
:104190009C01C29FC001C39F900DD29F900D11241E
:1041A0000E94A24ECB01909581959F4F9093C104A0
:1041B0008093C00465CF8824992487CEE8E08E2EB2
:1041C000912CEECEF7E08F2E912CDDCEA6E08A2E3C
:1041D000912CCCCEB5E08B2E912CBBCE14E0812E51
:1041E000912CAACE03E0802E912C99CE82E0882ECD
:1041F000912C88CE81E077CE609166097091670935
:10420000882777FD8095982F0E94F34C7B018C01C5
:10421000BE01882777FD8095982F0E94F34C9B0163
:10422000AC01C801B7010E94E44D7B018C01B601CD
:10423000882777FD8095982F0E94F34C9B01AC0155
:10424000C801B7010E94584C0E94C04C7093C10431
:104250006093C00415CF8091E6089091E7089C0117
:10426000C29FC001C39F900DD29F900D11240E9448
:10427000A24E7093C1046093C00402CF98E0892ECF
:10428000912C3FEF83163FEF930609F47BC0F401B6
:104290003197EE0FFF1FEE0FFF1FEE0FFF1FEE0F08
:1042A000FF1FDF01A451B74FCD90DC90EC51F74FC9
:1042B000A284B384CC19DD09BE01882777FD8095DF
:1042C000982F0E94F34C7B018C01F401E295F2954A
:1042D000F07FFE27E07FFE27EC51F74F6285738564
:1042E0006A197B09882777FD8095982F0E94F34CE7
:1042F0009B01AC01C801B7010E94E44D7B018C0118
:10430000880C991C880C991C880C991C880C991C89
:104310008CEE98E0880E991EF401608171816C1911
:104320007D09882777FD8095982F0E94F34C9B018B
:10433000AC01C801B7010E94584C0E94C04C6A0DE4
:104340007B1DCB0130CF88249924B2CEA1E08A2EE8
:10435000912CBBCE27E0822E912C05CF36E0832E08
:10436000912CF4CE45E0842E912CE3CE54E0852EA2
:10437000912CD2CEE3E08E2E912CC1CEF2E08F2E86
:10438000912CB0CE60916E0970916F09882777FDEE
:104390008095982F0E94F34C7B018C01BE018827E9
:1043A00077FD8095982F0E94F34C9B01AC01C801CA
:1043B000B7010E94E44D7B018C01B601882777FD8F
:1043C0008095982F0E94F34C9B01AC01C801B70166
:1043D0000E94584C0E94C04CCB01E5CE1F920F9218
:1043E0000FB60F9211248F939F93809176048823A8
:1043F000C1F11092F4021092F3021092A9001092EF
:10440000A8001092AB001092AA001092DE02109247
:10441000DD028091E7029091E80297FD79C081E08A
:10442000809324028EE08093210281E08093060233
:104430008091A0008F758093A00080910201877EFB
:104440008093020180917200897F8093720089B30A
:10445000866089BB9F918F910F900FBE0F901F9028
:1044600018951092DE021092DD028091F302909175
:10447000F402009771F2181619062CF51092240216
:104480008FE0809321028091A0008F7D8093A00017
:10449000809172008B7F80937200809102018F7EE9
:1044A000809302018091A00080688093A000809199
:1044B00072008260809372009F918F910F900FBE67
:1044C0000F901F901895109224028EE08093210285
:1044D0008091A0008F778093A000809172008D7FE3
:1044E0008093720080910201877F80930201809106
:1044F000A00080628093A00080917200846080930D
:1045000072009F918F910F900FBE0F901F90189582
:1045100081E0809324028FE08093210286CF1F9256
:104520000F920FB60F9211248F939F9391E0909367
:1045300024028EE080932102909306029F918F9136
:104540000F900FBE0F901F9018951F920F920FB6ED
:104550000F9211248F939F9391E0909324028FE008
:1045600080932102909306029F918F910F900FBE2E
:104570000F901F9018951F920F920FB60F92112453
:104580008F939F93809176048823B1F11092F20269
:104590001092F102109299001092980010929B00D4
:1045A00010929A001092E0021092DF028091E502D0
:1045B0009091E60297FD6FC081E0809323028CE02A
:1045C0008093220281E080930502809190008F7594
:1045D000809390008EB1877E8EB980917100897F23
:1045E0008093710088B3866088BB9F918F910F90F4
:1045F0000FBE0F901F9018951092E0021092DF02EC
:104600008091F1029091F202009781F2181619063A
:104610000CF5109223028DE080932202809190008D
:104620008F7D80939000809171008B7F80937100CB
:1046300074988091900080688093900080917100C0
:104640008260809371009F918F910F900FBE0F90A9
:104650001F901895109223028CE080932202809183
:1046600090008F7780939000809171008D7F809370
:104670007100739880919000806280939000809187
:1046800071008460809371009F918F910F900FBE95
:104690000F901F90189581E0809323028DE0809306
:1046A000220290CF1F920F920FB60F9211248F9378
:1046B0009F9391E0909323028CE080932202909349
:1046C00005029F918F910F900FBE0F901F9018952C
:1046D0001F920F920FB60F9211248F939F9391E028
:1046E000909323028DE080932202909305029F9184
:1046F0008F910F900FBE0F901F9018959F92AF92C1
:10470000BF92CF92DF92EF92FF920F931F9380910F
:104710007005882351F01F910F91FF90EF90DF906B
:10472000CF90BF90AF909F9008950E94D70F8B01BC
:104730009C0140E050E060E070E080916404909162
:104740006504F0916604B0916704E0906804C0903D
:104750006904A0906A04A0916B04902E981AE1E07D
:10476000091508F008C1812F891B91E0181708F07E
:10477000FAC0F82EFE1AE1E08F1508F0EBC09E2B70
:10478000822F8F1BE1E0281708F0DCC0B82EB91A81
:1047900091E08B1508F0CDC0E92B832F8B1B91E0A6
:1047A000381708F0BEC0D82EDE1AE1E08D1508F0EB
:1047B000AFC09E2B8E2D8195E1E0481708F0A0C078
:1047C000B82FB91B91E08B1708F091C0E92B8C2D05
:1047D0008195F1E0581708F081C0982F9E1BE92FB2
:1047E00091E08E1708F071C0F92B8A2D819591E028
:1047F000681708F062C0382F3F1B21E0831708F0CC
:1048000055C0922BA195A91709F4BDC00E94D70FDE
:104810009B01AC016093640430936504409366048B
:1048200050936704109268041092690410926A040D
:1048300010926B0480916C04882309F4BFC020910E
:10484000F5023091F6022115310509F0C8C0109229
:10485000FA021092F9022091F7023091F802211524
:10486000310509F4DEC04091FB025091FC02429FE9
:10487000C001439F900D529F900D112497FDD1C010
:10488000421753070CF0D2C080911302BA01680F8F
:10489000711D7093FC026093FB02261737070CF022
:1048A0003ACF3093FC022093FB0235CF20E0922BCD
:1048B000A195A91709F0AACF66C090E0382F3F1B39
:1048C00021E0831708F49DCFF1CF90E0F92B8A2DDA
:1048D000819591E0681708F48ECFEFCFF0E0982F24
:1048E0009E1BE92F91E08E1708F47ECFEECF90E06B
:1048F000E92B8C2D8195F1E0581708F46ECFEECF9F
:10490000E0E0B82FB91B91E08B1708F45FCFEFCF31
:10491000E0E09E2B8E2D8195E1E0481708F450CF02
:10492000EFCF90E0D82EDE1AE1E08D1508F441CFEC
:10493000EFCF90E0E92B832F8B1B91E0381708F421
:1049400032CFEFCFE0E0B82EB91A91E08B1508F422
:1049500023CFEFCFE0E09E2B822F8F1BE1E02817C3
:1049600008F414CFEFCF90E0F82EFE1AE1E08F1597
:1049700008F405CFEFCFE0E0812F891B91E01817F5
:1049800008F4F7CEF0CF332309F040CFEE2309F03F
:104990003DCFBB2309F03ACFDD2009F037CFBB2054
:1049A00009F034CF61E06F1508F430CFF61609F046
:1049B000B2CE7FE8791508F0AECE28CF8091F5020F
:1049C0009091F6029093FA028093F9028091F70297
:1049D0009091F8029093FC028093FB029CCE409150
:1049E000F9025091FA02429FC001439F900D529FDD
:1049F000900D112497FD2BCF421753074CF5809152
:104A00001302BA01680F711D7093FA026093F902E4
:104A1000261737070CF01FCF3093FA022093F902C4
:104A20001ACF1092FC021092FB0275CE24173507A4
:104A30000CF071CE80911302BA01681B710970935A
:104A4000FC026093FB02621773070CF064CE29CF5F
:104A5000241735070CF0FFCE80911302BA01681BB2
:104A600071097093FA026093F902621773070CF0F0
:104A7000F2CED2CF2F923F924F925F926F927F925F
:104A80008F929F92AF92BF92CF92DF92EF92FF925E
:104A90000F931F93CF93DF9374E1872E912C909205
:104AA000E5088092E40888E290E09093F50880930E
:104AB000F4088BE390E090930509809304098FE458
:104AC00090E0909315098093140984E690E0909308
:104AD000250980932409C8E7D0E0D0933509C09315
:104AE00034096BE8E62EF12CF0924509E092440976
:104AF0008FE990E0909355098093540954EBA52ECB
:104B0000B12CB0926509A092640923E130E03093A2
:104B1000E7082093E6088FE290E09093F7088093EF
:104B2000F60888E490E090930709809306098BE5E6
:104B300090E090931709809316098DE690E090938A
:104B40002709809326094DE7C42ED12CD09237092E
:104B5000C09236098FE890E0909347098093460908
:104B600040EA50E050935709409356098EEA90E08E
:104B700090936709809366093093E9082093E808C9
:104B800067E270E07093F9086093F8080CE310E0B6
:104B9000109309090093080920E5222E312C309248
:104BA000190920921809A3E6B0E0B0932909A0934F
:104BB000280927E730E03093390920933809ECE8D9
:104BC000F0E0F0934909E093480950935909409364
:104BD0005809B0926909A092680987E190E0909322
:104BE000EB088093EA089EE2492E512C5092FB0874
:104BF0004092FA0880E490E090930B0980930A09B0
:104C000081E5682E712C70921B0960921A0981E669
:104C100090E090932B0980932A0980E790E090938D
:104C20003B0980933A09D0924B09C0924A09F0920D
:104C30005B09E0925A0988E990E090936B098093B0
:104C40006A099092ED088092EC087093FD086093D9
:104C5000FC0810930D0900930C098FE490E09093E9
:104C60001D0980931C09B0932D09A0932C09D093A2
:104C70003D09C0933C09F0934D09E0934C095093D2
:104C80005D0940935C0983EB90E090936D098093FC
:104C90006C0982E190E09093EF088093EE088DE23A
:104CA00090E09093FF088093FE0884E490E0909356
:104CB0000F0980930E0987E590E090931F09809378
:104CC0001E0989E690E090932F0980932E09309376
:104CD0003F0920933E0989E890E090934F09809323
:104CE0004E0987E990E090935F0980935E0988EA16
:104CF00090E090936F0980936E099092F1088092F2
:104D0000F00870930109609300098BE390E09093A1
:104D1000110980931009309221092092200984E61C
:104D200090E09093310980933009309341092093AA
:104D30004009F0925109E092500950936109409363
:104D40006009B0927109A092700986E190E0909399
:104D5000F3088093F208509203094092020981E41B
:104D600090E0909313098093120970922309609246
:104D7000220980E690E090933309809332098FE610
:104D800090E09093430980934209D0925309C092D6
:104D90005209F0926309E092620989E990E09093E8
:104DA0007309809372090E94DD3EDF91CF911F91BC
:104DB0000F91FF90EF90DF90CF90BF90AF909F90BA
:104DC0008F907F906F905F904F903F902F900895BD
:104DD0008091630B843009F4CFC1853080F0863038
:104DE00009F460C28630B0F58091BD088F5F809372
:104DF000BD088A3009F4B7C21092630B0895813060
:104E000009F46BC1813008F073C080915505882387
:104E100009F056C21092FA021092F9028091BD0870
:104E200025E0829FC0011124880F991F880F991FC8
:104E30009093FC028093FB0281E08093630B0E94BD
:104E4000D70F6093330B7093340B8093350B909393
:104E5000360B0895873009F4F8C1883079F68091CF
:104E60005505882309F4D9C0823009F4D6C02091B1
:104E70006B0230916C028091CC049091CD04281784
:104E8000390724F43093CD042093CC048091CE04D0
:104E90009091CF048217930724F43093CF0420938A
:104EA000CE040E94D70F2091330B3091340B4091E8
:104EB000350B5091360B621B730B840B950B6E5C9C
:104EC0007B4B8040904008F499CF8091CE04909124
:104ED000CF042091CC043091CD04820F931F95957F
:104EE00087959093D1048093D0041092630B08951A
:104EF000823009F47DC1833009F080CF809155055F
:104F0000882309F497C0823009F494C020916B0281
:104F100030916C028091D0049091D1042817390708
:104F20000CF055C00E94D70F20914E0530914F05CF
:104F30004091500550915105621B730B840B950BEA
:104F400060934E0570934F058093500590935105E3
:104F50000E94F14C20E030E040ED52E40E94E44D2C
:104F600020E034E244E759E40E94584C9B01AC0134
:104F700064E17EE288E793E40E94584C0E94C54CAD
:104F80007093790B6093780B2091BA043091BB0435
:104F900040E050E06091B4047091B5048091B60493
:104FA0009091B7040E94B54E3093BF042093BE0485
:104FB0000E94191884E08093630B0E94D70F6093BE
:104FC000330B7093340B8093350B9093360B0E9408
:104FD000D70F2091330B3091340B4091350B50910A
:104FE000360B621B730B840B950B6C597D4C884000
:104FF000904008F403CF1092790B1092780B109226
:10500000BD041092BC041092BF041092BE040E9412
:10501000191885E08093630B089520916502309103
:1050200066028091CC049091CD04281739070CF0CA
:105030002DCF28CF20916502309166028091D00457
:105040009091D104281739070CF0C1CF0E94D70FD7
:1050500020914E0530914F054091500550915105DA
:10506000621B730B840B950B60934E0570934F0579
:1050700080935005909351050E94F14C20E030E060
:1050800040ED52E40E94E44D20E034E244E759E46C
:105090000E94584C9B01AC0164E17EE288E793E4F6
:1050A0000E94584C0E94C54C7093790B6093780B0A
:1050B0002091B8043091B90440E050E06091B00410
:1050C0007091B1048091B2049091B3040E94B54EE6
:1050D0003093BD042093BC046BCF80915505882389
:1050E00091F1823081F120916B0230916C028091BC
:1050F000D0049091D104281739070CF068CF109292
:10510000BB041092BA041092B4041092B504109229
:10511000B6041092B7040E94D70F60934E057093A7
:105120004F05809350059093510582E08093630B67
:105130000E94D70F6093330B7093340B8093350B21
:105140009093360B44CF2091650230916602809196
:10515000D0049091D104281739070CF038CF109261
:10516000B9041092B8041092B0041092B1041092D5
:10517000B2041092B304CFCF80915505882361F11A
:10518000823051F120916B0230916C028091D004F9
:105190009091D104821793071CF485E08093630BF0
:1051A0000E94D70F2091330B3091340B4091350B77
:1051B0005091360B621B730B840B950B6C597D4C15
:1051C0008840904008F41ACE1092790B1092780B18
:1051D00085E08093630B089520916502309166020B
:1051E0008091D0049091D10482179307CCF6D5CF4B
:1051F000809155058823E1F08230D1F020916B0237
:1052000030916C028091D0049091D1048217930761
:105210000CF0DDCE83E08093630B0E94D70F609388
:10522000330B7093340B8093350B9093360BCFCEAA
:1052300020916502309166028091D0049091D10452
:10524000821793070CF0C3CEE5CF0E94D70F2091B1
:10525000330B3091340B4091350B5091360B621B60
:10526000730B840B950B605975428040904008F495
:10527000C5CD80915505882309F440C0813009F4DB
:10528000A1C0823009F4A9C0833009F041C084EC88
:105290009FEF9093FA028093F9021092FC02109211
:1052A000FB0236C00E94D70F6093330B7093340B10
:1052B0008093350B9093360B87E08093630B0895B2
:1052C0008130F1F1823009F467C0833009F0B4CD48
:1052D0008091BD0825E0829FC0011124880F991F8D
:1052E000880F991F909581959F4F9093FA02809314
:1052F000F9021092FC021092FB029ECD1092FA026B
:105300001092F9028CE390E09093FC028093FB02F0
:105310008FEF93E09093CD048093CC041092CF0450
:105320001092CE0488E08093630B0E94D70F6093A5
:10533000330B7093340B8093350B9093360B089599
:105340008091BD0825E0829FC0011124880F991F1C
:10535000880F991F9093FA028093F9021092FC0231
:105360001092FB0269CD91E09093BD0880915505A4
:10537000882321F482E0809355053ECD8130C1F130
:105380008230D1F1833009F037CD109255050E945B
:10539000DD3E1092700530CD1092FA021092F902A3
:1053A0008091BD0825E0829FC0011124880F991FBC
:1053B000880F991F909581959F4F9093FC02809341
:1053C000FB023ACD8CE390E09093FA028093F902CD
:1053D0001092FC021092FB029BCF1092FA021092E4
:1053E000F90284EC9FEF9093FC028093FB0290CF34
:1053F00083E08093550500CD90935505109270057C
:1054000086E08093630B08952F923F924F925F92B4
:105410006F927F928F929F92AF92BF92CF92DF92C4
:10542000EF92FF920F931F9340917005442309F46C
:105430004EC22091F9023091FA02413009F40CC3B6
:1054400037FD81C1C90161E00E941D1990930A03D3
:10545000809309038091FB029091FC0297FD81C12A
:1054600060E00E941D1990930C0380930B038091C0
:105470007404882309F081C180910B0390910C037F
:105480009093E8028093E7028091090390910A03C8
:105490009093E6028093E50280910302882309F449
:1054A000A2C02091E9023091EA02369527953695FF
:1054B00027953093EE022093ED0210920302109292
:1054C000EA021092E90280917005813009F495C3D7
:1054D0000E94441F80919B0490919C04A0919D0484
:1054E000B0919E048093A3049093A404A093A50478
:1054F000B093A6046091C0047091C104882777FD21
:105500008095982F0E94F34C7B018C010E94D70F4D
:105510002091C4043091C5044091C6045091C70441
:10552000621B730B840B950B0E94F14C20E030E062
:1055300040ED52E40E94E44D9B01AC01C801B7016B
:105540000E94E44D20E034E244E759E40E94584CC4
:105550009B01AC0160919B0470919C0480919D041F
:1055600090919E040E948F4B60939B0470939C04C7
:1055700080939D0490939E040E94D70F6093C4046F
:105580007093C5048093C6049093C70460919B04F4
:1055900070919C0480919D0490919E040E94C04C47
:1055A0000E94F34C6093D1027093D2028093D30295
:1055B0009093D4028BE093E00E945D0C20910B034A
:1055C00030910C033093F4022093F3021216130669
:1055D0000CF036C33093A9002093A8008091AB044F
:1055E0008F5F8093AB0480910402882309F0CCC0C4
:1055F0008091AB04823008F495C01092AB042090E7
:105600009F043090A0044090A1045090A2046090A8
:105610009B0470909C0480909D0490909E04C20115
:10562000B1012091A7043091A8044091A9045091A0
:10563000AA040E948E4B7B018C01C401B30120910E
:10564000A3043091A4044091A5045091A6040E94A3
:105650008E4B9B01AC01C801B7010E948F4B20E02B
:1056600030E040E05FE30E94E44D5B016C01609339
:105670008704709388048093890490938A048091AE
:105680001202813009F4F5C18091AC049091AD040F
:10569000A091AE04B091AF04809377049093780406
:1056A000A0937904B0937A047C018D01C801B701FD
:1056B0000E94554C9B01AC01C601B5010E94E44D0E
:1056C0009B01AC0160917F04709180048091810402
:1056D000909182040E948F4B60937F0470938004AA
:1056E0008093810490938204C801B7010E94474EC1
:1056F0009B01AC01C601B5010E94E44D9B01AC01C8
:105700006091830470918404809185049091860453
:105710000E948F4B6093830470938404809385046C
:10572000909386041F910F91FF90EF90DF90CF90A0
:10573000BF90AF909F908F907F906F905F904F90B1
:105740003F902F900895C90163E00E941D19909326
:105750000A03809309038091FB029091FC0297FF5A
:105760007FCE62E00E941D1990930C0380930B037F
:1057700080917404882309F47FCE8BE093E069E084
:1057800073E00E94A83378CE2091EB023091EC02B6
:1057900036952795369527953093F0022093EF02A2
:1057A000109204021092EC021092EB0280917005AC
:1057B000813009F4FFC10E94CD1C80919F0490911B
:1057C000A004A091A104B091A2048093A704909397
:1057D000A804A093A904B093AA046091C204709194
:1057E000C304882777FD8095982F0E94F34C7B0196
:1057F0008C010E94D70F2091C8043091C9044091B8
:10580000CA045091CB04621B730B840B950B0E944E
:10581000F14C20E030E040ED52E40E94E44D9B0169
:10582000AC01C801B7010E94E44D20E034E244E736
:1058300059E40E94584C9B01AC0160919F04709107
:10584000A0048091A1049091A2040E948F4B6093C8
:105850009F047093A0048093A1049093A2040E94DB
:10586000D70F6093C8047093C9048093CA049093BF
:10587000CB0460919F047091A0048091A104909149
:10588000A2040E94C04C0E94F34C6093CD0270931E
:10589000CE028093CF029093D00289E093E00E94E1
:1058A000320B2091090330910A033093F2022093C6
:1058B000F102121613060CF0D0C130939900209318
:1058C00098008091AB048F5F8093AB0493CE0E94CD
:1058D000D70F8B019C0140E050E060E070E08091C8
:1058E000640490916504F0916604B0916704D090CF
:1058F0006804B090690490906A04A0916B04802EB3
:10590000881AE1E0081508F030C1812F891B91E069
:10591000181708F022C1E82EEE1AE1E08E1508F003
:1059200013C19E2B822F8F1BE1E0281708F004C1C2
:10593000A82EA91A91E08A1508F0F5C0E92B832F4B
:105940008B1B91E0381708F0E6C0C82ECE1AE1E0B4
:105950008C1508F0D7C09E2B8D2D8195E1E048175E
:1059600008F0C8C0B82FB91B91E08B1708F0B9C078
:10597000E92B8B2D8195F1E0581708F0A9C0982FDD
:105980009E1BE92F91E08E1708F099C0F92B892D05
:10599000819591E0681708F08AC0382F3F1B21E0FD
:1059A000831708F07DC0922BA195A91709F4E5C0D3
:1059B0000E94D70F9B01AC0160936404309365048F
:1059C000409366045093670410926804109269042F
:1059D00010926A0410926B0480916C04882309F47D
:1059E00049C14091F5025091F6024115510509F067
:1059F00056C11092FA021092F90220E030E0409174
:105A0000F7025091F8024115510509F47FC16091E8
:105A1000FB027091FC02649FC001659F900D749F12
:105A2000900D112497FD72C1641775070CF075C1B4
:105A300080911302FB01E80FF11DF093FC02E0934B
:105A4000FB024E175F070CF07BC15093FC024093A2
:105A5000FB0240917005F1CC30930A0320930903B7
:105A60008091FB029091FC0290930C0380930B03B6
:105A7000FECCC201B101A40193010E948E4B20E033
:105A800030E04EE152E40E94584C609377047093EA
:105A900078048093790490937A047B018C0106CE7C
:105AA00020E0922BA195A91709F082CF66C090E063
:105AB000382F3F1B21E0831708F475CFF1CF90E01A
:105AC000F92B892D819591E0681708F466CFEFCF07
:105AD000F0E0982F9E1BE92F91E08E1708F456CF27
