:100000000C94CD000C94EE000C94EE000C94EE00D9
:100010000C94EE000C94EE000C94EE000C94EE00A8
:100020000C94EE000C94EE000C9471070C94EE000E
:100030000C94EE000C94A5070C94EE000C94DA0FCF
:100040000C94EE000C94EE000C94EE000C94EE0078
:100050000C94EE000C94EE000C94EE000C94EE0068
:100060000C94EE000C94120F0C94EE000C94EE0025
:100070000C94EE000C9419110C94EE000C94EE000C
:100080000C945F230C9475230C94EE000C94C822FE
:100090000C94EE000C94EE000C94EE000C94EE0028
:1000A0000C94EE000C94EE000C949C220C94B22262
:1000B0000C94EE000C94FB210C94EE000C94EE00DA
:1000C0000C94EE000C94EE000C94EE000C94EE00F8
:1000D0000C94EE000C94EE000C94EE000C94EE00E8
:1000E0000C94EE00970A820A590A3E0A190AE3099B
:1000F000B509F9098209660906090609060906090A
:10010000060906095A094F090609060906090609DA
:100110000609060906090609060906090609060967
:100120008209590A4309360906090609060906091A
:100130000609060906090609060906090609060947
:10014000190AB50906090609970AE3092609084AA2
:10015000D73B3BCE016E84BCBFFDC12F3D6C7431DB
:100160009ABD56833DDA3D00C77F11BED9E4BB4C32
:100170003E916BAAAABE000000803F05A84CCDB2FC
:10018000D44EB93836A9020C50B9918688083CA6DD
:10019000AAAA2ABE000000803F0011241FBECFEF94
:1001A000D1E2DEBFCDBF00E00CBF12E0A0E0B2E0C4
:1001B000EAEBF0EA00E00BBF02C007900D92AA3311
:1001C000B107D9F71BE0AAE3B2E001C01D92AF3935
:1001D000B107E1F70E94F0000C945B500C94000012
:1001E0000E942E100E94E1390E94BA350E94F64BFF
:1001F00081E090E00E940A4CF9CF2091340381E025
:1002000090E00DB407FC09C0019637E280319307F6
:10021000C0F321E00DB407FEF7CF20933403089517
:1002200084B1807F84B984B1876084B980E58CBD56
:100230008DB581608DBD08951CBC1DBC0895482FEF
:100240006623E9F09C01F90180818EBD2091340381
:1002500081E090E00DB407FC09C0019637E28031DF
:100260009307C0F321E00DB407FEF7CF20933403CA
:10027000222329F431968E2F841B861728F30895A4
:10028000CF93DF93EC01442321F1A0E0B0E0FE0125
:10029000EA0FFB1F80818EBD8091340321E030E0A6
:1002A0000DB407FC0AC02F5F3F4F97E2203139079A
:1002B000B8F381E00DB407FEF6CF809334038823B2
:1002C00041F48EB5FB01EA0FFB1F80831196A41742
:1002D000F0F2DF91CF9108958EBD2091340381E03B
:1002E00090E00DB407FC09C0019637E28031930716
:1002F000C0F321E00DB407FEF7CF209334038EB591
:10030000089581E08093350383E080933603089558
:1003100010923503089583E080933603089528985A
:1003200081EE0E946C01289A0895289880E60E9428
:100330006C018FEF0E946C01289A08951F93162F6D
:1003400028988F7180620E946C01812F0E946C013D
:10035000289A1F910895289882EE0E946C01289A8D
:10036000089580915705882311F080E0089528981A
:100370008FEF0E946C01289A80740895FF920F936A
:100380001F938B01F42E28988F7180620E946C015C
:10039000C8016F2D0E941F01289A1F910F91FF9095
:1003A0000895FF920F931F938B01F42E28988F715D
:1003B0000E946C01C801B8014F2D0E944001289A8B
:1003C0001F910F91FF900895FF920F931F93CF936A
:1003D000DF93082FF92E162F289881EE0E946C01CA
:1003E000289A289888EA0E946C01112359F0802FDE
:1003F0009F2D9C01E90189910E946C019E01201BA7
:100400002117C8F3289ADF91CF911F910F91FF9088
:100410000895DF93CF930F92CDB7DEB71982289856
:1004200081E10E946C01BE016F5F7F4FCB0141E013
:100430000E944001289A89810F90CF91DF91089501
:10044000DF93CF930F92CDB7DEB71982289887E15B
:100450000E946C01BE016F5F7F4FCB0141E00E94A3
:100460004001289A898181700F90CF91DF91089582
:100470000F931F938C01289880E30E946C01C801A0
:1004800065E00E941F01289A1F910F9108950F9314
:100490001F938C012C9828988AE20E946C01C80155
:1004A00065E00E941F01289A2C9A1F910F910895D0
:1004B0001F93CF93DF93EC01162F8091570588236C
:1004C000E1F72C9881E080935705289880E20E94FC
:1004D0006C018AE40E946C01289A289881EE0E949F
:1004E0006C01289A289880EA0E946C01CE01612F45
:1004F0000E941F01289A2C9ADF91CF911F91089595
:100500000F931F93DF93CF9300D0CDB7DEB728981A
:1005100080E20E946C018DE00E946C01289A28986C
:1005200083E20E946C0181E00E946C01289A809114
:1005300031039091320399838A831B82289880E348
:100540000E946C018E010F5F1F4FC80163E00E9483
:100550001F01289A28988AE20E946C01C80163E072
:100560000E941F01289A289881E20E946C0181E074
:100570000E946C01289A289882E20E946C0181E016
:100580000E946C01289A289884E20E946C0182E102
:100590000E946C01289A289885E20E946C0188E2EA
:1005A0000E946C01289A289881E30E946C018DE0DA
:1005B0000E946C01289A289880E50E946C0183E7CC
:1005C0000E946C01289A28988CE30E946C0181E0BB
:1005D0000E946C01289A28988DE30E946C0186E0A5
:1005E0000E946C01289A289880E20E946C018FE09A
:1005F0000E946C01289A0F900F900F90CF91DF917D
:100600001F910F9108952C9A289A0E9480020895B4
:100610000F931F938C01289881E60E946C01C801FA
:10062000B8014DE00E944001289A289887E20E9474
:100630006C0180E40E946C01289A1F910F9108952B
:100640000F931F93DF93CF930F92CDB7DEB78091B7
:100650005705882331F00F90CF91DF911F910F91B3
:10066000089528988FEF0E946C01289A86FFF3CF97
:1006700080913303826080933303289887E20E943D
:100680006C0180E70E946C01289A1982289887E102
:100690000E946C01BE016F5F7F4FCB0141E00E9461
:1006A0004001289A898180FDD6CF289881E60E9452
:1006B0006C018CEA99E0BC014DE00E944001289A4F
:1006C000289887E20E946C0180E40E946C01289ABD
:1006D000289882EE0E946C01289A8091350381301F
:1006E00009F491C28091AC098823B9F48091AD09D5
:1006F000882399F48091AE09882379F48091AF0919
:10070000883059F48091B009882339F48091B10977
:10071000882319F48CE30E948C1080919005882323
:1007200041F58091B009282F30E02F773070309359
:10073000300320932F036091B109462F50E04F778B
:10074000507050932E0340932D0387FD27C28827B6
:100750009927821B930B909316038093150367FDD3
:1007600083C388279927841B950B90931803809344
:1007700017032091AC0930E0309395092093940938
:10078000E091AD09F0E0F0939709E09396090091AC
:10079000AE0910E01093990900939809922F8827C9
:1007A000821B930B64E670E00E94314F262F209548
:1007B000209308029E2F88278E1B9F0B64E670E013
:1007C0000E94314F609560930A02902F8827801B0A
:1007D000910B64E670E00E94314F609560930902CE
:1007E000822F0E94FE35809109020E94143680916A
:1007F0000A020E942A362091AF09922F20FF11C1D0
:10080000449891FF3CC1459892FF36C181E08093A6
:100810000E0294FDE6C196FF2CC181E08093940402
:1008200027FDE7C1109295048091B20980FF1BC19A
:1008300080910B018E7F80930B018091B20981FF23
:100840000CC180910B018D7F80930B018091B209C7
:1008500082FFFDC080910B018B7F80930B01809103
:10086000B20983FFF2C0A3988091B20984FFE7C068
:1008700080910B018F7E80930B018091B20985FFDF
:10088000D8C080910B018F7D80930B018091B209BC
:1008900086FFC9C080910B018F7B80930B018091F3
:1008A000B20987FDAAC180910B01806880930B017A
:1008B00080917004883009F476C18091070280939A
:1008C000E408853009F474C2863008F0DAC0833059
:1008D00009F4F4C1843009F054C080917D029091F4
:1008E0007E028093E508892F990F990B8093E60883
:1008F00080918502909186028093E708892F990F55
:10090000990B8093E80880918702909188028093E8
:10091000E908892F990F990B8093EA088091890241
:1009200090918A028093EB08892F990F990B8093FD
:10093000EC0880918B0290918C028093ED08892FB6
:10094000990F990B8093EE0880914C0490914D047F
:100950008093EF08892F990F990B8093F00880916D
:100960004E0490914F048093F108892F990F990BB1
:100970008093F208809143048093F30885E080938C
:100980000702289881EE0E946C01289A289888EA2C
:100990000E946C018091E4080E946C018091E5083E
:1009A0000E946C018091E6080E946C018091E7082A
:1009B0000E946C018091E8080E946C018091E90816
:1009C0000E946C018091EA080E946C018091EB0802
:1009D0000E946C018091EC080E946C018091ED08EE
:1009E0000E946C018091EE080E946C018091EF08DA
:1009F0000E946C018091F0080E946C018091F108C6
:100A00000E946C018091F2080E946C018091F308B1
:100A10000E946C01289A0F90CF91DF911F910F9146
:100A20000895449AEECE80910B01806480930B016F
:100A300036CF80910B01806280930B0127CF80918C
:100A40000B01806180930B0118CFA39A0DCF809189
:100A50000B01846080930B0102CF80910B018260B7
:100A600080930B01F3CE80910B01816080930B0189
:100A7000E4CE10929404D4CE10920E02CACE459ABF
:100A8000C3CE863009F4C5C0873009F07ACF6091B3
:100A9000F1027091F2028091F3029091F4020E94AF
:100AA000634D6093E508272F382F492F552747FDC1
:100AB0005A952093E6089C01552737FD5095452F00
:100AC0002093E708692F992767FD9095792F892F43
:100AD0006093E8086091ED027091EE028091EF0260
:100AE0009091F0020E94634D6093E908272F382F00
:100AF000492F552747FD5A952093EA089C01552711
:100B000037FD5095452F2093EB08692F992767FDF6
:100B10009095792F892F6093EC08609197047091DC
:100B200098048091990490919A0460939B04709327
:100B30009C0480939D0490939E0420E030E44FE059
:100B400054E40E94874E0E94634D6093ED08672F26
:100B5000770F770B6093EE0860919F047091A0046B
:100B60008091A1049091A2040E94684D6093EF08C7
:100B70007093F0086091A3047091A4048091A5047F
:100B80009091A6040E94684D6093F1087093F2085A
:100B90001092F30883E080930702F3CE309316039C
:100BA00020931503DCCD80919005882309F085CE34
:100BB0008091B30980FF81CE0E94E1398FEF93E0ED
:100BC000909386028093850290938C0280938B028F
:100BD00086E08093830B81E08093DD08809390050D
:100BE0006CCE0E94E1390E94F10F2091AF09922F43
:100BF00012CE81E08093950417CE80910B018F7700
:100C000080930B0155CE84EE98E060E10E94E401F0
:100C100022CD80915502909156028093E5088091F3
:100C20005502909156029093E6088091650290914A
:100C300066028093E7088091650290916602909326
:100C4000E8088091690290916A028093E908809196
:100C5000690290916A029093EA0880916D029091E6
:100C60006E028093EB0880916D0290916E029093DA
:100C7000EC0880917102909172028093ED0880914E
:100C80007102909172029093EE08809150049091BD
:100C900051048093EF08892F990F990B8093F008E6
:100CA0008091D9029091DA028093F1089093F20832
:100CB0001092F30887E08093070263CE809175025B
:100CC000909176028093E508892F990F990B809374
:100CD000E60880917702909178028093E708892F47
:100CE000990F990B8093E8088091790290917A028C
:100CF0008093E908892F990F990B8093EA088091D6
:100D00007B0290917C028093EB08892F990F990BBD
:100D10008093EC0880917F02909180028093ED088F
:100D2000892F990F990B8093EE0880918102909101
:100D300082028093EF08892F990F990B8093F00816
:100D400080918302909184028093F108892F990FFA
:100D5000990B8093F2082091030180910301409147
:100D6000030190E080729070959587959595879591
:100D7000959587959595879595958795880F991F52
:100D8000441F4427441F440F440F482B30E0207178
:100D90003070359527953595279535952795359557
:100DA0002795422B4093F30884E080930702E9CD16
:100DB00080914502909146028093E508809145021A
:100DC000909146029093E6088091490290914A02E0
:100DD0008093E7088091490290914A029093E80835
:100DE00080914D0290914E028093E90880914D02CE
:100DF00090914E029093EA08809151029091520294
:100E00008093EB0880915102909152029093EC08EC
:100E10008091590290915A028093ED088091590275
:100E200090915A029093EE0880915D0290915E023B
:100E30008093EF0880915D0290915E029093F0089C
:100E400080916102909162028093F1088091610229
:100E5000909162029093F208809170048093F3085D
:100E600086E0809307028DCD5093180340931703BB
:100E700080CC909136039093E4088091AC09981748
:100E800041F00E9420039091AC098091360398179D
:100E9000C1F71092E4089F3F21F09F5F90933603C3
:100EA000089583E0809336030895CF93DF93E8E6B7
:100EB000F0E01082ACE6B0E01C9220EB30E0E901FB
:100EC00018821092B100109270008081826080833D
:100ED0008C9180688C93888182608883DF91CF9128
:100EE00008951F920F920FB60F9211248F93809145
:100EF0000E02882321F18091030186FD20C080919C
:100F000068008D7F8093680080916C008F7780935C
:100F10006C0081E080930F028DE08093B30080919C
:100F2000B10086608093B1008091700082608093F0
:100F3000700010923C0210923D0210923E028F917E
:100F40000F900FBE0F901F9018951F920F920FB623
:100F50000F9211242F933F934F935F938F939F93FF
:100F60008091B100887F8093B10080910F02882327
:100F700059F18091030186FD69C010920F0283E34D
:100F80008093B3008091B10086608093B10080911E
:100F90007000826080937000809101029091020243
:100FA0002FEF8F3F920729F00196909302028093D2
:100FB00001029F918F915F914F913F912F910F90DF
:100FC0000FBE0F901F9018954091010250910202A0
:100FD0008FEF4F3F580709F44AC04130510509F4DB
:100FE00080C0CA010297059708F450C0CA0107974C
:100FF000069708F0ABC086E38093B3008091B10000
:1010000086608093B1008091700082608093700050
:101010002091030130E0207430700024220F331F30
:10102000001C220F331F001C232F302D8CE090E07A
:10103000841B950B02C0220F331F8A95E2F7809123
:101040003C02820F80933C02CA01AECF80916800BF
:1010500082608093680080916C00806880936C004F
:101060008FEF9FEF9093020280930102A2CF8091B5
:10107000030186FF54C080916800826080936800FD
:1010800080916C00806880936C0093CF86E380939E
:10109000B3008091B10086608093B10080917000B0
:1010A0008260809370002091030130E020743070E2
:1010B0000024220F331F001C220F331F001C232F7C
:1010C000302D86E090E0841B950B02C0220F331F69
:1010D0008A95E2F780913D02820F80933D02CA011A
:1010E00063CF8091030190E080749070082E892F67
:1010F000000C881F990B000C881F991F80933E02DB
:1011000086E38093B3008091B10086608093B10044
:1011100080917000826080937000CA0145CF8CE19D
:101120008093B3008091B10086608093B10080917C
:10113000700082608093700010923C0210923D0219
:1011400010923E0240E050E0CA012ECF4D305105D2
:1011500009F07ACF109270008091680082608093CD
:10116000680080916C00806880936C008FEF9FEF27
:10117000909302028093010280913E0280930002CC
:1011800080913D0280933A0280913C0280933B0221
:1011900081E0809344040DCF8091000208958091F6
:1011A0003A02089580913B02089580910E028823AF
:1011B00021F080914404882309F408951092440496
:1011C0000E94E40F20914704309148044091490463
:1011D00050914A04621B730B840B950B6358774044
:1011E0008040904050F30E94E40F60934704709356
:1011F00048048093490490934A0480913B02809371
:101200004304E82FF0E0E533F105C0F04091150309
:10121000509116032091170330911803CA01642FCF
:10122000892F57FDB7C160932F038093300337FD9B
:10123000A8C130932E0320932D030895EE58FF4F3D
:10124000EE0FFF1F0590F491E02D19948091460454
:1012500090E001968370907080934604813009F489
:10126000CAC1813008F0BBC1109294041092950459
:1012700040911503509116032091170330911803E4
:10128000CDCF1092940481E0809395044091150392
:10129000509116032091170330911803BFCF10927D
:1012A0009404409115035091160320911703309137
:1012B0001803B4CF81E080939404409115035091BA
:1012C00016032091170330911803A8CF209117031C
:1012D00030911803225030403093180320931703A5
:1012E0008FEF213838070CF05AC181E89FEF9093B7
:1012F000180380931703409115035091160321E8BA
:101300003FEF8CCF4091150350911603809113034A
:1013100090911403481759070CF05BC19A01425091
:1013200050405093160340931503225030403093A1
:101330001803209317038FEF4138580744F481E8CE
:101340009FEF909316038093150341E85FEF8FEFB3
:10135000213838070CF062CF81E89FEF9093180393
:101360008093170321E83FEF59CF40911503509127
:10137000160342505040509316034093150360915A
:101380001703709118036E5F7F4F9B0170931803D2
:10139000609317038FEF4138580744F481E89FEFBB
:1013A000909316038093150341E85FEF6038710551
:1013B0000CF434CF8FE790E09093180380931703D9
:1013C0002FE730E02BCF10921603109215031092E6
:1013D00018031092170380917004883009F418C123
:1013E0006091150380911603209117033091180323
:1013F0001ACF40911503509116034250504050931C
:101400001603409315032FEF413852070CF002CF1B
:1014100081E89FEF90931603809315038FE790E088
:1014200020911703309118039093300380932F037A
:10143000FECE40911503509116034E5F5F4F5093BF
:1014400016034093150360911703709118036250BF
:1014500070409B0170931803609317034038510547
:1014600044F08FE790E090931603809315034FE7C5
:1014700050E061587F4F0CF0D1CE6ECF2091170312
:10148000309118032E5F3F4F3093180320931703BA
:10149000203831050CF483C08FE790E09093180357
:1014A0008093170340911503509116032FE730E006
:1014B000B5CE40911503509116032091170330913A
:1014C0001803241735070CF082C09A014E5F5F4F56
:1014D00050931603409315032E5F3F4F309318032C
:1014E000209317034038510544F08FE790E0909324
:1014F0001603809315034FE750E0203831050CF4B4
:101500008DCE58CF40911503509116034E5F5F4F1B
:101510005093160340931503403851050CF47ACECE
:101520008FE790E0909316038093150359CF809135
:10153000450490E0019665E070E00E94454F80937D
:101540004504882389F5449A459A10920A028FEF40
:101550008093090280930802809108020E94FE3560
:10156000809109020E94143680910A020E942A3654
:1015700040911503509116032091170330911803E1
:101580004DCE88279927821B930B90932E0380932F
:101590002D03089588279927841B950B45CF4091EB
:1015A0001503509116033ACE813009F44EC08230B3
:1015B00009F453C0833009F45AC0843069F68FEFC0
:1015C00080930A028093090280930802C5CFA90183
:1015D0007DCF2091170330911803A901A0CE82304E
:1015E00009F44FCE833009F051CE81E0809394040A
:1015F000809395040BCE80939404109295044091AF
:10160000150350911603209117033091180306CE4D
:101610000E94E1398FEF93E09093860280938502D8
:1016200090938C0280938B0286E08093830B81E001
:101630008093DD0880939005409115035091160327
:101640002091170330911803E9CD8FEF80930A02A0
:1016500010920902809308027FCF449845988FEF3B
:1016600080930A02809309021092080275CF1092AB
:101670000A0210920902109208026ECF0895EF92AA
:10168000FF920F931F93CF93DF93EC018881998191
:10169000892B09F4B2C0E090490BF0904A0BF0920C
:1016A000E308E092E2082881398137FDE4C08091A7
:1016B0000F0390911003281B390B30934A0B209392
:1016C000490BF90120912703309128032E0F3F1F6A
:1016D000309328032093270386E0213438070CF445
:1016E000ADC080E496E0909328038093270320E424
:1016F00036E008811981C901880F991F820F931F55
:10170000AC01662757FD6095762FCF01880F991F92
:101710009F01220F331F220F331F220F331F820F0F
:10172000931FAA2797FDA095BA2F480F591F6A1F2C
:101730007B1FEE19FF09EE0FFF1FCF01AA2797FDB0
:10174000A095BA2F480F591F6A1F7B1FC801880F29
:10175000991F880F991F880F991FAA2797FDA09599
:10176000BA2F480F591F6A1F7B1F40931D035093C8
:101770001E0360931F037093200377FD6DC0141642
:1017800015061606170614F417FD68C0415C5D4582
:10179000604070400CF480C080EC9DE5A0E0B0E0BB
:1017A00080931D0390931E03A0931F03B093200307
:1017B00024E0B595A795979587952A95D1F79C0133
:1017C0009983888380910503909106031816190662
:1017D0000CF05DC0C90101969983888322E08030B6
:1017E0009207F4F08FEF91E099838883DF91CF9196
:1017F0001F910F91FF90EF9008951092280310927F
:10180000270310924A0B1092490B1092E308109292
:10181000E208DF91CF911F910F91FF90EF90089513
:1018200081509E4F1CF781E09EEF99838883DF9162
:10183000CF911F910F91FF90EF90089589EF203C79
:1018400038070CF056CF80EC99EF909328038093E3
:10185000270320EC39EF4DCF17FD98CF10921D03D1
:1018600010921E0310921F031092200380E090E05C
:10187000A0E0B0E09DCF80910F0390911003280F5E
:10188000391F30934A0B2093490BF9011BCFC90133
:10189000019799838883A2CF80911D0390911E03A5
:1018A000A0911F03B0912003803422EA92072FEF0A
:1018B000A2072FEFB2070CF07BCF80E492EAAFEFE4
:1018C000BFEF80931D0390931E03A0931F03B0935B
:1018D00020036ECFEF92FF920F931F93CF93DF936E
:1018E000EC0188819981892B09F4B2C0E0909505BB
:1018F000F0909605F092AB09E092AA09288139810F
:1019000037FDE4C080910D0390910E03281B390B25
:101910003093960520939505F90120912503309188
:1019200026032E0F3F1F309326032093250386E0C6
:10193000213438070CF4ADC080E496E09093260380
:101940008093250320E436E008811981C901880FBE
:10195000991F820F931FAC01662757FD6095762F64
:10196000CF01880F991F9F01220F331F220F331FB2
:10197000220F331F820F931FAA2797FDA095BA2F1E
:10198000480F591F6A1F7B1FEE19FF09EE0FFF1F3B
:10199000CF01AA2797FDA095BA2F480F591F6A1F9C
:1019A0007B1FC801880F991F880F991F880F991FE7
:1019B000AA2797FDA095BA2F480F591F6A1F7B1FB2
:1019C00040932103509322036093230370932403D5
:1019D00077FD6DC0141615061606170614F417FDCC
:1019E00068C0415C5D45604070400CF480C080EC94
:1019F0009DE5A0E0B0E08093210390932203A093A3
:101A00002303B093240354E0B595A7959795879544
:101A10005A95D1F79C01998388838091070390910F
:101A20000803181619060CF05DC0C90101969983C8
:101A3000888322E080309207F4F08FEF91E0998361
:101A40008883DF91CF911F910F91FF90EF900895C0
:101A50001092260310922503109296051092950578
:101A60001092AB091092AA09DF91CF911F910F91AB
:101A7000FF90EF90089581509E4F1CF781E09EEFFC
:101A800099838883DF91CF911F910F91FF90EF9001
:101A9000089589EF203C38070CF056CF80EC99EF81
:101AA000909326038093250320EC39EF4DCF17FD4B
:101AB00098CF1092210310922203109223031092C8
:101AC000240380E090E0A0E0B0E09DCF80910D0382
:101AD00090910E03280F391F30939605209395059A
:101AE000F9011BCFC901019799838883A2CF809107
:101AF000210390912203A0912303B0912403803409
:101B000022EA92072FEFA2072FEFB2070CF07BCF4C
:101B100080E492EAAFEFBFEF80932103909322031A
:101B2000A0932303B09324036ECF85B7806185BF54
:101B30002FEF21B912B887EF84B980EE85B980EF15
:101B400087B980EB88B98CEF8AB983E08BB92DB95E
:101B50001EB810BA23BB90917304992399F414BA58
:101B600020930101109202018FE080930401809183
:101B70000501109205011092070120930A011092AD
:101B80000B010895913089F414BA20930101109249
:101B900002018FE0809304018093050110920701F8
:101BA00020930A0110920B010895923099F488E075
:101BB00084BB20930101109202018FE08093040105
:101BC000809305011092070120930A0187EF80930B
:101BD0000B01089520930101109202018FE0809380
:101BE00004011092070120930A01992341F29130D8
:101BF00031F2923059F308951092B8001092BC005F
:101C00000895589A599A1092B90081E08093B800CB
:101C10000895982F84EA8093BC008091BC0087FFD0
:101C2000FCCF8091B900887F883021F0803111F09D
:101C300081E008959093BB0084E88093BC0080917C
:101C4000BC0087FFFCCF9091B900987F983129F0B4
:101C500080E0903409F081E0089580E00895982FA5
:101C600024EA34E844E92093BC008091BC0087FF5B
:101C7000FCCF8091B900887F883011F0803199F7CE
:101C80009093BB003093BC008091BC0087FFFCCFD9
:101C90008091B900887F803211F0883539F4409303
:101CA000BC008091BC0084FDFCCFDDCF089584E9A9
:101CB0008093BC008091BC0084FDFCCF089580938C
:101CC000BB0084E88093BC008091BC0087FFFCCF00
:101CD0008091B90090E0887F883209F091E0892FE7
:101CE000089584EC8093BC008091BC0087FFFCCFFA
:101CF0008091BB00089584E88093BC008091BC0073
:101D000087FFFCCF8091BB000895982F84EA8093D1
:101D1000BC008091BC0087FFFCCF8091B900887F18
:101D2000883021F0803111F081E008959093BB005C
:101D300084E88093BC008091BC0087FFFCCF909129
:101D4000B900987F983129F080E0903409F081E063
:101D5000089580E008951092C50080E18093C4004A
:101D6000E0ECF0E0808182608083E1ECF0E0808153
:101D700088698083E2ECF0E080818660808308954A
:101D80001092CD0080E18093CC00E8ECF0E08081FF
:101D900082608083E9ECF0E0808188618083EAECF6
:101DA000F0E080818660808308951092C0001092D8
:101DB000C1001092C2000895982F8091C00085FF45
:101DC000FCCF9093C600662321F08091C00086FF6F
:101DD000FCCF0895982F8091C80085FFFCCF909389
:101DE000CE00662321F08091C80086FFFCCF0895C5
:101DF0008091C0008095881F8827881F089520E063
:101E000030E08091C00087FD0AC02F5F3F4F273927
:101E10003105B9F781E080933A0380E0089580911D
:101E2000C60008951F920F920FB60F920BB60F9235
:101E300011242F933F934F935F936F937F938F93CF
:101E40009F93AF93BF93EF93FF939091C6008091C0
:101E500070048E30C1F18F3031F180910D028823F2
:101E600009F046C080913F04813009F446C08230B9
:101E700061F540914104442309F45EC0413029F5E5
:101E8000392F20E08091310390913203822B932BE4
:101E900090933203809331034093400410924104A5
:101EA00040930D0212C09B3289F19D32E9F19736C1
:101EB00009F44AC0933749F48DEF9FE060917205B1
:101EC0000E944D5002C09A3A59F1FF91EF91BF9193
:101ED000AF919F918F917F916F915F914F913F91C2
:101EE0002F910F900BBE0F900FBE0F901F90189563
:101EF00010920D0290933F04E8CF9A3A91F19535F4
:101F000021F780930D0210923F04DFCF809172057C
:101F10008F3F19F08F5F8093720580936600D5CF55
:101F200081E08093F804D1CF809172058823A9F3D2
:101F3000815080937205F1CF909331031092320358
:101F400081E080934104C1CF8091430461E00E940D
:101F5000DC0E809166008093720561E00E94DC0EC9
:101F6000B4CF80934204B1CF86B146B126B166B1F9
:101F700030E0287030703595279535952795359543
:101F80002795220F331F50E04470507055954795A8
:101F900055954795240F351F220F331F70E062704F
:101FA000707075956795260F371F220F331F81704C
:101FB000820F08951F920F920FB60F9211240F9067
:101FC0000FBE0F901F90189560916C0470916D0476
:101FD00080916E0490916F04089581E08093DB02FC
:101FE000089580E090E0A0E0B0E08093F10290934B
:101FF000F202A093F302B093F4028093ED02909367
:10200000EE02A093EF02B093F002809397049093B6
:102010009804A0939904B0939A0480939F0490939A
:10202000A004A093A104B093A2048093A30490936E
:10203000A404A093A504B093A6048093BF04909336
:10204000C004A093C104B093C2048093BB049093D6
:10205000BC04A093BD04B093BE040895F89414BCCE
:1020600015BC10926E0010922001109221018EEF8B
:102070009FE00E941F5090933203809331038DEFB5
:102080009FE00E941750982F8093720581508E3FD9
:10209000B0F5909366002091310330913203C9016D
:1020A00081589C40039710F4109273048CE0203800
:1020B000380771F124583C4018F082E08093730493
:1020C0000E94CE310E94950D0E94F8100E94531775
:1020D0000E94C1350E9410010E94030380913403C5
:1020E000882329F4809133038160809333030E9415
:1020F000AB0E0E94953E0E9455077894089560911A
:102100006600609372058DEF9FE00E944D50C3CF33
:1021100081E080937304D4CFCF93DF939EE1899FB6
:10212000E0011124809168008D7F80936800809188
:102130006C008F7780936C00D99A10927A0080910E
:102140007A00806180937A00109290001092910042
:102150001092710088B3876088BB1092A000109223
:10216000A1001092720089B3876089BB1092800031
:10217000109281000E94D50E0E941C010E94FC0D4D
:102180000E94950D83B78F6083BF81E080937000BC
:102190008091B0008D7F8093B0008091B100876006
:1021A0008093B100209719F088952197E9F713BE25
:1021B0008091B100887F8093B1001092700080916F
:1021C000B00082608093B0008FEF8093080280930C
:1021D000090280930A0210921203109211031092C6
:1021E0001403109213030E942E10DF91CF910895D3
:1021F000EAE7F0E010822BE730E0D9011C92ACE76F
:10220000B0E01C928081866080838C9180648C9386
:10221000808180628083D9018C91887F8C938081BA
:1022200088608083808180688083808180648083EF
:1022300008951F920F920FB60F920BB60F921124B2
:102240001F932F933F934F935F936F937F938F933E
:102250009F93AF93BF93EF93FF9380916C04909102
:102260006D04A0916E04B0916F048F3F2FEF920721
:102270002FEFA2072FEFB20709F4B9C00196A11DF5
:10228000B11D80936C0490936D04A0936E04B09381
:102290006F0480917800482F50E020917900922FB0
:1022A00080E0482B592B8091D502823009F4BDC1C2
:1022B000833008F44CC0843009F4E0C1843008F065
:1022C0002FC18091FD029091FE02480F591F569533
:1022D00047955093FE024093FD029091F404923092
:1022E00009F04BC080914405813009F47BC28130F4
:1022F00008F0F1C180914605813009F407C390913F
:10230000D60280913F02883008F050C180917B0056
:10231000877F80937B0080913F02805C80937C006C
:10232000923009F450C1FF91EF91BF91AF919F910D
:102330008F917F916F915F914F913F912F911F915D
:102340000F900BBE0F900FBE0F901F901895882313
:1023500009F456C0813061F48091FF02909100032E
:10236000480F591F56954795509300034093FF021D
:102370009091F404923009F4B5CF913009F434C14E
:10238000992309F0BCCF9091D602923009F432C360
:10239000933008F0D5C1992309F471C2913009F046
:1023A000B0CF8091410280933F028091440280939C
:1023B000D8021092D50282E08093D6021091F204E6
:1023C000113009F410C4123009F099CF8091400205
:1023D000873109F094CF1093F40480914605813041
:1023E00009F494C21092F4049091D6028ACF10920C
:1023F0006C0410926D0410926E0410926F0449CF19
:10240000609140026E3009F4D1C2E62FF0E0DF01A6
:10241000AA0FBB1FAB5BBD4F11965C934E9360FF41
:1024200072C0EE0FFF1FED5BFD4F408151812D917A
:102430003C91862F8695A82FB0E0421B530BAA0F24
:10244000BB1FFD01E357FD4F80819181481B590B54
:10245000FD01EB58FD4F5183408357FDE8C24150C9
:10246000544024F080E094E091838083603170F4E4
:10247000FD01EB58FD4F0190F081E02DEC33F105AB
:102480000CF0F4C2A352BD4FED93FC9380919504E0
:10249000882309F406C28091850290918602845AAD
:1024A0009140B4F08091870290918802845A9140C3
:1024B0007CF08091890290918A02845A914044F084
:1024C00080918B0290918C02845A91400CF0E9C16A
:1024D00081E08093960410921403109213031092DB
:1024E000A9001092A8001092AB001092AA001092BE
:1024F00012031092110310929900109298001092FA
:102500009B0010929A00862F8F5F80934002883143
:1025100008F42ECF1092400281E08093DC0228CF95
:10252000863009F025CF8091220590E0209140026D
:10253000880F991F880F991F880F991F820F911D6F
:10254000880F991FE0918B08F0918C08E80FF91F14
:102550005183408320914002822F90E0880F991F81
:10256000E091590BF0915A0BE80FF91F808191818E
:102570008417950720F45183408320914002822FD5
:1025800090E0880F991FE091E905F091EA05E80FC6
:10259000F91F808191814817590720F451834083A6
:1025A000209140022F5F20934002E2CE80917B0079
:1025B000886080937B0080913F02885C80937C00E0
:1025C000923009F0B0CE8091F404882309F0ABCEAC
:1025D00080917304882309F0ABC080910501807F4E
:1025E0008093050112B89FCE20912105263009F471
:1025F0004EC2273008F0D4C0223009F455C223302F
:1026000008F470C1243009F4D5C2253008F4C4C2DE
:10261000809140028F5F80933F0286E08093D502D5
:10262000809321059091D6026CCE8091050288237B
:1026300009F49ECE63999CCE64999ACE282F2F5F81
:1026400020930502253008F493CE809111039091D8
:102650001203892B51F080910B0390910C03840F8E
:10266000951F90930C0380930B03283009F080CEC4
:102670001092050281E0809304027ACE90910602C6
:10268000992309F475CE8091000183FD71CE80916C
:10269000000184FD6DCE292F2F5F20930602253087
:1026A00008F466CE8091130390911403892B51F0A6
:1026B0008091090390910A03840F951F90930A0358
:1026C00080930903283009F053CE1092060281E06E
:1026D000809303024DCE833009F4ABC0843009F0FF
:1026E0000ECE809152058F5F8093520590E020912D
:1026F0004E0530914F058217930709F40CC1809164
:10270000410280933F02809144028093D8028091DD
:10271000D702882309F4D3C0813009F4C2C285E00E
:102720008093D50283E0809344059091D602E9CD51
:10273000813009F073C18FEF8093050112B8F3CD9A
:10274000933009F443C1943009F0DBCD809142020B
:1027500080933F02809143028093D7028091D802F8
:10276000882309F075C183E08093D5021092D602C8
:10277000209140022E3009F42BC2422F50E020FF5E
:10278000BECD203108F058C2269581E090E002C00D
:10279000880F991F2A95E2F782B99091D602B1CDA0
:1027A000293009F48FC12A3008F08DC0273009F490
:1027B000E2C1283009F0A3CD8091420280933F020C
:1027C000809143028093D7028091D802882309F038
:1027D0007EC283E08093D50289E0809321059091A9
:1027E000D6028FCD80917304882309F45DC08130B7
:1027F00009F01EC28FEF8093050112B8809141024B
:1028000080933F02809144028093D80285E08093B8
:10281000D5028093F50482E08093440580915405AD
:10282000882309F0FFC081E0809354059091D6027F
:1028300068CD809152058F5F8093520590E0209182
:102840004E0530914F058217930709F493C080918C
:10285000420280933F02809143028093D70280918D
:10286000D802882341F1813009F41FC285E08093AA
:10287000D50284E0809344059091D60242CD8091A8
:102880004002869580933F028091D702882309F009
:10289000E6C081E08093D50281E08093D60291E08A
:1028A00030CD109296042FCE80910501807F8093C9
:1028B000050112B8A3CF83E08093D502DACF81E07F
:1028C0008093D5022FCF2B3009F447C12B3008F469
:1028D0001AC12C3009F013CD85E08093D502909178
:1028E000D6020FCD222309F402C1213009F007CD11
:1028F000809140028F5F80933F0286E08093D502F3
:1029000082E0809321059091D602FBCC8093440510
:102910009091D602F6CC1092520580914D058823F5
:1029200009F09FC181E080934D0580915405882373
:1029300009F001C28AEA82B9809151058F5F8093C4
:10294000510590915005891709F0D9CE80914C0519
:102950008F5F80934C058C3009F473C282E08093C2
:10296000F50482E08093440585E08093D502909140
:10297000D602C7CC1092520580914D05882309F0EC
:1029800074C181E080934D0580915405882309F03E
:10299000D5C18AEA82B9809151058F5F8093510534
:1029A00090915005891709F052CFD0CF8091DB026A
:1029B000823009F02ACD5093DA024093D902109266
:1029C000DB0246988FE080934002D2CC8091410296
:1029D00080933F02809144028093D8028091D70275
:1029E000882341F581E08093D50284E08093D6026C
:1029F00094E087CC8091420280933F028091430211
:102A00008093D7028091D8028823D9F483E0809301
:102A1000D50283E08093D60293E073CC823009F430
:102A20008ACE81CC109254059091D6026ACC118244
:102A300010821CCD813009F460C185E08093D502FD
:102A4000D4CF813009F451C185E08093D502E1CF24
:102A5000813009F456C185E08093D50287CE81305C
:102A600009F447C185E08093D50216CFCF01CC96FB
:102A700095958795883791050CF0FBC0A352BD4F03
:102A8000FC97F595E795FC96ED93FC93FFCC809130
:102A900040028F5F80933F022093D50287E08093AE
:102AA00021059091D6022DCC809140028F5F8093BA
:102AB0003F0286E08093D50283E0809321059091C8
:102AC000D6021FCC8091410280933F028091440244
:102AD0008093D8028091D702882309F0F1C09093A7
:102AE000D5028AE0809321059091D6020ACC1092FB
:102AF000400290933F0286E08093D5029093210597
:102B00009091D602FECB8091420280933F02809149
:102B100043028093D7028091D802882309F0C9C06C
:102B200083E08093D50280913B058E3F18F48F5F40
:102B300080933B05909122059F5F909322058091A1
:102B4000F504843009F4FDC0943109F416C18BE01A
:102B5000809321059091D602D4CB10923F028091B0
:102B6000D702882309F0BAC09093D50210922105AC
:102B70009091D602C6CB8091410280933F02809112
:102B800044028093D80286E08093D50288E0809347
:102B900021059091D602B5CB809140028F5F809342
:102BA0003F0286E08093D50284E0809321059091D6
:102BB000D602A7CB809140028F5F80933F0286E0D0
:102BC0008093D50285E0809321059091D60299CB20
:102BD0008091DB02813009F0D0CD82E08093DB026E
:102BE000469A90E08ECB80914002873109F0EBCB82
:102BF00010923F021092DB021092210510922205E2
:102C0000E091590BF0915A0B80E1DF011D928A95FA
:102C1000E9F78091E9059091EA056FEF70E040E1F6
:102C200050E00E9400501093F4041091F204CBCBBA
:102C3000823009F4DFCDE2CD80917304882309F05E
:102C400063C0405150405595479581E090E002C0E7
:102C5000880F991F4A95E2F7809305019091D6025B
:102C600050CB10924D0512B867CE10924D0512B898
:102C700092CECF01845D9E4F9595879595958795CA
:102C8000843B91050CF06AC0A352BD4FE45BF04059
:102C9000F595E795F595E795E858FF4FED93FC938B
:102CA000F5CB82E08093D5023DCD84E08093D502C0
:102CB000E0CD813009F4C1C085E08093D50233CFE7
:102CC000813009F4AEC085E08093D5020ACF81300F
:102CD00009F4ABC085E08093D5027ECD813009F444
:102CE000A8C085E08093D50241CF84E08093D502CF
:102CF00090CE82E08093D502CFCD82E08093D50242
:102D000074CE9093D50232CD813009F0B1C02091BC
:102D10000501405150405595479581E090E002C033
:102D2000880F991F4A95E2F78095822380930501C9
:102D30009091D602E6CA85E582B9FECD85E582B9D5
:102D40002ACE1092220590913B0580912C05981770
:102D500008F4FDCE85E08093F504F9CEA352BD4F73
:102D6000E45AF140F595E795F595E795F595E795E2
:102D7000EC54FF4FED93FC9389CB109222052091E8
:102D80006F083091700880918B0890918C08909317
:102D9000700880936F0830938C0820938B084091C3
:102DA0006C0550916D058091590B90915A0B909341
:102DB0006D0580936C054093590B50935A0B2091ED
:102DC00058053091590530939B0B20939A0B8091B5
:102DD000E9059091EA059093590580935805309341
:102DE000EA052093E905FA0180E1DF011D928A9549
:102DF000E9F78091E9059091EA056FEF70E040E115
:102E000050E00E9400508091F504813009F445C0E3
:102E10008091F504853009F09ACE86E08093F50420
:102E200096CE82E08093D5025CCE84E08093D5027A
:102E3000D3CC82E08093D50299CE84E08093D502F2
:102E400072CE81E08093F504109246051092D6026E
:102E50001092F4040E94003F12B80E94E40F6093A5
:102E60004705709348058093490590934A0579CDAD
:102E7000823009F044CA20910501405150405595D7
:102E8000479581E090E002C0880F991F4A95E2F7CC
:102E9000809582238093050132CA82E08093F504F5
:102EA00010923B05B5CF0F931F93CF93DF93E0E9CB
:102EB000F0E01082A1E9B0E01C9221E730E0E901E6
:102EC000188240EA50E0EA01188261EA70E0EB0102
:102ED000188202E710E0E80118828081836880830D
:102EE0008081836080838C918B608C9380911103AF
:102EF00090911203909399008093980010929B00F8
:102F000010929A00D9018C9181608C9380818F7589
:102F100080838EB1877E8EB9EA0188818368888339
:102F2000FB0180818B608083809113039091140357
:102F30009093A9008093A8001092AB001092AA0071
:102F4000D8018C9181608C9388818F758883E2E0B1
:102F5000F1E08081877E8083DF91CF911F910F9177
:102F600008952EEF8130920714F481E09EEF9C01CA
:102F700082E02030380714F02FEF31E0C9010895C6
:102F8000282F332727FD309537FD29C030932E0396
:102F900020932D0387FD1AC0309318032093170345
:102FA000C90122E0803092073CF08FEF91E09093CE
:102FB000180380931703089581509E4F34F481E0E5
:102FC0009EEF9093180380931703089588279927FD
:102FD000821B930B9093180380931703E2CF3095D5
:102FE00021953F4FD3CF282F332727FD309537FD2D
:102FF00029C03093300320932F0387FD1AC03093EC
:10300000160320931503C90122E0803092073CF09B
:103010008FEF91E0909316038093150308958150EC
:103020009E4F34F481E09EEF909316038093150336
:10303000089588279927821B930B909316038093FA
:103040001503E2CF309521953F4FD3CF8091750581
:10305000882309F03FC0E091DD08E23008F477C032
:103060004E2F50E0FA01EE0FFF1FEE0FFF1FEE0F85
:10307000FF1FEE0FFF1FEA51F74F808191812091D2
:10308000980B3091990B8217930734F00196909327
:10309000990B8093980B9C01FA013197DF01A2955F
:1030A000B295B07FBA27A07FBA27AC5FB64F8091A8
:1030B000DC049091DD048D939C93EE0FFF1FEE0FC7
:1030C000FF1FEE0FFF1FEE0FFF1FEA5FF64F31836A
:1030D00020830895813031F0823009F470C083304C
:1030E000E9F10895E091DD08E23008F49EC04E2F2A
:1030F00050E0FA01E295F295F07FFE27E07FFE278F
:10310000EC51F74F868197812091980B3091990B64
:103110008217930734F001969093990B8093980B44
:103120009C01FA013197E295F295F07FFE27E07F4E
:10313000FE27DF01A85FB64F8091DE049091DF0487
:103140008D939C93EC5FF64F3783268308954E2F23
:1031500050E02091980B3091990B9ECFE091DD08C3
:10316000E23008F470C04E2F50E0FA01E295F2957B
:10317000F07FFE27E07FFE27EC51F74F868597858D
:103180002091980B3091990B8217930734F0019698
:103190009093990B8093980B9C01FA01E295F2951C
:1031A000F07FFE27E07FFE27EC50F74F8091DE0492
:1031B0009091DF0495878487378726870895E0916B
:1031C000DD08E230C8F14E2F50E0FA01E295F295A9
:1031D000F07FFE27E07FFE27EC51F74F8285938535
:1031E0002091980B3091990B8217930734F0019638
:1031F0009093990B8093980B9C01FA013197EE0FF5
:10320000FF1FEE0FFF1FEE0FFF1FEE0FFF1FDF016F
:10321000A45FB64F8091DC049091DD048D939C9364
:10322000EC5FF64F3387228708954E2F50E02091B0
:10323000980B3091990B75CF4E2F50E02091980B41
:103240003091990BDACF4E2F50E02091980B3091AE
:10325000990BA3CF8F929F92AF92BF92CF92DF92A2
:10326000EF92FF920F931F93CF93DF93462F9C0112
:10327000220F331F220F331F280F391F211531054D
:1032800009F492C0862F8250823008F49DC04423F6
:1032900009F077C0609106097091070962177307FA
:1032A0000CF099C080911609909117098217930725
:1032B0000CF01EC28091260990912709821793076E
:1032C0000CF066C3809136099091370982179307F5
:1032D0000CF05BC3809146099091470982179307D0
:1032E0000CF059C3809156099091570982179307A2
:1032F0000CF054C380916609909167098217930777
:103300000CF052C380917609909177098217930748
:103310000CF047C380918609909187098217930723
:103320000CF045C3B901882777FD8095982F0E943E
:10333000964D7B018C0160918409709185098827E5
:1033400077FD8095982F0E94964D9B01AC01C80196
:10335000B7010E94874E7B018C01609186097091B4
:103360008709882777FD8095982F0E94964D9B01AD
:10337000AC01C801B7010E94FB4C0E94634D9B0148
:1033800015C04330C1F1423009F424C1413009F481
:10339000ACC0442339F2413009F4EFC0423009F4A3
:1033A00061C1433009F46FC020E030E0C901DF9112
:1033B000CF911F910F91FF90EF90DF90CF90BF9032
:1033C000AF909F908F900895309521953F4F442363
:1033D00009F460CFD6CF8091040990910509AC0122
:1033E000249FC001259F900D349F900D11240E94B1
:1033F000454F9B01DBCF6091120970911309621751
:1034000073070CF062C18091220990912309821701
:1034100093070CF06DC180913209909133098217A6
:1034200093070CF0B5C2809142099091430982172D
:1034300093070CF0AAC28091520990915309821708
:1034400093070CF0A8C280916209909163098217DA
:1034500093070CF0A3C280917209909173098217AF
:1034600093070CF0A1C28091820990918309821781
:1034700093070CF096C2809192099091930982175C
:1034800093070CF094C2B901882777FD8095982F97
:103490000E94964D7B018C01609190097091910979
:1034A000882777FD8095982F0E94964D9B01AC014F
:1034B000C801B7010E94874E7B018C01609192097F
:1034C00070919309882777FD8095982F0E94964DDB
:1034D0009B01AC01C801B7010E94FB4C0E94634DE7
:1034E00022273327261B370B61CF60910A09709181
:1034F0000B09621773070CF060C080911A09909154
:103500001B09821793070CF0F3C080912A09909150
:103510002B09821793070CF03BC280913A099091D6
:103520003B09821793070CF030C280914A099091B1
:103530004B09821793070CF02EC280915A09909183
:103540005B09821793070CF029C280916A09909158
:103550006B09821793070CF027C280917A0990912A
:103560007B09821793070CF01CC280918A09909105
:103570008B09821793070CF01AC2B901882777FDCF
:103580008095982F0E94964D7B018C01609188094F
:1035900070918909882777FD8095982F0E94964D14
:1035A0009B01AC01C801B7010E94874E7B018C01D1
:1035B00060918A0970918B09D4CE8091080990910D
:1035C0000909FC012E9FC0012F9F900D3E9F900D79
:1035D00011240DCF60910E0970910F0962177307C6
:1035E0000CF060C080911E0990911F09821793070B
:1035F0000CF07EC080912E0990912F0982179307BD
:103600000CF0C6C180913E0990913F098217930743
:103610000CF0BBC180914E0990914F09821793071E
:103620000CF0B9C180915E0990915F0982179307F0
:103630000CF0B4C180916E0990916F0982179307C5
:103640000CF0B2C180917E0990917F098217930797
:103650000CF0A7C180918E0990918F098217930772
:103660000CF0A5C1B901882777FD8095982F0E949D
:10367000964D7B018C0160918C0970918D09882792
:1036800077FD8095982F0E94964D9B01AC01C80153
:10369000B7010E94874E7B018C0160918E09709169
:1036A0008F0910CF80910C0990910D09AC01249FD6
:1036B000C001259F900D349F900D11240E94454F0D
:1036C00022273327261B370B71CE8091100990914A
:1036D0001109FC012E9FC0012F9F900D3E9F900D60
:1036E00011240E94454F22273327261B370B5ECE1D
:1036F000C1E0D0E0C930D10509F44BCE442309F034
:1037000059C0FE013197EE0FFF1FEE0FFF1FEE0FA6
:10371000FF1FEE0FFF1FDF01AA5FB64FCD90DC90B9
:10372000EC5FF64FA080B1802C193D09B9018827C4
:1037300077FD8095982F0E94964D7B018C01FE01AC
:10374000E295F295F07FFE27E07FFE27EC5FF64FD3
:10375000608171816A197B09882777FD8095982F90
:103760000E94964D9B01AC01C801B7010E94874E93
:103770007B018C01CC0FDD1FCC0FDD1FCC0FDD1FBB
:10378000CC0FDD1FCA5FD64F688179816C197D0926
:10379000882777FD8095982F0E94964D9B01AC015C
:1037A000C801B7010E94FB4C0E94634D9B012A0D8A
:1037B0003B1DFCCD413009F44EC0423009F489C0B4
:1037C000433009F0F1CDC295D295D07FDC27C07F80
:1037D000DC27FE01EC50F74FA684B78484849584DF
:1037E0002A193B09B901882777FD8095982F0E94F7
:1037F000964D6B017C018E010C5F164FF8016485BC
:10380000758568197909882777FD8095982F0E941A
:10381000964D9B01AC01C701B6010E94874E6B011A
:103820007C01F801668577856A197B09882777FD11
:103830008095982F0E94964D9B01AC01C701B6015F
:103840000E94FB4C0E94634D680D791D222733278F
:10385000261B370BABCDFE013197E295F295F07F39
:10386000FE27E07FFE27DF01AC5FB64F1696CD90B6
:10387000DC901797E85FF64FA080B1802C193D09C6
:10388000B901882777FD8095982F0E94964D7B017E
:103890008C01C295D295D07FDC27C07FDC27FE014A
:1038A000E85FF64F608171816A197B09882777FD8F
:1038B0008095982F0E94964D9B01AC01C801B701DD
:1038C0000E94874E7B018C01CC5FD64F6E817F8139
:1038D0005DCFDE011197FD01E295F295F07FFE27A5
:1038E000E07FFE27EC5FF64FC284D384AA0FBB1F94
:1038F000AA0FBB1FAA0FBB1FAA0FBB1FA45FB64F07
:10390000AD90BC902C193D09B901882777FD8095B1
:10391000982F0E94964D7B018C01CC0FDD1FCC0FA0
:10392000DD1FCC0FDD1FCC0FDD1FFE01E45FF64F66
:10393000608171816A197B09882777FD8095982FAE
:103940000E94964D9B01AC01C801B7010E94874EB1
:103950007B018C01CC5FD64F6A857B856C197D0914
:10396000882777FD8095982F0E94964D9B01AC018A
:10397000C801B7010E94FB4C0E94634D6A0D7B1D7C
:1039800022273327261B370B11CDC3E0D0E0B2CE60
:10399000C2E0D0E0AFCEC4E0D0E0ACCEC5E0D0E035
:1039A000A9CEC7E0D0E0A6CEC6E0D0E0A3CEC8E066
:1039B000D0E0A0CE8F929F92AF92BF92CF92DF9233
:1039C000EF92FF920F931F93CF93DF93C0910F035A
:1039D000D0911003809111039091120397FDEAC0DA
:1039E00060910809709109096C177D070CF067C197
:1039F00088248A94982C80911809909119098C1721
:103A00009D074CF080E09FEF89169FEF990609F41F
:103A100075C1882E992480912809909129098C17C5
:103A20009D0734F0EFEF8E16EFEF9E0609F462C1AA
:103A300080913809909139098C179D0734F0FFEF78
:103A40008F16FFEF9F0609F451C1809148099091AC
:103A500049098C179D0734F02FEF82162FEF92063D
:103A600009F440C180915809909159098C179D071C
:103A700034F03FEF83163FEF930609F42FC1809196
:103A80006809909169098C179D0734F08FEF8816AB
:103A90008FEF980609F41EC18091780990917909F9
:103AA0008C179D0734F09FEF89169FEF990609F454
:103AB0000DC1C0908809D0908909CC16DD0634F07C
:103AC000EFEF8E16EFEF9E0609F4FCC0209709F485
:103AD00060C08114910409F442C13FEF83163FEFA7
:103AE000930609F40DC1F4013197E295F295F07F48
:103AF000FE27E07FFE27DF01A85FB64FCD90DC9068
:103B0000EC5FF64FA680B780CC19DD09BE0188278F
:103B100077FD8095982F0E94964D7B018C018294B1
:103B20009294B0EF9B2298248B229824F401EC5FAE
:103B3000F64F668177816A197B09882777FD809522
:103B4000982F0E94964D9B01AC01C801B7010E94BD
:103B5000874E7B018C0188E099E0880E991EF40164
:103B6000608171816C197D09882777FD8095982F78
:103B70000E94964D9B01AC01C801B7010E94FB4C0D
:103B80000E94634D6A0D7B1D7093E3046093E20411
:103B900004C01092E3041092E204DF91CF911F91D0
:103BA0000F91FF90EF90DF90CF90BF90AF909F90DC
:103BB0008F90089560911009709111096C177D071D
:103BC0000CF02BC10FEF1FEF80912009909121097C
:103BD0008C179D072CF02FEF0F3F120709F420C11F
:103BE00080913009909131098C179D072CF03FEF9F
:103BF0000F3F130709F426C18091400990914109B4
:103C00008C179D072CF08FEF0F3F180709F417C191
:103C100080915009909151098C179D072CF09FEFCE
:103C20000F3F190709F408C180916009909161095B
:103C30008C179D072CF0EFEF0F3F1E0709F4F9C01A
:103C400080917009909171098C179D072CF0FFEFFE
:103C50000F3F1F0709F4EAC0809180099091810904
:103C60008C179D072CF02FEF0F3F120709F4DBC0D4
:103C7000C0909009D0909109CC16DD062CF03FEF52
:103C80000F3F130709F47EC00115110509F07CC030
:103C900080911209909113099C01C29FC001C39F9A
:103CA000900DD29F900D11240E94454FCB0190950D
:103CB00081959F4F9093E3048093E2046ECF882414
:103CC000992499CE88E0882E912C00CF97E0892EF8
:103CD000912CEFCE26E0822E912CDECE35E0832E85
:103CE000912CCDCE44E0842E912CBCCE53E0852E79
:103CF000912CABCEE2E08E2E912C9ACE81E089CE33
:103D000060918A0970918B09882777FD8095982F9B
:103D10000E94964D7B018C01BE01882777FD80951E
:103D2000982F0E94964D9B01AC01C801B7010E94DB
:103D3000874E7B018C01B601882777FD8095982FEF
:103D40000E94964D9B01AC01C801B7010E94FB4C3B
:103D50000E94634D7093E3046093E2041ECF809150
:103D60000A0990910B099C01C29FC001C39F900D4D
:103D7000D29F900D11240E94454F7093E3046093ED
:103D8000E2040BCF08E010E03FEF0F3F130709F408
:103D90005CC002951295107F1027007F1027F80154
:103DA000EC50F74FA484B58486849784CA19DB0944
:103DB000BE01882777FD8095982F0E94964D6B0154
:103DC0007C010C5F164FF8016685778568197909C3
:103DD000882777FD8095982F0E94964D9B01AC0116
:103DE000C701B6010E94874E6B017C01F801648512
:103DF00075856A197B09882777FD8095982F0E9421
:103E0000964D9B01AC01C701B6010E94FB4C0E947C
:103E1000634D680D791DCB014ACF00E010E0D4CE90
:103E200001E010E0DDCE07E010E022CF06E010E078
:103E300013CF05E010E004CF04E010E0F5CE03E07E
:103E400010E0E6CE02E010E0D7CE609192097091CA
:103E50009309882777FD8095982F0E94964D7B01C6
:103E60008C01BE01882777FD8095982F0E94964D82
:103E70009B01AC01C801B7010E94874E7B018C01F8
:103E8000B601882777FD8095982F0E94964D9B015B
:103E9000AC01C801B7010E94FB4C0E94634DCB01ED
:103EA00006CF8F929F92AF92BF92CF92DF92EF9206
:103EB000FF920F931F93CF93DF93C0910D03D09187
:103EC0000E03809113039091140397FDF3C060914A
:103ED0000409709105096C177D070CF079C18824DD
:103EE0008A94982C80911409909115098C179D073C
:103EF0004CF080E09FEF89169FEF990609F487C187
:103F0000882E992480912409909125098C179D076A
:103F100034F0EFEF8E16EFEF9E0609F474C1809136
:103F20003409909135098C179D0734F0FFEF8F16F7
:103F3000FFEF9F0609F463C1809144099091450900
:103F40008C179D0734F02FEF82162FEF920609F49D
:103F500052C180915409909155098C179D0734F0F6
:103F60003FEF83163FEF930609F441C18091640946
:103F7000909165098C179D0734F08FEF88168FEFAD
:103F8000980609F430C180917409909175098C17D5
:103F90009D0734F09FEF89169FEF990609F41FC122
:103FA000C0908409D0908509CC16DD0634F0EFEF7F
:103FB0008E16EFEF9E0609F40EC1209709F469C032
:103FC0008114910409F454C13FEF83163FEF930627
:103FD00009F41FC1D4011197FD01E295F295F07F1C
:103FE000FE27E07FFE27EC5FF64FC080D180AA0F4E
:103FF000BB1FAA0FBB1FAA0FBB1FAA0FBB1FAA5F25
:10400000B64FAD90BC90CC19DD09BE01882777FD75
:104010008095982F0E94964D7B018C01880C991CED
:10402000880C991C880C991C880C991CF401EA5F77
:10403000F64F608171816A197B09882777FD809529
:10404000982F0E94964D9B01AC01C801B7010E94B8
:10405000874E7B018C0184E099E0880E991EF40163
:10406000608171816C197D09882777FD8095982F73
:104070000E94964D9B01AC01C801B7010E94FB4C08
:104080000E94634D6A0D7B1D7093E1046093E00410
:1040900004C01092E1041092E004DF91CF911F91CF
:1040A0000F91FF90EF90DF90CF90BF90AF909F90D7
:1040B0008F90089560910C0970910D096C177D0720
:1040C0000CF04EC188248A94982C80911C09909100
:1040D0001D098C179D0734F02FEF82162FEF9206E3
:1040E00009F441C180912C0990912D098C179D07ED
:1040F00034F03FEF83163FEF930609F44CC18091F3
:104100003C0990913D098C179D0734F08FEF88167C
:104110008FEF980609F43BC180914C0990914D09AD
:104120008C179D0734F09FEF89169FEF990609F4CD
:104130002AC180915C0990915D098C179D0734F02C
:10414000EFEF8E16EFEF9E0609F419C180916C090E
:1041500090916D098C179D0734F0FFEF8F16FFEFDC
:104160009F0609F408C180917C0990917D098C1704
:104170009D0734F02FEF82162FEF920609F4F7C057
:10418000C0908C09D0908D09CC16DD0634F03FEF3D
:1041900083163FEF930609F47EC08114910409F061
:1041A0007DC080910E0990910F099C01C29FC001B2
:1041B000C39F900DD29F900D11240E94454FCB01BB
:1041C000909581959F4F9093E1048093E00465CF93
:1041D0008824992487CEE8E08E2E912CEECEF7E04D
:1041E0008F2E912CDDCEA6E08A2E912CCCCEB5E080
:1041F0008B2E912CBBCE14E0812E912CAACE03E005
:10420000802E912C99CE82E0882E912C88CE81E050
:1042100077CE6091860970918709882777FD809510
:10422000982F0E94964D7B018C01BE01882777FD57
:104230008095982F0E94964D9B01AC01C801B70153
:104240000E94874E7B018C01B601882777FD8095FF
:10425000982F0E94964D9B01AC01C801B7010E94A6
:10426000FB4C0E94634D7093E1046093E00415CF12
:1042700080910609909107099C01C29FC001C39FCC
:10428000900DD29F900D11240E94454F7093E10430
:104290006093E00402CF98E0892E912C3FEF8316C3
:1042A0003FEF930609F47BC0F4013197EE0FFF1F37
:1042B000EE0FFF1FEE0FFF1FEE0FFF1FDF01A45FCA
:1042C000B64FCD90DC90EC5FF64FA284B384CC194E
:1042D000DD09BE01882777FD8095982F0E94964DB5
:1042E0007B018C01F401E295F295F07FFE27E07FDF
:1042F000FE27EC5FF64F628573856A197B09882774
:1043000077FD8095982F0E94964D9B01AC01C801C6
:10431000B7010E94874E7B018C01880C991C880C88
:10432000991C880C991C880C991C8CE099E0880ECB
:10433000991EF401608171816C197D09882777FDD0
:104340008095982F0E94964D9B01AC01C801B70142
:104350000E94FB4C0E94634D6A0D7B1DCB0130CF48
:1043600088249924B2CEA1E08A2E912CBBCE27E0DE
:10437000822E912C05CF36E0832E912CF4CE45E091
:10438000842E912CE3CE54E0852E912CD2CEE3E006
:104390008E2E912CC1CEF2E08F2E912CB0CE60915A
:1043A0008E0970918F09882777FD8095982F0E943C
:1043B000964D7B018C01BE01882777FD8095982F53
:1043C0000E94964D9B01AC01C801B7010E94874E27
:1043D0007B018C01B601882777FD8095982F0E947C
:1043E000964D9B01AC01C801B7010E94FB4C0E9495
:1043F000634DCB01E5CE1F920F920FB60F921124A1
:104400008F939F93809196048823C1F11092140397
:10441000109213031092A9001092A8001092AB0002
:104420001092AA001092FE021092FD0280910703E2
:104430009091080397FD79C081E0809344028EE05B
:104440008093410281E0809306028091A0008F75E5
:104450008093A00080910201877E80930201809169
:104460007200897F8093720089B3866089BB9F91B7
:104470008F910F900FBE0F901F9018951092FE0213
:104480001092FD028091130390911403009771F232
:10449000181619062CF5109244028FE08093410201
:1044A0008091A0008F7D8093A000809172008B7F0F
:1044B00080937200809102018F7E8093020180912F
:1044C000A00080688093A000809172008260809339
:1044D00072009F918F910F900FBE0F901F901895B3
:1044E000109244028EE0809341028091A0008F7769
:1044F0008093A000809172008D7F809372008091E4
:104500000201877F809302018091A00080628093E6
:10451000A000809172008460809372009F918F91BF
:104520000F900FBE0F901F90189581E0809344026A
:104530008FE08093410286CF1F920F920FB60F92A9
:1045400011248F939F9391E0909344028EE0809387
:104550004102909306029F918F910F900FBE0F9092
:104560001F9018951F920F920FB60F9211248F93E0
:104570009F9391E0909344028FE080934102909347
:1045800006029F918F910F900FBE0F901F9018956C
:104590001F920F920FB60F9211248F939F938091C9
:1045A00096048823B1F11092120310921103109215
:1045B00099001092980010929B0010929A0010920D
:1045C00000031092FF02809105039091060397FD6E
:1045D0006FC081E0809343028CE08093420281E0CF
:1045E00080930502809190008F75809390008EB12A
:1045F000877E8EB980917100897F8093710088B326
:10460000866088BB9F918F910F900FBE0F901F9077
:104610001895109200031092FF028091110390915F
:104620001203009781F2181619060CF51092430236
:104630008DE080934202809190008F7D8093900066
:10464000809171008B7F80937100749880919000AD
:1046500080688093900080917100826080937100E7
:104660009F918F910F900FBE0F901F9018951092F1
:1046700043028CE080934202809190008F77809378
:104680009000809171008D7F80937100739880916C
:10469000900080628093900080917100846080938C
:1046A00071009F918F910F900FBE0F901F901895E2
:1046B00081E0809343028DE08093420290CF1F926D
:1046C0000F920FB60F9211248F939F9391E09093C6
:1046D00043028CE080934202909305029F918F9158
:1046E0000F900FBE0F901F9018951F920F920FB64C
:1046F0000F9211248F939F9391E0909343028DE04A
:1047000080934202909305029F918F910F900FBE6C
:104710000F901F9018959F92AF92BF92CF92DF9209
:10472000EF92FF920F931F9380919005882351F091
:104730001F910F91FF90EF90DF90CF90BF90AF90BF
:104740009F9008950E94E40F8B019C0140E050E08F
:1047500060E070E08091840490918504F09186047B
:10476000B0918704E0908804C0908904A0908A04E6
:10477000A0918B04902E981AE1E0091508F008C169
:10478000812F891B91E0181708F0FAC0F82EFE1A45
:10479000E1E08F1508F0EBC09E2B822F8F1BE1E02C
:1047A000281708F0DCC0B82EB91A91E08B1508F074
:1047B000CDC0E92B832F8B1B91E0381708F0BEC0CA
:1047C000D82EDE1AE1E08D1508F0AFC09E2B8E2D9D
:1047D0008195E1E0481708F0A0C0B82FB91B91E01F
:1047E0008B1708F091C0E92B8C2D8195F1E05817BB
:1047F00008F081C0982F9E1BE92F91E08E1708F0DA
:1048000071C0F92B8A2D819591E0681708F062C07C
:10481000382F3F1B21E0831708F055C0922BA1953C
:10482000A91709F4BDC00E94E40F9B01AC0160937D
:104830008404309385044093860450938704109237
:1048400088041092890410928A0410928B0480913B
:104850008C04882309F4BFC02091150330911603FE
:104860002115310509F0C8C010921A0310921903DE
:1048700020911703309118032115310509F4DEC08A
:1048800040911B0350911C03429FC001439F900D18
:10489000529F900D112497FDD1C0421753070CF081
:1048A000D2C080911302BA01680F711D70931C036E
:1048B00060931B03261737070CF03ACF30931C0385
:1048C00020931B0335CF20E0922BA195A91709F067
:1048D000AACF66C090E0382F3F1B21E0831708F471
:1048E0009DCFF1CF90E0F92B8A2D819591E068174B
:1048F00008F48ECFEFCFF0E0982F9E1BE92F91E0C8
:104900008E1708F47ECFEECF90E0E92B8C2D8195A9
:10491000F1E0581708F46ECFEECFE0E0B82FB91BE6
:1049200091E08B1708F45FCFEFCFE0E09E2B8E2D48
:104930008195E1E0481708F450CFEFCF90E0D82EF2
:10494000DE1AE1E08D1508F441CFEFCF90E0E92BBE
:10495000832F8B1B91E0381708F432CFEFCFE0E0C4
:10496000B82EB91A91E08B1508F423CFEFCFE0E011
:104970009E2B822F8F1BE1E0281708F414CFEFCF76
:1049800090E0F82EFE1AE1E08F1508F405CFEFCF86
:10499000E0E0812F891B91E0181708F4F7CEF0CFE3
:1049A000332309F040CFEE2309F03DCFBB2309F0BC
:1049B0003ACFDD2009F037CFBB2009F034CF61E0DA
:1049C0006F1508F430CFF61609F0B2CE7FE87915EE
:1049D00008F0AECE28CF80911503909116039093E6
:1049E0001A038093190380911703909118039093F1
:1049F0001C0380931B039CCE4091190350911A0312
:104A0000429FC001439F900D529F900D112497FD2E
:104A10002BCF421753074CF580911302BA01680F50
:104A2000711D70931A0360931903261737070CF052
:104A30001FCF30931A03209319031ACF10921C032F
:104A400010921B0375CE241735070CF071CE8091A0
:104A50001302BA01681B710970931C0360931B0356
:104A6000621773070CF064CE29CF241735070CF0BA
:104A7000FFCE80911302BA01681B710970931A036B
:104A800060931903621773070CF0F2CED2CF2F9206
:104A90003F924F925F926F927F928F929F92AF92CE
:104AA000BF92CF92DF92EF92FF920F931F93CF931B
:104AB000DF9374E1872E912C90920509809204096E
:104AC00088E290E090931509809314098BE390E0BD
:104AD00090932509809324098FE490E09093350901
:104AE0008093340984E690E09093450980934409CB
:104AF000C8E7D0E0D0935509C09354096BE8E62E7F
:104B0000F12CF0926509E09264098FE990E09093AE
:104B100075098093740954EBA52EB12CB0928509C8
:104B2000A092840923E130E030930709209306091D
:104B30008FE290E0909317098093160988E490E043
:104B400090932709809326098BE590E0909337098D
:104B5000809336098DE690E090934709809346094B
:104B60004DE7C42ED12CD0925709C09256098FE838
:104B700090E0909367098093660940EA50E0509373
:104B80007709409376098EEA90E0909387098093A5
:104B90008609309309092093080967E270E0709351
:104BA0001909609318090CE310E010932909009388
:104BB000280920E5222E312C30923909209238091B
:104BC000A3E6B0E0B0934909A093480927E730E095
:104BD0003093590920935809ECE8F0E0F093690903
:104BE000E09368095093790940937809B092890954
:104BF000A092880987E190E090930B0980930A09BD
:104C00009EE2492E512C50921B0940921A0980E4D1
:104C100090E090932B0980932A0981E5682E712CEE
:104C200070923B0960923A0981E690E090934B09BB
:104C300080934A0980E790E090935B0980935A093A
:104C4000D0926B09C0926A09F0927B09E0927A09CE
:104C500088E990E090938B0980938A0990920D09DE
:104C600080920C0970931D0960931C0910932D0903
:104C700000932C098FE490E090933D0980933C09C8
:104C8000B0934D09A0934C09D0935D09C0935C0982
:104C9000F0936D09E0936C0950937D0940937C0972
:104CA00083EB90E090938D0980938C0982E190E0F2
:104CB00090930F0980930E098DE290E090931F0965
:104CC00080931E0984E490E090932F0980932E092D
:104CD00087E590E090933F0980933E0989E690E054
:104CE00090934F0980934E0930935F0920935E099A
:104CF00089E890E090936F0980936E0987E990E0CE
:104D000090937F0980937E0988EA90E090938F09C1
:104D100080938E0990921109809210097093210955
:104D2000609320098BE390E09093310980933009E0
:104D3000309241092092400984E690E09093510915
:104D4000809350093093610920936009F0927109B2
:104D5000E09270095093810940938009B0929109C3
:104D6000A092900986E190E0909313098093120934
:104D7000509223094092220981E490E090933309F4
:104D800080933209709243096092420980E690E074
:104D900090935309809352098FE690E090936309B2
:104DA00080936209D0927309C0927209F0928309CC
:104DB000E092820989E990E09093930980939209A7
:104DC0000E94EA3EDF91CF911F910F91FF90EF90EB
:104DD000DF90CF90BF90AF909F908F907F906F901B
:104DE0005F904F903F902F9008958091830B843077
:104DF00009F4CFC1853080F0863009F460C2863076
:104E0000B0F58091DD088F5F8093DD088A3009F46A
:104E1000B7C21092830B0895813009F46BC18130C1
:104E200008F073C080917505882309F056C210926E
:104E30001A03109219038091DD0825E0829FC001BA
:104E40001124880F991F880F991F90931C0380933A
:104E50001B0381E08093830B0E94E40F6093530B4C
:104E60007093540B8093550B9093560B0895873095
:104E700009F4F8C1883079F680917505882309F422
:104E8000D9C0823009F4D6C020918B0230918C02B7
:104E90008091EC049091ED042817390724F43093A5
:104EA000ED042093EC048091EE049091EF048217BE
:104EB000930724F43093EF042093EE040E94E40F50
:104EC0002091530B3091540B4091550B5091560B40
:104ED000621B730B840B950B6E5C7B4B8040904088
:104EE00008F499CF8091EE049091EF042091EC04A6
:104EF0003091ED04820F931F959587959093F1045F
:104F00008093F0041092830B0895823009F47DC1E0
:104F1000833009F080CF80917505882309F497C00C
:104F2000823009F494C020918B0230918C028091E0
:104F3000F0049091F104281739070CF055C00E9435
:104F4000E40F20916E0530916F05409170055091EE
:104F50007105621B730B840B950B60936E05709348
:104F60006F0580937005909371050E94944D20E029
:104F700030E040ED52E40E94874E20E034E244E706
:104F800059E40E94FB4C9B01AC0164E17EE288E79E
:104F900093E40E94FB4C0E94684D7093990B6093C0
:104FA000980B2091DA043091DB0440E050E06091EE
:104FB000D4047091D5048091D6049091D7040E94B6
:104FC000584F3093DF042093DE040E94261884E0BB
:104FD0008093830B0E94E40F6093530B7093540BE8
:104FE0008093550B9093560B0E94E40F2091530B26
:104FF0003091540B4091550B5091560B621B730B23
:10500000840B950B6C597D4C8840904008F403CF7D
:105010001092990B1092980B1092DD041092DC0400
:105020001092DF041092DE040E94261885E080931F
:10503000830B089520918502309186028091EC04C3
:105040009091ED04281739070CF02DCF28CF20912F
:105050008502309186028091F0049091F104281726
:1050600039070CF0C1CF0E94E40F20916E053091FA
:105070006F054091700550917105621B730B840B95
:10508000950B60936E0570936F05809370059093F8
:1050900071050E94944D20E030E040ED52E40E9402
:1050A000874E20E034E244E759E40E94FB4C9B0128
:1050B000AC0164E17EE288E793E40E94FB4C0E942D
:1050C000684D7093990B6093980B2091D8043091A0
:1050D000D90440E050E06091D0047091D1048091F7
:1050E000D2049091D3040E94584F3093DD04209352
:1050F000DC046BCF80917505882391F1823081F1BA
:1051000020918B0230918C028091F0049091F104F7
:10511000281739070CF068CF1092DB041092DA04DC
:105120001092D4041092D5041092D6041092D70491
:105130000E94E40F60936E0570936F058093700575
:105140009093710582E08093830B0E94E40F60933B
:10515000530B7093540B8093550B9093560B44CF85
:1051600020918502309186028091F0049091F104A3
:10517000281739070CF038CF1092D9041092D804B0
:105180001092D0041092D1041092D2041092D30441
:10519000CFCF80917505882361F1823051F1209144
:1051A0008B0230918C028091F0049091F10482176F
:1051B00093071CF485E08093830B0E94E40F2091F9
:1051C000530B3091540B4091550B5091560B621B71
:1051D000730B840B950B6C597D4C8840904008F400
:1051E0001ACE1092990B1092980B85E08093830B46
:1051F000089520918502309186028091F00490916B
:10520000F10482179307CCF6D5CF809175058823DA
:10521000E1F08230D1F020918B0230918C028091AC
:10522000F0049091F104821793070CF0DDCE83E037
:105230008093830B0E94E40F6093530B7093540B85
:105240008093550B9093560BCFCE209185023091D1
:1052500086028091F0049091F104821793070CF07C
:10526000C3CEE5CF0E94E40F2091530B3091540B35
:105270004091550B5091560B621B730B840B950B91
:10528000605975428040904008F4C5CD8091750505
:10529000882309F440C0813009F4A1C0823009F4A8
:1052A000A9C0833009F041C084EC9FEF90931A03AA
:1052B0008093190310921C0310921B0336C00E94A6
:1052C000E40F6093530B7093540B8093550B9093A2
:1052D000560B87E08093830B08958130F1F1823083
:1052E00009F467C0833009F0B4CD8091DD0825E072
:1052F000829FC0011124880F991F880F991F9095D4
:1053000081959F4F90931A038093190310921C0369
:1053100010921B039ECD10921A03109219038CE376
:1053200090E090931C0380931B038FEF93E0909386
:10533000ED048093EC041092EF041092EE0488E0E8
:105340008093830B0E94E40F6093530B7093540B74
:105350008093550B9093560B08958091DD0825E0BE
:10536000829FC0011124880F991F880F991F909365
:105370001A038093190310921C0310921B0369CD2A
:1053800091E09093DD0880917505882321F482E0F7
:10539000809375053ECD8130C1F18230D1F18330EB
:1053A00009F037CD109275050E94EA3E10929005E3
:1053B00030CD10921A03109219038091DD0825E078
:1053C000829FC0011124880F991F880F991F909503
:1053D00081959F4F90931C0380931B033ACD8CE3E0
:1053E00090E090931A038093190310921C0310927B
:1053F0001B039BCF10921A031092190384EC9FEFAA
:1054000090931C0380931B0390CF83E080937505DA
:1054100000CD909375051092900586E08093830BE4
:1054200008952F923F924F925F926F927F928F9248
:105430009F92AF92BF92CF92DF92EF92FF920F9323
:105440001F9340919005442309F44EC22091190303
:1054500030911A03413009F40CC337FD81C1C901F1
:1054600061E00E942A1990932A0380932903809176
:105470001B0390911C0397FD81C160E00E942A19D3
:1054800090932C0380932B0380919404882309F03C
:1054900081C180912B0390912C03909308038093FA
:1054A00007038091290390912A0390930603809328
:1054B000050380910302882309F4A2C02091090307
:1054C00030910A03369527953695279530930E032C
:1054D00020930D031092030210920A031092090305
:1054E00080919005813009F495C30E94511F8091ED
:1054F000BB049091BC04A091BD04B091BE04809304
:10550000C3049093C404A093C504B093C6046091EF
:10551000E0047091E104882777FD8095982F0E9420
:10552000964D7B018C010E94E40F2091E4043091A0
:10553000E5044091E6045091E704621B730B840B71
:10554000950B0E94944D20E030E040ED52E40E9423
:10555000874E9B01AC01C801B7010E94874E20E035
:1055600034E244E759E40E94FB4C9B01AC0160919A
:10557000BB047091BC048091BD049091BE040E9454
:10558000324C6093BB047093BC048093BD04909331
:10559000BE040E94E40F6093E4047093E5048093DA
:1055A000E6049093E7046091BB047091BC04809181
:1055B000BD049091BE040E94634D0E94964D60937D
:1055C000F1027093F2028093F3029093F4028BE263
:1055D00093E00E946A0C20912B0330912C033093AE
:1055E000140320931303121613060CF036C33093E2
:1055F000A9002093A8008091CB048F5F8093CB04F7
:1056000080910402882309F0CCC08091CB048230C1
:1056100008F495C01092CB042090BF043090C004D1
:105620004090C1045090C2046090BB047090BC04D0
:105630008090BD049090BE04C201B1012091C704C6
:105640003091C8044091C9045091CA040E94314C61
:105650007B018C01C401B3012091C3043091C404C7
:105660004091C5045091C6040E94314C9B01AC018D
:10567000C801B7010E94324C20E030E040E05FE317
:105680000E94874E5B016C016093A7047093A8048D
:105690008093A9049093AA0480911202813009F4A6
:1056A000F5C18091CC049091CD04A091CE04B0912D
:1056B000CF048093970490939804A0939904B09397
:1056C0009A047C018D01C801B7010E94F84C9B012E
:1056D000AC01C601B5010E94874E9B01AC016091EF
:1056E0009F047091A0048091A1049091A2040E9453
:1056F000324C60939F047093A0048093A104909314
:10570000A204C801B7010E94EA4E9B01AC01C60188
:10571000B5010E94874E9B01AC016091A30470917A
:10572000A4048091A5049091A6040E94324C609339
:10573000A3047093A4048093A5049093A6041F91DE
:105740000F91FF90EF90DF90CF90BF90AF909F9020
:105750008F907F906F905F904F903F902F90089523
:10576000C90163E00E942A1990932A0380932903B8
:1057700080911B0390911C0397FF7FCE62E00E94F3
:105780002A1990932C0380932B03809194048823EF
:1057900009F47FCE8BE293E069E273E00E94B533B7
:1057A00078CE20910B0330910C03369527953695D2
:1057B00027953093100320930F0310920402109248
:1057C0000C0310920B0380919005813009F4FFC106
:1057D0000E94DA1C8091BF049091C004A091C10482
:1057E000B091C2048093C7049093C804A093C904E5
:1057F000B093CA046091E2047091E304882777FDB6
:105800008095982F0E94964D7B018C010E94E40F99
:105810002091E8043091E9044091EA045091EB04AE
:10582000621B730B840B950B0E94944D20E030E0BB
:1058300040ED52E40E94874E9B01AC01C801B701C4
:105840000E94874E20E034E244E759E40E94FB4C7A
:105850009B01AC016091BF047091C0048091C104B0
:105860009091C2040E94324C6093BF047093C004B4
:105870008093C1049093C2040E94E40F6093E804F3
:105880007093E9048093EA049093EB046091BF0461
:105890007091C0048091C1049091C2040E94634D34
:1058A0000E94964D6093ED027093EE028093EF029A
:1058B0009093F00289E293E00E943F0B209129032C
:1058C00030912A033093120320931103121613060A
:1058D0000CF0D0C130939900209398008091CB04B4
:1058E0008F5F8093CB0493CE0E94E40F8B019C01C9
:1058F00040E050E060E070E0809184049091850485
:10590000F0918604B0918704D0908804B090890407
:1059100090908A04A0918B04802E881AE1E00815EB
:1059200008F030C1812F891B91E0181708F022C1BF
:10593000E82EEE1AE1E08E1508F013C19E2B822F9F
:105940008F1BE1E0281708F004C1A82EA91A91E0E6
:105950008A1508F0F5C0E92B832F8B1B91E03817CF
:1059600008F0E6C0C82ECE1AE1E08C1508F0D7C0CA
:105970009E2B8D2D8195E1E0481708F0C8C0B82F07
:10598000B91B91E08B1708F0B9C0E92B8B2D8195DD
:10599000F1E0581708F0A9C0982F9E1BE92F91E05D
:1059A0008E1708F099C0F92B892D819591E0681721
:1059B00008F08AC0382F3F1B21E0831708F07DC014
:1059C000922BA195A91709F4E5C00E94E40F9B0151
:1059D000AC01609384043093850440938604509313
:1059E0008704109288041092890410928A041092FD
:1059F0008B0480918C04882309F449C140911503DC
:105A0000509116034115510509F056C110921A0321
:105A10001092190320E030E04091170350911803D1
:105A20004115510509F47FC160911B0370911C035E
:105A3000649FC001659F900D749F900D112497FD88
:105A400072C1641775070CF075C180911302FB01D8
:105A5000E80FF11DF0931C03E0931B034E175F0743
:105A60000CF07BC150931C0340931B0340919005A5
:105A7000F1CC30932A032093290380911B0390914A
:105A80001C0390932C0380932B03FECCC201B10125
:105A9000A40193010E94314C20E030E04EE152E439
:105AA0000E94FB4C60939704709398048093990430
:105AB00090939A047B018C0106CE20E0922BA19555
:105AC000A91709F082CF66C090E0382F3F1B21E074
:105AD000831708F475CFF1CF90E0F92B892D8195CC
