:100000000C94BE000C94DF000C94DF000C94DF0015
:100010000C94DF000C94DF000C94DF000C94DF00E4
:100020000C94DF000C94DF000C94A1050C94DF000D
:100030000C94DF000C94D5050C94DF000C94C01CCC
:100040000C94DF000C94DF000C94DF000C94DF00B4
:100050000C94DF000C94DF000C94DF000C94DF00A4
:100060000C94DF000C946B1C0C94DF000C94DF00EC
:100070000C94DF000C9442010C94DF000C94DF0020
:100080000C9441100C9457100C94DF000C94BE0F8C
:100090000C94DF000C94DF000C94DF000C94DF0064
:1000A0000C94DF000C94DF000C94920F0C94A80FBA
:1000B0000C94DF000C94050F0C94DF000C94DF000F
:1000C0000C94DF000C94DF000C94DF000C94DF0034
:1000D0000C94DF000C94DF000C94DF000C94DF0024
:1000E0000C94DF00F807C6070E07B6079C07050744
:1000F0007B07E4073C07D6076408640864086408C3
:10010000640864083B083F086408640864086408DD
:10011000640864086408640864086408640864087F
:100120003C070E075D085508640864086408640805
:10013000640864086408640864086408640864085F
:100140009C077B0764086408F80705074208084A0B
:10015000D73B3BCE016E84BCBFFDC12F3D6C7431DB
:100160009ABD56833DDA3D00C77F11BED9E4BB4C32
:100170003E916BAAAABE000000803F0011241FBE62
:10018000CFEFD1E2DEBFCDBF00E00CBF13E0A0E0B7
:10019000B2E0E0E9F9E400E00BBF02C007900D9285
:1001A000A432B107D9F715E0A4E2B3E001C01D9273
:1001B000AF36B107E1F70E94E1000C94C6240C941D
:1001C00000000E94D71C0E9436160E947E05809176
:1001D0000B01816080930B0180910B018260809301
:1001E0000B0180910B01846080930B01A39A809195
:1001F0000B01806180930B0180910B0180628093E1
:100200000B0180910B01806480930B0180910B01A5
:10021000806880930B0180E29EE429E130E0F901DF
:100220003197F1F70197D9F780910B018F77809380
:100230000B0181E090E00E94C31D81E00E94D61D69
:10024000FCCFEAE7F0E010822BE730E0D9011C9206
:10025000ACE7B0E01C928081866080838C918064E2
:100260008C93808180628083D9018C91887F8C936C
:1002700080818860808380818068808380818064C1
:10028000808308951F920F920FB60F920BB60F92B4
:1002900011241F932F933F934F935F936F937F93FB
:1002A0008F939F93AF93BF93EF93FF938091360506
:1002B00090913705A0913805B09139050196A11D9F
:1002C000B11D8093360590933705A0933805B09300
:1002D000390580917800482F50E020917900922FC5
:1002E00080E0482B592B8091BF03823009F4F4C081
:1002F000833030F4882359F0813009F03FC1DFC0EA
:10030000833009F40BC1843009F038C114C1109155
:100310002A031E3061F48091C503823041F450936A
:10032000C4034093C3031092C503469808C0E12F4D
:10033000F0E0EE0FFF1FE15DFC4F51834083A12FE2
:10034000B0E010FFAFC0AA0FBB1FFD01E35DFC4F83
:1003500020813181A15DBC4F4D915C91812F8695AB
:10036000682F70E0241B350BAB01440F551FFA01B9
:10037000E958FC4F80819181281B390BFA01E15A21
:10038000FC4F3183208337FF02C011821082FB01B2
:10039000EE0FFF1FE15AFC4F808191818150944004
:1003A00024F080E094E0918380831031E8F5DB0154
:1003B000AA0FBB1FFD01E15AFC4F0190F081E02D17
:1003C000EC33F1051CF4A953BC4F2CC0CF01CC96E3
:1003D00095958795883791053CF4A953BC4FFC97B8
:1003E000F595E795FC961EC0CF01845D9E4F9595CF
:1003F000879595958795A953BC4F843B91054CF4FF
:10040000E45BF040F595E795F595E795E858FF4FE3
:1004100009C0E45AF14043E0F595E7954A95E1F7C4
:10042000EC54FF4FED93FC9380913F058823C1F17D
:1004300080916F0390917003845A9140ACF0809149
:10044000710390917203845A914074F08091730308
:1004500090917403845A91403CF08091750390917F
:100460007603845A9140E4F481E080934005109231
:10047000F6031092F5031092A9001092A8001092B2
:10048000AB001092AA001092F4031092F3031092A2
:1004900099001092980010929B0010929A0002C04E
:1004A00010924005812F8F5F80932A03883108F4D2
:1004B00065C010922A0381E08093C6035FC08091DB
:1004C000E1039091E203480F591F569547955093C9
:1004D000E2034093E10352C080910902882309F4AA
:1004E0004DC063994BC0649949C0282F2F5F20935A
:1004F0000902253008F442C08091ED039091EE038B
:10050000840F951F9093EE038093ED032830B1F58F
:100510001092090281E08093080230C08091DF03CD
:100520009091E003480F591F569547955093E0036B
:100530004093DF0323C090910A029923F9F0809140
:10054000000183FD1BC08091000184FD17C0292F8D
:100550002F5F20930A02253088F08091EB03909161
:10056000EC03840F951F9093EC038093EB032830EA
:1005700029F410920A0281E0809307029091C0034F
:10058000923081F1933030F4992351F0913009F099
:10059000B0C01AC09330E9F1943009F0AAC050C03D
:1005A00080912A038695809329038091C103882333
:1005B00011F481E005C0813011F482E001C085E0D2
:1005C0008093BF0381E00BC080912B0380932903AC
:1005D00080912E038093C2031092BF0382E0809328
:1005E000C00387C080912C038093290380912D0341
:1005F0008093C1038091C203882311F483E005C076
:10060000813011F484E001C085E08093BF0383E072
:10061000E6CF80912B038093290380912E03809352
:10062000C2038091C103882311F481E005C08130A9
:1006300011F482E001C085E08093BF0384E0CFCF56
:1006400080912C038093290380912D038093C10313
:100650008091C203882311F483E006C0813019F42D
:100660009093BF0303C085E08093BF031092C00343
:1006700020912A032E3041F48091C503813021F46A
:1006800082E08093C503469A422F50E020FF31C09C
:10069000203150F4269581E090E002C0880F991F28
:1006A0002A95E2F782B925C080913D05882361F43F
:1006B000405150405595479581E090E002C0880F29
:1006C000991F4A95E2F713C0813011F0823089F406
:1006D00020910501405150405595479581E090E0AB
:1006E00002C0880F991F4A95E2F780958223809374
:1006F000050180912903883048F480917B00877F31
:1007000080937B0080912903805C08C080917B00EE
:10071000886080937B0080912903885C80937C00B3
:100720008091C003823081F480913D05882321F4BB
:1007300080910501807F05C0813011F0823021F465
:100740008FEF8093050112B8FF91EF91BF91AF91A8
:100750009F918F917F916F915F914F913F912F91D9
:100760001F910F900BBE0F900FBE0F901F9018950A
:1007700080916F0390917003845A9140B4F08091FE
:10078000710390917203845A91407CF080917303BD
:1007900090917403845A914044F020E08091750355
:1007A00090917603845A91400CF421E0822F0895B1
:1007B00081E080933E05089510923E05089581E002
:1007C00080933F05089510923F0508952F923F9220
:1007D0004F925F926F927F928F929F92AF92BF9251
:1007E000CF92DF92EF92FF920F931F93DF93CF93FD
:1007F000CDB7DEB72A970FB6F894DEBF0FBECDBFD8
:1008000098878F837A876987DC010D90BC91A02D32
:10081000BC83AB83FB010190F081E02DFA83E98377
:10082000E7ECF3E080819181059714F41182108246
:10083000329623E0E73DF207A9F7A090C703B090F6
:10084000C803B094A194B108B39452EF652E5FEF42
:10085000752E6E0E7F1ED3018D909C90959487947B
:10086000ADECB3E0CD90DC90D594C7942091CF034C
:100870003091D0033E832D832AEF222E2FEF322E8C
:100880002E0E3F1ED101ED90FC90F594E79412914D
:1008900002912F01159507950E943D222D813E81E1
:1008A0002E5130402A0D3B1D2C0D3D1D2E0D3F1DA0
:1008B000201B310B281939096CE370E00E94982144
:1008C000280F391F3E832D83D3016D907C90759442
:1008D0006794C090CB03D090CC03D594C794D594A3
:1008E000C794EDECF3E0A080B180B594A794D1015A
:1008F0008D909C90959487940091D3031091D4038C
:100900001595079515950795F201E080F180F5940E
:10091000E7940E943D22C60CD71C22EE3FEFC20E88
:10092000D31ECA0CDB1CC01AD10AC818D908CE18AD
:10093000DF086CE370E00E949821C80ED91E8D81FB
:100940009E819C01442737FD4095542FB60188278E
:1009500077FD8095982FAB81BC81B7FD1BC07D01D1
:100960000027F7FC0095102F261B370B480B590B5F
:10097000CA01B901A80197010E94652157E0959528
:100980008795779567955A95D1F7E60EF71E081F5C
:10099000191F1AC0A981BA817D010027F7FC0095B3
:1009A000102F620F731F841F951FA80197010E94CB
:1009B000652147E095958795779567954A95D1F795
:1009C000E61AF70A080B190BEF81F885F182E0822D
:1009D0008D819E819C01442737FD4095542FB6019F
:1009E000882777FD8095982FA981BA81B7FD19C016
:1009F0007D010027F7FC0095102F620F731F841FE5
:100A0000951FA80197010E94652137E0959587956C
:100A1000779567953A95D1F7E60EF71E081F191FCF
:100A20001CC0AB81BC817D010027F7FC0095102F15
:100A3000261B370B480B590BCA01B901A8019701B6
:100A40000E94652127E095958795779567952A956A
:100A5000D1F7E61AF70A080B190BE985FA85F18236
:100A6000E082A985BA858D919C918150924034F0A5
:100A700080E092E0E985FA8591838083AF81B88533
:100A80008D919C918150924034F080E092E0EF8112
:100A9000F88591838083A985BA858D919C9180503A
:100AA0009E4F34F480E09EEFE985FA859183808340
:100AB000AF81B8858D919C9180509E4F34F480E039
:100AC0009EEFEF81F885918380832A960FB6F89484
:100AD000DEBF0FBECDBFCF91DF911F910F91FF9071
:100AE000EF90DF90CF90BF90AF909F908F907F90CE
:100AF0006F905F904F903F902F9008958091940059
:100B0000909195000E9442220895CF93DF93E8E6EA
:100B1000F0E01082ACE6B0E01C9220EB30E0E9019E
:100B200018821092B10010927000808182608083E0
:100B30008C9180688C93888182608883DF91CF91CB
:100B400008951F920F920FB60F9211248F938091E8
:100B50001102882321F18091030186FD20C080913C
:100B600068008D7F8093680080916C008F77809300
:100B70006C0081E0809312028DE08093B30080913D
:100B8000B10086608093B100809170008260809394
:100B900070001092260310922703109228038F9161
:100BA0000F900FBE0F901F9018951F920F920FB6C7
:100BB0000F9211242F933F934F935F938F939F93A3
:100BC0008091B100887F8093B100809112028823C8
:100BD000C9F08091030186FF11C080916800826096
:100BE0008093680080916C00806880936C008FEF28
:100BF0009FEF9093020280930102C8C010921202EC
:100C000083E33FC040910102509102022FEF4F3F1A
:100C1000520739F58091030186FF0BC0809168006F
:100C200082608093680080916C00806880936C0083
:100C3000ADC08CE18093B3008091B1008660809359
:100C4000B100809170008260809370001092260342
:100C500010922703109228031092020210920102B0
:100C600095C041305105D1F48091030190E080742A
:100C7000907026E0959587952A95E1F78093280353
:100C800086E38093B3008091B10086608093B100C9
:100C90008091700082608093700078C0CA010297D2
:100CA000059730F586E38093B3008091B1008660AC
:100CB0008093B100809170008260809370002091D9
:100CC000030130E02074307096E0369527959A95B0
:100CD000E1F786E090E0841B950B02C0220F331FE2
:100CE0008A95E2F780912703820F809327034EC0F5
:100CF000CA010797069730F586E38093B300809189
:100D0000B10086608093B100809170008260809312
:100D100070002091030130E02074307086E0369539
:100D200027958A95E1F78CE090E0841B950B02C033
:100D3000220F331F8A95E2F780912603820F80935A
:100D4000260324C04D30510509F5109270008091A2
:100D5000680082608093680080916C008068809356
:100D60006C008FEF9FEF90930202809301028091BD
:100D700028038093000280912703809324038091AD
:100D800026038093250381E080931705809101025B
:100D9000909102022FEF8F3F920729F001969093D6
:100DA0000202809301029F918F915F914F913F9139
:100DB0002F910F900FBE0F901F90189580910002F9
:100DC00008958091240308958091250308958091CA
:100DD0001102882309F4AEC180911705882309F414
:100DE000A9C1809125038093160510921705E82F5D
:100DF000F0E0E533F10508F067C1EE58FF4FEE0F64
:100E0000FF1F0590F491E02D19941092F8031092B1
:100E1000F7031092FA031092F90356C12091F703D9
:100E20003091F8038091F9039091FA0382179307A8
:100E30002CF43093FA032093F90304C09093F80341
:100E40008093F7038091F7039091F8034E96909367
:100E5000F8038093F7032091F9033091FA03225E9F
:100E60003F4F3093FA032093F903815092400CF4E2
:100E70005EC080E092E057C02091F7033091F80304
:100E80008091F5039091F603281739072CF43093DD
:100E9000FA032093F90308C08091F9039091FA03B3
:100EA0009093F8038093F7038091F7039091F803F0
:100EB0004E979093F8038093F7032091F9033091B4
:100EC000FA032E5130403093FA032093F9038050F7
:100ED0009E4F34F480E09EEF9093F8038093F703E5
:100EE00020503E4F0CF0F0C080E09EEF9093FA034C
:100EF0008093F903E9C08091F7039091F8034E972E
:100F00009093F8038093F7032091F9033091FA034B
:100F1000225E3F4F3093FA032093F90380509E4F97
:100F200034F480E09EEF9093F8038093F703215010
:100F300032400CF4C9C027C08091F7039091F803A8
:100F40004E969093F8038093F7032091F903309124
:100F5000FA032E5130403093FA032093F903815065
:100F600092400CF4BDCF80E092E0B6CF8091F903BF
:100F70009091FA034E969093FA038093F90381506F
:100F800092400CF4A1C080E092E0B0CF8091F703D2
:100F90009091F8034E969093F8038093F703815055
:100FA00092400CF491C080E092E01DC08091F90362
:100FB0009091FA034E979093FA038093F90380502F
:100FC0009E4F0CF081C090CF8091F7039091F80371
:100FD0004E979093F8038093F70380509E4F0CF048
:100FE00073C080E09EEF9093F8038093F7036CC08A
:100FF0008091180590E0019665E070E00E949821CC
:1010000080931805882331F4449A459A10920E0271
:101010008FEF20C0813031F48FEF80930E02109259
:101020000D021AC0823041F4449845988FEF8093A6
:101030000E0280930D0206C0833039F410920E0226
:1010400010920D0210920C0209C0843039F48FEF17
:1010500080930E0280930D0280930C0280910C020B
:101060000E94D80880910D020E94EE0880910E0225
:101070000E94040929C081E080933E0525C010929A
:101080003E0522C08091190590E001968370907012
:1010900080931905813061F0813028F0823059F059
:1010A000833091F40CC010923E0510923F050CC0A5
:1010B00080933E05FACF10923E0581E003C081E0A7
:1010C00080933E0580933F052091F7033091F8030C
:1010D00037FD09C0359527953595279530930A0436
:1010E000209309040CC088279927821B930B9595A0
:1010F00087959595879590930A048093090420918C
:10110000F9033091FA0337FD09C0359527953595D8
:10111000279530930804209307040895882799277A
:10112000821B930B959587959595879590930804C9
:10113000809307040895E0E8F0E01082A1E8B0E0B1
:101140001C928081896A80838C9189608C938091C4
:101150000C0290E0909389008093880080910D02AA
:1011600090E090938B0080938A0080910E0290E033
:1011700090938D0080938C00089581E090910F04EE
:10118000891B80930F04882361F080918000886020
:10119000809380008FEF90E090938D0080938C007F
:1011A000089580918000877F809380002F98089514
:1011B000982F882339F4809180008F778093800066
:1011C0002D98089580918000806880938000892FF9
:1011D00090E090938900809388000895982F882349
:1011E00039F4809180008F7D809380002E9808953F
:1011F00080918000806280938000892F90E090939E
:101200008B0080938A000895982F882339F4809169
:101210008000877F809380002F98089580918000C0
:10122000886080938000892F90E090938D00809358
:101230008C000895833079F1843028F48130B9F03E
:101240008230F8F40AC08530B9F1853058F1863023
:10125000E9F1873009F055C043C0662321F0809141
:101260000B018E7F42C080910B0181603EC06623DE
:1012700021F080910B018D7F38C080910B0182603D
:1012800034C0662321F080910B018B7F2EC08091AA
:101290000B0184602AC0662311F0A39801C0A39AB1
:1012A00084B30895662321F080910B018F7E1DC0C9
:1012B00080910B01806119C0662321F080910B01A0
:1012C0008F7D13C080910B0180620FC0662321F0D7
:1012D00080910B018F7B09C080910B01806405C058
:1012E000662341F080910B018F7780930B018091F1
:1012F0000B01089580910B01806880930B01809110
:101300000B010895EBE0F1E08081816080838081B2
:1013100082608083808184608083A39A80818061E1
:1013200080838081806280838081806480838081EB
:10133000806880830895EBE0F1E080818E7F808378
:1013400080818D7F808380818B7F8083A398808143
:101350008F7E808380818F7D808380818F7B80835F
:1013600080818F7780830895289881EE0E94711B79
:10137000289A0895FF920F931F93CF93DF93182F0E
:10138000092FF62E0E94B409289888EA0E94711B42
:10139000212F302FC901EC0110E004C089910E9477
:1013A000711B1F5F1F15D0F3289ADF91CF911F91FA
:1013B0000F91FF9008951F93162F28988F718062C8
:1013C0000E94711B812F0E94711B289A1F91089502
:1013D000289882EE0E94711B289A089580914105F9
:1013E000882311F080E0089528988FEF0E94711BE8
:1013F000289A807408951F93CF93DF93EC01162FE2
:10140000809141058823E1F72C9881E08093410584
:1014100080E06AE40E94DB09289881EE0E94711B3B
:10142000289A289880EA0E94711BCE01612F0E94A1
:10143000591B289A2C9ADF91CF911F910895FF9202
:101440000F931F938B01F42E28988F7180620E9456
:10145000711BC8016F2D0E94591B289A1F910F9173
:10146000FF900895BC0180E145E00E941F0A0895A5
:10147000BC012C988AE045E00E941F0A2C9A08952E
:101480000F931F93DF93CF9300D0CDB7DEB780E0EB
:101490006DE00E94DB0983E061E00E94DB0980913E
:1014A0000B0490910C0499838A831B8280E18E0146
:1014B0000F5F1F4FB80143E00E941F0A8AE0B80186
:1014C00043E00E941F0A81E061E00E94DB0982E0A4
:1014D00061E00E94DB0984E062E10E94DB0985E0B3
:1014E00068E20E94DB0981E16DE00E94DB09289837
:1014F00080E50E94711B83E70E94711B289A8CE192
:1015000061E00E94DB098DE166E00E94DB0980E07A
:101510006FE00E94DB090F900F900F90CF91DF9149
:101520001F910F9108952C9A289A0E94400A0895BD
:10153000FF920F931F938B01F42E28988F710E94B6
:10154000711BC801B8014F2D0E94321B289A1F91B0
:101550000F91FF900895DF93CF930F92CDB7DEB731
:10156000198287E1BE016F5F7F4F41E00E94980AB8
:10157000898181700F90CF91DF9108950F931F9310
:101580008C01289881E60E94711BC801B8014DE0CA
:101590000E94321B289A87E060E40E94DB091F91B9
:1015A0000F9108950F931F930E94EE09882309F469
:1015B00053C380910D04826080930D0487E060E73F
:1015C0000E94DB098FE595E00E94BE0A0E94E809AF
:1015D00080915F058823B9F480916005882399F490
:1015E00080916105882379F480916205883059F4EF
:1015F00080916305882339F480916405882319F468
:101600008CE30E94311D20916305822F90E08F773B
:10161000907090930A0480930904E09164054E2F22
:1016200050E04F7750705093080440930704BC017A
:10163000660F771F660F771F27FF05C07093F803AB
:101640006093F70308C088279927861B970B909310
:10165000F8038093F7039A01220F331F220F331FE1
:10166000E7FF05C03093FA032093F90308C08827E9
:101670009927821B930B9093FA038093F90380912F
:10168000F7039091F8038150924034F080E092E0AB
:101690009093F8038093F7038091F9039091FA03F4
:1016A0008150924034F080E092E09093FA0380936E
:1016B000F9038091F7039091F80380509E4F34F422
:1016C00080E09EEF9093F8038093F7038091F903F5
:1016D0009091FA0380509E4F34F480E09EEF9093F7
:1016E000FA038093F90380915F0590E09093580589
:1016F000809357052091600530E030935A05209380
:101700005905E0916105F0E0F0935C05E0935B051D
:101710000FEF10E0AC01409FC001419F900D509F22
:10172000900D112464E670E00E948421462F4095BC
:1017300040930C02209FC001219F900D309F900D7F
:10174000112464E670E00E948421609560930E028B
:10175000E09FC001E19F900DF09F900D112464E681
:1017600070E00E948421609560930D02842F0E9496
:10177000D80880910D020E94EE0880910E020E940E
:10178000040980916205982F80FF02C0449801C02F
:10179000449A91FF02C0459801C0459A92FF04C047
:1017A00081E08093110202C01092110294FF02C0E6
:1017B0000E9436169091620596FF04C081E08093E6
:1017C0003E0502C010923E0597FF04C081E0809361
:1017D0003F0502C010923F058091650580FF04C05F
:1017E00080910B018E7F03C080910B0181608093FB
:1017F0000B018091650581FF04C080910B018D7FF5
:1018000003C080910B01826080930B01809165057C
:1018100082FF04C080910B018B7F03C080910B017C
:10182000846080930B018091650583FF02C0A398BB
:1018300001C0A39A8091650584FF04C080910B01CB
:101840008F7E03C080910B01806180930B0180919A
:10185000650585FF04C080910B018F7D03C08091D9
:101860000B01806280930B018091650586FF04C0A7
:1018700080910B018F7B03C080910B01806480936A
:101880000B018091650587FF04C080910B018F7764
:1018900003C080910B01806880930B0180910B0243
:1018A00080934705853009F4D2C0863030F4833008
:1018B00059F0843009F0CBC177C0863009F421C1DA
:1018C000873009F0C4C170C180915F0390916003BB
:1018D00080934805892F990F990B80934905809132
:1018E00061039091620380934A05892F990F990BA8
:1018F00080934B05809163039091640380934C0522
:10190000892F990F990B80934D05809165039091D4
:10191000660380934E05892F990F990B80934F058D
:101920008091690390916A0380935005892F990FE4
:10193000990B8093510580916B0390916C03809378
:101940005205892F990F990B8093530580916D0350
:1019500090916E0380935405892F990F990B809372
:10196000550520910301809103014091030190E00E
:101970008072907075E0959587957A95E1F7880F5C
:10198000991F441F4427441F440F440F482B30E045
:101990002071307054E0359527955A95E1F7422B28
:1019A0004093560584E051C180916703909168038C
:1019B00080934805892F990F990B80934905809151
:1019C0006F039091700380934A05892F990F990BAB
:1019D00080934B05809171039091720380934C0525
:1019E000892F990F990B80934D05809173039091E6
:1019F000740380934E05892F990F990B80934F059F
:101A0000809175039091760380935005892F990FEB
:101A1000990B8093510580911B0590911C05809333
:101A20005205892F990F990B8093530580911D05BD
:101A300090911E0580935405892F990F990B8093DF
:101A40005505809116058093560585E0FEC080916E
:101A50002F03909130038093480580912F0390913C
:101A60003003909349058091330390913403809320
:101A70004A05809133039091340390934B058091F4
:101A800037039091380380934C05809137039091F0
:101A9000380390934D0580913B0390913C038093D4
:101AA0004E0580913B0390913C0390934F058091AC
:101AB0004303909144038093500580914303909198
:101AC000440390935105809147039091480380937C
:101AD000520580914703909148039093530580915C
:101AE0004B0390914C038093540580914B0390914C
:101AF0004C039093550580913A058093560586E0F6
:101B0000A4C080913F039091400380934805809149
:101B10003F03909140039093490580914F0390912A
:101B2000500380934A0580914F0390915003909306
:101B30004B05809153039091540380934C05809101
:101B400053039091540390934D05809157039091C6
:101B5000580380934E0580915703909158039093BA
:101B60004F0580915B0390915C03809350058091B9
:101B70005B0390915C039093510580911F059091B8
:101B8000200580935205892F990F990B8093530557
:101B90008091C3039091C40380935405909355059D
:101BA0001092560587E051C08091DB039091DC03D1
:101BB000A091DD03B091DE0380934805292F3A2FD1
:101BC0004B2F552747FD5A95209349059D015527D1
:101BD00037FD5095452F20934A058B2FBB2787FD56
:101BE000B0959B2FAB2F80934B058091D70390919D
:101BF000D803A091D903B091DA0380934C05292F23
:101C00003A2F4B2F552747FD5A9520934D059D019F
:101C1000552737FD5095452F20934E058B2FBB2719
:101C200087FDB0959B2FAB2F80934F0510925005E9
:101C300010925105109252051092530510925405BE
:101C4000109255051092560583E080930B0287E4AD
:101C500095E060E10E94BA091F910F9108950F93DA
:101C60001F93CF93DF93E0E9F0E01082A1E9B0E0A9
:101C70001C9221E730E0E901188240EA50E0EA01D5
:101C8000188261EA70E0EB01188202E710E0E801D7
:101C900018828081836880838081836080838C91B7
:101CA0008B608C938091F3039091F403909399004F
:101CB0008093980010929B0010929A00D9018C9109
:101CC00081608C9380818F7580838EB1877E8EB981
:101CD000EA01888183688883FB0180818B6080832F
:101CE0008091F5039091F6039093A9008093A8004A
:101CF0001092AB001092AA00D8018C9181608C9355
:101D000088818F758883E2E0F1E08081877E80831F
:101D1000DF91CF911F910F910895482F992787FD4B
:101D2000909597FF03C0909581959F4F90930804DD
:101D3000809307049C01220F331F220F331F47FD9E
:101D400005C03093FA032093F90308C08827992728
:101D5000821B930B9093FA038093F9038091F9030C
:101D60009091FA038150924034F080E092E0909399
:101D7000FA038093F9038091F9039091FA0380505C
:101D80009E4F34F480E09EEF9093FA038093F90322
:101D90000895482F992787FD909597FF03C0909548
:101DA00081959F4F90930A04809309049C01220F10
:101DB000331F220F331F47FD05C03093F8032093D4
:101DC000F70308C088279927821B930B9093F80389
:101DD0008093F7038091F7039091F803815092402C
:101DE00034F080E092E09093F8038093F7038091C1
:101DF000F7039091F80380509E4F34F480E09EEFFB
:101E00009093F8038093F70308951F920F920FB6F3
:101E10000F9211248F939F9380914005882361F046
:101E20001092F6031092F5031092A9001092A800E8
:101E30001092AB001092AA001092E0031092DF0300
:101E40008091F5039091F603009739F58091E903AD
:101E50009091EA0397FD05C081E080932E038EE008
:101E600004C081E080932E038FE080932B0381E0F8
:101E700080930A028091A0008F758093A0008091CA
:101E80000201877E8093020180917200897F809396
:101E9000720089B3866089BB3EC018161906ECF43F
:101EA00010922E038FE080932B038091A0008F7DF2
:101EB0008093A000809172008B7F8093720080914C
:101EC00002018F7E809302018091A0008068809340
:101ED000A0008091720082601CC010922E038EE0E0
:101EE00080932B038091A0008F778093A000809136
:101EF00072008D7F8093720080910201877F8093B2
:101F000002018091A00080628093A0008091720005
:101F10008460809372009F918F910F900FBE0F90FD
:101F20001F9018951F920F920FB60F9211248F9346
:101F30009F9391E090932E038EE080932B039093D8
:101F40000A029F918F910F900FBE0F901F901895CE
:101F50001F920F920FB60F9211248F939F9391E0CF
:101F600090932E038FE080932B0390930A029F910E
:101F70008F910F900FBE0F901F9018951F920F9288
:101F80000FB60F9211248F939F9380914005882361
:101F900061F01092F4031092F303109299001092E2
:101FA000980010929B0010929A001092E2031092F7
:101FB000E1038091F3039091F403009729F5809158
:101FC000E7039091E80397FD05C081E080932D031E
:101FD0008CE004C081E080932D038DE080932C037E
:101FE00081E080930902809190008F75809390002A
:101FF0008EB1877E8EB980917100897F8093710048
:1020000088B3866088BB36C018161906CCF41092C7
:102010002D038DE080932C03809190008F7D809321
:102020009000809171008B7F8093710074988091F3
:10203000900080688093900080917100826018C049
:1020400010922D038CE080932C03809190008F7769
:1020500080939000809171008D7F809371007398C0
:1020600080919000806280939000809171008460E4
:10207000809371009F918F910F900FBE0F901F90D2
:1020800018951F920F920FB60F9211248F939F9362
:1020900091E090932D038CE080932C0390930902A0
:1020A0009F918F910F900FBE0F901F9018951F92C8
:1020B0000F920FB60F9211248F939F9391E09093FC
:1020C0002D038DE080932C03909309029F918F91B3
:1020D0000F900FBE0F901F901895809107028823D4
:1020E00009F441C08091EB039091EC03969587959C
:1020F000969587959093F0038093EF0310920702D3
:102100001092EC031092EB032091F9033091FA0343
:10211000FC0163E0F595E7956A95E1F74091DB03F3
:102120005091DC036091DD037091DE0337FD0AC03E
:10213000CF01AA2797FDA095BA2F480F591F6A1FF4
:102140007B1F09C0CF01AA2797FDA095BA2F481B76
:10215000590B6A0B7B0B4093DB035093DC036093BA
:10216000DD037093DE0380910802882309F441C0E7
:102170008091ED039091EE039695879596958795BE
:102180009093F2038093F103109208021092EE03F1
:102190001092ED032091F7033091F803FC0143E026
:1021A000F595E7954A95E1F74091D7035091D8030B
:1021B0006091D9037091DA0337FD0AC0CF01AA27D5
:1021C00097FDA095BA2F480F591F6A1F7B1F09C0A2
:1021D000CF01AA2797FDA095BA2F481B590B6A0B70
:1021E0007B0B4093D7035093D8036093D90370932C
:1021F000DA038091F7039091F8039093040480939D
:1022000003048091F9039091FA039093060480935C
:10221000050480913E05882331F085E094E063E079
:1022200074E00E94E6034091050450910604509327
:10223000EA034093E90320910304309104043093AE
:10224000E8032093E7035093F6034093F50330939C
:10225000F4032093F303121613062CF43093990021
:102260002093980014C02115310549F0882799273B
:10227000821B930B90939B0080939A0008C010924E
:1022800099001092980010929B0010929A001416D8
:1022900015062CF45093A9004093A8000895411509
:1022A000510549F088279927841B950B9093AB0023
:1022B0008093AA0008951092A9001092A80010928D
:1022C000AB001092AA0008958091F9039091FA034F
:1022D00090930604809305048091F7039091F8038E
:1022E000909304048093030480913E05882331F089
:1022F00085E094E063E074E00E94E603E091050469
:10230000F0910604F093EA03E093E903809103045B
:10231000909104049093E8038093E703809107026F
:10232000882309F46EC08091EB039091EC0396959D
:102330008795969587959093F0038093EF0310927D
:1023400007021092EC031092EB03BC0183E0759539
:1023500067958A95E1F72091DB033091DC0340918A
:10236000DD035091DE03F7FD0AC0CB01AA2797FDDC
:10237000A095BA2F280F391F4A1F5B1F09C0CB0138
:10238000AA2797FDA095BA2F281B390B4A0B5B0B88
:102390002093DB033093DC034093DD035093DE0393
:1023A00080911602813029F485E094E00E94411A60
:1023B00004C085E094E00E94391720910504309113
:1023C00006043093F6032093F503121613062CF43B
:1023D0003093A9002093A80014C02115310549F0BD
:1023E00088279927821B930B9093AB008093AA00B8
:1023F00008C01092A9001092A8001092AB00109291
:10240000AA0080910802882309F472C08091ED032C
:102410009091EE0396958795969587959093F20304
:102420008093F103109208021092EE031092ED03D4
:102430002091E7033091E803FC01A3E0F595E795CF
:10244000AA95E1F74091D7035091D8036091D90341
:102450007091DA0337FD0AC0CF01AA2797FDA09536
:10246000BA2F480F591F6A1F7B1F09C0CF01AA2727
:1024700097FDA095BA2F481B590B6A0B7B0B409315
:10248000D7035093D8036093D9037093DA038091F4
:102490001602813029F483E094E00E946F1904C091
:1024A00083E094E00E9454182091030430910404C6
:1024B0003093F4032093F303121613062CF4309395
:1024C00099002093980008952115310549F0882737
:1024D0009927821B930B90939B0080939A000895F9
:1024E000109299001092980010929B0010929A00FE
:1024F000089585B7806185BF9FEF91B912B887EFC6
:1025000084B980EE85B980EF87B980EB88B98CEF0C
:102510008AB983E08BB99DB91EB810BA93BB90916C
:102520003D05992311F0913011F414BA04C0923092
:1025300011F488E084BB8FEF8093010110920201B7
:102540008FE080930401992329F480910501109272
:10255000050106C0913011F0923011F4809305010D
:10256000109207018FEF80930A01992311F09130A7
:1025700019F410920B010895923019F487EF8093AB
:102580000B010895EF92FF920F931F9380911F0507
:102590009091200597FF03C0909581959F4F40979C
:1025A00020F481E08093150202C010921502809100
:1025B000140290911502891761F480912F058F5FA5
:1025C00080932F05853038F010922F0590931602D6
:1025D00002C010922F059093140260911B05709118
:1025E0001C05882777FD8095982F0E94171F7B0177
:1025F0008C0160911D0570911E05882777FD8095DF
:10260000982F0E94171F9B01AC01C801B7010E94BF
:102610005C2221EE3EE245E652E40E941D1E0E942D
:10262000751FCB0170932E0560932D0577FF06C0B3
:1026300088599E4F90932E0580932D051F910F91E1
:10264000FF90EF90089580911A05882309F070C0DB
:102650000E94EE1B809332050E94EE1B809333058F
:102660000E94EE1B809334050E94F81B8093350571
:102670000E94D41B80916E05409133057091320504
:102680005091350560913405882319F18091310509
:10269000992787FD9095982F88272091300533271B
:1026A00027FD3095822B932B90931C0580931B055F
:1026B000842F992787FD9095982F8827272F3327D8
:1026C00027FD3095822B932B90931E0580931D053B
:1026D0006DC020913105332727FD3095322F2227F9
:1026E00080913005992787FD9095282B392B809173
:1026F000210590912205281B390B30931C0520934E
:102700001B05842F992787FD9095982F8827272FC1
:10271000332727FD3095822B932B20912305309171
:102720002405821B930B90931E0580931D057AC090
:10273000813009F08EC00E94EE1B809333050E9409
:10274000EE1B809334050E94F81B809335050E9490
:10275000D41B80916E0540913305509135056091F1
:102760003405882381F180913105992787FD909563
:10277000982F882720913005332727FD3095822B0D
:10278000932B90931C0580931B05242F332727FD43
:102790003095322F222780913205992787FD909519
:1027A000282B392B30931E0520931D05852F992743
:1027B00087FD9095982F8827262F332727FD309562
:1027C000822B932B41C020913105332727FD309573
:1027D000322F222780913005992787FD9095282B4D
:1027E000392B8091210590912205281B390B3093BC
:1027F0001C0520931B05242F332727FD3095322FEE
:10280000222780913205992787FD9095282B392B17
:102810008091230590912405281B390B30931E05C8
:1028200020931D05852F992787FD9095982F882740
:10283000262F332727FD3095822B932B20912505BA
:1028400030912605821B930B9093200580931F05E2
:10285000089510921C0510921B0510921E051092EF
:102860001D051092200510921F05089580911302F6
:102870000E94831B8823E1F48DE20E94DC1B88E028
:102880000E94DC1B0E94D41B809113020E94831BB8
:10289000882371F481E30E94DC1B80E00E94DC1B32
:1028A0000E94D41B809113020E94831B882321F075
:1028B0000E94D41B81E008958CE20E94DC1B89E019
:1028C0000E94DC1B0E94D41B80E0089580911302BB
:1028D0000E94831B882321F00E94D41B81E008956D
:1028E00086E10E94DC1B85E40E94DC1B0E94D41B55
:1028F00080E0089580911A058823A9F4809113023D
:102900000E94831B80E00E94DC1B809113028F5F7A
:102910000E94D11B0E94EE1B809330050E94EE1B8B
:102920008093310508958130C9F4809113020E948B
:10293000831B82E30E94DC1B809113028F5F0E9445
:10294000D11B0E94EE1B809330050E94EE1B8093EA
:1029500031050E94EE1B80933205089510921C05EC
:1029600010921B0510921E0510921D051092200555
:1029700010921F050895EF92FF920F931F93DF931C
:10298000CF9300D000D0CDB7DEB780911A05882351
:1029900071F5809113020E94831B80E00E94DC1B72
:1029A000809113028F5F0E94D11B8E010F5F1F4F1A
:1029B00096E0E92EF12CEC0EFD1E0E94EE1BF801B4
:1029C00081938F01EE15FF05C1F70E94F81B182FA8
:1029D0008E830E94D41B80916E059A8129814C813F
:1029E0005B81612F772767FD7095ED8130C0813065
:1029F00009F095C0809113020E94831B82E30E941C
:102A0000DC1B809113028F5F0E94D11B8E010F5F30
:102A10001F4F86E0E82EF12CEC0EFD1E0E94EE1BEF
:102A2000F80181938F01EE15FF05C1F70E94F81B95
:102A3000182F8E830E94D41B80916E059A81298164
:102A40004C815B81ED81612F772767FD709588232D
:102A500041F1892F992787FD9095982F8827332753
:102A600027FD3095822B932B90931C0580931B059B
:102A7000842F992787FD9095982F8827252F332716
:102A800027FD3095822B932B90931E0580931D0577
:102A9000962F88272E2F332727FD3095822B932BB7
:102AA00039C0892F992787FD9095982F882733273C
:102AB00027FD3095822B932B209121053091220503
:102AC000821B930B90931C0580931B05842F9927E1
:102AD00087FD9095982F8827252F332727FD309540
:102AE000822B932B2091230530912405821B930B7D
:102AF00090931E0580931D05962F88272E2F332730
:102B000027FD3095822B932B2091250530912605AA
:102B1000821B930B9093200580931F050CC010928D
:102B20001C0510921B0510921E0510921D05109297
:102B3000200510921F0526960FB6F894DEBF0FBE33
:102B4000CDBFCF91DF911F910F91FF90EF9008952E
:102B5000EF92FF920F931F9380911A05882331F40F
:102B6000809113020E94831B80E008C0813009F02D
:102B700058C0809113020E94831B82E30E94DC1BD9
:102B8000809113028F5F0E94D11B0E94EE1BE82EE2
:102B90000E94EE1B082F0E94EE1BF82E0E94F81BCD
:102BA000182F0E94D41B80916E05202F332727FDFC
:102BB00030954E2D552747FD5095612F772767FD9E
:102BC0007095EF2DFF27E7FDF095882369F0922F90
:102BD0008827842B952B90931C0580931B05962F9B
:102BE00088278E2B9F2B18C0922F8827842B952BFC
:102BF0002091210530912205821B930B90931C0597
:102C000080931B05962F88278E2B9F2B20912305C1
:102C100030912405821B930B90931E0580931D0514
:102C200008C010921C0510921B0510921E051092F0
:102C30001D051F910F91FF90EF9008950E947B1B3F
:102C40000E946614882389F086EA90E0909314022B
:102C5000809313020E943614882321F082E080932F
:102C60001A05089581E080931A0508950F931F9324
:102C7000CF93DF9310920C0210920D0210920E026D
:102C800080E00E94D80880910D020E94EE08809199
:102C90000E020E94040910923C0510923B0581E04F
:102CA00080936E0501E010E0C8C00E94BB146091E3
:102CB0003B0570913C05613171050CF074C0809149
:102CC000C603882309F4B9C01092C60361157105C3
:102CD000F9F4EFE8F3E0A7E7B3E011921192119253
:102CE00011921D921D9283E0EF3BF807B1F710920D
:102CF00028051092270510922A0510922905109296
:102D00002C0510922B0510933C0500933B0595C0B4
:102D1000EFE8F3E0CFE5D3E029913991442737FD7F
:102D20004095542F80819181A281B381820F931F9E
:102D3000A41FB51F81939193A193B19383E0EF3BBF
:102D4000F80751F7809127059091280520911B05E0
:102D500030911C05820F931F9093280580932705BF
:102D60008091290590912A0520911D0530911E051D
:102D7000820F931F90932A058093290580912B053C
:102D800090912C0520911F0530912005820F931FF3
:102D900090932C0580932B056F5F7F4F70933C05BC
:102DA00060933B054AC0EFE8F3E0C7E7D3E08191C9
:102DB0009191A191B19154E0B695A795979587957A
:102DC0005A95D1F78993999383E0EF3BF80779F708
:102DD000E7E8F3E080819181805092408193919364
:102DE00083E0EF38F807B1F7809127059091280527
:102DF00044E0959587954A95E1F790932205809355
:102E000021058091290590912A0534E095958795B3
:102E10003A95E1F7909324058093230580912B0543
:102E200090912C0524E0959587952A95E1F790934C
:102E300026058093250510926E0580916E058823E6
:102E400009F033CF8FEF80930C0280930D028093B3
:102E50000E020E94D80880910D020E94EE08809117
:102E60000E020E940409DF91CF911F910F910895E6
:102E70000895DC018D919C911197009769F410924F
:102E800000041092FF031092440510924305109223
:102E90005E0510925D05089540912D0550912E0517
:102EA00021E04E3052074CF0181619061CF428E6A3
:102EB00031E018C088E691E00BC0443B51051CF49A
:102EC0004A355105B4F01816190654F484EB90E015
:102ED000841B950B959587959595879549961CC06C
:102EE00024EB30E0241B350B359527953595279538
:102EF0000FC09A013595279535952795181619060F
:102F00003CF4275E3F4F309304022093030208C035
:102F100089E190E0821B930B90930402809303025B
:102F2000E0914305F0914405F0935E05E0935D0563
:102F30008D919C9111972091EF033091F00397FDB3
:102F400003C0821B930B02C0820F931F9093440512
:102F50008093430560914305709144058091FF0380
:102F600090910004860F971F909300048093FF03B5
:102F700026E0813492071CF080E496E005C0805C76
:102F8000994F34F480EC99EF909300048093FF0301
:102F90008091FF0390910004AC01440F551F480F2E
:102FA000591FCB01880F991F9B01220F331F220F3E
:102FB000331F220F331F820F931F480F591FE61B29
:102FC000F70BEE0FFF1F4E0F5F1F2D913C911197D6
:102FD0008091030290910402BC01269FC001279FAB
:102FE000900D369F900D1124480F591F5093FE03EA
:102FF0004093FD0357FF0FC011968C9111979927AD
:1030000087FD9095990F880B982F84239523909393
:10301000FE038093FD038091FD039091FE0318163B
:1030200019064CF48D919C91119797FF04C0109252
:10303000FE031092FD038091FD039091FE03815CDD
:103040009D4534F080EC9DE59093FE038093FD0355
:103050008091FD039091FE038054924A34F480E401
:1030600092EA9093FE038093FD038091FD0390917B
:10307000FE0324E0959587952A95E1F711969C9398
:103080008E93815092402CF080E092E011969C93B8
:103090008E938D919C91119780509E4F24F480E0E7
:1030A0009EEF8D939C930895DC018D919C911197D7
:1030B000009769F4109202041092010410926D05B9
:1030C00010926C05109246051092450508954091A6
:1030D0002D0550912E0521E04E3052074CF0181668
:1030E00019061CF428E631E018C088E691E00BC010
:1030F000443B51051CF44A355105B4F01816190625
:1031000054F484EB90E0841B950B959587959595E9
:10311000879549961CC024EB30E0241B350B359570
:103120002795359527950FC09A01359527953595A3
:103130002795181619063CF4275E3F4F3093060278
:103140002093050208C089E190E0821B930B9093C5
:10315000060280930502E0916C05F0916D05F093F5
:103160004605E09345058D919C9111972091F103BF
:103170003091F20397FD03C0821B930B02C0820FB4
:10318000931F90936D0580936C0560916C05709111
:103190006D058091010490910204860F971F909312
:1031A00002048093010426E0813492071CF080E43D
:1031B00096E005C0805C994F34F480EC99EF9093D1
:1031C0000204809301048091010490910204AC01F7
:1031D000440F551F480F591FCB01880F991F9B01A2
:1031E000220F331F220F331F220F331F820F931F13
:1031F000480F591FE61BF70BEE0FFF1F4E0F5F1F07
:103200002D913C9111978091050290910602BC018D
:10321000269FC001279F900D369F900D1124480FC7
:10322000591F5093FC034093FB0357FF0FC01196A7
:103230008C911197992787FD9095990F880B982F5E
:10324000842395239093FC038093FB038091FB03DD
:103250009091FC03181619064CF48D919C911197CE
:1032600097FF04C01092FC031092FB038091FB03B4
:103270009091FC03815C9D4534F080EC9DE590933A
:10328000FC038093FB038091FB039091FC0380542B
:10329000924A34F480E492EA9093FC038093FB0317
:1032A0008091FB039091FC0374E0959587957A9546
:1032B000E1F711969C938E93815092402CF080E020
:1032C00092E011969C938E938D919C9111978050D2
:1032D0009E4F24F480E09EEF8D939C930895FC0113
:1032E00080819181892B69F410920204109201046B
:1032F00010926D0510926C051092460510924505CE
:10330000089560916C0570916D057093460560930A
:103310004505808191814091F1035091F20397FD21
:1033200003C0841B950B02C0840F951F90936D05FD
:1033300080936C0520916C0530916D05809101049E
:1033400090910204820F931F9093020480930104D2
:1033500046E0813494071CF080E496E005C0805C70
:10336000994F34F480EC99EF909302048093010418
:103370004091010450910204440F551F89E190E0EF
:10338000DC012A9FC0012B9F900D3A9F900D1124C4
:10339000480F591FCB01821B930B9C01880F991F6B
:1033A000820F931F480F591F80819181B3E0880FCE
:1033B000991FBA95E1F7480F591F5093FC034093AA
:1033C000FB0357FF0DC08181992787FD9095990FC9
:1033D000880B982F842395239093FC038093FB0301
:1033E0008091FB039091FC031816190644F4808128
:1033F000918197FF04C01092FC031092FB0380910F
:10340000FB039091FC03815C9D4534F080EC9DE5CD
:103410009093FC038093FB038091FB039091FC034A
:103420008054924A34F480E492EA9093FC038093AF
:10343000FB038091FB039091FC0374E095958795C5
:103440007A95E1F7918380831816190614F44E9645
:1034500003C0009719F04E979183808380819181FA
:103460008150924024F080E092E0918380838081BB
:10347000918180509E4F24F480E09EEF9183808361
:103480000895FC0180819181892B69F410920004D8
:103490001092FF03109244051092430510925E05AE
:1034A00010925D05089560914305709144057093F5
:1034B0005E0560935D05808191814091EF0350919D
:1034C000F00397FD03C0841B950B02C0840F951F6A
:1034D0009093440580934305209143053091440522
:1034E0008091FF0390910004820F931F909300043A
:1034F0008093FF0346E0813494071CF080E496E05B
:1035000005C0805C994F34F480EC99EF90930004EF
:103510008093FF034091FF0350910004440F551F17
:1035200089E190E0DC012A9FC0012B9F900D3A9F1A
:10353000900D1124480F591FCB01821B930B9C0146
:10354000880F991F820F931F480F591F8081918107
:1035500033E0880F991F3A95E1F7480F591F5093B0
:10356000FE034093FD0357FF0DC08181992787FD1E
:103570009095990F880B982F842395239093FE03A1
:103580008093FD038091FD039091FE0318161906A8
:1035900044F48081918197FF04C01092FE03109241
:1035A000FD038091FD039091FE03815C9D4534F005
:1035B00080EC9DE59093FE038093FD038091FD03D5
:1035C0009091FE038054924A34F480E492EA9093FE
:1035D000FE038093FD038091FD039091FE03B4E010
:1035E00095958795BA95E1F791838083181619060A
:1035F00014F44E9603C0009719F04E979183808380
:10360000808191818150924024F080E092E091830A
:1036100080838081918180509E4F24F480E09EEFD2
:1036200091838083089520910E0480E090E00196BC
:1036300037E28031930708F021E00DB407FEF7CFA1
:1036400020930E04089584B1807F84B984B187608B
:1036500084B980E58CBD8DB581608DBD08951CBC9D
:103660001DBC0895DF92EF92FF920F931F93CF93AB
:10367000DF937C01D42E8B01C0E0D0E010C0F701B5
:10368000EC0FFD1F80818EBD0E94131B80910E04E4
:10369000882339F48EB5F80181938F012196CD15D9
:1036A00070F3DF91CF911F910F91FF90EF90DF901A
:1036B00008950F931F93CF93DF93062FEC0110E033
:1036C00009C089918EBD0E94131B80910E0488232E
:1036D00019F41F5F1017A8F3DF91CF911F910F917D
:1036E00008958EBD0E94131B8EB508951092B800E8
:1036F0001092BC000895589A599A1092B90081E02E
:103700008093B8000895982F84EA8093BC0080913C
:10371000BC0087FFFCCF8091B900887F883021F002
:10372000803111F081E008959093BB0084E880938C
:10373000BC008091BC0087FFFCCF9091B900987FBE
:10374000983111F480E0089580E0903409F081E030
:103750000895982F44EA34E824E94093BC0080910E
:10376000BC0087FFFCCF8091B900887F883011F0C2
:10377000803199F79093BB003093BC008091BC00DE
:1037800087FFFCCF8091B900887F803211F08835A7
:1037900039F42093BC008091BC0084FDFCCFDDCFC8
:1037A00008950E94831B089584E98093BC00809152
:1037B000BC0084FDFCCF08958093BB0084E8809317
:1037C000BC008091BC0087FFFCCF8091B90090E0E5
:1037D000887F883209F091E0892F089584EC8093E6
:1037E000BC008091BC0087FFFCCF8091BB00089596
:1037F00084E88093BC008091BC0087FFFCCF80915F
:10380000BB0008951092C50080E18093C400E0ECF5
:10381000F0E0808182608083E1ECF0E08081886963
:103820008083E2ECF0E080818660808308951092CE
:10383000CD0080E18093CC00E8ECF0E080818260F4
:103840008083E9ECF0E0808188618083EAECF0E03D
:1038500080818660808308951092C0001092C1001C
:103860001092C2000895982F8091C00085FFFCCF70
:103870009093C600662321F08091C00086FFFCCFA4
:103880000895982F8091C80085FFFCCF9093CE00BB
:10389000662321F08091C80086FFFCCF08958091B7
:1038A000C0008095881F8827881F089520E030E099
:1038B00005C081E08093110480E008958091C000EC
:1038C00087FF03C08091C60008952F5F3F4F2739BF
:1038D0003105A1F7EECF1F920F920FB60F920BB6E4
:1038E0000F9211242F938F939F93EF93FF938091C7
:1038F0001204909113040196909313048093120480
:103900008150914060F4809114059091C600E82F99
:10391000F0E0EC5EFB4F90838F5F80931405FF9186
:10392000EF919F918F912F910F900BBE0F900FBE33
:103930000F901F90189586B146B126B166B130E060
:1039400028703070F3E035952795FA95E1F7220F4E
:10395000331F50E0447050705595479555954795E5
:10396000240F351F220F331F70E062707070759541
:103970006795260F371F220F331F8170820F08951E
:103980001F920F920FB60F9211240F900FBE0F903F
:103990001F90189560913605709137058091380514
:1039A00090913905089581E08093C5030895F894B6
:1039B00014BC15BC10926E001092200110922101CF
:1039C0008EEF9FE00E94FE2390930C0480930B04E3
:1039D0008DEF9FE00E94F623982F8093420581503F
:1039E0008E3F18F49093660008C060916600609363
:1039F00042058DEF9FE00E94042420910B0430913A
:103A00000C04C90181589C40039710F410923D05A5
:103A10008CE02038380711F481E004C024583C4081
:103A200018F082E080933D050E9479120E942101E6
:103A30000E942F0E0E949B080E94231B0E94930A43
:103A400080910E04882329F480910D048160809375
:103A50000D040E94021C0E941E160E948505789487
:103A60000895CF93DF939EE1899FE0011124809117
:103A700068008D7F8093680080916C008F778093C1
:103A80006C00D99A10927A0080917A0080618093BC
:103A90007A0010929000109291001092710088B3F9
:103AA000876088BB1092A0001092A1001092720053
:103AB00089B3876089BB10928000109281000E94B8
:103AC0002C1C0E942F1B0E94761B0E94791283B728
:103AD0008F6083BF81E0809370008091B0008D7F04
:103AE0008093B0008091B10087608093B10002C0E4
:103AF000889521972097E1F713BE8091B100887FC8
:103B00008093B100109270008091B0008260809329
:103B1000B0008FEF80930C0280930D0280930E0211
:103B20001092F4031092F3031092F6031092F5032F
:103B30000E94D71CDF91CF910895809171039091DD
:103B40007203855A914044F420E080917303909170
:103B50007403855A91400CF021E0822F0895CF9391
:103B6000DF93C0E0D0E08FE00E948D0E8FE00E94D6
:103B7000C90E0E946411219680E8C83ED80799F7C3
:103B8000DF91CF9108950F931F93CF93DF938C0113
:103B9000C0E0D0E003C00E94AF1D2196C017D1073E
:103BA000D4F3DF91CF911F910F910895882341F0B5
:103BB00080E00E948D0E80E00E94C90E0E94641178
:103BC0000895CF93DF93C0E0D0E08AE00E948D0E8D
:103BD00086EF0E94C90E0E946411219686EDC83DB1
:103BE000D80799F7DF91CF910895CF93DF93C0E085
:103BF000D0E08AE00E948D0E86EF0E94C90E0E94DE
:103C0000641121968BE6CC36D80799F7DF91CF91D6
:103C10000895CF93DF93C0E0D0E086EF0E948D0E31
:103C20008AE00E94C90E0E94641121968BE6CC3670
:103C3000D80799F7DF91CF910895A0E2B0E0E3E2D1
:103C4000FEE10C94AB2169837A838B839C832D8363
:103C50003E834F835887CE010196BE01675F7F4F39
:103C60000E94ED20CE010596BE016F5E7F4F0E943F
:103C7000ED209985923088F089898230C8F094309F
:103C800019F4823051F404C0843029F4923081F464
:103C900087E192E0C6C0923049F420E09A858A8993
:103CA000981321E02A87CE010996BBC0823049F4DF
:103CB00020E09A858A89981321E02A8BCE014196CB
:103CC000B0C02D843E844F8458886D887E888F884C
:103CD000988CEE24FF248701AA24BB24650140E0D0
:103CE00050E060E070E0E0E0F0E0C10181709070D1
:103CF000892BE9F0E60CF71C081D191D9A01AB0190
:103D00002A0D3B1D4C1D5D1D80E090E0A0E0B0E061
:103D1000E614F7040805190520F481E090E0A0E01E
:103D2000B0E0BA01A901480F591F6A1F7B1FAA0CF6
:103D3000BB1CCC1CDD1C97FE08C081E090E0A0E01D
:103D4000B0E0A82AB92ACA2ADB2A3196E032F10566
:103D500049F0660C771C881C991C5694479437943C
:103D60002794C3CFFA85EA892B893C898B859C856A
:103D7000280F391F2E5F3F4F17C0CA018170907006
:103D8000892B61F016950795F794E79480E090E011
:103D9000A0E0B0E8E82AF92A0A2B1B2B7695679554
:103DA000579547952F5F3F4F77FDE7CF0CC0440FE6
:103DB000551F661F771F17FD4160EE0CFF1C001F8B
:103DC000111F21503040403090E0590790E06907C2
:103DD00090E4790760F32B8F3C8FDB01CA018F776A
:103DE0009070A070B07080349105A105B10561F4A8
:103DF00047FD0AC0E114F1040105110529F0405CFA
:103E00005F4F6F4F7F4F40781A8EFE1711F081E0A1
:103E10008A8F4D8F5E8F6F8F78A383E0898FCE015D
:103E200049960E941820A096E2E10C94C721A8E0D0
:103E3000B0E0EDE1FFE10C94B4219B01AC0183E023
:103E40008983DA01C9018827B7FD83959927AA27B5
:103E5000BB27B82E211531054105510519F482E023
:103E600089833AC08823A9F0203080E0380780E0B9
:103E7000480780E8580729F460E070E080E09FEC94
:103E800030C0EE24FF248701E21AF30A040B150B5D
:103E900002C079018A018EE1C82ED12CDC82CB824E
:103EA000ED82FE820F831887C801B7010E94C91FE7
:103EB00001971816190684F4082E04C0EE0CFF1C96
:103EC000001F111F0A94D2F7ED82FE820F8318871C
:103ED000C81AD90ADC82CB82BA82CE0101960E942E
:103EE00018202896E9E00C94D021ACE0B0E0EBE794
:103EF000FFE10C94BB2169837A838B839C83CE0181
:103F00000196BE016B5F7F4F0E94ED208D81823054
:103F100061F1823050F1843021F48E81882351F197
:103F20002EC02F81388537FD20C06E812F3131059D
:103F30001CF06623F9F023C08EE190E0821B930B06
:103F400029853A854B855C8504C0569547953795FC
:103F500027958A95D2F76623B1F050954095309514
:103F600021953F4F4F4F5F4F0EC020E030E040E0C3
:103F700050E009C02FEF3FEF4FEF5FE704C020E0B4
:103F800030E040E050E8B901CA012C96E2E00C9420
:103F9000D721EF92FF920F931F937B018C0180E05A
:103FA000E81680E0F80681E0080780E0180788F44A
:103FB0008FEFE816F1040105110531F028F088E0D3
:103FC00090E0A0E0B0E017C080E090E0A0E0B0E0BA
:103FD00012C080E0E81680E0F80680E0080781E083
:103FE000180728F088E190E0A0E0B0E004C080E18C
:103FF00090E0A0E0B0E020E230E040E050E0281B9C
:10400000390B4A0B5B0B04C016950795F794E794A0
:104010008A95D2F7F701E15EFD4F8081281B3109B7
:1040200041095109C9011F910F91FF90EF90089527
:10403000DF92EF92FF920F931F93FC01E480F580D3
:1040400006811781D1808081823048F480E090E041
:10405000A0E1B0E0E82AF92A0A2B1B2BA5C0843086
:1040600009F49FC0823021F4EE24FF24870105C0AB
:10407000E114F1040105110519F4E0E0F0E096C047
:10408000628173819FEF623879070CF05BC022E890
:104090003FEF261B370B2A3131052CF020E030E0B2
:1040A00040E050E02AC0B801A701022E04C0769576
:1040B0006795579547950A94D2F781E090E0A0E084
:1040C000B0E004C0880F991FAA1FBB1F2A95D2F722
:1040D0000197A109B1098E219F21A023B123009747
:1040E000A105B10521F081E090E0A0E0B0E09A01E7
:1040F000AB01282B392B4A2B5B2BDA01C9018F77B7
:104100009070A070B07080349105A105B10539F4AC
:1041100027FF09C0205C3F4F4F4F5F4F04C0215C19
:104120003F4F4F4F5F4FE0E0F0E02030A0E03A0714
:10413000A0E04A07A0E45A0710F0E1E0F0E07901BE
:104140008A0127C06038710564F5FB01E158FF4F13
:10415000D801C7018F779070A070B070803491053E
:10416000A105B10539F4E7FE0DC080E490E0A0E0C0
:10417000B0E004C08FE390E0A0E0B0E0E80EF91EEC
:104180000A1F1B1F17FF05C016950795F794E794A4
:10419000319687E016950795F794E7948A95D1F7BD
:1041A00005C0EE24FF248701EFEFF0E06E2F679546
:1041B00066276795902F9F77D794DD24D7948E2F0D
:1041C0008695492F462B582F5D29B701CA011F91AB
:1041D0000F91FF90EF90DF900895FC01DB0140818B
:1041E00051812281622F6F7770E0221F2227221FC8
:1041F0009381892F880F822B282F30E0991F9927D0
:10420000991F11969C93119721153105A9F5411518
:1042100051056105710511F482E037C082E89FEF16
:1042200013969C938E9312979A01AB0167E0220F2D
:10423000331F441F551F6A95D1F783E08C930DC03F
:10424000220F331F441F551F12968D919C91139777
:10425000019713969C938E931297203080E0380735
:1042600080E0480780E4580758F314962D933D9357
:104270004D935C93179708952F3F310579F44115BD
:1042800051056105710519F484E08C93089564FF6C
:1042900003C081E08C9312C01C9210C02F57304095
:1042A00013963C932E93129783E08C9387E0440FF0
:1042B000551F661F771F8A95D1F7706414964D932A
:1042C0005D936D937C9317970895629FD001739FC0
:1042D000F001829FE00DF11D649FE00DF11D929FA2
:1042E000F00D839FF00D749FF00D659FF00D9927E1
:1042F000729FB00DE11DF91F639FB00DE11DF91F05
:10430000BD01CF0111240895AA1BBB1B51E107C0B9
:10431000AA1FBB1FA617B70710F0A61BB70B881F55
:10432000991F5A95A9F780959095BC01CD010895E4
:1043300097FB092E07260AD077FD04D0E5DF06D0CB
:1043400000201AF4709561957F4F0895F6F79095C7
:1043500081959F4F08952F923F924F925F926F9257
:104360007F928F929F92AF92BF92CF92DF92EF9205
:10437000FF920F931F93CF93DF93CDB7DEB7CA1B86
:10438000DB0B0FB6F894DEBF0FBECDBF19942A88A1
:10439000398848885F846E847D848C849B84AA8459
:1043A000B984C884DF80EE80FD800C811B81AA81E6
:1043B000B981CE0FD11D0FB6F894DEBF0FBECDBFB1
:1043C000ED010895AF92BF92CF92DF92EF92FF92EC
:1043D0000F931F93CF93DF93EC01A880B980CA801D
:1043E000DB80A114B104C104D10441F484E2A82EFD
:1043F00089EDB82E8BE5C82E87E0D82EC601B50111
:104400002DE133EF41E050E00E94892427EA31E4B6
:1044100040E050E00E9465217B018C01C601B5019E
:104420002DE133EF41E050E00E948924CA01B90137
:104430002CEE34EF4FEF5FEF0E9465216E0D7F1D74
:10444000801F911F97FF04C06150704080409048CA
:10445000688379838A839B839B013F77C901DF91BE
:10446000CF911F910F91FF90EF90DF90CF90BF9071
:10447000AF9008950E94E22108958FE193E00E9499
:10448000E2210895A0E0B0E080931F039093200301
:10449000A0932103B09322030895F5D058F080E84B
:1044A00091E009F49EEFF6D028F040E851E059F48D
:1044B0005EEF09C0C0C028C1E92FE07803D168F3DE
:1044C000092E052AC1F3261737074807590738F080
:1044D0000E2E07F8E02569F0E025E0640AC0EF63DE
:1044E00007F8009407FADB01B9019D01DC01CA015C
:1044F000AD01EF9341D0D5D00AD05F91552331F073
:104500002BED3FE049E450FD49EC8DC10895DF9368
:10451000DD27B92FBF7740E85FE316161706480777
:104520005B0710F4D92FF7D09F938F937F936F93EE
:104530005AD1EEE4F1E082D0B4D02F913F914F9167
:104540005F91FAD0DD2349F09058A2EA2AED3FE0CE
:1045500049EC5FE3D0785D2777D1DF91A2C09AD094
:1045600040F091D030F021F45F3F19F05EC051115E
:10457000CCC061C0A7D098F39923C9F35523B1F3F8
:10458000951B550BBB27AA2762177307840738F0C2
:104590009F5F5F4F220F331F441FAA1FA9F333D021
:1045A0000E2E3AF0E0E830D091505040E695001CD5
:1045B000CAF729D0FE2F27D0660F771F881FBB1F91
:1045C000261737074807AB07B0E809F0BB0B802D6B
:1045D000BF01FF2793585F4F2AF09E3F510568F0B7
:1045E00024C093C05F3FECF3983EDCF3869577954B
:1045F0006795B795F7959F5FC9F7880F911D9695B9
:10460000879597F90895E1E0660F771F881FBB1F14
:10461000621773078407BA0720F0621B730B840BC1
:10462000BA0BEE1F88F7E095089597F99F6780E829
:1046300070E060E008959FEF80EC0895DF93CF93E2
:104640001F930F93FF92EF92DF927B018C0168948E
:1046500005C0DA2EEF0170D0FE01E894A5912591F6
:10466000359145915591AEF3EF01EED0FE019701E2
:10467000A801DA9479F7DF90EF90FF900F911F91E6
:10468000CF91DF91089500240A9416161706180694
:104690000906089500240A94121613061406050646
:1046A0000895092E0394000C11F4882352F0BB0FD7
:1046B00040F4BF2B11F460FF04C06F5F7F4F8F4F3A
:1046C0009F4F089557FD9058440F551F59F05F3F75
:1046D00071F04795880F97FB991F61F09F3F79F024
:1046E00087950895121613061406551FF2CF4695A6
:1046F000F1DF08C0161617061806991FF1CF869528
:104700007105610508940895E894BB27662777270B
:10471000CB0197F908959B01AC0160E070E080E85F
:104720009FE3E5C0B0DF28F0B5DF18F0952309F06E
:104730007CCF81CF1124E9CFC5DFA0F3959FD1F3C2
:10474000950F50E0551F629FF001729FBB27F00D3F
:10475000B11D639FAA27F00DB11DAA1F649F662794
:10476000B00DA11D661F829F2227B00DA11D621FE3
:10477000739FB00DA11D621F839FA00D611D221F9D
:10478000749F3327A00D611D231F849F600D211D81
:10479000822F762F6A2F11249F5750408AF0E1F024
:1047A00088234AF0EE0FFF1FBB1F661F771F881F6D
:1047B00091505040A9F79E3F510570F036CFA5CFDC
:1047C0005F3FECF3983EDCF3869577956795B79558
:1047D000F795E7959F5FC1F7FE2B880F911D969582
:1047E000879597F908959B01AC0127CAF999FECFE7
:1047F00092BD81BDF89A992780B50895A8E1B0E0EF
:1048000042E050E00C947B24262FF999FECF1FBA8A
:1048100092BD81BD20BD0FB6F894FA9AF99A0FBEE9
:10482000019608955058BB27AA270ED03ACF2BDF08
:1048300030F030DF20F031F49F3F11F41EF4FBCE56
:104840000EF4E095E7FBF1CEE92F3CDF80F3BA17D9
:10485000620773078407950718F071F49EF554CF2B
:104860000EF4E0950B2EBA2FA02D0B01B90190018B
:104870000C01CA01A0011124FF27591B99F0593FCF
:1048800050F4503E68F11A16F040A22F232F342F17
:104890004427585FF3CF469537952795A795F04065
:1048A0005395C9F77EF41F16BA0B620B730B840B7A
:1048B000BAF09150A1F0FF0FBB1F661F771F881F32
:1048C000C2F70EC0BA0F621F731F841F48F487958A
:1048D00077956795B795F7959E3F08F0B3CF939579
:1048E000880F08F09927EE0F97958795089542DE77
:1048F000D8CEDC01CB01FC01F999FECF06C0F2BD98
:10490000E1BDF89A319600B40D9241505040B8F78D
:10491000089597FB092E05260ED057FD04D014D01C
:104920000AD0001C38F450954095309521953F4FA2
:104930004F4F5F4F0895F6F790958095709561956C
:104940007F4F8F4F9F4F0895A1E21A2EAA1BBB1BCA
:10495000FD010DC0AA1FBB1FEE1FFF1FA217B3074B
:10496000E407F50720F0A21BB30BE40BF50B661F61
:10497000771F881F991F1A9469F760957095809525
:1049800090959B01AC01BD01CF010895F894FFCF34
:1049900002FFFF190019000101010103FFFFFF05DC
:1049A0000101013A010101000000000000000000C7
:1049B00001020203030303040404040404040405C1
:1049C0000505050505050505050505050505050696
:1049D0000606060606060606060606060606060677
:1049E0000606060606060606060606060606060766
:1049F0000707070707070707070707070707070747
:104A00000707070707070707070707070707070736
:104A10000707070707070707070707070707070726
:104A20000707070707070707070707070707070815
:104A300008080808080808080808080808080808F6
:104A400008080808080808080808080808080808E6
:104A500008080808080808080808080808080808D6
:104A600008080808080808080808080808080808C6
:104A700008080808080808080808080808080808B6
:104A800008080808080808080808080808080808A6
:104A90000808080808080808080808080808080896
:104AA000080808080808080808080808080808018D
:044AB0000000000002
:00000001FF
