:100000000C94BE000C94DF000C94DF000C94DF0015
:100010000C94DF000C94DF000C94DF000C94DF00E4
:100020000C94DF000C94DF000C9466080C94DF0045
:100030000C94DF000C949A080C94DF000C94851F3C
:100040000C94DF000C94DF000C94DF000C94DF00B4
:100050000C94DF000C94DF000C94DF000C94DF00A4
:100060000C94DF000C94301F0C94DF000C94DF0024
:100070000C94DF000C9416010C94DF000C94DF004C
:100080000C9406130C941C130C94DF000C94831234
:100090000C94DF000C94DF000C94DF000C94DF0064
:1000A0000C94DF000C94DF000C9457120C946D122A
:1000B0000C94DF000C94CA110C94DF000C94DF0048
:1000C0000C94DF000C94DF000C94DF000C94DF0034
:1000D0000C94DF000C94DF000C94DF000C94DF0024
:1000E0000C94DF00BD0A8B0AD3097B0A610ACA0996
:1000F000400AA90A010A9B0A290B290B290B290B83
:10010000290B290B000B040B290B290B290B290B9D
:10011000290B290B290B290B290B290B290B290B3F
:10012000010AD309220B1A0B290B290B290B290BC6
:10013000290B290B290B290B290B290B290B290B1F
:10014000610A400A290B290BBD0ACA09070B084A94
:10015000D73B3BCE016E84BCBFFDC12F3D6C7431DB
:100160009ABD56833DDA3D00C77F11BED9E4BB4C32
:100170003E916BAAAABE000000803F0011241FBE62
:10018000CFEFD1E2DEBFCDBF00E00CBF13E0A0E0B7
:10019000B2E0E6E3F4E600E00BBF02C007900D9288
:1001A000A634B107D9F71BE0A6E4B3E001C01D9265
:1001B000A337B107E1F70E94E1000C9419320C94C7
:1001C00000000E94F5000E949C1F0E94FB180E94E4
:1001D00043080E949C1F0E94FB1880910B018F7E98
:1001E00080930B010E943921FDCFEAE7F0E01082F5
:1001F0002BE730E0D9011C92ACE7B0E01C92808183
:10020000866080838C9180648C93808180628083FF
:10021000D9018C91887F8C938081886080838081D4
:100220008068808380818064808308951F920F920C
:100230000FB60F920BB60F9211241F932F933F937B
:100240004F935F936F937F938F939F93AF93BF93DE
:10025000EF93FF938091590590915A05A0915B050A
:10026000B0915C058F3F2FEF92072FEFA2072FEF82
:10027000B20749F41092590510925A0510925B0585
:1002800010925C050BC00196A11DB11D809359050C
:1002900090935A05A0935B05B0935C05809178001C
:1002A000482F50E020917900922F80E0482B592B65
:1002B0008091E203823009F437C1833038F4882317
:1002C00009F44DC0813009F090C121C1843009F496
:1002D00061C1843008F451C1863009F086C1809133
:1002E000940590E020914C0373E0880F991F7A9554
:1002F000E1F7820F911D880F991FE091F508F091A9
:10030000F608E80FF91F5183408380914C0390E079
:10031000880F991FE0912E0BF0912F0BE80FF91F1A
:10032000808191818417950710F4518340838091D7
:100330004C0390E0880F991FE0915306F09154060A
:10034000E80FF91F808191814817590710F45183F4
:10035000408380914C038F5F80934C0346C1109182
:100360004C031E3061F48091E803823041F45093D5
:10037000E7034093E6031092E803469808C0E12F94
:10038000F0E0EE0FFF1FEF5AFC4F51834083A12F87
:10039000B0E010FFAFC0AA0FBB1FFD01E15BFC4F37
:1003A00020813181AF5ABC4F4D915C91812F869550
:1003B000682F70E0241B350BAB01440F551FFA0169
:1003C000E656FC4F80819181281B390BFA01EE57CC
:1003D000FC4F3183208337FF02C011821082FB0162
:1003E000EE0FFF1FEE57FC4F8081918181509440AA
:1003F00024F080E094E0918380831031E8F5DB0104
:10040000AA0FBB1FFD01EE57FC4F0190F081E02DBC
:10041000EC33F1051CF4A651BC4F2CC0CF01CC9697
:1004200095958795883791053CF4A651BC4FFC976C
:10043000F595E795FC961EC0CF01845D9E4F95957E
:10044000879595958795A651BC4F843B91054CF4B3
:10045000E45BF040F595E795F595E795E858FF4F93
:1004600009C0E45AF14043E0F595E7954A95E1F774
:10047000EC54FF4FED93FC93809162058823C1F10A
:100480008091920390919303845A9140ACF08091B3
:10049000940390919503845A914074F0809196034F
:1004A00090919703845A91403CF0809198039091E9
:1004B0009903845A9140E4F481E08093630510929B
:1004C0001904109218041092A9001092A80010921A
:1004D000AB001092AA00109217041092160410920A
:1004E00099001092980010929B0010929A0002C0FE
:1004F00010926305812F8F5F80934C03883108F43D
:1005000074C010924C0381E08093E9036EC0809127
:10051000040490910504480F591F56954795509330
:1005200005044093040461C080910902882309F402
:100530005CC063995AC0649958C08F5F8093090268
:10054000853008F452C08091160490911704892BCD
:1005500051F08091100490911104840F951F909395
:10056000110480931004809109028830F1F51092F3
:10057000090281E08093080238C0809102049091C2
:100580000304480F591F5695479550930304409311
:1005900002042BC090910A02992339F18091000145
:1005A00083FD23C08091000184FD1FC0892F8F5FD0
:1005B00080930A028530C8F0809118049091190444
:1005C000892B51F080910E0490910F04840F951F98
:1005D00090930F0480930E0480910A02883029F4CE
:1005E00010920A0281E08093070220916605223072
:1005F00009F0EDC08091B605813049F0813008F4F2
:10060000E0C0833079F1843009F034C36EC080914A
:100610006005882321F480910501807F05C0813029
:1006200011F0823021F48FEF8093050112B8809190
:100630004D0380934B03809150038093E50385E045
:100640008093E2038093670582E08093B6058091F2
:10065000C605882321F481E08093C6050BC3109260
:10066000C60508C38091C4058F5F8093C40590E0E0
:100670002091C0053091C10582179307F9F41092BB
:10068000C4058091BF05882361F481E08093BF0594
:100690008091C605882311F48AEA01C085E582B9F4
:1006A00003C01092BF0512B88091C3058F5F80937D
:1006B000C3059091C205891709F443C080914E0388
:1006C00080934B0380914F038093E4038091E50373
:1006D000882311F483E005C0813011F484E001C067
:1006E00085E08093E20384E036C28091C4058F5F89
:1006F0008093C40590E02091C0053091C105821718
:10070000930709F047C01092C4058091BF05882364
:1007100061F481E08093BF058091C605882311F4C0
:100720008AEA01C085E582B903C01092BF0512B8FC
:100730008091C3058F5F8093C3059091C20589178F
:1007400049F58091BE058F5F8093BE058C30D9F44A
:1007500081E0809367051092B8051092E303109230
:1007600066050E946C2112B80E948F1FAA2797FD70
:10077000A095BA2F8093B9059093BA05A093BB05B5
:10078000B093BC0503C082E08093670582E080934C
:10079000B60570C180914D0380934B038091500347
:1007A0008093E5038091E403882311F481E005C080
:1007B000813011F482E001C085E08093E20383E0A0
:1007C000CAC18091B805813009F054C2C4C121303A
:1007D00009F054C190919305963009F462C09730A6
:1007E00098F49230D9F1933030F4992319F1913083
:1007F00009F040C229C0943009F442C080914C03F2
:10080000953008F047C034C0993009F477C09A3069
:1008100038F4973009F44EC0983009F02BC257C015
:100820009B3009F414C19B3008F480C09C3009F05F
:1008300021C220C110924C0320934B0386E0809389
:10084000E2032093930516C280914C038F5F80933F
:100850004B0386E08093E20382E0F6C080914C0374
:100860008F5F80934B0386E08093E20383E0ECC0CC
:100870008F5F80934B0386E08093E20384E0E4C0C3
:1008800080914C038F5F80934B0386E08093E2035B
:1008900085E0DAC08F5F80934B0386E08093E203AC
:1008A000D3C080914C038F5F80934B039093E203FE
:1008B00087E0CAC080914D0380934B038091500321
:1008C0008093E50386E08093E20388E0BDC08091D9
:1008D0004E0380934B0380914F038093E4038091F8
:1008E000E503882311F483E005C0813011F484E02E
:1008F00001C085E08093E20389E0A6C080914D03AA
:1009000080934B03809150038093E5038091E4032F
:10091000882319F42093E20307C0813011F482E0A8
:1009200001C085E08093E2038AE08EC080914E038F
:1009300080934B0380914F038093E4038091E50300
:10094000882311F483E005C0813011F484E001C0F4
:1009500085E08093E2038091AD058E3F18F48F5FB0
:100960008093AD05809194058F5F8093940580916D
:100970006705843059F4109294059091AD058091EB
:100980009E05981718F085E080936705809194057F
:10099000843109F058C0109294052091D908309103
:1009A000DA088091F5089091F6089093DA08809320
:1009B000D9083093F6082093F5084091DC05209182
:1009C000DD0580912E0B90912F0B9093DD05809388
:1009D000DC0540932E0B20932F0B2091C8053091FE
:1009E000C90530936D0B20936C0B80915306909149
:1009F00054069093C9058093C805309354062093FC
:100A00005306E42FF0912F0B80E1DF011D928A95B0
:100A1000E9F780915306909154066FEF70E040E142
:100A200050E00E94D62F80916705813029F482E042
:100A3000809367051092AD0580916705853019F4A4
:100A400086E0809367058BE08093930513C1109235
:100A50004B038091E403882319F42093E20307C039
:100A6000813011F482E001C085E08093E2031092AE
:100A7000930500C185E08093E203FCC0222309F0C6
:100A8000F9C09091E303923009F46BC0933030F4D5
:100A9000992359F0913009F0EDC01BC0933009F44F
:100AA00077C0943009F0E6C08CC080914C038695E5
:100AB00080934B038091E403882311F481E005C007
:100AC000813011F482E001C085E08093E20381E08F
:100AD00075C080914D0380934B03809150038093A8
:100AE000E5031092E20382E08093E3031091640532
:100AF000113009F580914C038731E9F410924B03D2
:100B00001092E8031092930510929405E0912E0B39
:100B1000F0912F0B80E1DF011D928A95E9F780911A
:100B20005306909154066FEF70E040E150E00E9450
:100B3000D62F1093660590916405923009F09AC003
:100B400080914C03873109F095C0909366058091A0
:100B5000B805813019F48093B6058CC010926605F3
:100B600089C080914E0380934B0380914F03809303
:100B7000E4038091E503882311F483E005C081300C
:100B800011F484E001C085E08093E20383E016C0A5
:100B900080914D0380934B03809150038093E50334
:100BA0008091E403882311F481E005C0813011F4C1
:100BB00082E001C085E08093E20384E08093E30358
:100BC00059C080914E0380934B0380914F038093D3
:100BD000E4038091E503882311F483E006C08130AB
:100BE00019F49093E20303C085E08093E20310922E
:100BF000E30320914C032E3041F48091E8038130CF
:100C000021F482E08093E803469A422F50E020FFCF
:100C100031C0203150F4269581E090E002C0880F69
:100C2000991F2A95E2F782B925C080916005882333
:100C300061F4405150405595479581E090E002C0E5
:100C4000880F991F4A95E2F713C0813011F0823066
:100C500089F420910501405150405595479581E018
:100C600090E002C0880F991F4A95E2F78095822391
:100C70008093050180914B03883048F480917B007C
:100C8000877F80937B0080914B03805C08C08091BC
:100C90007B00886080937B0080914B03885C80930D
:100CA0007C008091E3038230A1F480916605882363
:100CB00081F480916005882321F480910501807F73
:100CC00005C0813011F0823021F48FEF809305014F
:100CD00012B8FF91EF91BF91AF919F918F917F914A
:100CE0006F915F914F913F912F911F910F900BBE8C
:100CF0000F900FBE0F901F901895809192039091C6
:100D00009303845A9140B4F0809194039091950399
:100D1000845A91407CF08091960390919703845A75
:100D2000914044F020E08091980390919903845A77
:100D300091400CF421E0822F089581E080936105B9
:100D4000089510926105089581E0809362050895E9
:100D50001092620508952F923F924F925F926F9288
:100D60007F928F929F92AF92BF92CF92DF92EF923B
:100D7000FF920F931F93DF93CF93CDB7DEB72A97E0
:100D80000FB6F894DEBF0FBECDBF98878F837A87EA
:100D90006987DC010D90BC91A02DBC83AB83FB0166
:100DA0000190F081E02DFA83E983EAEEF3E080819F
:100DB0009181059714F411821082329623E0EA3F64
:100DC000F207A9F7A090EA03B090EB03B094A194C6
:100DD000B108B39452EF652E5FEF752E6E0E7F1E35
:100DE000D3018D909C9095948794A0EFB3E0CD9023
:100DF000DC90D594C7942091F2033091F3033E83A5
:100E00002D832AEF222E2FEF322E2E0E3F1ED101E0
:100E1000ED90FC90F594E794129102912F011595B5
:100E200007950E94C62F2D813E812E5130402A0DFC
:100E30003B1D2C0D3D1D2E0D3F1D201B310B281978
:100E400039096CE370E00E94E42E280F391F3E83BD
:100E50002D83D3016D907C9075946794C090EE03C0
:100E6000D090EF03D594C794D594C794E0EFF3E006
:100E7000A080B180B594A794D1018D909C90959459
:100E800087940091F6031091F70315950795159532
:100E90000795F201E080F180F594E7940E94C62F57
:100EA000C60CD71C22EE3FEFC20ED31ECA0CDB1CB1
:100EB000C01AD10AC818D908CE18DF086CE370E050
:100EC0000E94E42EC80ED91E8D819E819C0144276C
:100ED00037FD4095542FB601882777FD8095982FD0
:100EE000AB81BC81B7FD1BC07D010027F7FC0095DD
:100EF000102F261B370B480B590BCA01B901A8014B
:100F000097010E94B12E57E0959587957795679543
:100F10005A95D1F7E60EF71E081F191F1AC0A981AE
:100F2000BA817D010027F7FC0095102F620F731F17
:100F3000841F951FA80197010E94B12E47E0959547
:100F40008795779567954A95D1F7E61AF70A080BC2
:100F5000190BEF81F885F182E0828D819E819C01E1
:100F6000442737FD4095542FB601882777FD80959B
:100F7000982FA981BA81B7FD19C07D010027F7FC20
:100F80000095102F620F731F841F951FA8019701F2
:100F90000E94B12E37E095958795779567953A959C
:100FA000D1F7E60EF71E081F191F1CC0AB81BC81CC
:100FB0007D010027F7FC0095102F261B370B480BEF
:100FC000590BCA01B901A80197010E94B12E27E06F
:100FD00095958795779567952A95D1F7E61AF70A3B
:100FE000080B190BE985FA85F182E082A985BA859B
:100FF0008D919C918150924034F080E092E0E9859F
:10100000FA8591838083AF81B8858D919C918150C1
:10101000924034F080E092E0EF81F8859183808304
:10102000A985BA858D919C9180509E4F34F480E0C3
:101030009EEFE985FA8591838083AF81B8858D9194
:101040009C9180509E4F34F480E09EEFEF81F885B4
:10105000918380832A960FB6F894DEBF0FBECDBF72
:10106000CF91DF911F910F91FF90EF90DF90CF9084
:10107000BF90AF909F908F907F906F905F904F90B8
:101080003F902F90089580919400909195000E9438
:10109000CB2F0895CF93DF93E8E6F0E01082ACE623
:1010A000B0E01C9220EB30E0E90118821092B10010
:1010B000109270008081826080838C9180688C9314
:1010C000888182608883DF91CF9108951F920F926B
:1010D0000FB60F9211248F9380911102882321F172
:1010E0008091030186FD20C0809168008D7F8093F0
:1010F000680080916C008F7780936C0081E0809312
:1011000012028DE08093B3008091B10086608093DD
:10111000B10080917000826080937000109248034B
:101120001092490310924A038F910F900FBE0F90B7
:101130001F9018951F920F920FB60F9211242F93A4
:101140003F934F935F938F939F938091B100887FDC
:101150008093B100809112028823C9F0809103012D
:1011600086FF11C080916800826080936800809142
:101170006C00806880936C008FEF9FEF9093020269
:1011800080930102C8C01092120283E33FC04091D5
:101190000102509102022FEF4F3F520739F5809123
:1011A000030186FF0BC08091680082608093680015
:1011B00080916C00806880936C00ADC08CE180935E
:1011C000B3008091B10086608093B100809170007F
:1011D000826080937000109248031092490310922D
:1011E0004A03109202021092010295C0413051054B
:1011F000D1F48091030190E08074907026E0959581
:1012000087952A95E1F780934A0386E38093B3009C
:101210008091B10086608093B100809170008260FF
:101220008093700078C0CA010297059730F586E375
:101230008093B3008091B10086608093B10080916B
:1012400070008260809370002091030130E0207470
:10125000307096E0369527959A95E1F786E090E014
:10126000841B950B02C0220F331F8A95E2F78091F1
:101270004903820F809349034EC0CA01079706971E
:1012800030F586E38093B3008091B100866080934F
:10129000B100809170008260809370002091030102
:1012A00030E02074307086E0369527958A95E1F716
:1012B0008CE090E0841B950B02C0220F331F8A95AF
:1012C000E2F780914803820F8093480324C04D3099
:1012D000510509F51092700080916800826080933A
:1012E000680080916C00806880936C008FEF9FEFA6
:1012F000909302028093010280914A03809300023E
:10130000809149038093460380914803809347036B
:1013100081E080933A0580910102909102022FEFC3
:101320008F3F920729F00196909302028093010269
:101330009F918F915F914F913F912F910F900FBE91
:101340000F901F9018958091000208958091460398
:10135000089580914703089580911102882309F42C
:10136000AEC180913A05882309F4A9C18091470351
:101370008093390510923A05E82FF0E0E533F10546
:1013800008F067C1EE58FF4FEE0FFF1F0590F49174
:10139000E02D199410921B0410921A0410921D044F
:1013A00010921C0456C120911A0430911B048091A4
:1013B0001C0490911D04821793072CF430931D0494
:1013C00020931C0404C090931B0480931A04809102
:1013D0001A0490911B044E9690931B0480931A0458
:1013E00020911C0430911D04225E3F4F30931D0458
:1013F00020931C04815092400CF45EC080E092E087
:1014000057C020911A0430911B04809118049091C8
:101410001904281739072CF430931D0420931C0459
:1014200008C080911C0490911D0490931B0480932C
:101430001A0480911A0490911B044E9790931B04F8
:1014400080931A0420911C0430911D042E513040C9
:1014500030931D0420931C0480509E4F34F480E090
:101460009EEF90931B0480931A0420503E4F0CF083
:10147000F0C080E09EEF90931D0480931C04E9C0AF
:1014800080911A0490911B044E9790931B048093B3
:101490001A0420911C0430911D04225E3F4F3093AA
:1014A0001D0420931C0480509E4F34F480E09EEF76
:1014B00090931B0480931A04215032400CF4C9C04D
:1014C00027C080911A0490911B044E9690931B04A0
:1014D00080931A0420911C0430911D042E51304039
:1014E00030931D0420931C04815092400CF4BDCF16
:1014F00080E092E0B6CF80911C0490911D044E963E
:1015000090931D0480931C04815092400CF4A1C060
:1015100080E092E0B0CF80911A0490911B044E9627
:1015200090931B0480931A04815092400CF491C054
:1015300080E092E01DC080911C0490911D044E97A4
:1015400090931D0480931C0480509E4F0CF081C02A
:1015500090CF80911A0490911B044E9790931B0496
:1015600080931A0480509E4F0CF073C080E09EEF71
:1015700090931B0480931A046CC080913B0590E00B
:10158000019665E070E00E94E42E80933B0588237D
:1015900031F4449A459A10920E028FEF20C08130A8
:1015A00031F48FEF80930E0210920D021AC0823038
:1015B00041F4449845988FEF80930E0280930D027A
:1015C00006C0833039F410920E0210920D02109270
:1015D0000C0209C0843039F48FEF80930E0280939F
:1015E0000D0280930C0280910C020E949D0B809151
:1015F0000D020E94B30B80910E020E94C90B29C0FC
:1016000081E08093610525C01092610522C0809120
:101610003C0590E001968370907080933C0581308A
:1016200061F0813028F0823059F0833091F40CC0A1
:1016300010926105109262050CC080936105FACF8B
:101640001092610581E003C081E080936105809381
:10165000620520911A0430911B0437FD09C03595AD
:1016600027953595279530932D0420932C040CC095
:1016700088279927821B930B959587959595879534
:1016800090932D0480932C0420911C0430911D0410
:1016900037FD09C0359527953595279530932B044F
:1016A00020932A04089588279927821B930B9595E8
:1016B00087959595879590932B0480932A04089598
:1016C000E0E8F0E01082A1E8B0E01C928081896A35
:1016D00080838C9189608C9380910C0290E0909330
:1016E00089008093880080910D0290E090938B0098
:1016F00080938A0080910E0290E090938D008093F9
:101700008C00089581E090913204891B809332040B
:10171000882361F0809180008860809380008FEF43
:1017200090E090938D0080938C00089580918000CC
:10173000877F809380002F980895982F882339F40D
:10174000809180008F77809380002D9808958091FC
:101750008000806880938000892F90E090938900BA
:10176000809388000895982F882339F48091800011
:101770008F7D809380002E980895809180008062F4
:1017800080938000892F90E090938B0080938A0053
:101790000895982F882339F480918000877F809363
:1017A00080002F9808958091800088608093800049
:1017B000892F90E090938D0080938C000895833062
:1017C00079F1843028F48130B9F08230F8F40AC01D
:1017D0008530B9F1853058F18630E9F1873009F06C
:1017E00055C043C0662321F080910B018E7F42C01B
:1017F00080910B0181603EC0662321F080910B0136
:101800008D7F38C080910B01826034C0662321F047
:1018100080910B018B7F2EC080910B0184602AC0C8
:10182000662311F0A39801C0A39A84B30895662398
:1018300021F080910B018F7E1DC080910B01806192
:1018400019C0662321F080910B018F7D13C0809118
:101850000B0180620FC0662321F080910B018F7B0A
:1018600009C080910B01806405C0662341F080911E
:101870000B018F7780930B0180910B01089580916C
:101880000B01806880930B0180910B010895EBE0C0
:10189000F1E08081816080838081826080838081AB
:1018A00084608083A39A808180618083808180624C
:1018B00080838081806480838081806880830895B4
:1018C000EBE0F1E080818E7F808380818D7F80835B
:1018D00080818B7F8083A39880818F7E80838081AD
:1018E0008F7D808380818F7B808380818F778083D1
:1018F0000895289881EE0E94361E289A0895FF9236
:101900000F931F93CF93DF93182F092FF62E0E946A
:10191000790C289888EA0E94361E212F302FC901A1
:10192000EC0110E004C089910E94361E1F5F1F1554
:10193000D0F3289ADF91CF911F910F91FF900895D6
:101940001F93162F28988F7180620E94361E812F58
:101950000E94361E289A1F910895289882EE0E94B0
:10196000361E289A08958091C705882311F080E0DB
:10197000089528988FEF0E94361E289A8074089543
:101980001F93CF93DF93EC01162F8091C705882317
:10199000E1F72C9881E08093C70580E06AE40E941B
:1019A000A00C289881EE0E94361E289A289880EA7A
:1019B0000E94361ECE01612F0E941E1E289A2C9A6C
:1019C000DF91CF911F910895FF920F931F938B0189
:1019D000F42E28988F7180620E94361EC8016F2DE8
:1019E0000E941E1E289A1F910F91FF900895BC011E
:1019F00080E145E00E94E40C0895BC012C988AE047
:101A000045E00E94E40C2C9A08950F931F93DF93F6
:101A1000CF9300D0CDB7DEB780E06DE00E94A00C80
:101A200083E061E00E94A00C80912E0490912F042D
:101A300099838A831B8280E18E010F5F1F4FB8015B
:101A400043E00E94E40C8AE0B80143E00E94E40C09
:101A500081E061E00E94A00C82E061E00E94A00CA5
:101A600084E062E10E94A00C85E068E20E94A00C84
:101A700081E16DE00E94A00C289880E50E94361E4E
:101A800083E70E94361E289A8CE161E00E94A00C38
:101A90008DE166E00E94A00C80E06FE00E94A00C47
:101AA0000F900F900F90CF91DF911F910F9108959C
:101AB0002C9A289A0E94050D0895FF920F931F9368
:101AC0008B01F42E28988F710E94361EC801B80130
:101AD0004F2D0E94F71D289A1F910F91FF90089596
:101AE000DF93CF930F92CDB7DEB7198287E1BE01A6
:101AF0006F5F7F4F41E00E945D0D898181700F9083
:101B0000CF91DF9108950F931F938C01289881E660
:101B10000E94361EC801B8014DE00E94F71D289AA8
:101B200087E060E40E94A00C1F910F9108950F932D
:101B30001F930E94B30C882309F453C3809130048F
:101B400082608093300487E060E70E94A00C85E803
:101B500099E00E94830D0E94AD0C80918509882335
:101B6000B9F480918609882399F4809187098823A4
:101B700079F480918809883059F480918909882303
:101B800039F480918A09882319F48CE30E94F61FA6
:101B900020918909822F90E08F77907090932D0487
:101BA00080932C04E0918A094E2F50E04F775070BB
:101BB00050932B0440932A04BC01660F771F660FD5
:101BC000771F27FF05C070931B0460931A0408C099
:101BD00088279927861B970B90931B0480931A04E0
:101BE0009A01220F331F220F331FE7FF05C03093E6
:101BF0001D0420931C0408C088279927821B930B7F
:101C000090931D0480931C0480911A0490911B04EE
:101C10008150924034F080E092E090931B048093D6
:101C20001A0480911C0490911D048150924034F05C
:101C300080E092E090931D0480931C0480911A042C
:101C400090911B0480509E4F34F480E09EEF90935F
:101C50001B0480931A0480911C0490911D048050F1
:101C60009E4F34F480E09EEF90931D0480931C04FB
:101C70008091850990E090936E0980936D09209181
:101C8000860930E03093700920936F09E09187094D
:101C9000F0E0F0937209E09371090FEF10E0AC01EE
:101CA000409FC001419F900D509F900D112464E60C
:101CB00070E00E94D02E462F409540930C02209F4A
:101CC000C001219F900D309F900D112464E670E0BB
:101CD0000E94D02E609560930E02E09FC001E19FAC
:101CE000900DF09F900D112464E670E00E94D02EBC
:101CF000609560930D02842F0E949D0B80910D02D0
:101D00000E94B30B80910E020E94C90B809188093A
:101D1000982F80FF02C0449801C0449A91FF02C0EE
:101D2000459801C0459A92FF04C081E0809311025A
:101D300002C01092110294FF02C00E94FB18909101
:101D4000880996FF04C081E08093610502C010926B
:101D5000610597FF04C081E08093620502C0109284
:101D6000620580918B0980FF04C080910B018E7FFA
:101D700003C080910B01816080930B0180918B09DE
:101D800081FF04C080910B018D7F03C080910B0106
:101D9000826080930B0180918B0982FF04C0809147
:101DA0000B018B7F03C080910B01846080930B013A
:101DB00080918B0983FF02C0A39801C0A39A8091F0
:101DC0008B0984FF04C080910B018F7E03C080913A
:101DD0000B01806180930B0180918B0985FF04C00A
:101DE00080910B018F7D03C080910B0180628093F5
:101DF0000B0180918B0986FF04C080910B018F7BC2
:101E000003C080910B01806480930B0180918B094A
:101E100087FF04C080910B018F7703C080910B0175
:101E2000806880930B0180910B0280934D0985306F
:101E300009F4D2C0863030F4833059F0843009F090
:101E4000CBC177C0863009F421C1873009F0C4C105
:101E500070C1809182039091830380934E09892FF2
:101E6000990F990B80934F0980918403909185037A
:101E700080935009892F990F990B80935109809174
:101E800086039091870380935209892F990F990BAC
:101E9000809353098091880390918903809354091A
:101EA000892F990F990B8093550980918C039091FC
:101EB0008D0380935609892F990F990B80935709A9
:101EC00080918E0390918F0380935809892F990FE9
:101ED000990B80935909809190039091910380937D
:101EE0005A09892F990F990B80935B09209103015F
:101EF000809103014091030190E08072907075E041
:101F0000959587957A95E1F7880F991F441F442787
:101F1000441F440F440F482B30E02071307054E0D0
:101F2000359527955A95E1F7422B40935C0984E05B
:101F300051C180918A0390918B0380934E09892F20
:101F4000990F990B80934F0980919203909193037D
:101F500080935009892F990F990B80935109809193
:101F600094039091950380935209892F990F990BAF
:101F7000809353098091960390919703809354091D
:101F8000892F990F990B809355098091980390910F
:101F9000990380935609892F990F990B80935709BC
:101FA00080913E0590913F0580935809892F990FA4
:101FB000990B809359098091400590914105809338
:101FC0005A09892F990F990B80935B0980913905E4
:101FD00080935C0985E0FEC080915103909152038B
:101FE00080934E09809151039091520390934F0931
:101FF0008091550390915603809350098091550329
:1020000090915603909351098091590390915A03EE
:10201000809352098091590390915A0390935309E8
:1020200080915D0390915E038093540980915D03DC
:1020300090915E039093550980916503909166039A
:102040008093560980916503909166039093570998
:102050008091690390916A03809358098091690384
:1020600090916A039093590980916D0390916E034A
:1020700080935A0980916D0390916E0390935B0950
:1020800080915D0580935C0986E0A4C08091610326
:102090009091620380934E09809161039091620355
:1020A00090934F098091710390917203809350092E
:1020B00080917103909172039093510980917503FF
:1020C00090917603809352098091750390917603E5
:1020D000909353098091790390917A0380935409E6
:1020E0008091790390917A039093550980917D03B3
:1020F00090917E038093560980917D0390917E0399
:102100009093570980914205909143058093580917
:10211000892F990F990B809359098091E60390912B
:10212000E70380935A0990935B0910925C0987E05A
:1021300051C08091FE039091FF03A0910004B091E3
:10214000010480934E09292F3A2F4B2F552747FD25
:102150005A9520934F099D01552737FD5095452FDE
:10216000209350098B2FBB2787FDB0959B2FAB2F5A
:10217000809351098091FA039091FB03A091FC0395
:10218000B091FD0380935209292F3A2F4B2F5527E9
:1021900047FD5A95209353099D01552737FD5095CA
:1021A000452F209354098B2FBB2787FDB0959B2F7C
:1021B000AB2F80935509109256091092570910922F
:1021C00058091092590910925A0910925B091092FD
:1021D0005C0983E080930B028DE499E060E10E944A
:1021E0007F0C1F910F9108950F931F93CF93DF934F
:1021F000E0E9F0E01082A1E9B0E01C9221E730E0D4
:10220000E901188240EA50E0EA01188261EA70E0D0
:10221000EB01188202E710E0E801188280818368F0
:1022200080838081836080838C918B608C9380918C
:10223000160490911704909399008093980010923F
:102240009B0010929A00D9018C9181608C938081BF
:102250008F7580838EB1877E8EB9EA01888183680D
:102260008883FB0180818B6080838091180490912A
:1022700019049093A9008093A8001092AB001092CB
:10228000AA00D8018C9181608C9388818F75888396
:10229000E2E0F1E08081877E8083DF91CF911F9122
:1022A0000F910895482F992787FD909597FF03C0B8
:1022B000909581959F4F90932B0480932A049C01C5
:1022C000220F331F220F331F47FD05C030931D041B
:1022D00020931C0408C088279927821B930B909396
:1022E0001D0480931C0480911C0490911D04815056
:1022F000924034F080E092E090931D0480931C049F
:1023000080911C0490911D0480509E4F34F480E015
:102310009EEF90931D0480931C040895482F9927E5
:1023200087FD909597FF03C0909581959F4F90935F
:102330002D0480932C049C01220F331F220F331F86
:1023400047FD05C030931B0420931A0408C088275A
:102350009927821B930B90931B0480931A048091FE
:102360001A0490911B048150924034F080E092E076
:1023700090931B0480931A0480911A0490911B047B
:1023800080509E4F34F480E09EEF90931B04809326
:102390001A0408951F920F920FB60F9211248F9373
:1023A0009F9380916305882361F010921904109225
:1023B00018041092A9001092A8001092AB0010927D
:1023C000AA001092030410920204809118049091C4
:1023D0001904009739F580910C0490910D0497FD34
:1023E00005C081E0809350038EE004C081E08093BB
:1023F00050038FE080934D0381E080930A02809127
:10240000A0008F758093A00080910201877E809349
:10241000020180917200897F8093720089B3866087
:1024200089BB3EC018161906ECF4109250038FE0D9
:1024300080934D038091A0008F7D8093A0008091B8
:1024400072008B7F80937200809102018F7E809357
:1024500002018091A00080688093A00080917200AA
:1024600082601CC0109250038EE080934D038091D7
:10247000A0008F778093A000809172008D7F809361
:10248000720080910201877F809302018091A000F9
:1024900080628093A00080917200846080937200BB
:1024A0009F918F910F900FBE0F901F9018951F92C4
:1024B0000F920FB60F9211248F939F9391E09093F8
:1024C00050038EE080934D0390930A029F918F9169
:1024D0000F900FBE0F901F9018951F920F920FB67E
:1024E0000F9211248F939F9391E0909350038FE06C
:1024F00080934D0390930A029F918F910F900FBE8E
:102500000F901F9018951F920F920FB60F921124E3
:102510008F939F9380916305882361F01092170435
:1025200010921604109299001092980010929B003D
:1025300010929A00109205041092040480911604DF
:1025400090911704009729F580910A0490910B044B
:1025500097FD05C081E080934F038CE004C081E0CB
:1025600080934F038DE080934E0381E080930902B6
:10257000809190008F75809390008EB1877E8EB988
:1025800080917100897F8093710088B3866088BBD9
:1025900036C018161906CCF410924F038DE08093C4
:1025A0004E03809190008F7D809390008091710008
:1025B0008B7F8093710074988091900080688093E5
:1025C000900080917100826018C010924F038CE0DF
:1025D00080934E03809190008F778093900080913C
:1025E00071008D7F8093710073988091900080625C
:1025F00080939000809171008460809371009F911E
:102600008F910F900FBE0F901F9018951F920F92F1
:102610000FB60F9211248F939F9391E090934F03E5
:102620008CE080934E03909309029F918F910F90BD
:102630000FBE0F901F9018951F920F920FB60F921A
:1026400011248F939F9391E090934F038DE080939B
:102650004E03909309029F918F910F900FBE0F90A0
:102660001F90189580910702882309F441C080913A
:102670000E0490910F049695879596958795909363
:102680001304809312041092070210920F04109208
:102690000E0420911C0430911D04FC0163E0F595AB
:1026A000E7956A95E1F74091FE035091FF03609131
:1026B00000047091010437FD0AC0CF01AA2797FDDD
:1026C000A095BA2F480F591F6A1F7B1F09C0CF0161
:1026D000AA2797FDA095BA2F481B590B6A0B7B0BB5
:1026E0004093FE035093FF03609300047093010432
:1026F00080910802882309F441C0809110049091D0
:1027000011049695879596958795909315048093D7
:1027100014041092080210921104109210042091D7
:102720001A0430911B04FC0143E0F595E7954A95A6
:10273000E1F74091FA035091FB036091FC03709123
:10274000FD0337FD0AC0CF01AA2797FDA095BA2F38
:10275000480F591F6A1F7B1F09C0CF01AA2797FD89
:10276000A095BA2F481B590B6A0B7B0B4093FA03B9
:102770005093FB036093FC037093FD0380911A0454
:1027800090911B04909327048093260480911C044D
:1027900090911D04909329048093280480916105F1
:1027A000882331F088E294E066E274E00E94AB0690
:1027B000409128045091290450930D0440930C0437
:1027C000209126043091270430930B0420930A04AF
:1027D000509319044093180430931704209316045F
:1027E000121613062CF4309399002093980014C00D
:1027F0002115310549F088279927821B930B909367
:102800009B0080939A0008C0109299001092980043
:1028100010929B0010929A00141615062CF45093F7
:10282000A9004093A80008954115510549F0882753
:102830009927841B950B9093AB008093AA00089571
:102840001092A9001092A8001092AB001092AA005A
:10285000089580911C0490911D0490932904809305
:10286000280480911A0490911B049093270480936C
:10287000260480916105882331F088E294E066E2C5
:1028800074E00E94AB06E0912804F0912904F093D3
:102890000D04E0930C0480912604909127049093FA
:1028A0000B0480930A0480910702882309F46EC008
:1028B00080910E0490910F04969587959695879533
:1028C00090931304809312041092070210920F0445
:1028D00010920E04BC0183E0759567958A95E1F727
:1028E0002091FE033091FF034091000450910104B8
:1028F000F7FD0AC0CB01AA2797FDA095BA2F280F94
:10290000391F4A1F5B1F09C0CB01AA2797FDA0955D
:10291000BA2F281B390B4A0B5B0B2093FE03309315
:10292000FF0340930004509301048091160281300C
:1029300029F488E294E00E94061D04C088E294E035
:102940000E94FE1920912804309129043093190423
:1029500020931804121613062CF43093A900209328
:10296000A80014C02115310549F088279927821B3A
:10297000930B9093AB008093AA0008C01092A9001B
:102980001092A8001092AB001092AA008091080249
:10299000882309F472C080911004909111049695D7
:1029A00087959695879590931504809314041092BB
:1029B0000802109211041092100420910A04309120
:1029C0000B04FC01A3E0F595E795AA95E1F740918A
:1029D000FA035091FB036091FC037091FD0337FDF6
:1029E0000AC0CF01AA2797FDA095BA2F480F591FFB
:1029F0006A1F7B1F09C0CF01AA2797FDA095BA2F98
:102A0000481B590B6A0B7B0B4093FA035093FB0353
:102A10006093FC037093FD0380911602813029F4CA
:102A200086E294E00E94341C04C086E294E00E9496
:102A3000191B20912604309127043093170420930A
:102A40001604121613062CF4309399002093980064
:102A500008952115310549F088279927821B930B8A
:102A600090939B0080939A00089510929900109281
:102A7000980010929B0010929A00089585B780618B
:102A800085BF9FEF91B912B887EF84B980EE85B901
:102A900080EF87B980EB88B98CEF8AB983E08BB976
:102AA0009DB91EB810BA93BB90916005992311F09F
:102AB000913011F414BA04C0923011F488E084BB50
:102AC0008FEF80930101109202018FE08093040147
:102AD000992329F4809105011092050106C09130D7
:102AE00011F0923011F480930501109207018FEFDD
:102AF00080930A01992311F0913019F410920B017F
:102B00000895923019F487EF80930B010895EF92A6
:102B1000FF920F931F93809142059091430597FF79
:102B200003C0909581959F4F409720F481E080935A
:102B3000150202C0109215028091140290911502A4
:102B4000891761F4809152058F5F8093520585301B
:102B500038F0109252059093160202C0109252055E
:102B60009093140260913E0570913F05882777FD90
:102B70008095982F0E94632C7B018C016091400509
:102B800070914105882777FD8095982F0E94632CCE
:102B90009B01AC01C801B7010E94EC2F21EE3EE27F
:102BA00045E652E40E94692B0E94C12CCB01709330
:102BB00051056093500577FF06C088599E4F90934A
:102BC0005105809350051F910F91FF90EF9008954C
:102BD00080913D05882309F070C00E94B31E809348
:102BE00055050E94B31E809356050E94B31E809324
:102BF00057050E94BD1E809358050E94991E809122
:102C00006E0B409156057091550550915805609195
:102C10005705882319F180915405992787FD9095D0
:102C2000982F882720915305332727FD3095822B35
:102C3000932B90933F0580933E05842F992787FD22
:102C40009095982F8827272F332727FD3095822BA3
:102C5000932B90934105809340056DC020915405BE
:102C6000332727FD3095322F22278091530599274E
:102C700087FD9095282B392B80914405909145052F
:102C8000281B390B30933F0520933E05842F99274D
:102C900087FD9095982F8827272F332727FD30957C
:102CA000822B932B2091460530914705821B930B75
:102CB00090934105809340057AC0813009F08EC021
:102CC0000E94B31E809356050E94B31E8093570541
:102CD0000E94BD1E809358050E94991E80916E0B24
:102CE000409156055091580560915705882381F110
:102CF00080915405992787FD9095982F88272091DA
:102D00005305332727FD3095822B932B90933F0556
:102D100080933E05242F332727FD3095322F22271D
:102D200080915505992787FD9095282B392B309355
:102D3000410520934005852F992787FD9095982F71
:102D40008827262F332727FD3095822B932B41C0D0
:102D500020915405332727FD3095322F222780916B
:102D60005305992787FD9095282B392B8091440591
:102D700090914505281B390B30933F0520933E0564
:102D8000242F332727FD3095322F22278091550598
:102D9000992787FD9095282B392B80914605909196
:102DA0004705281B390B3093410520934005852F9B
:102DB000992787FD9095982F8827262F332727FD61
:102DC0003095822B932B2091480530914905821B29
:102DD000930B9093430580934205089510923F050D
:102DE00010923E0510924105109240051092430545
:102DF000109242050895809113020E94481E882374
:102E0000E1F48DE20E94A11E88E00E94A11E0E94B2
:102E1000991E809113020E94481E882371F481E359
:102E20000E94A11E80E00E94A11E0E94991E809116
:102E300013020E94481E882321F00E94991E81E0FF
:102E400008958CE20E94A11E89E00E94A11E0E94AA
:102E5000991E80E00895809113020E94481E8823E5
:102E600021F00E94991E81E0089586E10E94A11E32
:102E700085E40E94A11E0E94991E80E00895809121
:102E80003D058823A9F4809113020E94481E80E02A
:102E90000E94A11E809113028F5F0E94961E0E94C5
:102EA000B31E809353050E94B31E8093540508956A
:102EB0008130C9F4809113020E94481E82E30E946F
:102EC000A11E809113028F5F0E94961E0E94B31E66
:102ED000809353050E94B31E809354050E94B31E35
:102EE00080935505089510923F0510923E0510926B
:102EF0004105109240051092430510924205089535
:102F0000EF92FF920F931F93DF93CF9300D000D0E7
:102F1000CDB7DEB780913D05882371F5809113020E
:102F20000E94481E80E00E94A11E809113028F5FC4
:102F30000E94961E8E010F5F1F4F96E0E92EF12C26
:102F4000EC0EFD1E0E94B31EF80181938F01EE1559
:102F5000FF05C1F70E94BD1E182F8E830E94991E87
:102F600080916E0B9A8129814C815B81612F77273B
:102F700067FD7095ED8130C0813009F095C080917A
:102F800013020E94481E82E30E94A11E8091130238
:102F90008F5F0E94961E8E010F5F1F4F86E0E82E06
:102FA000F12CEC0EFD1E0E94B31EF80181938F01DF
:102FB000EE15FF05C1F70E94BD1E182F8E830E94DB
:102FC000991E80916E0B9A8129814C815B81ED81E4
:102FD000612F772767FD7095882341F1892F992705
:102FE00087FD9095982F8827332727FD3095822BD2
:102FF000932B90933F0580933E05842F992787FD5F
:103000009095982F8827252F332727FD3095822BE1
:10301000932B9093410580934005962F88272E2F60
:10302000332727FD3095822B932B39C0892F992781
:1030300087FD9095982F8827332727FD3095822B81
:10304000932B2091440530914505821B930B90935F
:103050003F0580933E05842F992787FD9095982FF3
:103060008827252F332727FD3095822B932B2091FE
:10307000460530914705821B930B90934105809341
:103080004005962F88272E2F332727FD3095822B3A
:10309000932B2091480530914905821B930B909307
:1030A0004305809342050CC010923F0510923E05E7
:1030B000109241051092400510924305109242056E
:1030C00026960FB6F894DEBF0FBECDBFCF91DF912D
:1030D0001F910F91FF90EF900895EF92FF920F9341
:1030E0001F9380913D05882331F4809113020E9443
:1030F000481E80E008C0813009F058C0809113025A
:103100000E94481E82E30E94A11E809113028F5FDD
:103110000E94961E0E94B31EE82E0E94B31E082F26
:103120000E94B31EF82E0E94BD1E182F0E94991EE9
:1031300080916E0B202F332727FD30954E2D55277C
:1031400047FD5095612F772767FD7095EF2DFF277D
:10315000E7FDF095882369F0922F8827842B952B23
:1031600090933F0580933E05962F88278E2B9F2BAB
:1031700018C0922F8827842B952B209144053091DD
:103180004505821B930B90933F0580933E05962F38
:1031900088278E2B9F2B2091460530914705821B57
:1031A000930B909341058093400508C010923F0512
:1031B00010923E0510924105109240051F910F910B
:1031C000FF90EF9008950E94401E0E942B178823C5
:1031D00089F086EA90E090931402809313020E9493
:1031E000FB16882321F082E080933D05089581E05D
:1031F00080933D0508950F931F93CF93DF93109213
:103200000C0210920D0210920E0280E00E949D0BA3
:1032100080910D020E94B30B80910E020E94C90B97
:1032200010925F0510925E0581E080936E0B01E0C5
:1032300010E0C8C00E94801760915E0570915F0524
:10324000613171050CF074C08091E903882309F4A1
:10325000B9C01092E90361157105F9F4E2EBF3E0EE
:10326000AAE9B3E011921192119211921D921D924E
:1032700083E0E23EF807B1F710924B0510924A0541
:1032800010924D0510924C0510924F0510924E056C
:1032900010935F0500935E0595C0E2EBF3E0C2E892
:1032A000D3E029913991442737FD4095542F8081EF
:1032B0009181A281B381820F931FA41FB51F8193B7
:1032C0009193A193B19383E0E23EF80751F7809187
:1032D0004A0590914B0520913E0530913F05820FA4
:1032E000931F90934B0580934A0580914C059091D4
:1032F0004D052091400530914105820F931F909319
:103300004D0580934C0580914E0590914F0520917D
:10331000420530914305820F931F90934F05809390
:103320004E056F5F7F4F70935F0560935E054AC0E7
:10333000E2EBF3E0CAE9D3E081919191A191B191DF
:1033400054E0B695A795979587955A95D1F78993A7
:10335000999383E0E23EF80779F7EAEAF3E08081A7
:103360009181805092408193919383E0E23BF807F2
:10337000B1F780914A0590914B0544E0959587956A
:103380004A95E1F7909345058093440580914C055B
:1033900090914D0534E0959587953A95E1F7909396
:1033A00047058093460580914E0590914F0524E096
:1033B000959587952A95E1F790934905809348055F
:1033C00010926E0B80916E0B882309F033CF8FEF34
:1033D00080930C0280930D0280930E020E949D0B3D
:1033E00080910D020E94B30B80910E020E94C90BC6
:1033F000DF91CF911F910F9108950895DC018D9178
:103400009C911197009769F4109223041092220462
:10341000109200061092FF05109284091092830901
:103420000895409150055091510521E04E305207CA
:103430004CF0181619061CF428E631E018C088E68E
:1034400091E00BC0443B51051CF44A355105B4F0E2
:103450001816190654F484EB90E0841B950B95958F
:1034600087959595879549961CC024EB30E0241BE1
:10347000350B35952795359527950FC09A013595CC
:10348000279535952795181619063CF4275E3F4F6A
:10349000309304022093030208C089E190E0821B6C
:1034A000930B9093040280930302E091FF05F09147
:1034B0000006F0938409E09383098D919C91119704
:1034C000209112043091130497FD03C0821B930BCB
:1034D00002C0820F931F909300068093FF056091B6
:1034E000FF05709100068091220490912304860FBD
:1034F000971F909323048093220426E0813492073F
:103500001CF080E496E005C0805C994F34F480ECB8
:1035100099EF909323048093220480912204909148
:103520002304AC01440F551F480F591FCB01880FCE
:10353000991F9B01220F331F220F331F220F331FAE
:10354000820F931F480F591FE61BF70BEE0FFF1F4B
:103550004E0F5F1F2D913C91119780910302909126
:103560000402BC01269FC001279F900D369F900D3D
:103570001124480F591F509321044093200457FFF2
:103580000FC011968C911197992787FD9095990FEF
:10359000880B982F842395239093210480932004F3
:1035A0008091200490912104181619064CF48D91F5
:1035B0009C91119797FF04C010922104109220044F
:1035C0008091200490912104815C9D4534F080EC31
:1035D0009DE5909321048093200480912004909194
:1035E00021048054924A34F480E492EA90932104B6
:1035F00080932004809120049091210424E09595EB
:1036000087952A95E1F711969C938E93815092406D
:103610002CF080E092E011969C938E938D919C917A
:10362000119780509E4F24F480E09EEF8D939C93E1
:103630000895DC018D919C911197009769F4109287
:103640002504109224041092230B1092220B109246
:103650004C0910924B090895409150055091510525
:1036600021E04E3052074CF0181619061CF428E6DB
:1036700031E018C088E691E00BC0443B51051CF4D2
:103680004A355105B4F01816190654F484EB90E04D
:10369000841B950B959587959595879549961CC0A4
:1036A00024EB30E0241B350B359527953595279570
:1036B0000FC09A0135952795359527951816190647
:1036C0003CF4275E3F4F309306022093050208C06A
:1036D00089E190E0821B930B909306028093050290
:1036E000E091220BF091230BF0934C09E0934B09EE
:1036F0008D919C911197209114043091150497FDA0
:1037000003C0821B930B02C0820F931F9093230B65
:103710008093220B6091220B7091230B80912404E3
:1037200090912504860F971F90932504809324047D
:1037300026E0813492071CF080E496E005C0805CAE
:10374000994F34F480EC99EF9093250480932404EE
:103750008091240490912504AC01440F551F480F1B
:10376000591FCB01880F991F9B01220F331F220F76
:10377000331F220F331F820F931F480F591FE61B61
:10378000F70BEE0FFF1F4E0F5F1F2D913C9111970E
:103790008091050290910602BC01269FC001279FDF
:1037A000900D369F900D1124480F591F50931F0400
:1037B00040931E0457FF0FC011968C9111979927C3
:1037C00087FD9095990F880B982F842395239093CC
:1037D0001F0480931E0480911E0490911F041816EC
:1037E00019064CF48D919C91119797FF04C010928B
:1037F0001F0410921E0480911E0490911F04815C8E
:103800009D4534F080EC9DE590931F0480931E0449
:1038100080911E0490911F048054924A34F480E4F5
:1038200092EA90931F0480931E0480911E0490914D
:103830001F0474E0959587957A95E1F711969C930E
:103840008E93815092402CF080E092E011969C93F0
:103850008E938D919C91119780509E4F24F480E01F
:103860009EEF8D939C930895FC0180819181892B1B
:1038700069F410922504109224041092230B1092E4
:10388000220B10924C0910924B0908956091220B63
:103890007091230B70934C0960934B098081918147
:1038A000409114045091150497FD03C0841B950B9F
:1038B00002C0840F951F9093230B8093220B2091BD
:1038C000220B3091230B8091240490912504820FC8
:1038D000931F909325048093240446E08134940739
:1038E0001CF080E496E005C0805C994F34F480ECD5
:1038F00099EF9093250480932404409124045091DF
:103900002504440F551F89E190E0DC012A9FC00186
:103910002B9F900D3A9F900D1124480F591FCB01FA
:10392000821B930B9C01880F991F820F931F480FD6
:10393000591F80819181B3E0880F991FBA95E1F7F3
:10394000480F591F50931F0440931E0457FF0DC08A
:103950008181992787FD9095990F880B982F842353
:10396000952390931F0480931E0480911E049091D0
:103970001F041816190644F48081918197FF04C032
:1039800010921F0410921E0480911E0490911F0437
:10399000815C9D4534F080EC9DE590931F048093FD
:1039A0001E0480911E0490911F048054924A34F4A6
:1039B00080E492EA90931F0480931E0480911E0479
:1039C00090911F0474E0959587957A95E1F791831E
:1039D00080831816190614F44E9603C0009719F048
:1039E0004E9791838083808191818150924024F011
:1039F00080E092E0918380838081918180509E4F0E
:103A000024F480E09EEF918380830895FC018081FF
:103A10009181892B69F41092230410922204109250
:103A200000061092FF0510928409109283090895F0
:103A30006091FF057091000670938409609383097B
:103A400080819181409112045091130497FD03C02D
:103A5000841B950B02C0840F951F909300068093E2
:103A6000FF052091FF05309100068091220490917E
:103A70002304820F931F909323048093220446E033
:103A8000813494071CF080E496E005C0805C994F77
:103A900034F480EC99EF90932304809322044091B6
:103AA000220450912304440F551F89E190E0DC016A
:103AB0002A9FC0012B9F900D3A9F900D1124480F13
:103AC000591FCB01821B930B9C01880F991F820FFA
:103AD000931F480F591F8081918133E0880F991FF0
:103AE0003A95E1F7480F591F509321044093200461
:103AF00057FF0DC08181992787FD9095990F880BFD
:103B0000982F8423952390932104809320048091FF
:103B10002004909121041816190644F480819181A3
:103B200097FF04C010922104109220048091200479
:103B300090912104815C9D4534F080EC9DE590934B
:103B400021048093200480912004909121048054CA
:103B5000924A34F480E492EA909321048093200402
:103B60008091200490912104B4E095958795BA95B1
:103B7000E1F7918380831816190614F44E9603C05A
:103B8000009719F04E9791838083808191818150B5
:103B9000924024F080E092E0918380838081918143
:103BA00080509E4F24F480E09EEF9183808308959F
:103BB0002091310480E090E0019637E28031930754
:103BC00008F021E00DB407FEF7CF209331040895EB
:103BD00084B1807F84B984B1876084B980E58CBD6D
:103BE0008DB581608DBD08951CBC1DBC0895DF920C
:103BF000EF92FF920F931F93CF93DF937C01D42E0C
:103C00008B01C0E0D0E010C0F701EC0FFD1F8081F8
:103C10008EBD0E94D81D80913104882339F48EB561
:103C2000F80181938F012196CD1570F3DF91CF912B
:103C30001F910F91FF90EF90DF9008950F931F93C6
:103C4000CF93DF93062FEC0110E009C089918EBD60
:103C50000E94D81D80913104882319F41F5F10172A
:103C6000A8F3DF91CF911F910F9108958EBD0E940F
:103C7000D81D8EB508951092B8001092BC0008951A
:103C8000589A599A1092B90081E08093B80008952B
:103C9000982F84EA8093BC008091BC0087FFFCCF02
:103CA0008091B900887F883021F0803111F081E067
:103CB00008959093BB0084E88093BC008091BC0081
:103CC00087FFFCCF9091B900987F983111F480E084
:103CD000089580E0903409F081E00895982F44EA37
:103CE00034E824E94093BC008091BC0087FFFCCFFE
:103CF0008091B900887F883011F0803199F79093D6
:103D0000BB003093BC008091BC0087FFFCCF80914A
:103D1000B900887F803211F0883539F42093BC00D7
:103D20008091BC0084FDFCCFDDCF08950E94481E29
:103D3000089584E98093BC008091BC0084FDFCCF91
:103D400008958093BB0084E88093BC008091BC0000
:103D500087FFFCCF8091B90090E0887F883209F01E
:103D600091E0892F089584EC8093BC008091BC0081
:103D700087FFFCCF8091BB00089584E88093BC004E
:103D80008091BC0087FFFCCF8091BB00089510920A
:103D9000C50080E18093C400E0ECF0E080818260A7
:103DA0008083E1ECF0E0808188698083E2ECF0E0E0
:103DB00080818660808308951092CD0080E1809399
:103DC000CC00E8ECF0E0808182608083E9ECF0E0F8
:103DD000808188618083EAECF0E080818660808366
:103DE00008951092C0001092C1001092C200089570
:103DF000982F8091C00085FFFCCF9093C60066236A
:103E000021F08091C00086FFFCCF0895982F80910B
:103E1000C80085FFFCCF9093CE00662321F08091EF
:103E2000C80086FFFCCF08958091C0008095881F50
:103E30008827881F089520E030E005C081E0809346
:103E4000340480E008958091C00087FF03C0809112
:103E5000C60008952F5F3F4F27393105A1F7EECFF8
:103E60001F920F920FB60F920BB60F9211242F9341
:103E70008F939F93EF93FF93809135049091360435
:103E8000019690933604809335048150914060F4FC
:103E9000809137059091C600E82FF0E0E95CFB4F78
:103EA00090838F5F80933705FF91EF919F918F9162
:103EB0002F910F900BBE0F900FBE0F901F90189573
:103EC00086B146B126B166B130E028703070F3E0BB
:103ED00035952795FA95E1F7220F331F50E044708E
:103EE00050705595479555954795240F351F220FCE
:103EF000331F70E06270707075956795260F371FDD
:103F0000220F331F8170820F08951F920F920FB6F8
:103F10000F9211240F900FBE0F901F901895609173
:103F2000590570915A0580915B0590915C05089543
:103F300081E08093E8030895F89414BC15BC1092B6
:103F40006E0010922001109221018EEF9FE00E94DE
:103F50008E3190932F0480932E048DEF9FE00E946A
:103F60008631982F8093DE0581508E3F18F4909310
:103F7000660008C0609166006093DE058DEF9FE0EB
:103F80000E94943120912E0430912F04C901815850
:103F90009C40039710F4109260058CE0203838079D
:103FA00011F481E004C024583C4018F082E0809372
:103FB00060050E943E150E94F5000E94F4100E94C8
:103FC000600B0E94E81D0E94580D809131048823E7
:103FD00029F4809130048160809330040E94C71ED0
:103FE0000E94E3180E944A0878940895CF93DF93C3
:103FF0009EE1899FE0011124809168008D7F80936C
:10400000680080916C008F7780936C00D99A109231
:104010007A0080917A00806180937A0010929000FB
:10402000109291001092710088B3876088BB109243
:10403000A0001092A1001092720089B3876089BB22
:1040400010928000109281000E94F11E0E94F41DC7
:104050000E943B1E0E943E1583B78F6083BF81E0A4
:10406000809370008091B0008D7F8093B00080912C
:10407000B10087608093B10002C088952197209796
:10408000E1F713BE8091B100887F8093B100109258
:1040900070008091B00082608093B0008FEF8093B9
:1040A0000C0280930D0280930E021092170410925E
:1040B000160410921904109218040E949C1FDF919C
:1040C000CF9108958091940390919503855A9140E2
:1040D00044F420E08091960390919703855A914093
:1040E0000CF021E0822F0895CF93DF93C0E0D0E061
:1040F0008FE00E9452118FE00E948E110E942914BD
:10410000219680E8C83ED80799F7DF91CF910895AE
:104110000F931F93CF93DF938C01C0E0D0E003C0D7
:104120000E9474202196C017D107D4F3DF91CF915C
:104130001F910F910895882341F080E00E94521151
:1041400080E00E948E110E9429140895CF93DF937E
:10415000C0E0D0E08AE00E94521186EF0E948E11EA
:104160000E942914219686EDC83DD80799F7DF9162
:10417000CF910895CF93DF93C0E0D0E08AE00E9412
:10418000521186EF0E948E110E94291421968BE60F
:10419000CC36D80799F7DF91CF910895CF93DF936D
:1041A000C0E0D0E086EF0E9452118AE00E948E119A
:1041B0000E94291421968BE6CC36D80799F7DF9117
:1041C000CF910895CF92DF92EF92FF920F931F93BA
:1041D000CF93DF9300E010E099E1C92ED12C35C0D8
:1041E00088819981009761F48AE090E00E945211E1
:1041F0008AE090E00E948E1180910B018D7F0DC0AE
:10420000019769F480E090E00E94521180E090E014
:104210000E948E1180910B01826080930B010E949D
:10422000291480E49CE9F6013197F1F70197D9F759
:104230000894E11CF11C229684E0E816F10481F652
:104240000F5F1F4F0430110559F0E80183E0CC0FD8
:10425000DD1F8A95E1F7C75EDD4FEE24FF24C0CF56
:10426000DF91CF911F910F91FF90EF90DF90CF9052
:10427000089580918103882319F0813029F50BC0BE
:104280000E943B2B84E080937C0583E080937B0538
:1042900082E0809381030E946C220E9482218130FF
:1042A00099F440917B05242F30E080917C0590E0CB
:1042B0000197281739072CF4842F8F5F0E947921EA
:1042C000089580E00E947921089582E0809364053A
:1042D00081E080936705089581E080936405809371
:1042E0006705809365050895109264051092660530
:1042F00008958093B70581E08093B80582E08093AC
:104300006505089590E08091B805813009F091E04D
:10431000892F08958091AC0508951092AC05809185
:10432000AB0508958091180208958330C9F0843058
:1043300028F4813061F0823080F40CC08530B1F017
:10434000853088F08630A9F08730C9F415C023ED98
:104350003FEF17C020E030E014C026EA3FEF11C065
:1043600029E73FEF0EC024EB30E00BC027E830E038
:1043700008C02AE530E005C02DE230E002C02FEF92
:104380003FEFC9010895CF92DF92EF92FF920F9312
:104390001F9310928105109282051092850510924C
:1043A0008605CC24CA94DC2C7601C092240BD092D2
:1043B000250BE092260BF092270BC092580BD0925F
:1043C000590BE0925A0BF0925B0BC092CA05D09247
:1043D000CB05E092CC05F092CD05C092280BD0928F
:1043E000290BE0922A0BF0922B0B10928E058EEC8B
:1043F00095E06FEF70E04EE050E00E94D62F1092F3
:1044000088050FEF1FEF10932D0B00932C0B1092CC
:104410008D051093020600930106109284051093F7
:10442000E0050093DF051092800583E096E06FEFD2
:1044300070E040E550E00E94D62F10927F0587EF94
:1044400098E06FEF70E040E550E00E94D62F1092A8
:104450008305C092FB05D092FC05E092FD05F09229
:10446000FE0510928A051093FA050093F905109243
:1044700087051093700B00936F0B10928B051093B0
:1044800056060093550610928C05109398070093DA
:104490009707109289051093F8050093F70510927D
:1044A0008F0582E999E06FEF70E040E951E00E94EA
:1044B000D62F109290058BEE98E06FEF70E04AE0F7
:1044C00050E00E94D62F109291051F910F91FF90FE
:1044D000EF90DF90CF900895BF92CF92DF92EF924E
:1044E000FF920F931F93CF93DF93009166050130E6
:1044F00009F0F1C710916705133009F487C1143032
:1045000038F4113081F0123011F00C941B2B35C0AF
:10451000173009F489C6183009F4AEC6163011F008
:104520000C941B2B3FC58091AE05882311F00C9491
:104530001B2B9091640580916505981711F40C94DC
:104540001B2B0E948F1F2091B9053091BA05409115
:10455000BB055091BC05621B730B840B950B645813
:1045600077408040904010F40C941B2B82E08093A5
:104570006405109367050C941B2B40E050E0A0915C
:10458000DC05B091DD05A40FB51FE091C805F091E1
:10459000C905E40FF51F8D919C9120813181821B0B
:1045A000930B803591052CF08091B5058F5F80933A
:1045B000B5054E5F5F4F4031510509F78091B50554
:1045C000882311F51092AE0510924C0385E080937C
:1045D000E2031092E3031092660581E08093670581
:1045E0000E94C3218091B3059091B4058730910555
:1045F00034F401969093B4058093B3056DC0109286
:10460000B4051092B30568C08091AE052091B30542
:104610003091B405882309F046C0273031053CF4B9
:104620002F5F3F4F3093B4052093B30504C0109221
:10463000B4051092B30540E050E02091B3053091ED
:10464000B405C901880F991FA091DC05B091DD0563
:10465000A80FB91FE091C805F091C905E80FF91F2F
:104660000D90BC91A02D80819181A81BB90BA03524
:10467000B1052CF0B093B205A093B1052DC0273041
:1046800031053CF42F5F3F4F3093B4052093B305C1
:1046900004C01092B4051092B3054F5F5F4F4830CD
:1046A000510559F619C0C901880F991FA091DC0561
:1046B000B091DD05A80FB91FE091C805F091C905BB
:1046C000E80FF91F8D919C9120813181821B930B02
:1046D0009093B2058093B10580918105823018F0E6
:1046E00081E08093810520918105E22FF0E0EE0FBB
:1046F000FF1FEC5DF44F8091B3059091B405918359
:1047000080832F5F2093810580918205823018F08D
:1047100081E08093820520918205E22FF0E0EE0F88
:10472000FF1FE85AF44F8091B1059091B205918333
:1047300080832F5F2093820580918505823018F059
:1047400081E08093850520918505A22FB0E0AA0F16
:10475000BB1FA653BA4F8091B3059091B405880F43
:10476000991FE091DC05F091DD05E80FF91F8081CC
:1047700091818D939C932F5F209385058091860571
:10478000823018F081E08093860520918605A22F63
:10479000B0E0AA0FBB1FA85DB44F4091B305509184
:1047A000B405CA01880F991FE091C805F091C905A9
:1047B000E80FF91F808191818D939C932F5F209347
:1047C00086058091B1059091B205803591054CF038
:1047D00083E08093670580918E058E3008F014C5C4
:1047E00016C58091AE05813071F4473051053CF417
:1047F0004F5F5F4F5093B4054093B30504C01092D0
:10480000B4051092B3051092AE05CBC41092960574
:1048100010929705109298051092990580E094E007
:1048200090939D0580939C0510929B0510929A058C
:1048300010929E0500939F05A0E3EA2EABE0FA2EAE
:10484000E70100E010E0F7E2BF2EE2E0CE2EDD242B
:10485000D3948091B3059091B405800F911F880F78
:10486000991FE091D908F091DA08E80FF91F8081CB
:1048700091819983888380917F05883210F0B0926E
:104880007F0580917F05E82FF0E0EE0FFF1FE950D4
:10489000F74F68817981718360838F5F80937F0593
:1048A0009B01442737FD4095542F809196059091A8
:1048B0009705A0919805B0919905820F931FA41FA9
:1048C000B51F8093960590939705A0939805B09394
:1048D000990580919F05813009F06FC080919E05F8
:1048E0008F5F80939E0580919C0590919D05681730
:1048F000790724F470939D0560939C052881398184
:1049000080919A0590919B058217930724F4309328
:104910009B0520939A0580919A0590919B05209183
:104920009C0530919D05821B930B909369058093A4
:104930006805803591050CF47FC08091890582302F
:1049400010F0D092890520918905E22FF0E0EE0F5A
:10495000FF1FE95BF64F809168059091690591838F
:1049600080832F5F209389052881398180919A0562
:1049700090919B052817390719F41092AF0509C0CB
:1049800080919C0590919D052817390711F4D092CC
:10499000AF058881998190939D0580939C059093A4
:1049A0009B0580939A05C0929F0580919E0581503A
:1049B00080939E051092B0053FC08230E9F580914A
:1049C000B0058F5F8093B00580919C0590919D0507
:1049D0006817790724F470939D0560939C052881DE
:1049E000398180919A0590919B058217930724F451
:1049F00030939B0520939A0540919A0550919B0511
:104A000060919C0570919D05CA01861B970B8035AE
:104A1000910594F0288139812417350721F480917C
:104A2000AF05813039F02617370731F48091AF0593
:104A3000882311F410929F05085F1F4F2296003AB9
:104A4000110509F006CF80918A05823018F081E0C7
:104A500080938A0590918A05E92FF0E0E750FA4F9C
:104A600080919F0580839F5F90938A058091870541
:104A7000823018F081E08093870590918705E92FB7
:104A8000F0E0E159F44F80919E0580839F5F909301
:104A9000870580918B05823018F081E080938B052B
:104AA00090918B05E92FF0E0EB5AF94F8091AF051B
:104AB00080839F5F90938B0580918C05823018F0E6
:104AC00081E080938C0590918C05E92FF0E0E95608
:104AD000F84F8091B00580839F5F90938C05609123
:104AE000960570919705809198059091990524E11C
:104AF00030E040E050E00E94F72E3093A105209373
:104B0000A00580918305823018F081E080938305B1
:104B100080918305E82FF0E0EE0FFF1FE550FA4F7C
:104B20002091A0053091A105318320838F5F809370
:104B3000830547E2D7018D919C9111972091A005A3
:104B40003091A105821B930B8D939C9380918005DE
:104B5000883210F04093800580918005E82FF0E0C6
:104B6000EE0FFF1FED5FF94FD7012D913D917D01B4
:104B7000318320838F5F80938005B8E5EB16BBE01F
:104B8000FB06C1F68091300B9091310B1816190677
:104B900014F481E001C08FEF8093A2051092A30569
:104BA000E2E3FBE04FEF31E0808191812091A205AB
:104BB000181619062CF427FF0CC03093A20504C068
:104BC00012163CF44093A2058091A3058F5F809359
:104BD000A30532962BE0E835F20731F78091840582
:104BE000823018F081E08093840580918405E82F5D
:104BF000F0E0E152FA4F2091A30520838F5F80936C
:104C000084054091AF053091AE05413009F0CAC02E
:104C1000313009F043C0223071F480918F05823029
:104C200010F030938F0590918F05E92FF0E0E95057
:104C3000FA4F86E0F3C090918F05213081F49230D5
:104C400010F020938F0590918F05E92FF0E0E95047
:104C5000FA4F82E080839F5F90938F05BEC01092D1
:104C6000AE0510924C0385E08093E2031092E303BB
:104C70001092660530936705923010F030938F05DF
:104C800080918F05E82FF0E0E950FA4F9CE0908387
:104C90008F5F80938F050E94C321CDC4223081F5A0
:104CA0008091B00590918F058430B8F410924C0338
:104CB00085E08093E2031092E3031092660540932F
:104CC0006705923010F040938F0580918F05E82F93
:104CD000F0E0E950FA4F90E1DACF923010F04093D3
:104CE0008F0590918F05E92FF0E0E950FA4F83E0AE
:104CF00080839F5F90938F0580919E058C5E6BC033
:104D00002130B9F52093AE058091B00590918F05C3
:104D10008B3000F1923010F020938F0580918F0539
:104D2000E82FF0E0E950FA4F94E090838F5F809392
:104D30008F051092AF051092AE051092A705109244
:104D4000A8051092A405109295051092A6059093BF
:104D50006705EEC010924C0385E08093E203109249
:104D6000E30310926605209367059F5F90938F057C
:104D7000DFC010924C0385E08093E2031092E303BE
:104D8000109266054093670580918F05823010F080
:104D900040938F0580918F05E82FF0E0E950FA4F9E
:104DA0009BE075CF313009F068C0223041F5809129
:104DB0008F05823010F030938F0590918F05E92F89
:104DC000F0E0E950FA4F85E080839F5F90938F0574
:104DD00080919E05865F80939E051092AF0510928C
:104DE000AE051092A7051092A8051092A405109286
:104DF00095051092A60584E08093670599C090916F
:104E00008F05213009F5923010F020938F05909195
:104E10008F05E92FF0E0E950FA4F88E080839F5F2B
:104E200090938F0510929E051092AF051092AE05DB
:104E30001092A7051092A8051092A405109295054E
:104E40001092A60585E0D8CF1092AE0510924C03C3
:104E500085E08093E2031092E3031092660530939D
:104E60006705923010F030938F0580918F05E82F01
:104E7000F0E0E950FA4F9DE00ACF223079F48091BA
:104E80008F05823018F081E080938F0590918F0517
:104E9000E92FF0E0E950FA4F81E096CF213071F52B
:104EA0008091B00590918F058B30B8F010924C0333
:104EB00085E08093E2031092E3031092660520934D
:104EC0006705923010F020938F0580918F05E82FB1
:104ED000F0E0E950FA4F9EE0DACE923010F02093E5
:104EE0008F0590918F05E92FF0E0E950FA4F87E0A8
:104EF00080839F5F90938F0584E16DCF10924C0368
:104F000085E08093E2031092E3031092660591E03E
:104F10009093670580918F05823010F090938F05F4
:104F200080918F05E82FF0E0E950FA4F9FE0AFCE77
:104F300080918E058E3018F08DE080938E059091D3
:104F4000670580918E05E82FF0E0E253FA4F9083D9
:104F50008F5F80938E0580918805823018F081E004
:104F60008093880590918805E92FF0E0E45DF44F87
:104F700080919E0580839F5F9093880580918D0529
:104F8000823018F081E080938D0580918D05E82FA7
:104F9000F0E0EF5FF94F9091AE0590838F5F8093C3
:104FA0008D0549C3109296051092970510929805A9
:104FB0001092990580E094E090939D0580939C0564
:104FC00010929B0510929A0500E31BE0E80160E057
:104FD00070E08091B3059091B405860F971F880FFC
:104FE000991FE091D908F091DA08E80FF91F0190B4
:104FF000F081E02DF983E8839F01442737FD409538
:10500000542F8091960590919705A0919805B091A5
:105010009905820F931FA41FB51F80939605909347
:105020009705A0939805B093990580919C05909160
:105030009D05E817F90724F4F0939D05E0939C057E
:105040002881398180919A0590919B058217930759
:1050500024F430939B0520939A05685F7F4F229636
:10506000603A710509F0B5CF80919A0590919B0542
:1050700020919C0530919D05821B930B80359105F5
:105080000CF48FC0609196057091970580919805FA
:105090009091990524E130E040E050E00E94F72E25
:1050A0003093A1052093A00547ECD8018D919C91E8
:1050B00011972091A0053091A105821B930B8D9330
:1050C0009C9380919005883C10F0409390058091CE
:1050D0009005E82FF0E0EE0FFF1FEE56F64FD801D7
:1050E0002D913D918D01318320838F5F80939005B9
:1050F000BBE008351B07C9F68091300B9091310B4E
:105100001816190614F481E001C08FEF8093A205F0
:105110001092A305E2E3FBE04FEF31E08081918143
:105120002091A205181619062CF427FF0CC0309305
:10513000A20504C012163CF44093A2058091A30579
:105140008F5F8093A30532962BE0E835F20731F7A5
:105150008091A305863068F08091A405E82FF0E0E7
:10516000E351FA4F1082883048F58091A605880FE8
:1051700015C08330B0F08091A405E82FF0E0E35132
:10518000FA4F91E090838830C8F4809195058F5F45
:10519000809395058091A605880F8F5F8093A60563
:1051A0000DC010924C0385E08093E2031092E3035C
:1051B0001092660581E0809367056DCD8091910521
:1051C0008A3018F089E08093910520919105A22FF3
:1051D000B0E0A551B74F9091A405E92FF0E0E3515D
:1051E000FA4F80818C932F5F209391059F5F90935E
:1051F000A40520918E059A3011F487E001C085E066
:10520000809367052E3018F08DE080938E05909185
:10521000670580918E05E82FF0E0E253FA4F908306
:105220008F5F80938E0507C28091F605909195055A
:10523000890F9091F505990F890F83708093A505CB
:10524000882369F48091A6058093AB059091B305FE
:10525000909318020093AC0561E00E94F81E109232
:105260004C0385E08093E2031092E30310926605FD
:105270000E94C32181E096C110926A0580916A055F
:105280008823E1F38FEF61E00E94F81E8091240BE8
:1052900061E00E94F81E8091260B61E00E94F81EDA
:1052A0008091580B61E00E94F81E8091590B61E0DB
:1052B0000E94F81E80915A0B61E00E94F81E8091B6
:1052C0005B0B61E00E94F81E8091FB0561E00E948B
:1052D000F81E8091FC0561E00E94F81E8091FD059A
:1052E00061E00E94F81E8091FE0561E00E94F81EB8
:1052F0008091DF0561E00E94F81E8091E00561E089
:105300000E94F81EC0E0D0E0FE01E950F74F808116
:105310009181809368059093690561E00E94F81E71
:105320008091690561E00E94F81EFE01ED5FF94F72
:1053300080819181809368059093690561E00E9466
:10534000F81E8091690561E00E94F81E2296C03522
:10535000D105D1F68091CA0561E00E94F81E8091C6
:10536000CB0561E00E94F81E8091CC0561E00E94AF
:10537000F81E8091CD0561E00E94F81E8091280BF7
:1053800061E00E94F81E8091290B61E00E94F81EE6
:1053900080912A0B61E00E94F81E80912B0B61E046
:1053A0000E94F81E80916F0B61E00E94F81E8091B0
:1053B000700B61E00E94F81E80912C0B61E00E944E
:1053C000F81E80912D0B61E00E94F81E8091470924
:1053D00061E00E94F81E8091480961E00E94F81E79
:1053E0008091490961E00E94F81E80914A0961E0BC
:1053F0000E94F81E8091F90561E00E94F81E8091DC
:10540000FA0561E00E94F81E8091550661E00E9455
:10541000F81E8091560661E00E94F81E8091970761
:1054200061E00E94F81E8091980761E00E94F81EDA
:105430008091010661E00E94F81E8091020661E001
:105440000E94F81E8091F70561E00E94F81E80918D
:10545000F80561E00E94F81ECEECD5E0899161E08C
:105460000E94F81E85E0CC3DD807C1F7C2E9D9E01B
:1054700088819981809368059093690561E00E9415
:10548000F81E8091690561E00E94F81E2296ABE04B
:10549000C232DA0769F7CBEED8E0899161E00E9469
:1054A000F81EB8E0C53FDB07C1F78091950561E0C4
:1054B0000E94F81E8091A50561E00E94F81E80916F
:1054C000A60561E00E94F81E8091A90561E00E9496
:1054D000F81E89E067C0023009F0ADC08091670511
:1054E000823009F462C0853009F0A5C00E948F1F88
:1054F00020916F05309170054091710550917205B2
:10550000621B730B840B950B60936B0570936C059A
:1055100080936D0590936E050E948F1F60936F05B9
:105520007093700580937105909372050093E10567
:1055300083E08093E2051092BD05EAEEF5E020E0FD
:1055400030E08091B70590E0022E02C095958795D6
:105550000A94E2F7817090709093690580936805D2
:105560008083019729F48091BD058F5F8093BD05ED
:105570002F5F3F4F31972830310519F78091BD05D6
:10558000837094E0981B9093BD05892F8695817058
:105590008093EB0591709093EC051092BE051092EC
:1055A000BF0582E08093670546C0E091BE05F0E04C
:1055B000EF51FA4FE081E33041F480EF90E09093B7
:1055C000C1058093C00581E01CC0E23049F488E742
:1055D00090E09093C1058093C005E093C20513C08D
:1055E000E13041F48CE390E09093C1058093C005D5
:1055F00084E007C08EE190E09093C1058093C005E0
:1056000088E08093C2058091BE05882359F480917B
:10561000C605882311F48AEA01C085E582B981E0D4
:105620008093BF051092C4051092C30583E0809358
:1056300067058093B605DF91CF911F910F91FF9081
:10564000EF90DF90CF90BF900895E0912E0BF091F6
:105650002F0B80E1DF011D928A95E9F780915306B7
:10566000909154066FEF70E040E150E00E94D62F19
:1056700010926605089587E596E09093F60880936A
:10568000F50889E997E09093DA088093D90883E7D1
:1056900099E090932F0B80932E0B8CE59BE09093D9
:1056A000DD058093DC058BED98E0909354068093A4
:1056B00053068DE599E09093C9058093C8050E9433
:1056C000252B81E0809364058093670580936505B1
:1056D0000895A0E2B0E0EFE6FBE20C94342F69837A
:1056E0007A838B839C832D833E834F835887CE019F
:1056F0000196BE01675F7F4F0E94392ECE0105964D
:10570000BE016F5E7F4F0E94392E9985923088F0DE
:1057100089898230C8F0943019F4823051F404C081
:10572000843029F4923081F489E392E0C6C092304B
:1057300049F420E09A858A89981321E02A87CE01CE
:105740000996BBC0823049F420E09A858A89981373
:1057500021E02A8BCE014196B0C02D843E844F8437
:1057600058886D887E888F88988CEE24FF24870166
:10577000AA24BB24650140E050E060E070E0E0E076
:10578000F0E0C10181709070892BE9F0E60CF71C04
:10579000081D191D9A01AB012A0D3B1D4C1D5D1DF5
:1057A00080E090E0A0E0B0E0E614F70408051905F9
:1057B00020F481E090E0A0E0B0E0BA01A901480F38
:1057C000591F6A1F7B1FAA0CBB1CCC1CDD1C97FE3B
:1057D00008C081E090E0A0E0B0E0A82AB92ACA2A77
:1057E000DB2A3196E032F10549F0660C771C881C03
:1057F000991C5694479437942794C3CFFA85EA8925
:105800002B893C898B859C85280F391F2E5F3F4F44
:1058100017C0CA0181709070892B61F016950795A9
:10582000F794E79480E090E0A0E0B0E8E82AF92A55
:105830000A2B1B2B76956795579547952F5F3F4F02
:1058400077FDE7CF0CC0440F551F661F771F17FD6C
:105850004160EE0CFF1C001F111F215030404030F2
:1058600090E0590790E0690790E4790760F32B8F87
:105870003C8FDB01CA018F779070A070B0708034CC
:105880009105A105B10561F447FD0AC0E114F104D9
:105890000105110529F0405C5F4F6F4F7F4F407845
:1058A0001A8EFE1711F081E08A8F4D8F5E8F6F8FF9
:1058B00078A383E0898FCE0149960E94642DA0963B
:1058C000E2E10C94502FA8E0B0E0E9E6FCE20C9491
:1058D0003D2F9B01AC0183E08983DA01C901882750
:1058E000B7FD83959927AA27BB27B82E2115310527
:1058F0004105510519F482E089833AC08823A9F053
:10590000203080E0380780E0480780E8580729F415
:1059100060E070E080E09FEC30C0EE24FF2487015F
:10592000E21AF30A040B150B02C079018A018EE119
:10593000C82ED12CDC82CB82ED82FE820F831887A9
:10594000C801B7010E94152D01971816190684F495
:10595000082E04C0EE0CFF1C001F111F0A94D2F782
:10596000ED82FE820F831887C81AD90ADC82CB82A7
:10597000BA82CE0101960E94642D2896E9E00C942B
:10598000592FACE0B0E0E7ECFCE20C94442F6983C3
:105990007A838B839C83CE010196BE016B5F7F4F20
:1059A0000E94392E8D81823061F1823050F1843035
:1059B00021F48E81882351F12EC02F81388537FD47
:1059C00020C06E812F3131051CF06623F9F023C011
:1059D0008EE190E0821B930B29853A854B855C858F
:1059E00004C056954795379527958A95D2F7662333
:1059F000B1F050954095309521953F4F4F4F5F4FF7
:105A00000EC020E030E040E050E009C02FEF3FEF53
:105A10004FEF5FE704C020E030E040E050E8B9011C
:105A2000CA012C96E2E00C94602FEF92FF920F9344
:105A30001F937B018C0180E0E81680E0F80681E08E
:105A4000080780E0180788F48FEFE816F1040105D5
:105A5000110531F028F088E090E0A0E0B0E017C038
:105A600080E090E0A0E0B0E012C080E0E81680E0C6
:105A7000F80680E0080781E0180728F088E190E048
:105A8000A0E0B0E004C080E190E0A0E0B0E020E25F
:105A900030E040E050E0281B390B4A0B5B0B04C0A0
:105AA00016950795F794E7948A95D2F7F701EF5B7F
:105AB000FD4F8081281B310941095109C9011F91FE
:105AC0000F91FF90EF900895DF92EF92FF920F9366
:105AD0001F93FC01E480F58006811781D1808081CD
