:100000000C94BE000C94DF000C94DF000C94DF0015
:100010000C94DF000C94DF000C94DF000C94DF00E4
:100020000C94DF000C94DF000C9490050C94DF001E
:100030000C94DF000C94C4050C94DF000C94AF1CEE
:100040000C94DF000C94DF000C94DF000C94DF00B4
:100050000C94DF000C94DF000C94DF000C94DF00A4
:100060000C94DF000C945A1C0C94DF000C94DF00FD
:100070000C94DF000C9431010C94DF000C94DF0031
:100080000C9430100C9446100C94DF000C94AD0FBF
:100090000C94DF000C94DF000C94DF000C94DF0064
:1000A0000C94DF000C94DF000C94810F0C94970FDC
:1000B0000C94DF000C94F40E0C94DF000C94DF0021
:1000C0000C94DF000C94DF000C94DF000C94DF0034
:1000D0000C94DF000C94DF000C94DF000C94DF0024
:1000E0000C94DF00E707B507FD06A5078B07F406AC
:1000F0006A07D3072B07C50753085308530853084B
:10010000530853082A082E08530853085308530865
:100110005308530853085308530853085308530807
:100120002B07FD064C08440853085308530853088E
:1001300053085308530853085308530853085308E7
:100140008B076A0753085308E707F4063108084A83
:10015000D73B3BCE016E84BCBFFDC12F3D6C7431DB
:100160009ABD56833DDA3D00C77F11BED9E4BB4C32
:100170003E916BAAAABE000000803F0011241FBE62
:10018000CFEFD1E2DEBFCDBF00E00CBF13E0A0E0B7
:10019000B2E0E4E9FAE400E00BBF02C007900D9280
:1001A000A434B107D9F715E0A4E4B3E001C01D926F
:1001B000A739B107E1F70E94E1000C9448250C949F
:1001C00000000E94C61C0E9425160E946D050E9418
:1001D000F11B80910B01816080930B0180910B01D9
:1001E000826080930B0180910B01846080930B01EE
:1001F000A39A80910B01806180930B0180910B0188
:10020000806280930B0180910B01806480930B01CD
:1002100080910B01806880930B010E94971EFDCF97
:10022000EAE7F0E010822BE730E0D9011C92ACE75E
:10023000B0E01C928081866080838C9180648C9376
:10024000808180628083D9018C91887F8C938081AA
:1002500088608083808180688083808180648083DF
:1002600008951F920F920FB60F920BB60F921124A2
:100270001F932F933F934F935F936F937F938F932E
:100280009F93AF93BF93EF93FF9380915605909107
:100290005705A0915805B09159050196A11DB11DB2
:1002A0008093560590935705A0935805B093590530
:1002B00080917800482F50E020917900922F80E0C3
:1002C000482B592B8091DF03823009F4F4C083302E
:1002D00030F4882359F0813009F03FC1DFC083300A
:1002E00009F40BC1843009F038C114C110914A03DC
:1002F0001E3061F48091E503823041F45093E403B1
:100300004093E3031092E503469808C0E12FF0E024
:10031000EE0FFF1FE15BFC4F51834083A12FB0E044
:1003200010FFAFC0AA0FBB1FFD01E35BFC4F208194
:100330003181A15BBC4F4D915C91812F8695682FD7
:1003400070E0241B350BAB01440F551FFA01E95631
:10035000FC4F80819181281B390BFA01E158FC4F39
:100360003183208337FF02C011821082FB01EE0F20
:10037000FF1FE158FC4F808191818150944024F00F
:1003800080E094E0918380831031E8F5DB01AA0FCF
:10039000BB1FFD01E158FC4F0190F081E02DEC33D3
:1003A000F1051CF4A951BC4F2CC0CF01CC969595FA
:1003B0008795883791053CF4A951BC4FFC97F5957A
:1003C000E795FC961EC0CF01845D9E4F959587955D
:1003D00095958795A951BC4F843B91054CF4E45BFE
:1003E000F040F595E795F595E795E858FF4F09C07A
:1003F000E45AF14043E0F595E7954A95E1F7EC546E
:10040000FF4FED93FC9380915F058823C1F18091AC
:100410008F0390919003845A9140ACF080919103A6
:1004200090919203845A914074F08091930390913B
:100430009403845A91403CF08091950390919603E7
:10044000845A9140E4F481E0809360051092160490
:10045000109215041092A9001092A8001092AB00FF
:100460001092AA0010921404109213041092990092
:100470001092980010929B0010929A0002C0109265
:100480006005812F8F5F80934A03883108F465C02F
:1004900010924A0381E08093E6035FC080910104DB
:1004A00090910204480F591F5695479550930204A6
:1004B0004093010452C080910902882309F44DC081
:1004C00063994BC0649949C0282F2F5F209309027C
:1004D000253008F442C080910D0490910E04840FE1
:1004E000951F90930E0480930D042830B1F510925F
:1004F000090281E08093080230C08091FF0390914F
:100500000004480F591F5695479550930004409397
:10051000FF0323C090910A029923F9F08091000112
:1005200083FD1BC08091000184FD17C0292F2F5F20
:1005300020930A02253088F080910B0490910C04DE
:10054000840F951F90930C0480930B04283029F49A
:1005500010920A0281E0809307029091E0039230AA
:1005600081F1933030F4992351F0913009F0B0C00B
:100570001AC09330E9F1943009F0AAC050C08091BC
:100580004A038695809349038091E103882311F4FF
:1005900081E005C0813011F482E001C085E08093E4
:1005A000DF0381E00BC080914B038093490380916E
:1005B0004E038093E2031092DF0382E08093E00316
:1005C00087C080914C038093490380914D038093B1
:1005D000E1038091E203882311F483E005C08130B8
:1005E00011F484E001C085E08093DF0383E0E6CF6F
:1005F00080914B038093490380914E038093E203E3
:100600008091E103882311F481E005C0813011F469
:1006100082E001C085E08093DF0384E0CFCF80914A
:100620004C038093490380914D038093E1038091B3
:10063000E203882311F483E006C0813019F490931B
:10064000DF0303C085E08093DF031092E003209175
:100650004A032E3041F48091E503813021F482E099
:100660008093E503469A422F50E020FF31C02031AD
:1006700050F4269581E090E002C0880F991F2A95DA
:10068000E2F782B925C080915D05882361F440516D
:1006900050405595479581E090E002C0880F991F22
:1006A0004A95E2F713C0813011F0823089F420912D
:1006B0000501405150405595479581E090E002C0BA
:1006C000880F991F4A95E2F7809582238093050150
:1006D00080914903883048F480917B00877F809324
:1006E0007B0080914903805C08C080917B0088601A
:1006F00080937B0080914903885C80937C0080918B
:10070000E003823081F480915D05882321F480919B
:100710000501807F05C0813011F0823021F48FEF18
:100720008093050112B8FF91EF91BF91AF919F9116
:100730008F917F916F915F914F913F912F911F9179
:100740000F900BBE0F900FBE0F901F9018958091C9
:100750008F0390919003845A9140B4F0809191035B
:1007600090919203845A91407CF0809193039091F0
:100770009403845A914044F020E080919503909135
:100780009603845A91400CF421E0822F089581E071
:1007900080935E05089510925E05089581E0809330
:1007A0005F05089510925F0508952F923F924F9232
:1007B0005F926F927F928F929F92AF92BF92CF92F1
:1007C000DF92EF92FF920F931F93DF93CF93CDB7FA
:1007D000DEB72A970FB6F894DEBF0FBECDBF98875D
:1007E0008F837A876987DC010D90BC91A02DBC8333
:1007F000AB83FB010190F081E02DFA83E983E7EE02
:10080000F3E080819181059714F411821082329671
:1008100023E0E73FF207A9F7A090E703B090E803D1
:10082000B094A194B108B39452EF652E5FEF752E8A
:100830006E0E7F1ED3018D909C9095948794ADEEA3
:10084000B3E0CD90DC90D594C7942091EF03309124
:10085000F0033E832D832AEF222E2FEF322E2E0E11
:100860003F1ED101ED90FC90F594E7941291029116
:100870002F01159507950E94BF222D813E812E5193
:1008800030402A0D3B1D2C0D3D1D2E0D3F1D201B04
:10089000310B281939096CE370E00E941A22280FE5
:1008A000391F3E832D83D3016D907C90759467949E
:1008B000C090EB03D090EC03D594C794D594C79423
:1008C000EDEEF3E0A080B180B594A794D1018D90B6
:1008D0009C90959487940091F3031091F4031595DF
:1008E000079515950795F201E080F180F594E7945E
:1008F0000E94BF22C60CD71C22EE3FEFC20ED31EB1
:10090000CA0CDB1CC01AD10AC818D908CE18DF08D7
:100910006CE370E00E941A22C80ED91E8D819E8160
:100920009C01442737FD4095542FB601882777FD59
:100930008095982FAB81BC81B7FD1BC07D0100273E
:10094000F7FC0095102F261B370B480B590BCA01DB
:10095000B901A80197010E94E72157E09595879575
:10096000779567955A95D1F7E60EF71E081F191F60
:100970001AC0A981BA817D010027F7FC0095102FCC
:10098000620F731F841F951FA80197010E94E72122
:1009900047E095958795779567954A95D1F7E61A3B
:1009A000F70A080B190BEF81F885F182E0828D813F
:1009B0009E819C01442737FD4095542FB60188271E
:1009C00077FD8095982FA981BA81B7FD19C07D0167
:1009D0000027F7FC0095102F620F731F841F951FCF
:1009E000A80197010E94E72137E0959587957795B3
:1009F00067953A95D1F7E60EF71E081F191F1CC020
:100A0000AB81BC817D010027F7FC0095102F261BD0
:100A1000370B480B590BCA01B901A80197010E9475
:100A2000E72127E095958795779567952A95D1F7E2
:100A3000E61AF70A080B190BE985FA85F182E082BC
:100A4000A985BA858D919C918150924034F080E0C7
:100A500092E0E985FA8591838083AF81B8858D9195
:100A60009C918150924034F080E092E0EF81F885D3
:100A700091838083A985BA858D919C9180509E4FEA
:100A800034F480E09EEFE985FA8591838083AF811D
:100A9000B8858D919C9180509E4F34F480E09EEFFC
:100AA000EF81F885918380832A960FB6F894DEBF94
:100AB0000FBECDBFCF91DF911F910F91FF90EF90AF
:100AC000DF90CF90BF90AF909F908F907F906F906E
:100AD0005F904F903F902F90089580919400909157
:100AE00095000E94C4220895CF93DF93E8E6F0E0DA
:100AF0001082ACE6B0E01C9220EB30E0E9011882F5
:100B00001092B100109270008081826080838C917D
:100B100080688C93888182608883DF91CF9108956B
:100B20001F920F920FB60F9211248F938091110292
:100B3000882321F18091030186FD20C08091680007
:100B40008D7F8093680080916C008F7780936C001C
:100B500081E0809312028DE08093B3008091B10018
:100B600086608093B10080917000826080937000F5
:100B70001092460310924703109248038F910F90F2
:100B80000FBE0F901F9018951F920F920FB60F92E5
:100B900011242F933F934F935F938F939F93809153
:100BA000B100887F8093B100809112028823C9F040
:100BB0008091030186FF11C080916800826080935C
:100BC000680080916C00806880936C008FEF9FEFCD
:100BD0009093020280930102C8C01092120283E334
:100BE0003FC040910102509102022FEF4F3F520748
:100BF00039F58091030186FF0BC080916800826007
:100C00008093680080916C00806880936C00ADC018
:100C10008CE18093B3008091B10086608093B10035
:100C20008091700082608093700010924603109251
:100C3000470310924803109202021092010295C0DD
:100C400041305105D1F48091030190E0807490709F
:100C500026E0959587952A95E1F78093480386E3EA
:100C60008093B3008091B10086608093B100809141
:100C7000700082608093700078C0CA010297059767
:100C800030F586E38093B3008091B1008660809355
:100C9000B100809170008260809370002091030108
:100CA00030E02074307096E0369527959A95E1F7FC
:100CB00086E090E0841B950B02C0220F331F8A95BB
:100CC000E2F780914703820F809347034EC0CA0129
:100CD0000797069730F586E38093B3008091B100C3
:100CE00086608093B1008091700082608093700074
:100CF0002091030130E02074307086E0369527950E
:100D00008A95E1F78CE090E0841B950B02C0220FDE
:100D1000331F8A95E2F780914603820F8093460342
:100D200024C04D30510509F5109270008091680083
:100D300082608093680080916C00806880936C0072
:100D40008FEF9FEF909302028093010280914803FE
:100D5000809300028091470380934403809146036F
:100D60008093450381E08093370580910102909143
:100D700002022FEF8F3F920729F001969093020213
:100D8000809301029F918F915F914F913F912F919D
:100D90000F900FBE0F901F9018958091000208953C
:100DA0008091440308958091450308958091110234
:100DB000882309F4AEC180913705882309F4A9C1BD
:100DC000809145038093360510923705E82FF0E0B7
:100DD000E533F10508F067C1EE58FF4FEE0FFF1F36
:100DE0000590F491E02D19941092180410921704B4
:100DF00010921A041092190456C1209117043091D0
:100E000018048091190490911A04821793072CF406
:100E100030931A042093190404C09093180480930B
:100E2000170480911704909118044E96909318041B
:100E3000809317042091190430911A04225E3F4FC9
:100E400030931A0420931904815092400CF45EC030
:100E500080E092E057C020911704309118048091EF
:100E6000150490911604281739072CF430931A04AE
:100E70002093190408C08091190490911A0490934A
:100E800018048093170480911704909118044E97CA
:100E900090931804809317042091190430911A0438
:100EA0002E51304030931A042093190480509E4FE5
:100EB00034F480E09EEF9093180480931704205040
:100EC0003E4F0CF0F0C080E09EEF90931A048093A8
:100ED0001904E9C080911704909118044E979093DB
:100EE0001804809317042091190430911A04225E8B
:100EF0003F4F30931A042093190480509E4F34F4CE
:100F000080E09EEF909318048093170421503240A4
:100F10000CF4C9C027C080911704909118044E9614
:100F200090931804809317042091190430911A04A7
:100F30002E51304030931A0420931904815092406E
:100F40000CF4BDCF80E092E0B6CF8091190490916F
:100F50001A044E9690931A0480931904815092407B
:100F60000CF4A1C080E092E0B0CF80911704909182
:100F700018044E9690931804809317048150924061
:100F80000CF491C080E092E01DC080911904909112
:100F90001A044E9790931A048093190480509E4F20
:100FA0000CF081C090CF80911704909118044E9757
:100FB000909318048093170480509E4F0CF073C0D8
:100FC00080E09EEF90931804809317046CC080918A
:100FD000380590E0019665E070E00E941A22809347
:100FE0003805882331F4449A459A10920E028FEF07
:100FF00020C0813031F48FEF80930E0210920D02E9
:101000001AC0823041F4449845988FEF80930E02C5
:1010100080930D0206C0833039F410920E021092B4
:101020000D0210920C0209C0843039F48FEF8093C6
:101030000E0280930D0280930C0280910C020E949C
:10104000C70880910D020E94DD0880910E020E9467
:10105000F30829C081E080935E0525C010925E05EB
:1010600022C08091390590E0019683709070809342
:101070003905813061F0813028F0823059F08330B9
:1010800091F40CC010925E0510925F050CC0809325
:101090005E05FACF10925E0581E003C081E0809387
:1010A0005E0580935F05209117043091180437FD89
:1010B00009C0359527953595279530932A042093B7
:1010C00029040CC088279927821B930B9595879537
:1010D0009595879590932A0480932904209119046B
:1010E00030911A0437FD09C0359527953595279518
:1010F0003093280420932704089588279927821B7A
:10110000930B959587959595879590932804809353
:1011100027040895E0E8F0E01082A1E8B0E01C9216
:101120008081896A80838C9189608C9380910C0284
:1011300090E0909389008093880080910D0290E068
:1011400090938B0080938A0080910E0290E09093A0
:101150008D0080938C00089581E090912F04891B6D
:1011600080932F04882361F08091800088608093B1
:1011700080008FEF90E090938D0080938C00089515
:1011800080918000877F809380002F980895982F0A
:10119000882339F4809180008F77809380002D9888
:1011A000089580918000806880938000892F90E06E
:1011B00090938900809388000895982F882339F4AC
:1011C000809180008F7D809380002E98089580917B
:1011D0008000806280938000892F90E090938B0044
:1011E00080938A000895982F882339F48091800095
:1011F000877F809380002F98089580918000886079
:1012000080938000892F90E090938D0080938C00D4
:101210000895833079F1843028F48130B9F0823038
:10122000F8F40AC08530B9F1853058F18630E9F11B
:10123000873009F055C043C0662321F080910B012F
:101240008E7F42C080910B0181603EC0662321F0F9
:1012500080910B018D7F38C080910B01826034C07A
:10126000662321F080910B018B7F2EC080910B01B2
:1012700084602AC0662311F0A39801C0A39A84B3A6
:101280000895662321F080910B018F7E1DC080910F
:101290000B01806119C0662321F080910B018F7DC5
:1012A00013C080910B0180620FC0662321F08091F2
:1012B0000B018F7B09C080910B01806405C0662300
:1012C00041F080910B018F7780930B0180910B018E
:1012D000089580910B01806880930B0180910B0130
:1012E0000895EBE0F1E080818160808380818260FD
:1012F0008083808184608083A39A808180618083E1
:101300008081806280838081806480838081806826
:1013100080830895EBE0F1E080818E7F808380817F
:101320008D7F808380818B7F8083A39880818F7E57
:10133000808380818F7D808380818F7B808380818B
:101340008F7780830895289881EE0E94601B289AE9
:101350000895FF920F931F93CF93DF93182F092FB8
:10136000F62E0E94A309289888EA0E94601B212F6C
:10137000302FC901EC0110E004C089910E94601B6C
:101380001F5F1F15D0F3289ADF91CF911F910F9106
:10139000FF9008951F93162F28988F7180620E94E6
:1013A000601B812F0E94601B289A1F910895289826
:1013B00082EE0E94601B289A089580916905882317
:1013C00011F080E0089528988FEF0E94601B289A02
:1013D000807408951F93CF93DF93EC01162F8091B3
:1013E00069058823E1F72C9881E08093690580E006
:1013F0006AE40E94CA09289881EE0E94601B289A1C
:10140000289880EA0E94601BCE01612F0E94481B31
:10141000289A2C9ADF91CF911F910895FF920F93F4
:101420001F938B01F42E28988F7180620E94601B9D
:10143000C8016F2D0E94481B289A1F910F91FF90A1
:101440000895BC0180E145E00E940E0A0895BC01A8
:101450002C988AE045E00E940E0A2C9A08950F937A
:101460001F93DF93CF9300D0CDB7DEB780E06DE060
:101470000E94CA0983E061E00E94CA0980912B049E
:1014800090912C0499838A831B8280E18E010F5FE7
:101490001F4FB80143E00E940E0A8AE0B80143E002
:1014A0000E940E0A81E061E00E94CA0982E061E0C8
:1014B0000E94CA0984E062E10E94CA0985E068E2EC
:1014C0000E94CA0981E16DE00E94CA09289880E55E
:1014D0000E94601B83E70E94601B289A8CE161E0F8
:1014E0000E94CA098DE166E00E94CA0980E06FE0AF
:1014F0000E94CA090F900F900F90CF91DF911F911A
:101500000F9108952C9A289A0E942F0A0895FF920D
:101510000F931F938B01F42E28988F710E94601BEC
:10152000C801B8014F2D0E94211B289A1F910F91CD
:10153000FF900895DF93CF930F92CDB7DEB7198256
:1015400087E1BE016F5F7F4F41E00E94870A89817A
:1015500081700F90CF91DF9108950F931F938C01AD
:10156000289881E60E94601BC801B8014DE00E94E6
:10157000211B289A87E060E40E94CA091F910F91FD
:1015800008950F931F930E94DD09882309F453C324
:1015900080912D04826080932D0487E060E70E9493
:1015A000CA0987E895E00E94AD0A0E94D709809198
:1015B00087058823B9F480918805882399F4809160
:1015C0008905882379F480918A05883059F48091BF
:1015D0008B05882339F480918C05882319F48CE3DA
:1015E0000E94201D20918B05822F90E08F779070B4
:1015F00090932A0480932904E0918C054E2F50E0AB
:101600004F7750705093280440932704BC01660F15
:10161000771F660F771F27FF05C07093180460932C
:10162000170408C088279927861B970B90931804E6
:10163000809317049A01220F331F220F331FE7FFF5
:1016400005C030931A042093190408C088279927ED
:10165000821B930B90931A048093190480911704B2
:10166000909118048150924034F080E092E0909381
:101670001804809317048091190490911A048150E2
:10168000924034F080E092E090931A048093190421
:10169000809117049091180480509E4F34F480E09C
:1016A0009EEF9093180480931704809119049091F1
:1016B0001A0480509E4F34F480E09EEF90931A04F9
:1016C000809319048091870590E090938005809322
:1016D0007F052091880530E03093820520938105B5
:1016E000E0918905F0E0F0938405E09383050FEF26
:1016F00010E0AC01409FC001419F900D509F900DA4
:10170000112464E670E00E940622462F4095409323
:101710000C02209FC001219F900D309F900D11243D
:1017200064E670E00E940622609560930E02E09FDE
:10173000C001E19F900DF09F900D112464E670E0D0
:101740000E940622609560930D02842F0E94C708B4
:1017500080910D020E94DD0880910E020E94F30824
:1017600080918A05982F80FF02C0449801C0449A56
:1017700091FF02C0459801C0459A92FF04C081E0E4
:101780008093110202C01092110294FF02C00E94C5
:10179000251690918A0596FF04C081E080935E052E
:1017A00002C010925E0597FF04C081E080935F0540
:1017B00002C010925F0580918D0580FF04C080916A
:1017C0000B018E7F03C080910B01816080930B0120
:1017D00080918D0581FF04C080910B018D7F03C036
:1017E00080910B01826080930B0180918D0582FFB7
:1017F00004C080910B018B7F03C080910B0184603A
:1018000080930B0180918D0583FF02C0A39801C0D6
:10181000A39A80918D0584FF04C080910B018F7E77
:1018200003C080910B01806180930B0180918D0535
:1018300085FF04C080910B018F7D03C080910B0157
:10184000806280930B0180918D0586FF04C080919A
:101850000B018F7B03C080910B01806480930B018F
:1018600080918D0587FF04C080910B018F7703C0A5
:1018700080910B01806880930B0180910B02809313
:101880006F05853009F4D2C0863030F4833059F0CA
:10189000843009F0CBC177C0863009F421C187308C
:1018A00009F0C4C170C180917F039091800380933F
:1018B0007005892F990F990B809371058091810391
:1018C0009091820380937205892F990F990B8093D1
:1018D0007305809183039091840380937405892F0D
:1018E000990F990B809375058091850390918603DC
:1018F00080937605892F990F990B809377058091B6
:10190000890390918A0380937805892F990F990B09
:101910008093790580918B0390918C0380937A0555
:10192000892F990F990B80937B0580918D0390915E
:101930008E0380937C05892F990F990B80937D05E9
:1019400020910301809103014091030190E0807296
:10195000907075E0959587957A95E1F7880F991FB6
:10196000441F4427441F440F440F482B30E020718C
:10197000307054E0359527955A95E1F7422B409306
:101980007E0584E051C18091870390918803809304
:101990007005892F990F990B8093710580918F03A2
:1019A0009091900380937205892F990F990B8093E2
:1019B0007305809191039091920380937405892F10
:1019C000990F990B809375058091930390919403DF
:1019D00080937605892F990F990B809377058091D5
:1019E00095039091960380937805892F990F990B11
:1019F0008093790580913B0590913C0580937A0511
:101A0000892F990F990B80937B0580913D059091CB
:101A10003E0580937C05892F990F990B80937D0556
:101A20008091360580937E0585E0FEC080914F034E
:101A3000909150038093700580914F0390915003D3
:101A40009093710580915303909154038093720594
:101A500080915303909154039093730580915703A1
:101A60009091580380937405809157039091580387
:101A70009093750580915B0390915C03809376054C
:101A800080915B0390915C03909377058091630351
:101A9000909164038093780580916303909164032F
:101AA00090937905809167039091680380937A05FC
:101AB000809167039091680390937B0580916B03FD
:101AC00090916C0380937C0580916B0390916C03E3
:101AD00090937D0580915A0580937E0586E0A4C091
:101AE00080915F03909160038093700580915F0304
:101AF000909160039093710580916F0390917003B2
:101B00008093720580916F03909170039093730599
:101B10008091730390917403809374058091730393
:101B20009091740390937505809177039091780359
:101B30008093760580917703909178039093770551
:101B400080917B0390917C038093780580917B0347
:101B500090917C039093790580913F059091400589
:101B600080937A05892F990F990B80937B0580913B
:101B7000E3039091E40380937C0590937D0510929C
:101B80007E0587E051C08091FB039091FC03A091FA
:101B9000FD03B091FE0380937005292F3A2F4B2F40
:101BA000552747FD5A95209371059D01552737FD0F
:101BB0005095452F209372058B2FBB2787FDB0953D
:101BC0009B2FAB2F809373058091F7039091F803BF
:101BD000A091F903B091FA0380937405292F3A2F4D
:101BE0004B2F552747FD5A95209375059D01552785
:101BF00037FD5095452F209376058B2FBB2787FD0A
:101C0000B0959B2FAB2F809377051092780510929B
:101C1000790510927A0510927B0510927C0510923E
:101C20007D0510927E0583E080930B028FE695E0A0
:101C300060E10E94A9091F910F9108950F931F93CE
:101C4000CF93DF93E0E9F0E01082A1E9B0E01C92CD
:101C500021E730E0E901188240EA50E0EA01188209
:101C600061EA70E0EB01188202E710E0E8011882F7
:101C70008081836880838081836080838C918B6086
:101C80008C93809113049091140490939900809305
:101C9000980010929B0010929A00D9018C9181605B
:101CA0008C9380818F7580838EB1877E8EB9EA0197
:101CB000888183688883FB0180818B608083809129
:101CC0001504909116049093A9008093A800109297
:101CD000AB001092AA00D8018C9181608C9388810E
:101CE0008F758883E2E0F1E08081877E8083DF91D9
:101CF000CF911F910F910895482F992787FD9095B7
:101D000097FF03C0909581959F4F909328048093EF
:101D100027049C01220F331F220F331F47FD05C0EC
:101D200030931A042093190408C088279927821B2E
:101D3000930B90931A048093190480911904909145
:101D40001A048150924034F080E092E090931A049B
:101D5000809319048091190490911A0480509E4F29
:101D600034F480E09EEF90931A0480931904089550
:101D7000482F992787FD909597FF03C090958195EF
:101D80009F4F90932A04809329049C01220F331FB4
:101D9000220F331F47FD05C030931804209317040A
:101DA00008C088279927821B930B9093180480936F
:101DB000170480911704909118048150924034F0D8
:101DC00080E092E0909318048093170480911704A8
:101DD0009091180480509E4F34F480E09EEF9093D1
:101DE00018048093170408951F920F920FB60F9254
:101DF00011248F939F9380916005882361F0109246
:101E00001604109215041092A9001092A8001092C6
:101E1000AB001092AA00109200041092FF03809170
:101E2000150490911604009739F58091090490915A
:101E30000A0497FD05C081E080934E038EE004C044
:101E400081E080934E038FE080934B0381E0809389
:101E50000A028091A0008F758093A00080910201FA
:101E6000877E8093020180917200897F8093720047
:101E700089B3866089BB3EC018161906ECF410922F
:101E80004E038FE080934B038091A0008F7D809361
:101E9000A000809172008B7F80937200809102017C
:101EA0008F7E809302018091A00080688093A000C3
:101EB0008091720082601CC010924E038EE080936D
:101EC0004B038091A0008F778093A00080917200D7
:101ED0008D7F8093720080910201877F8093020141
:101EE0008091A00080628093A00080917200846045
:101EF000809372009F918F910F900FBE0F901F9053
:101F000018951F920F920FB60F9211248F939F93E3
:101F100091E090934E038EE080934B0390930A02DE
:101F20009F918F910F900FBE0F901F9018951F9249
:101F30000F920FB60F9211248F939F9391E090937D
:101F40004E038FE080934B0390930A029F918F91F1
:101F50000F900FBE0F901F9018951F920F920FB603
:101F60000F9211248F939F9380916005882361F0D5
:101F70001092140410921304109299001092980079
:101F800010929B0010929A00109202041092010489
:101F90008091130490911404009729F5809107040F
:101FA0009091080497FD05C081E080934D038CE07B
:101FB00004C081E080934D038DE080934C0381E069
:101FC00080930902809190008F75809390008EB16C
:101FD000877E8EB980917100897F8093710088B36C
:101FE000866088BB36C018161906CCF410924D03D3
:101FF0008DE080934C03809190008F7D80939000C2
:10200000809171008B7F8093710074988091900013
:1020100080688093900080917100826018C0109257
:102020004D038CE080934C03809190008F778093D8
:102030009000809171008D7F8093710073988091E2
:102040009000806280939000809171008460809302
:1020500071009F918F910F900FBE0F901F90189558
:102060001F920F920FB60F9211248F939F9391E0BE
:1020700090934D038CE080934C03909309029F91C1
:102080008F910F900FBE0F901F9018951F920F9277
:102090000FB60F9211248F939F9391E090934D036D
:1020A0008DE080934C03909309029F918F910F9044
:1020B0000FBE0F901F90189580910702882309F496
:1020C00041C080910B0490910C049695879596954C
:1020D00087959093100480930F041092070210923A
:1020E0000C0410920B042091190430911A04FC0185
:1020F00063E0F595E7956A95E1F74091FB03509110
:10210000FC036091FD037091FE0337FD0AC0CF010F
:10211000AA2797FDA095BA2F480F591F6A1F7B1F4A
:1021200009C0CF01AA2797FDA095BA2F481B590BCC
:102130006A0B7B0B4093FB035093FC036093FD03FE
:102140007093FE0380910802882309F441C08091B6
:102150000D0490910E04969587959695879590938A
:102160001204809311041092080210920E0410922F
:102170000D042091170430911804FC0143E0F595FB
:10218000E7954A95E1F74091F7035091F803609184
:10219000F9037091FA0337FD0AC0CF01AA2797FD12
:1021A000A095BA2F480F591F6A1F7B1F09C0CF0186
:1021B000AA2797FDA095BA2F481B590B6A0B7B0BDA
:1021C0004093F7035093F8036093F9037093FA0375
:1021D0008091170490911804909324048093230411
:1021E0008091190490911A049093260480932504F9
:1021F00080915E05882331F085E294E063E274E02B
:102200000E94D503409125045091260450930A045E
:10221000409309042091230430912404309308044E
:10222000209307045093160440931504309314042C
:1022300020931304121613062CF430939900209364
:10224000980014C02115310549F088279927821B71
:10225000930B90939B0080939A0008C01092990072
:102260001092980010929B0010929A001416150676
:102270002CF45093A9004093A800089541155105EE
:1022800049F088279927841B950B9093AB00809386
:10229000AA0008951092A9001092A8001092AB0015
:1022A0001092AA0008958091190490911A049093B5
:1022B000260480932504809117049091180490932C
:1022C00024048093230480915E05882331F085E205
:1022D00094E063E274E00E94D503E0912504F0915C
:1022E0002604F0930A04E09309048091230490915A
:1022F00024049093080480930704809107028823A4
:1023000009F46EC080910B0490910C04969587950A
:10231000969587959093100480930F04109207026E
:1023200010920C0410920B04BC0183E07595679524
:102330008A95E1F72091FB033091FC034091FD0366
:102340005091FE03F7FD0AC0CB01AA2797FDA09587
:10235000BA2F280F391F4A1F5B1F09C0CB01AA27BC
:1023600097FDA095BA2F281B390B4A0B5B0B2093C6
:10237000FB033093FC034093FD035093FE038091D5
:102380001602813029F485E294E00E94301A04C0DC
:1023900085E294E00E9428172091250430912604BC
:1023A0003093160420931504121613062CF4309360
:1023B000A9002093A80014C02115310549F08827F1
:1023C0009927821B930B9093AB008093AA0008C0BF
:1023D0001092A9001092A8001092AB001092AA00CF
:1023E00080910802882309F472C080910D049091B5
:1023F0000E049695879596958795909312048093F1
:1024000011041092080210920E0410920D042091F3
:10241000070430910804FC01A3E0F595E795AA951F
:10242000E1F74091F7035091F8036091F90370913F
:10243000FA0337FD0AC0CF01AA2797FDA095BA2F4E
:10244000480F591F6A1F7B1F09C0CF01AA2797FD9C
:10245000A095BA2F481B590B6A0B7B0B4093F703CF
:102460005093F8036093F9037093FA038091160276
:10247000813029F483E294E00E945E1904C083E273
:1024800094E00E9443182091230430912404309357
:10249000140420931304121613062CF4309399009D
:1024A0002093980008952115310549F08827992730
:1024B000821B930B90939B0080939A000895109237
:1024C00099001092980010929B0010929A00089523
:1024D00085B7806185BF9FEF91B912B887EF84B946
:1024E00080EE85B980EF87B980EB88B98CEF8AB927
:1024F00083E08BB99DB91EB810BA93BB90915D056E
:10250000992311F0913011F414BA04C0923011F4EF
:1025100088E084BB8FEF80930101109202018FE06D
:1025200080930401992329F48091050110920501FB
:1025300006C0913011F0923011F480930501109291
:1025400007018FEF80930A01992311F0913019F45C
:1025500010920B010895923019F487EF80930B01CC
:102560000895EF92FF920F931F9380913F059091F2
:10257000400597FF03C0909581959F4F409720F4A9
:1025800081E08093150202C010921502809114021E
:1025900090911502891761F480914F058F5F8093A8
:1025A0004F05853038F010924F059093160202C007
:1025B00010924F059093140260913B0570913C0579
:1025C000882777FD8095982F0E94991F7B018C01A9
:1025D00060913D0570913E05882777FD8095982F85
:1025E0000E94991F9B01AC01C801B7010E94DE2225
:1025F00021EE3EE245E652E40E949F1E0E94F71F34
:10260000CB0170934E0560934D0577FF06C0885946
:102610009E4F90934E0580934D051F910F91FF9013
:10262000EF90089580913A05882309F070C00E94C8
:10263000DD1B809352050E94DD1B809353050E9491
:10264000DD1B809354050E94E71B809355050E9473
:10265000C31B80919605409153057091520550918E
:10266000550560915405882319F1809151059927EA
:1026700087FD9095982F882720915005332727FDB7
:102680003095822B932B90933C0580933B05842FB0
:10269000992787FD9095982F8827272F332727FD87
:1026A0003095822B932B90933E0580933D056DC012
:1026B00020915105332727FD3095322F2227809115
:1026C0005005992787FD9095282B392B809141053E
:1026D00090914205281B390B30933C0520933B0514
:1026E000842F992787FD9095982F8827272F3327A8
:1026F00027FD3095822B932B209143053091440583
:10270000821B930B90933E0580933D057AC08130E8
:1027100009F08EC00E94DD1B809353050E94DD1BD3
:10272000809354050E94E71B809355050E94C31BAC
:10273000809196054091530550915505609154053F
:10274000882381F180915105992787FD9095982FD5
:10275000882720915005332727FD3095822B932B16
:1027600090933C0580933B05242F332727FD30951C
:10277000322F222780915205992787FD9095282B8B
:10278000392B30933E0520933D05852F992787FDF2
:102790009095982F8827262F332727FD3095822B59
:1027A000932B41C020915105332727FD3095322FBF
:1027B000222780915005992787FD9095282B392B4A
:1027C0008091410590914205281B390B30933C05BF
:1027D00020933B05242F332727FD3095322F2227C6
:1027E00080915205992787FD9095282B392B809150
:1027F000430590914405281B390B30933E052093E7
:102800003D05852F992787FD9095982F8827262F9E
:10281000332727FD3095822B932B2091450530914E
:102820004605821B930B9093400580933F050895C6
:1028300010923C0510923B0510923E0510923D050A
:102840001092400510923F050895809113020E9456
:10285000721B8823E1F48DE20E94CB1B88E00E946A
:10286000CB1B0E94C31B809113020E94721B882302
:1028700071F481E30E94CB1B80E00E94CB1B0E947D
:10288000C31B809113020E94721B882321F00E94B7
:10289000C31B81E008958CE20E94CB1B89E00E945B
:1028A000CB1B0E94C31B80E00895809113020E94FD
:1028B000721B882321F00E94C31B81E0089586E1EA
:1028C0000E94CB1B85E40E94CB1B0E94C31B80E0AF
:1028D000089580913A058823A9F4809113020E94FB
:1028E000721B80E00E94CB1B809113028F5F0E94BD
:1028F000C01B0E94DD1B809350050E94DD1B80934E
:10290000510508958130C9F4809113020E94721B11
:1029100082E30E94CB1B809113028F5F0E94C01B39
:102920000E94DD1B809350050E94DD1B80935105A2
:102930000E94DD1B80935205089510923C05109271
:102940003B0510923E0510923D05109240051092F5
:102950003F050895EF92FF920F931F93DF93CF935C
:1029600000D000D0CDB7DEB780913A05882371F54D
:10297000809113020E94721B80E00E94CB1B809109
:1029800013028F5F0E94C01B8E010F5F1F4F96E0E6
:10299000E92EF12CEC0EFD1E0E94DD1BF801819347
:1029A0008F01EE15FF05C1F70E94E71B182F8E83DC
:1029B0000E94C31B809196059A8129814C815B817D
:1029C000612F772767FD7095ED8130C0813009F068
:1029D00095C0809113020E94721B82E30E94CB1B60
:1029E000809113028F5F0E94C01B8E010F5F1F4FEB
:1029F00086E0E82EF12CEC0EFD1E0E94DD1BF80196
:102A000081938F01EE15FF05C1F70E94E71B182F78
:102A10008E830E94C31B809196059A8129814C81E7
:102A20005B81ED81612F772767FD7095882341F1E8
:102A3000892F992787FD9095982F8827332727FD81
:102A40003095822B932B90933C0580933B05842FEC
:102A5000992787FD9095982F8827252F332727FDC5
:102A60003095822B932B90933E0580933D05962FB6
:102A700088272E2F332727FD3095822B932B39C0A3
:102A8000892F992787FD9095982F8827332727FD31
:102A90003095822B932B2091410530914205821B6A
:102AA000930B90933C0580933B05842F992787FDDA
:102AB0009095982F8827252F332727FD3095822B37
:102AC000932B2091430530914405821B930B9093E7
:102AD0003E0580933D05962F88272E2F332727FD0F
:102AE0003095822B932B2091450530914605821B12
:102AF000930B9093400580933F050CC010923C05CA
:102B000010923B0510923E0510923D051092400533
:102B100010923F0526960FB6F894DEBF0FBECDBFCC
:102B2000CF91DF911F910F91FF90EF900895EF9259
:102B3000FF920F931F9380913A05882331F480917F
:102B400013020E94721B80E008C0813009F058C057
:102B5000809113020E94721B82E30E94CB1B809122
:102B600013028F5F0E94C01B0E94DD1BE82E0E9493
:102B7000DD1B082F0E94DD1BF82E0E94E71B182F7B
:102B80000E94C31B80919605202F332727FD309587
:102B90004E2D552747FD5095612F772767FD70957E
:102BA000EF2DFF27E7FDF095882369F0922F882706
:102BB000842B952B90933C0580933B05962F88277B
:102BC0008E2B9F2B18C0922F8827842B952B20911A
:102BD000410530914205821B930B90933C058093F5
:102BE0003B05962F88278E2B9F2B209143053091F4
:102BF0004405821B930B90933E0580933D0508C0CE
:102C000010923C0510923B0510923E0510923D0536
:102C10001F910F91FF90EF9008950E946A1B0E94F0
:102C20005514882389F086EA90E0909314028093EB
:102C300013020E942514882321F082E080933A0534
:102C4000089581E080933A0508950F931F93CF93E1
:102C5000DF9310920C0210920D0210920E0280E08F
:102C60000E94C70880910D020E94DD0880910E022B
:102C70000E94F30810925C0510925B0581E080933E
:102C8000960501E010E0C8C00E94AA1460915B059F
:102C900070915C05613171050CF074C08091E603A0
:102CA000882309F4B9C01092E60361157105F9F49F
:102CB000EFEAF3E0A7E9B3E01192119211921192B9
:102CC0001D921D9283E0EF3DF807B1F71092480581
:102CD0001092470510924A051092490510924C0532
:102CE00010924B0510935C0500935B0595C0EFEACD
:102CF000F3E0CFE7D3E029913991442737FD4095A0
:102D0000542F80819181A281B381820F931FA41FD0
:102D1000B51F81939193A193B19383E0EF3DF807A1
:102D200051F7809147059091480520913B053091DE
:102D30003C05820F931F909348058093470580912F
:102D4000490590914A0520913D0530913E05820F3D
:102D5000931F90934A058093490580914B0590916C
:102D60004C0520913F0530914005820F931F9093B1
:102D70004C0580934B056F5F7F4F70935C056093AC
:102D80005B054AC0EFEAF3E0C7E9D3E08191919196
:102D9000A191B19154E0B695A795979587955A95CD
:102DA000D1F78993999383E0EF3DF80779F7E7EA44
:102DB000F3E080819181805092408193919383E0F0
:102DC000EF3AF807B1F7809147059091480544E044
:102DD000959587954A95E1F7909342058093410533
:102DE0008091490590914A0534E0959587953A95EB
:102DF000E1F7909344058093430580914B059091B2
:102E00004C0524E0959587952A95E1F79093460522
:102E1000809345051092960580919605882309F0C8
:102E200033CF8FEF80930C0280930D0280930E02BC
:102E30000E94C70880910D020E94DD0880910E0259
:102E40000E94F308DF91CF911F910F91089508958B
:102E5000DC018D919C911197009769F410922004E8
:102E600010921F0410926C0510926B05109286054B
:102E700010928505089540914D0550914E0521E031
:102E80004E3052074CF0181619061CF428E631E0B3
:102E900018C088E691E00BC0443B51051CF44A354C
:102EA0005105B4F01816190654F484EB90E0841B15
:102EB000950B959587959595879549961CC024EB1C
:102EC00030E0241B350B35952795359527950FC098
:102ED0009A013595279535952795181619063CF4CE
:102EE000275E3F4F309304022093030208C089E11C
:102EF00090E0821B930B9093040280930302E09175
:102F00006B05F0916C05F0938605E09385058D9136
:102F10009C91119720910F043091100497FD03C0EC
:102F2000821B930B02C0820F931F90936C058093BA
:102F30006B0560916B0570916C0580911F049091F9
:102F40002004860F971F9093200480931F0426E08F
:102F5000813492071CF080E496E005C0805C994FB4
:102F600034F480EC99EF9093200480931F048091B7
:102F70001F0490912004AC01440F551F480F591FA6
:102F8000CB01880F991F9B01220F331F220F331F84
:102F9000220F331F820F931F480F591FE61BF70B99
:102FA000EE0FFF1F4E0F5F1F2D913C9111978091E7
:102FB000030290910402BC01269FC001279F900D3F
:102FC000369F900D1124480F591F50931E044093B3
:102FD0001D0457FF0FC011968C911197992787FDFB
:102FE0009095990F880B982F8423952390931E0416
:102FF00080931D0480911D0490911E0418161906DB
:103000004CF48D919C91119797FF04C010921E046F
:1030100010921D0480911D0490911E04815C9D45B9
:1030200034F080EC9DE590931E0480931D04809104
:103030001D0490911E048054924A34F480E492EA74
:1030400090931E0480931D0480911D0490911E0492
:1030500024E0959587952A95E1F711969C938E9398
:10306000815092402CF080E092E011969C938E93D8
:103070008D919C91119780509E4F24F480E09EEF9B
:103080008D939C930895DC018D919C9111970097ED
:1030900069F4109222041092210410929505109266
:1030A000940510926E0510926D05089540914D059E
:1030B00050914E0521E04E3052074CF0181619067B
:1030C0001CF428E631E018C088E691E00BC0443BD0
:1030D00051051CF44A355105B4F01816190654F47C
:1030E00084EB90E0841B950B959587959595879536
:1030F00049961CC024EB30E0241B350B35952795F1
:10310000359527950FC09A013595279535952795C3
:10311000181619063CF4275E3F4F309306022093A1
:10312000050208C089E190E0821B930B9093060290
:1031300080930502E0919405F0919505F0936E055A
:10314000E0936D058D919C91119720911104309120
:10315000120497FD03C0821B930B02C0820F931FC2
:1031600090939505809394056091940570919505D1
:103170008091210490912204860F971F909322043E
:103180008093210426E0813492071CF080E496E0CD
:1031900005C0805C994F34F480EC99EF9093220441
:1031A000809321048091210490912204AC01440F6A
:1031B000551F480F591FCB01880F991F9B01220FE4
:1031C000331F220F331F220F331F820F931F480F0D
:1031D000591FE61BF70BEE0FFF1F4E0F5F1F2D91C0
:1031E0003C9111978091050290910602BC01269FA7
:1031F000C001279F900D369F900D1124480F591F35
:1032000050931C0440931B0457FF0FC011968C91E0
:103210001197992787FD9095990F880B982F8423F4
:10322000952390931C0480931B0480911B04909120
:103230001C04181619064CF48D919C91119797FF58
:1032400004C010921C0410921B0480911B049091E6
:103250001C04815C9D4534F080EC9DE590931C043A
:1032600080931B0480911B0490911C048054924A0B
:1032700034F480E492EA90931C0480931B048091C0
:103280001B0490911C0474E0959587957A95E1F75D
:1032900011969C938E93815092402CF080E092E0A6
:1032A00011969C938E938D919C91119780509E4F77
:1032B00024F480E09EEF8D939C930895FC0180811F
:1032C0009181892B69F410922204109221041092AA
:1032D00095051092940510926E0510926D05089553
:1032E000609194057091950570936E0560936D05DE
:1032F00080819181409111045091120497FD03C087
:10330000841B950B02C0840F951F909395058093A5
:103310009405209194053091950580912104909118
:103320002204820F931F909322048093210446E08D
:10333000813494071CF080E496E005C0805C994FCE
:1033400034F480EC99EF909322048093210440910F
:10335000210450912204440F551F89E190E0DC01C3
:103360002A9FC0012B9F900D3A9F900D1124480F6A
:10337000591FCB01821B930B9C01880F991F820F51
:10338000931F480F591F80819181B3E0880F991FC7
:10339000BA95E1F7480F591F50931C0440931B0442
:1033A00057FF0DC08181992787FD9095990F880B54
:1033B000982F8423952390931C0480931B04809161
:1033C0001B0490911C041816190644F48081918105
:1033D00097FF04C010921C0410921B0480911B04E0
:1033E00090911C04815C9D4534F080EC9DE59093A8
:1033F0001C0480931B0480911B0490911C04805436
:10340000924A34F480E492EA90931C0480931B0463
:1034100080911B0490911C0474E0959587957A9592
:10342000E1F7918380831816190614F44E9603C0B1
:10343000009719F04E97918380838081918181500C
:10344000924024F080E092E091838083808191819A
:1034500080509E4F24F480E09EEF918380830895F6
:10346000FC0180819181892B69F4109220041092D3
:103470001F0410926C0510926B0510928605109235
:103480008505089560916B0570916C0570938605B4
:10349000609385058081918140910F0450911004C3
:1034A00097FD03C0841B950B02C0840F951F90935A
:1034B0006C0580936B0520916B0530916C058091B4
:1034C0001F0490912004820F931F909320048093F7
:1034D0001F0446E0813494071CF080E496E005C0A8
:1034E000805C994F34F480EC99EF909320048093A2
:1034F0001F0440911F0450912004440F551F89E17F
:1035000090E0DC012A9FC0012B9F900D3A9F900D07
:103510001124480F591FCB01821B930B9C01880F6C
:10352000991F820F931F480F591F8081918133E0AB
:10353000880F991F3A95E1F7480F591F50931E04C1
:1035400040931D0457FF0DC08181992787FD9095F9
:10355000990F880B982F8423952390931E048093B2
:103560001D0480911D0490911E041816190644F440
:103570008081918197FF04C010921E0410921D0457
:1035800080911D0490911E04815C9D4534F080EC77
:103590009DE590931E0480931D0480911D049091DD
:1035A0001E048054924A34F480E492EA90931E04FC
:1035B00080931D0480911D0490911E04B4E09595A4
:1035C0008795BA95E1F7918380831816190614F44C
:1035D0004E9603C0009719F04E97918380838081A7
:1035E00091818150924024F080E092E09183808329
:1035F0008081918180509E4F24F480E09EEF9183E2
:103600008083089520912E0480E090E0019637E2B7
:103610008031930708F021E00DB407FEF7CF209327
:103620002E04089584B1807F84B984B1876084B901
:1036300080E58CBD8DB581608DBD08951CBC1DBC21
:103640000895DF92EF92FF920F931F93CF93DF9332
:103650007C01D42E8B01C0E0D0E010C0F701EC0F4C
:10366000FD1F80818EBD0E94021B80912E04882345
:1036700039F48EB5F80181938F012196CD1570F341
:10368000DF91CF911F910F91FF90EF90DF90089500
:103690000F931F93CF93DF93062FEC0110E009C027
:1036A00089918EBD0E94021B80912E04882319F4FB
:1036B0001F5F1017A8F3DF91CF911F910F9108950D
:1036C0008EBD0E94021B8EB508951092B800109214
:1036D000BC000895589A599A1092B90081E08093DD
:1036E000B8000895982F84EA8093BC008091BC00B4
:1036F00087FFFCCF8091B900887F883021F080312E
:1037000011F081E008959093BB0084E88093BC00A1
:103710008091BC0087FFFCCF9091B900987F9831D1
:1037200011F480E0089580E0903409F081E008957C
:10373000982F44EA34E824E94093BC008091BC000F
:1037400087FFFCCF8091B900887F883011F08031ED
:1037500099F79093BB003093BC008091BC0087FF29
:10376000FCCF8091B900887F803211F0883539F420
:103770002093BC008091BC0084FDFCCFDDCF089578
:103780000E94721B089584E98093BC008091BC0064
:1037900084FDFCCF08958093BB0084E88093BC0037
:1037A0008091BC0087FFFCCF8091B90090E0887FBA
:1037B000883209F091E0892F089584EC8093BC0051
:1037C0008091BC0087FFFCCF8091BB00089584E806
:1037D0008093BC008091BC0087FFFCCF8091BB0030
:1037E00008951092C50080E18093C400E0ECF0E001
:1037F000808182608083E1ECF0E080818869808351
:10380000E2ECF0E080818660808308951092CD0024
:1038100080E18093CC00E8ECF0E0808182608083DE
:10382000E9ECF0E0808188618083EAECF0E080815F
:103830008660808308951092C0001092C10010929B
:10384000C2000895982F8091C00085FFFCCF90930F
:10385000C600662321F08091C00086FFFCCF08954A
:10386000982F8091C80085FFFCCF9093CE006623EF
:1038700021F08091C80086FFFCCF08958091C000A0
:103880008095881F8827881F089520E030E005C0B4
:1038900081E08093310480E008958091C00087FF2B
:1038A00003C08091C60008952F5F3F4F273931052F
:1038B000A1F7EECF1F920F920FB60F920BB60F9299
:1038C00011242F938F939F93EF93FF938091320452
:1038D0009091330401969093330480933204815085
:1038E000914060F4809134059091C600E82FF0E09B
:1038F000EC5CFB4F90838F5F80933405FF91EF91D9
:103900009F918F912F910F900BBE0F900FBE0F9034
:103910001F90189586B146B126B166B130E0287087
:103920003070F3E035952795FA95E1F7220F331FB4
:1039300050E0447050705595479555954795240F24
:10394000351F220F331F70E0627070707595679598
:10395000260F371F220F331F8170820F08951F9289
:103960000F920FB60F9211240F900FBE0F901F9061
:103970001895609156057091570580915805909162
:103980005905089581E08093E5030895F89414BCE7
:1039900015BC10926E0010922001109221018EEF42
:1039A0009FE00E94802490932C0480932B048DEF41
:1039B0009FE00E947824982F80936A0581508E3F63
:1039C00018F49093660008C06091660060936A05E1
:1039D0008DEF9FE00E94862420912B0430912C04CF
:1039E000C90181589C40039710F410925D058CE04A
:1039F0002038380711F481E004C024583C4018F006
:103A000082E080935D050E9468120E9410010E946E
:103A10001E0E0E948A080E94121B0E94820A809138
:103A20002E04882329F480912D04816080932D0435
:103A30000E94F11B0E940D160E947405789408954F
:103A4000CF93DF939EE1899FE0011124809168006C
:103A50008D7F8093680080916C008F7780936C00DD
:103A6000D99A10927A0080917A00806180937A00CE
:103A700010929000109291001092710088B38760AC
:103A800088BB1092A0001092A1001092720089B31E
:103A9000876089BB10928000109281000E941B1CDD
:103AA0000E941E1B0E94651B0E94681283B78F60D4
:103AB00083BF81E0809370008091B0008D7F809300
:103AC000B0008091B10087608093B10002C08895FA
:103AD00021972097E1F713BE8091B100887F8093F2
:103AE000B100109270008091B00082608093B000AD
:103AF0008FEF80930C0280930D0280930E02109240
:103B000014041092130410921604109215040E94CB
:103B1000C61CDF91CF9108958091910390919203FB
:103B20008955924044F420E080919303909194034E
:103B3000895592400CF021E0822F0895CF93DF93B6
:103B4000C0E0D0E08FE00E947C0E8FE00E94B80EB3
:103B50000E945311219680E8C83ED80799F7DF915B
:103B6000CF9108950F931F93CF93DF938C01C0E003
:103B7000D0E003C00E949E1D2196C017D107D4F348
:103B8000DF91CF911F910F910895882341F080E03C
:103B90000E947C0E80E00E94B80E0E94531108958E
:103BA000CF93DF93C0E0D0E08AE00E947C0E86EFE6
:103BB0000E94B80E0E945311219686EDC83DD80789
:103BC00099F7DF91CF910895CF93DF93C0E0D0E0D4
:103BD0008AE00E947C0E86EF0E94B80E0E9453116C
:103BE00021968BE6CC36D80799F7DF91CF910895CF
:103BF000CF93DF93C0E0D0E086EF0E947C0E8AE096
:103C00000E94B80E0E94531121968BE6CC36D8073D
:103C100099F7DF91CF910895109264051092650590
:103C2000109266051092670580917F039091800342
:103C3000885391401CF481E0809364058091830354
:103C400090918403885391401CF481E08093650532
:103C50008091870390918803885391401CF481E000
:103C60008093660580918B0390918C0388539140DB
:103C70001CF481E080936705089590916805913068
:103C800071F0913028F0923089F0933059F519C0D5
:103C90008C3491F08234B9F08235F9F418C08C3448
:103CA000E1F0823449F0823549F40DC08C3479F06A
:103CB000823499F0823511F483E00AC0909368054C
:103CC00008958C3411F482E003C0823421F481E041
:103CD000809368050895823519F410926805089557
:103CE00090936805089581E00E94C51D8091170298
:103CF000805D61E00E94221C83E090E090931802B6
:103D00008093170283E361E00E94221CFFCF81E0D1
:103D100090E00E94B21D06C00E94C51D0E94731E45
:103D200010926305809163058823B1F708950E947E
:103D3000E41D81E0809363050E94871E0895A0E240
:103D4000B0E0E5EAFEE10C942D2269837A838B834F
:103D50009C832D833E834F835887CE010196BE01FD
:103D6000675F7F4F0E946F21CE010596BE016F5E97
:103D70007F4F0E946F219985923088F08989823027
:103D8000C8F0943019F4823051F404C0843029F41E
:103D9000923081F487E392E0C6C0923049F420E08B
:103DA0009A858A89981321E02A87CE010996BBC09B
:103DB000823049F420E09A858A89981321E02A8B81
:103DC000CE014196B0C02D843E844F8458886D88C2
:103DD0007E888F88988CEE24FF248701AA24BB2438
:103DE000650140E050E060E070E0E0E0F0E0C1013B
:103DF00081709070892BE9F0E60CF71C081D191DE5
:103E00009A01AB012A0D3B1D4C1D5D1D80E090E029
:103E1000A0E0B0E0E614F7040805190520F481E0FD
:103E200090E0A0E0B0E0BA01A901480F591F6A1F55
:103E30007B1FAA0CBB1CCC1CDD1C97FE08C081E0BC
:103E400090E0A0E0B0E0A82AB92ACA2ADB2A31967D
:103E5000E032F10549F0660C771C881C991C5694D9
:103E6000479437942794C3CFFA85EA892B893C89F4
:103E70008B859C85280F391F2E5F3F4F17C0CA01C5
:103E800081709070892B61F016950795F794E794EF
:103E900080E090E0A0E0B0E8E82AF92A0A2B1B2B8A
:103EA00076956795579547952F5F3F4F77FDE7CFFD
:103EB0000CC0440F551F661F771F17FD4160EE0CA5
:103EC000FF1C001F111F21503040403090E0590767
:103ED00090E0690790E4790760F32B8F3C8FDB015A
:103EE000CA018F779070A070B07080349105A105E1
:103EF000B10561F447FD0AC0E114F10401051105A3
:103F000029F0405C5F4F6F4F7F4F40781A8EFE174D
:103F100011F081E08A8F4D8F5E8F6F8F78A383E0E1
:103F2000898FCE0149960E949A20A096E2E10C94D6
:103F30004922A8E0B0E0EFE9FFE10C9436229B01B2
:103F4000AC0183E08983DA01C9018827B7FD839535
:103F50009927AA27BB27B82E211531054105510500
:103F600019F482E089833AC08823A9F0203080E0E8
:103F7000380780E0480780E8580729F460E070E0DF
:103F800080E09FEC30C0EE24FF248701E21AF30AA0
:103F9000040B150B02C079018A018EE1C82ED12CC9
:103FA000DC82CB82ED82FE820F831887C801B701C5
:103FB0000E944B2001971816190684F4082E04C09D
:103FC000EE0CFF1C001F111F0A94D2F7ED82FE8237
:103FD0000F831887C81AD90ADC82CB82BA82CE0135
:103FE00001960E949A202896E9E00C945222ACE0B7
:103FF000B0E0EDEFFFE10C943D2269837A838B837F
:104000009C83CE010196BE016B5F7F4F0E946F21A2
:104010008D81823061F1823050F1843021F48E81C3
:10402000882351F12EC02F81388537FD20C06E8145
:104030002F3131051CF06623F9F023C08EE190E0AA
:10404000821B930B29853A854B855C8504C0569568
:104050004795379527958A95D2F76623B1F0509505
:104060004095309521953F4F4F4F5F4F0EC020E058
:1040700030E040E050E009C02FEF3FEF4FEF5FE747
:1040800004C020E030E040E050E8B901CA012C96BD
:10409000E2E00C945922EF92FF920F931F937B0161
:1040A0008C0180E0E81680E0F80681E0080780E0F7
:1040B000180788F48FEFE816F1040105110531F0B7
:1040C00028F088E090E0A0E0B0E017C080E090E049
:1040D000A0E0B0E012C080E0E81680E0F80680E0E2
:1040E000080781E0180728F088E190E0A0E0B0E040
:1040F00004C080E190E0A0E0B0E020E230E040E0E9
:1041000050E0281B390B4A0B5B0B04C01695079532
:10411000F794E7948A95D2F7F701E15CFD4F80812F
:10412000281B310941095109C9011F910F91FF90C5
:10413000EF900895DF92EF92FF920F931F93FC018F
:10414000E480F58006811781D1808081823048F437
:1041500080E090E0A0E1B0E0E82AF92A0A2B1B2BCE
:10416000A5C0843009F49FC0823021F4EE24FF24DE
:10417000870105C0E114F1040105110519F4E0E01F
:10418000F0E096C0628173819FEF623879070CF08E
:104190005BC022E83FEF261B370B2A3131052CF09C
:1041A00020E030E040E050E02AC0B801A701022E34
:1041B00004C076956795579547950A94D2F781E0A4
:1041C00090E0A0E0B0E004C0880F991FAA1FBB1FB9
:1041D0002A95D2F70197A109B1098E219F21A02329
:1041E000B1230097A105B10521F081E090E0A0E0A6
:1041F000B0E09A01AB01282B392B4A2B5B2BDA015B
:10420000C9018F779070A070B07080349105A105BE
:10421000B10539F427FF09C0205C3F4F4F4F5F4F76
:1042200004C0215C3F4F4F4F5F4FE0E0F0E0203093
:10423000A0E03A07A0E04A07A0E45A0710F0E1E046
:10424000F0E079018A0127C06038710564F5FB014F
:10425000E158FF4FD801C7018F779070A070B07000
:1042600080349105A105B10539F4E7FE0DC080E465
:1042700090E0A0E0B0E004C08FE390E0A0E0B0E008
:10428000E80EF91E0A1F1B1F17FF05C0169507959C
:10429000F794E794319687E016950795F794E7949D
:1042A0008A95D1F705C0EE24FF248701EFEFF0E0F7
:1042B0006E2F679566276795902F9F77D794DD249B
:1042C000D7948E2F8695492F462B582F5D29B701FD
:1042D000CA011F910F91FF90EF90DF900895FC01AC
:1042E000DB01408151812281622F6F7770E0221FB4
:1042F0002227221F9381892F880F822B282F30E0BD
:10430000991F9927991F11969C9311972115310593
:10431000A9F5411551056105710511F482E037C019
:1043200082E89FEF13969C938E9312979A01AB01AC
:1043300067E0220F331F441F551F6A95D1F783E0B2
:104340008C930DC0220F331F441F551F12968D9161
:104350009C911397019713969C938E9312972030FC
:1043600080E0380780E0480780E4580758F3149647
:104370002D933D934D935C93179708952F3F3105EF
:1043800079F4411551056105710519F484E08C93A8
:10439000089564FF03C081E08C9312C01C9210C08A
:1043A0002F57304013963C932E93129783E08C93B3
:1043B00087E0440F551F661F771F8A95D1F77064F9
:1043C00014964D935D936D937C9317970895629F18
:1043D000D001739FF001829FE00DF11D649FE00DFD
:1043E000F11D929FF00D839FF00D749FF00D659F5E
:1043F000F00D9927729FB00DE11DF91F639FB00D5D
:10440000E11DF91FBD01CF0111240895AA1BBB1B9B
:1044100051E107C0AA1FBB1FA617B70710F0A61BC4
:10442000B70B881F991F5A95A9F780959095BC01E5
:10443000CD01089597FB092E07260AD077FD04D0F9
:10444000E5DF06D000201AF4709561957F4F08953E
:10445000F6F7909581959F4F08952F923F924F9236
:104460005F926F927F928F929F92AF92BF92CF9204
:10447000DF92EF92FF920F931F93CF93DF93CDB70D
:10448000DEB7CA1BDB0B0FB6F894DEBF0FBECDBF85
:1044900019942A88398848885F846E847D848C8446
:1044A0009B84AA84B984C884DF80EE80FD800C815F
:1044B0001B81AA81B981CE0FD11D0FB6F894DEBF42
:1044C0000FBECDBFED010895AF92BF92CF92DF92A4
:1044D000EF92FF920F931F93CF93DF93EC01A8808D
:1044E000B980CA80DB80A114B104C104D10441F4B5
:1044F00084E2A82E89EDB82E8BE5C82E87E0D82E51
:10450000C601B5012DE133EF41E050E00E940B25DB
:1045100027EA31E440E050E00E94E7217B018C0172
:10452000C601B5012DE133EF41E050E00E940B25BB
:10453000CA01B9012CEE34EF4FEF5FEF0E94E72183
:104540006E0D7F1D801F911F97FF04C0615070404A
:1045500080409048688379838A839B839B013F775F
:10456000C901DF91CF911F910F91FF90EF90DF90E4
:10457000CF90BF90AF9008950E94642208958FE37A
:1045800093E00E9464220895A0E0B0E080933F038E
:1045900090934003A0934103B09342030895F5D054
:1045A00058F080E891E009F49EEFF6D028F040E85A
:1045B00051E059F45EEF09C0C0C028C1E92FE0788E
:1045C00003D168F3092E052AC1F3261737074807D8
:1045D000590738F00E2E07F8E02569F0E025E06471
:1045E0000AC0EF6307F8009407FADB01B9019D01E7
:1045F000DC01CA01AD01EF9341D0D5D00AD05F9163
:10460000552331F02BED3FE049E450FD49EC8DC1DD
:104610000895DF93DD27B92FBF7740E85FE31616D3
:10462000170648075B0710F4D92FF7D09F938F9395
:104630007F936F935AD1EEE4F1E082D0B4D02F9102
:104640003F914F915F91FAD0DD2349F09058A2EA53
:104650002AED3FE049EC5FE3D0785D2777D1DF9129
:10466000A2C09AD040F091D030F021F45F3F19F011
:104670005EC05111CCC061C0A7D098F39923C9F393
:104680005523B1F3951B550BBB27AA276217730758
:10469000840738F09F5F5F4F220F331F441FAA1F0C
:1046A000A9F333D00E2E3AF0E0E830D091505040CC
:1046B000E695001CCAF729D0FE2F27D0660F771F7A
:1046C000881FBB1F261737074807AB07B0E809F05C
:1046D000BB0B802DBF01FF2793585F4F2AF09E3FF1
:1046E000510568F024C093C05F3FECF3983EDCF3C3
:1046F000869577956795B795F7959F5FC9F7880F6A
:10470000911D9695879597F90895E1E0660F771FBB
:10471000881FBB1F621773078407BA0720F0621B4C
:10472000730B840BBA0BEE1F88F7E095089597F989
:104730009F6780E870E060E008959FEF80EC089547
:10474000DF93CF931F930F93FF92EF92DF927B0142
:104750008C01689405C0DA2EEF0170D0FE01E89458
:10476000A5912591359145915591AEF3EF01EED08C
:10477000FE019701A801DA9479F7DF90EF90FF909E
:104780000F911F91CF91DF91089500240A9416167E
:10479000170618060906089500240A94121613062F
:1047A000140605060895092E0394000C11F48823BD
:1047B00052F0BB0F40F4BF2B11F460FF04C06F5FD9
:1047C0007F4F8F4F9F4F089557FD9058440F551FAF
:1047D00059F05F3F71F04795880F97FB991F61F083
:1047E0009F3F79F087950895121613061406551FFA
:1047F000F2CF4695F1DF08C0161617061806991F66
:10480000F1CF86957105610508940895E894BB275A
:1048100066277727CB0197F908959B01AC0160E0EB
:1048200070E080E89FE3E5C0B0DF28F0B5DF18F066
:10483000952309F07CCF81CF1124E9CFC5DFA0F308
:10484000959FD1F3950F50E0551F629FF001729F25
:10485000BB27F00DB11D639FAA27F00DB11DAA1F44
:10486000649F6627B00DA11D661F829F2227B00D91
:10487000A11D621F739FB00DA11D621F839FA00D1C
:10488000611D221F749F3327A00D611D231F849F6C
:10489000600D211D822F762F6A2F11249F575040C3
:1048A0008AF0E1F088234AF0EE0FFF1FBB1F661F5E
:1048B000771F881F91505040A9F79E3F510570F017
:1048C00036CFA5CF5F3FECF3983EDCF38695779526
:1048D0006795B795F795E7959F5FC1F7FE2B880F12
:1048E000911D9695879597F908959B01AC0127CA6C
:1048F000F999FECF92BD81BDF89A992780B50895A8
:10490000A8E1B0E042E050E00C94FD24262FF99994
:10491000FECF1FBA92BD81BD20BD0FB6F894FA9AA2
:10492000F99A0FBE019608955058BB27AA270ED0BA
:104930003ACF2BDF30F030DF20F031F49F3F11F41D
:104940001EF4FBCE0EF4E095E7FBF1CEE92F3CDF41
:1049500080F3BA17620773078407950718F071F49C
:104960009EF554CF0EF4E0950B2EBA2FA02D0B011F
:10497000B90190010C01CA01A0011124FF27591BA4
:1049800099F0593F50F4503E68F11A16F040A22FAA
:10499000232F342F4427585FF3CF4695379527951B
:1049A000A795F0405395C9F77EF41F16BA0B620B1A
:1049B000730B840BBAF09150A1F0FF0FBB1F661F61
:1049C000771F881FC2F70EC0BA0F621F731F841FA4
:1049D00048F4879577956795B795F7959E3F08F0CA
:1049E000B3CF9395880F08F09927EE0F9795879589
:1049F000089542DED8CEDC01CB01FC01F999FECF4F
:104A000006C0F2BDE1BDF89A319600B40D92415056
:104A10005040B8F7089597FB092E05260ED057FD94
:104A200004D014D00AD0001C38F45095409530952D
:104A300021953F4F4F4F5F4F0895F6F79095809522
:104A4000709561957F4F8F4F9F4F0895A1E21A2E69
:104A5000AA1BBB1BFD010DC0AA1FBB1FEE1FFF1F22
:104A6000A217B307E407F50720F0A21BB30BE40B72
:104A7000F50B661F771F881F991F1A9469F76095B9
:104A80007095809590959B01AC01BD01CF01089573
:044A9000F894FFCFC8
:104A940002FFFF190019000101010103FFFFFF05D7
:104AA4000101013A010101000000000000000000C2
:104AB40000010000000000000001000000000000F0
:104AC40000000000000000000000000000000000E2
:104AD400010202030303030404040404040404059C
:104AE4000505050505050505050505050505050671
:104AF4000606060606060606060606060606060652
:104B04000606060606060606060606060606060740
:104B14000707070707070707070707070707070721
:104B24000707070707070707070707070707070711
:104B34000707070707070707070707070707070701
:104B440007070707070707070707070707070708F0
:104B540008080808080808080808080808080808D1
:104B640008080808080808080808080808080808C1
:104B740008080808080808080808080808080808B1
:104B840008080808080808080808080808080808A1
:104B94000808080808080808080808080808080891
:104BA4000808080808080808080808080808080881
:104BB4000808080808080808080808080808080871
:104BC4000808080808080808080808080808080168
:044BD40000000000DD
:00000001FF
